:020000040800F2
:10000000C8060020E1420008613F0008633F000885
:10001000653F0008673F0008693F000800000000D6
:100020000000000000000000000000006B3F00081E
:100030006D3F0008000000006F3F0008713F00089E
:10004000214300082543000829430008F540000823
:100050003143000835430008EF4000083D430008E5
:100060004143000845430008494300084D43000848
:100070005143000855430008594300085D430008F8
:100080006143000865430008694300086D430008A8
:100090007143000875430008794300087D43000858
:1000A0008143000885430008894300088D43000808
:1000B0009143000895430008994300089D430008B8
:1000C000A1430008A5430008A9430008AD43000868
:1000D000B1430008B5430008B9430008BD43000818
:1000E000C1430008C5430008C94300082540000873
:1000F000D9400008022000F0B4FE00F017FEDFF83F
:10010000180C00684FF47A71B0FBF1F0B0F1807F09
:100110000FD2DFF8081C0002000A401E4860F020E1
:1001200081F8130D0020886007200860D02081F836
:10013000130D00F04BFF00F051FD01F0E5F800F069
:10014000B5FD01F0DFF901F05FFBDFF8D40B012111
:1001500080F80010DFF8CC4BDFF8CC5B01F0B6FB89
:1001600000F009F8A8780028F8D00020A8702146EF
:1001700001F07FFDF2E730B581B001F0A7FA01F0A0
:1001800013FA00F03DF8DFF8A04B042001F021FB4A
:1001900018B9042001F081FA18B1206880F4806059
:1001A0002060DFF8505C2068400509D5012001F08F
:1001B00022F8022001F01FF80120287028760AE0BA
:1001C000012001F020F8022001F01DF8012085F83F
:1001D000400085F85800607A50B92068400507D47F
:1001E000012085F8540001B0BDE8304001F0FEBFA9
:1001F0000120287501B0BDE8304001F0F7BF0000D4
:100200002DE9F041DFF8204B607A052800F2E38405
:10021000DFE810F006007F00B000D301D102A40394
:10022000DFF8007B387800F060FF787800F08EFF10
:1002300001F061F818B1072000F0DDFF02E00720AF
:1002400000F0E1FFDFF8CC6ADFF85C5A022001F031
:10025000C0FA18B9022001F020FA80B13878207174
:1002600078786071206820F48050206002206072ED
:100270000020E070287028732871307130700320DE
:1002800001F0A7FA10B901F008FA90B1012020722C
:10029000DFF8647B387200203873387138700320BF
:1002A000607201F0F3F80020287028732871307113
:1002B0003070002001F08DFA18B9012001F0EDF93D
:1002C00098B104202072DFF8307B00203872387338
:1002D0003871012038700320607201F0D7F80020D7
:1002E00028702873287130713070012001F071FA84
:1002F00028B9032001F0D1F9002800F06C84012016
:100300006072002028702873287130713070BDE849
:10031000F081DFF8107A387800F0E7FE787800F0A6
:1003200015FF00F0E8FF18B1072000F064FF02E0BD
:10033000072000F068FF062000F05DFFDFF8685935
:100340000120287001F045FA28B9032001F0A5F931
:10035000002800F0408400206072062000F053FF67
:100360000020287028732871DFF8A8693071307078
:10037000BDE8F081072000F03EFFDFF8986901201A
:100380003071DFF82459287128732068C00400F107
:100390008780607900F0DAFE032001F027FA48B97F
:1003A00001F024FA30B901F078F918B9012001F010
:1003B00074F900E00120207500F09DFF217D0843C5
:1003C00014BF2079582000F090FEE078401CE070C7
:1003D000032001F00BFAA8B901F008FA90B9042043
:1003E00001F0F7F970B9042001F000FA50B901F0FA
:1003F00054F938B9012001F050F918B9042001F07E
:100400004CF908B10020E070022001F0E2F930B9A7
:10041000022001F042F910B9E078592807D320688A
:1004200080F4805020600020E07001F043FF032042
:1004300001F0CFF950B9032001F0DFF910B12078B5
:10044000400603D4002001F028F958B1206820F0BC
:10045000400020600020E070207917280CBF0020A9
:10046000401C2071002001F0B4F958B901F0C5F921
:1004700010B12078400605D4012001F00EF90028C3
:1004800000F0A983206820F0400020600020E07088
:10049000207900280CBF1720401E2071BDE8F08194
:1004A000207900F022FE032001F0A0F948B901F004
:1004B0009DF930B901F0F1F818B9012001F0EDF81B
:1004C00000E00120207500F016FF217D084314BFD5
:1004D0006079582000F03AFEE078401CE07003207C
:1004E00001F084F9A8B901F081F990B9042001F074
:1004F00070F970B9042001F079F950B901F0CDF824
:1005000038B9012001F0C9F818B9042001F0C5F884
:1005100008B10020E070022001F05BF930B9022040
:1005200001F0BBF810B9E07859280DD300226179A9
:10053000207900F06EFD0020607228702873287109
:100540003071307001F0C1FE032001F042F950B962
:10055000032001F052F910B12078400603D40020A6
:1005600001F09BF858B1206820F040002060002086
:10057000E07060793B280CBF0020401C60710020B7
:1005800001F027F958B901F038F910B12078400688
:1005900005D4012001F081F8002800F01C832068B8
:1005A00020F0400020600020E070607900280CBF3F
:1005B0003B20401E6071BDE8F081DFF8EC56012061
:1005C00028712873072000F01EFE002000F06FFD48
:1005D000032000F06CFD217A022000F037FD0A2193
:1005E000012000F033FD207A032802D300F089FEB9
:1005F00001E000F083FE00F013FEDFF8FC7703203B
:1006000001F0E7F818B901F048F800284DD0207A39
:10061000042815D100202072387238733871387070
:10062000052000F0FDFD0020607200F02FFF00208B
:10063000287028732871DFF8DC663071307034E080
:10064000401CC0B2401E032826D8DFE800F01D156C
:100650000B02042020720020387238733871012098
:10066000387022E003202072002038723873012095
:1006700038710020387018E0022020720020387293
:1006800001203873002004E001202072387200201D
:1006900038733871387008E000202072387238736F
:1006A00038713870052000F0BBFD002001F091F892
:1006B00020B9012000F0F1FF00284DD0207A012858
:1006C00015D10020207238723873387138700520C7
:1006D00000F0A6FD0020607200F0D8FE0020287017
:1006E00028732871DFF82C663071307034E0401EBA
:1006F000C0B2401E032826D8DFE800F01D150B020B
:10070000042020720020387238733871012038704C
:1007100022E00320207200203872387301203871E3
:100720000020387018E0022020720020387201206A
:100730003873002004E001202072387200203873E2
:100740003871387008E000202072387238733871C0
:100750003870052000F064FD012001F03AF818B966
:10076000032000F09AFFA0B1002020723872387385
:1007700038713870052000F053FD0120607200F0E0
:1007800085FE0020287028732871DFF88865307195
:100790003070022001F01DF828B9022000F07DFF22
:1007A000002800F018820120A0710420607200204F
:1007B000E070BDE8F081DFF85C6501203071DFF8A2
:1007C000E85428712873072000F015FD002000F080
:1007D00012FD002000F0BAFC032001F007F848B930
:1007E00001F004F830B900F058FF18B9012000F00A
:1007F00054FF00E00120207500F07DFD217D0843BD
:1008000009D0A07900F071FCA0790A2806D2002056
:1008100000F04DFC02E0582000F067FC207A03282D
:1008200002D300F06EFD01E000F068FD00F0F8FC7E
:10083000E078401CE070032000F0D8FFA8B900F079
:10084000D5FF90B9042000F0C4FF70B9042000F077
:10085000CDFF50B900F021FF38B9012000F01DFF95
:1008600018B9042000F019FF08B10020E07003203F
:1008700000F0AFFF50B9032000F0BFFF10B12078A7
:10088000800603D4002000F008FF58B1206820F053
:10089000200020600020E070A0790F280CBF01200C
:1008A000401CA071002000F094FF48B900F0A5FFA3
:1008B00010B12078800603D4012000F0EEFE58B17C
:1008C000206820F0200020600020E070A07901283E
:1008D0000CBF0F20401EA071012000F07AFF18B954
:1008E000032000F0DAFEA0B100202072DFF80875C6
:1008F0003872387338713870052000F091FC01208F
:10090000607200F0C3FD00202870287328713071D8
:100910003070022000F05DFF18B9022000F0BDFE2B
:1009200038B103206072002000F06DFC072000F059
:100930006AFCE0785928C0F04E8105206072A079E9
:10094000C0EB001188006082206820F40050206015
:1009500000F09CFDBDE8F04101F0B7BCDFF8B463E6
:1009600001203071DFF8405328712873002000F017
:100970009EFB032000F09BFB072000F044FC217A43
:10098000022000F063FB0A21012000F05FFB00F071
:10099000B2FC18B1002000F02EFC01E000F033FCA6
:1009A000207A032802D300F0ACFC01E000F0A6FCA2
:1009B00000F036FCDFF84074032000F00AFF18B99D
:1009C00000F06BFE00284BD0207A042813D10020C1
:1009D00020723872387338713870052000F020FCAE
:1009E0000020607200F052FD0020287028732871EA
:1009F0003071307034E0401CC0B2401E032826D84D
:100A0000DFE800F01D150B02042020720020387270
:100A1000387338710120387022E0032020720020E2
:100A200038723873012038710020387018E00220C5
:100A300020720020387201203873002004E0012069
:100A400020723872002038733871387008E0002046
:100A500020723872387338713870052000F0E0FB6E
:100A6000002000F0B6FE20B9012000F016FE00289C
:100A70004BD0207A012813D10020207238723873AD
:100A800038713870052000F0CBFB0020607200F058
:100A9000FDFC00202870287328713071307034E01C
:100AA000401EC0B2401E032826D8DFE800F01D1506
:100AB0000B02042020720020387238733871012034
:100AC000387022E003202072002038723873012031
:100AD00038710020387018E002202072002038722F
:100AE00001203873002004E00120207238720020B9
:100AF00038733871387008E000202072387238730B
:100B000038713870052000F08BFB012000F061FE89
:100B100018B9032000F0C1FD90B100202072387296
:100B2000387338713870052000F07AFB012060724C
:100B300000F0ACFC002028702873287130713070F0
:100B4000022000F04CFE18B1022000F056FE18B151
:100B5000022000F0A2FD20B103206072002000F00E
:100B600052FB022000F049FED8B14FF03C08608AE9
:100B700090FBF8F0C0B200F0B8FA608A90FBF8F190
:100B8000C1EB0112A0EB8200C0B200F0DFFA00F06E
:100B9000B2FB18B1072000F02EFB02E0072000F0A6
:100BA00032FB2068800416D500202072387238731A
:100BB00038713870052000F033FB0020607200F0BF
:100BC00065FC002028702873287130713070BDE8F2
:100BD000F04101F06FBBBDE8F081000030B581B09D
:100BE00000F0D8FB0121012001F08BFC834C4FF475
:100BF00080502060012020710020E0800120607181
:100C00007F4D2146284601F04DFD4FF48051284686
:100C100001F0E8FD0121032001F073FC16202060A3
:100C200001202071A071E07160712146284601F019
:100C300039FD4FF4E0402060724D2146284601F016
:100C400031FD0121022001F05CFC4FF400402060E6
:100C500000202071E071012060712146284601F0DA
:100C600021FD0121042001F04CFC0F202060012017
:100C700020710020E080012060712146624801F06F
:100C800011FD0121022001F03CFC802020600120A8
:100C900020710020E080012060712146284601B0CB
:100CA000BDE8304001F0FEBC8402404230B581B066
:100CB0000121102001F04BFC544C1748006844F609
:100CC0002061B0FBF1F0401EA08000202060E08099
:100CD0004F4D2146284601F05BFE0121284601F0D8
:100CE0008CFF01220121284601F006FF2B202072F3
:100CF0000B2060720120A072E07204F1080001F084
:100D0000F5FF0121284601F0ADFE01B0BDE83040FD
:100D100001F00CBBB48240420000002010E000E073
:100D2000B08240428C0200205002002010B5394CA5
:100D300001F048FB2070201D01F04AFB212001F04A
:100D40002AFC616960F300016161292001F023FC44
:100D5000616960F341016161312001F01CFC61694E
:100D600060F382016161392001F015FC616960F373
:100D7000C3016161492001F00EFC616960F3041157
:100D80006161412001F007FC616960F34511616117
:100D9000592001F000FC616960F3861161615A20FD
:100DA00001F0F9FB616960F3C71161615B2001F03B
:100DB000F2FB616960F3082161615C2001F0EBFBEB
:100DC000616960F3492161615D2001F0E4FB6169C3
:100DD00060F38A2161615E2001F0DDFB616960F3EF
:100DE000CB2161615F2001F0D6FB616960F30C31BA
:100DF000616110BD1C83404280024142A802002074
:100E00000000024000040240000802409C02002052
:100E10000010004038020020FEE710B450F8041B18
:100E200081B102681218001D50F8043BDC0744BF72
:100E3000A9F10104E31852F8044B43F8044B091FCD
:100E4000F9D1EBE710BC704710B5040018BF012CB6
:100E500004D086210FF25000FFF7DEFF1048046037
:100E600010BD30B581B004460025012C18BF022CFE
:100E70000DD0042C18BF082C09D0102C18BF202C22
:100E800005D040F20F310FF22000FFF7C5FF0548F3
:100E90000068204218BF0125284601B030BD00007F
:100EA00020000E4204700040433A5C3030466972C4
:100EB0006D77617265576F726B696E6741436861E8
:100EC000755C576F726B696E675C475453565F521F
:100ED000616E6765486F6F645C4C696272617269CC
:100EE00065735C53544D33324C3178785F5374647E
:100EF0005065726970685F4472697665725C73727E
:100F0000635C73746D33326C3178785F7077722EF6
:100F10006300000000B583B0012001F041FA4920D0
:100F200001F039FB0028FAD04FF4803001F0A5FA27
:100F3000012001F0D7FA00F078FD41487F2141609F
:100F4000FF2181600021016000F01AFD002000F007
:100F500003FF4FF4801001F0A9FF4FF480100190BF
:100F600000208DF8080008208DF8090001208DF878
:100F70000A0001A801F03AFF03208DF800000120CB
:100F80008DF8010000208DF8020001208DF803008B
:100F900000A801F0ABFE2B48E0210170002000F01A
:100FA000A3FEFF2000F0C3FE4FF4804000F04CFF92
:100FB0004FF4801001F07AFF01214FF4804000F0DF
:100FC0000BFF012000F0C8FE03B000BD00B581B0EA
:100FD00001214FF0805001F0BAFA0120FFF734FFF1
:100FE000FFF798FF184805214160012101720D218A
:100FF0004172032101600021C17302210173192193
:10100000417300218173002001B05DF804EBFFF70C
:101010001BBF70B504460D4616460120FFF714FFAE
:1010200009480021C17304734573867300F10C01F4
:10103000002000F019FD0020BDE87040FFF704BF5C
:101040009002002003E400E080020020F0B40FF2E0
:10105000A842895C0FF2944202EB400250789278E9
:101060009400DFF8502401F001031355DFF84834F1
:101070004D1005F001051D55DFF840548E1006F0A7
:1010800001062E55CE1006F00106DFF834743E55E9
:1010900080000C1104F001042C548C1104F00104A4
:1010A0001C54491101F001011154F0BC704770B497
:1010B0000FF2384101EB4000417880788000DFF882
:1010C000F42300231354DFF8F03300241C54DFF81A
:1010D000EC4300252554DFF8E85300262E54880001
:1010E00026541E54165470BC704710B518280FD2E1
:1010F0000A2190FBF1F404EB8401A0EB4101C9B299
:101100000120FFF7A3FFE1B20020BDE810409DE7FA
:10111000DFF8B003002180F8001380F8001280F897
:101120000011017080F8FC1080F8FC1180F8FC12AE
:1011300080F8081380F8081280F80811017280F80E
:10114000041180F8041280F8041310BD10B53C2877
:101150000FD20A2190FBF1F404EB8401A0EB4101D2
:10116000C9B20320FFF772FFE1B20220BDE81040D0
:101170006CE7DFF85403002180F8001380F80012B8
:1011800080F80011017080F8FC1080F8FC1180F8E4
:10119000FC1280F8201380F8201280F8201180F8CB
:1011A000201080F8041180F8041280F8041310BD98
:1011B000C6480088C64900F0010281F82820C0F323
:1011C000800281F85420C0F3400281F85C200206BE
:1011D000D20F0A70C0F3801281F85020C0F3C00211
:1011E00081F85021C0F3001281F85022C0F3401062
:1011F00081F850037047B5490A88012303FA00F0CB
:1012000010430880D4E7B149082808BF002005D062
:101210000A88012303FA00F022EA00000880C7E7E9
:1012200010B518B1022812D005D327E0A74C2088AA
:1012300040F0080027E0A54C20884FF6F7710840E1
:101240002080FFF7B5FF208840F0100022E09F4C7F
:1012500020884FF6F77108402080FFF7A9FF20880B
:101260004FF6EF7108402080FFF7A2FF208840F082
:1012700020002080BDE81040FFF79ABF934C2088E3
:101280004FF6F77108402080FFF792FF20884FF655
:10129000EF7108402080FFF78BFF20884FF6DF7149
:1012A00008402080BDE8104082E78A488179491CC7
:1012B000C9B2082908BF00218171817904299241AE
:1012C000D20FC2704179491C4171C9B2032904BFD0
:1012D000002141718178491C8170C9B2032909D16B
:1012E000002181700179491C0171C9B2032904BF31
:1012F0000021017170477748C078704775480079C0
:10130000704774484079704700B585B001214FF4AB
:10131000007001F01CF9002000904FF47010019053
:101320000C200290402003900020049000A800F0C0
:10133000E1FD012000F0A2FE4FF4E05000F02FFF8D
:10134000002000F0C9FE602000F0A6FE00F091FE33
:10135000012000F07AFE012000F04CFF0028FAD0B6
:10136000102000F047FF0028FAD04FF48041002001
:1013700000F0D8FE554800210180042000F03AFF1B
:101380000028FAD14021544801F0DAFD00F02EFF88
:1013900005B000BD10B582B001213F2001F0B1F8C9
:1013A00000A801F016FA4FF40740009002208DF8D3
:1013B00004004A4C00A9204601F074F90B220821D0
:1013C000204601F035FA0B220921204601F030FABF
:1013D0000B220A21204601F02BFA0B220F21204676
:1013E00001F026FA4FF44E70009002208DF80400B0
:1013F0003B4C00A9204601F055F90B220321204661
:1014000001F016FA0B220421204601F011FA0B22FA
:101410000521204601F00CFA0B220821204601F09C
:1014200007FA0B220921204601F002FA4FF4F0508E
:10143000009002208DF804002A4C00A9204601F0FB
:1014400031F90B220921204601F0F2F90B220A2181
:10145000204601F0EDF90B220B21204601F0E8F9BE
:101460000B220C21204601F0E3F904200090022019
:101470008DF804001C4C00A9204601F013F90B2242
:101480000221204601F0D4F902B010BD00B581B0B0
:101490000E4800210180042000F0ACFE0028FAD1A3
:1014A00040210D4801F04CFD01B05DF804EB00F067
:1014B0009DBE0000808504428084044280830442F3
:1014C00080820442F4820442A0820442BC020020D2
:1014D0009C82044265020020142400400000024067
:1014E0000004024000080240000C0240111C1D1EB6
:1014F0001F070809101B00003F065B4F666D7D0744
:101500007F6F7100DFF8A401DFF8A411016070475C
:101510000021C2685388883B5D2B43D2634B93F80C
:10152000D030042B10D19188203917293EBFD188A3
:101530000939092936D2002101704FF0FF3141608D
:101540000021017201207047442B2BD39388423B2A
:101550002E2B27D202F206025FF02003B2F800C061
:10156000ACF1090CBCF1090F1CD2B2F802C0ACF10D
:10157000160CBCF1110F0CD2490041F00101121DF3
:101580005B1EEBD12022027241600021017001201C
:101590007047B2F802C0ACF1060CBCF1070F38BFBF
:1015A0004900ECD30020704710B5404C04F108000E
:1015B000C4F8E00094F8D000C4F8E40020790328CF
:1015C00027D104F1D400FFF7A3FFF8B1D4F8D80075
:1015D0003849884246D0384988424AD037498842FB
:1015E0000DD0374988424BD0364988423AD03649E7
:1015F000884230D00020207184F8D00010BDD4F88B
:10160000F80040F00100C4F8F8003FE0207184F8D1
:10161000D0000020C4F8FC00D4F8E80040084000E6
:10162000C4F8E800D4F8EC0040084000C4F8EC002E
:10163000D4F8F00040084000C4F8F000D4F8F400FA
:1016400040084000C4F8F400D4F8F8004008400016
:10165000C4F8F80010BDD4F8F00040F00100C4F860
:10166000F00013E0D4F8F40040F00100C4F8F400F6
:101670000CE0D4F8EC0040F00100C4F8EC0005E008
:10168000D4F8E80040F00100C4F8E80000F012FED1
:101690000020207184F8D00010BD044901EB8000C7
:1016A00090F8E80000F001007047000048000020BA
:1016B0003C824042BF40FB04AF50FB04A758FB04F0
:1016C0007788FB046F90FB046798FB0470B56A4C45
:1016D0006A4D05262068C10706D54008400040F045
:1016E0000400206000F0E6FD2068810744BF20F080
:1016F0000600206020682978490704D5410707D4EF
:1017000040F0010003E0410702D540F002002060F4
:101710001435241D761EDDD170BD574801684A0777
:1017200008D54278092A28BF41F0080107D2511C88
:10173000417005E000214170016821F0080101605D
:1017400041684A0708D54279092A28BF41F00801B3
:1017500007D2511C417105E000214171416821F01F
:101760000801416081684A0708D5427A092A28BFE2
:1017700041F0080107D2511C417205E0002141727D
:10178000816821F008018160C1684A0708D5427B61
:10179000092A28BF41F0080107D2511C417305E016
:1017A00000214173C16821F00801C16001694A0745
:1017B00008D5427C092A28BF41F0080107D2511CF4
:1017C0004174704700214174016921F008010161F1
:1017D0007047294911F8200000F0010070472649A0
:1017E00051F82000400800F001007047224951F8EC
:1017F0002000800800F0010070471F4951F82000C8
:10180000C00800F00100704700B581B000F03AF860
:101810001B48416841F00301416001214172816927
:1018200041F00301816101214177C16A41F0030167
:10183000C162012180F83110016C41F003010164A3
:10184000012180F84510416D41F0030141650121FE
:1018500080F85910262180F8381080F839106FF080
:10186000150180F83A103A2280F8602080F8612053
:1018700080F8621001B000BD6C0200204C01002015
:101880004801002010B5012080F310883A4C002058
:10189000E07020711420A071E0710A2060710020B6
:1018A000A070142020720A2060721420A072002000
:1018B000E072207301F058FB01F04AFF02F026F8B5
:1018C000002080F310880120207010BD10B52A4C34
:1018D0002078401E0A284DD8DFE800F006181D2B9E
:1018E000304C4C4C4C4C3D00012080F31088234878
:1018F0000168A26961F30002A26149084900016020
:10190000002080F310880220207010BD01F090FFAD
:101910000320207010BD002084F8010002F011F8AF
:101920006078401C6070C0B20428F7D30420207097
:1019300010BD01F0C9FF0520207010BD04206070AB
:1019400001F0FFFF6078401C6070C0B20528F7D33B
:101950000B20207010BD02F01AFAA08B208200200C
:10196000A08394F820002075002084F82000012036
:10197000207010BDFEE70000DC010020D401002033
:1019800030B581B0044600252068402818BF0028E3
:1019900005D04FF4B771DFF83004FFF73DFA606807
:1019A000802805D340F26F11DFF81C04FFF734FAEA
:1019B000A068B0F5005F05D34FF4B871DFF80804F4
:1019C000FFF72AFADFF80404CA21C1615321C1617B
:1019D0000095416849060FD44FF0FF3141604168DE
:1019E000009A521C0092009AB2F5005F01D049069D
:1019F000F5D54168490613D5016821F04001016021
:101A00000168226811430160A16881608168626891
:101A100041EA02418160416821F080014160012575
:101A2000FF21C161284601B030BD81B00020009087
:101A3000DFF89C03CA21816153218161016821F093
:101A4000A00101600168009A521C0092009AB2F550
:101A5000805F01D08906F5D50168FF2282614809BF
:101A600000F0010001B07047F0B581B00E460025CE
:101A7000DFF8504330B3DFF85073012804D040F250
:101A800083213846FFF7C8F93078A168490640F14C
:101A9000B980010901EB810200F00F0000EB420068
:101AA000C0B208B10D2804D340F299213846FFF79F
:101AB000B3F9F078002818BF402800F0B38040F256
:101AC0009A21ACE03078A168490611D5401EC0B219
:101AD0000C2805D340F28921DFF8EC02FFF79CF9CE
:101AE000F078002818BF40280BD040F28A2104E08B
:101AF000F570182805D340F28F21DFF8CC02FFF7EC
:101B00008BF970783C2805D340F29121DFF8B802B8
:101B1000FFF782F9B0783C2805D340F29221DFF834
:101B2000A802FFF779F93078014600220A2805D388
:101B30000A22B0FBF2F2F62000FB021141EA021089
:101B400071780B4600220A2905D30A22B1FBF2F272
:101B5000F62101FB023343EA0211B3781F4600224B
:101B60000A2B05D30A22B3FBF2F2F62303FB02771A
:101B7000C0B20906090C41EA004047EA0211C9B2A5
:101B80000843F17840EA0140CA2161625321616251
:101B90000095E16849060FD44FF0FF31E160E1683C
:101BA000009A521C0092009AB2F5005F01D04906DB
:101BB000F5D5E168490620D5DFF818120840206005
:101BC000E06820F08000E0600095CA206062532049
:101BD0006062E06820F0A000E060E0680099491CC5
:101BE00000910099B1F5805F01D08006F5D5E068DD
:101BF000FF216162400900F00105FF206062284674
:101C000001B0F0BDF570010901EB810200F00F0099
:101C100000EB4200C0B2182804D340F29F2138469E
:101C2000FFF7FAF87078010901EB810200F00F006C
:101C300000EB4200C0B23C2804D340F2A121384658
:101C4000FFF7EAF8B078010901EB810200F00F001C
:101C500000EB4200C0B23C2804D340F2A221384637
:101C6000FFF7DAF830787178090241EA0040B1787C
:101C700086E730B581B005000C4618BF012D05D0B0
:101C800040F2F521DFF84001FFF7C6F8DFF8340134
:101C90000068DFF840110840010C01F03F0222709B
:101CA000020A6270A07001F04000E070D5B920789F
:101CB000010901EB810200F00F0000EB42002070EF
:101CC0006078010901EB810200F00F0000EB420097
:101CD0006070A078010901EB810200F00F0000EBB9
:101CE0004200A07001B030BD10B5040018BF012C37
:101CF0000DD0022C18BF032C09D0042C18BF062CC1
:101D000005D04FF49A610FF28010FFF785F8DFF8E5
:101D10006801CA21C1615321C1610168C908C900B4
:101D20000160016821430160FF21C16110BD10B550
:101D30000446B4F5803F05D340F2EB410FF2481062
:101D4000FFF76AF8DFF83401CA210161532101610C
:101D50000460FF21016110BD10B582B0044600206F
:101D60000090002C18BF012C05D04FF4A2610FF297
:101D70001810FFF751F8DFF80011CA20C86153208E
:101D8000C861002C086807D040F48060086001201A
:101D9000FF22CA6102B010BD20F48060086048686C
:101DA000009A521C0092009AB2F5005F01D04007E1
:101DB000F5D54868800800F00100FF22CA6102B032
:101DC00010BD000000280040881E000808280040C0
:101DD0000C2800407F7F7F0030B581B004000D46A5
:101DE00002D02748044205D040F293710FF29800C8
:101DF000FFF712F8002D18BF012D05D040F29471A5
:101E00000FF28400FFF708F81B48CA21C161532173
:101E1000C16104F0040124F00402002D036808D01D
:101E20001A430260826B11438163FF21C16101B0DB
:101E300030BD23EA02020260826B22EA0101816363
:101E4000FF21C16101B030BD10B5040002D034F4EF
:101E50003C3005D040F623010FF22C00FEF7DCFFEA
:101E600008482103090C41F08001026802F0800259
:101E700062EA0101016010BD0828004014280040FA
:101E8000FB0FFFFF0C280040433A5C30304669727C
:101E90006D77617265576F726B696E6741436861F8
:101EA000755C576F726B696E675C475453565F522F
:101EB000616E6765486F6F645C4C696272617269DC
:101EC00065735C53544D33324C3178785F5374648E
:101ED0005065726970685F4472697665725C73728E
:101EE000635C73746D33326C3178785F7274632E17
:101EF0006300000010B504462068002818BFB0F544
:101F0000800F2ED0B0F5000F18BFB0F5400F28D0CD
:101F1000B0F1807F18BFB0F1A07F22D0B0F1C07FB8
:101F200018BFB0F1E07F1CD0B0F1007F18BFB0F156
:101F3000107F16D0B0F1207F18BFB0F1307F10D0E5
:101F4000B0F1407F18BFB0F1507F0AD0B0F1607F90
:101F500018BFB0F1707F04D0B5210FF2EC20FEF76E
:101F60005BFF6068002818BFB0F5802F2ED0B0F559
:101F7000002F18BFB0F5402F28D0B0F5801F18BF34
:101F8000B0F5A01F22D0B0F5C01F18BFB0F5E01FFC
:101F90001CD0B0F5001F18BFB0F5101F16D0B0F55B
:101FA000201F18BFB0F5301F10D0B0F5401F18BF6C
:101FB000B0F5501F0AD0B0F5601F18BFB0F5701F04
:101FC00004D0B6210FF28020FEF726FFA06800287B
:101FD00018BF042809D008281CBF0C28102804D0DA
:101FE000B7210FF26420FEF717FFE06800281CBF3E
:101FF0002028402804D0B8210FF24C20FEF70CFF17
:102000002069002818BF022804D0B9210FF2382017
:10201000FEF702FF8648416821F07F714160416808
:10202000226863681A431143416081688906FCD5C0
:10203000016821F07E0101600168A268E3681A432B
:1020400023691A431143016010BD30B581B004000B
:1020500018BF012C09D00FF2F015E2212846FEF737
:10206000DBFEE5212846FEF7D7FE7248046001B08A
:1020700030BD714801688906FCD5704710B5040071
:1020800018BF012C05D040F215110FF2BC10FEF75D
:10209000C3FE6A48046010BD10B5040018BF102CC0
:1020A00011D0202C18BF302C0DD0402C18BF502C34
:1020B00009D0602C18BF702C05D04FF496710FF228
:1020C0008810FEF7A9FE5E48016821F070010160EA
:1020D00001682143016010BD10B5040018BF802CB9
:1020E00017D0B4F5807F18BFB4F5C07F11D0B4F518
:1020F000007F18BFB4F5207F0BD0B4F5407F18BF28
:10210000B4F5607F05D040F243110FF23C10FEF7AA
:1021100083FE4B48016821F460710160016821432E
:10212000016010BD30B581B004000D4618BFB4F594
:10213000803F0BD0B4F5003F18BFB4F5403F05D049
:102140004FF4B1710FF20010FEF766FE002D18BFBC
:10215000B5F5005F17D0B5F5804F18BFB5F5C04F86
:1021600011D0B5F5004F18BFB5F5204F0BD0B5F520
:10217000404F18BFB5F5604F05D040F263110FF224
:10218000C800FEF749FE2E48016821F4783101604D
:10219000016845EA04021143016001B030BD10B589
:1021A000040018BFB4F5806F17D0B4F5006F18BFE6
:1021B000B4F5406F11D0B4F5805F18BFB4F5A05FDF
:1021C0000BD0B4F5C05F18BFB4F5E05F05D04FF495
:1021D000BD710FF27400FEF71FFE1948016821F46B
:1021E000E051016001682143016010BD15480121E3
:1021F0000160704730B581B004460025012C18BF3E
:10220000022C0DD0042C18BF082C09D0102C18BF9C
:10221000202C05D04FF406710FF22C00FEF7FCFDC8
:1022200005480068204218BF0125284601B030BD8E
:102230000024004000800442082400401C80044226
:102240000424004008810442433A5C3030466972FD
:102250006D77617265576F726B696E674143686134
:10226000755C576F726B696E675C475453565F526B
:10227000616E6765486F6F645C4C69627261726918
:1022800065735C53544D33324C3178785F537464CA
:102290005065726970685F4472697665725C7372CA
:1022A000635C73746D33326C3178785F6C63642E69
:1022B000630000003648017821B9012101704170A6
:1022C000002070474FF0FF3070473148017829B93E
:1022D0000121017002214170002070474FF0FF3052
:1022E000704710B52A4C2078C8B1014662889042E8
:1022F00008D2012804BF274800F0B4FB2078401C16
:10230000207010BD0021234800F0ACFB6078401E17
:102310006070C1B2491E8941C943C90F217010BD07
:102320001D48017881F001010170704710B584B03B
:102330000121202000F00BF9184800684FF47A6161
:10234000B0FBF1F0401EADF8080000200190ADF8A0
:102350000A00104C01A9204600F01AFB012120467A
:1023600000F04BFC01220121204600F0C5FB2C208F
:102370008DF800000A208DF8010001208DF8020080
:102380008DF8030000A800F0B1FC04B010BD0000FF
:102390004400002000140040B00240420000002031
:1023A00010B504001CBF012C052C05D040F2BD1156
:1023B0000FF28420FEF730FDDFF8480200210170A3
:1023C000047010BDDFF84002006800F00C00704798
:1023D00010B4DFF82C124A6802F00C020C2A23D841
:1023E000DFE802F022222222072222220A222222CF
:1023F0000D00DFF8182220E0DFF814221DE04A6803
:102400004B68C2F38342DFF80C42125DC3F3815381
:102410005B1C4C68E40354BFDFF8F041DFF8F04187
:102420006243B2FBF3F208E00A680123520B02F0A8
:102430000702521C03FA02F2D20302604B68DFF873
:10244000D4210468C3F303139B181B7B24FA03F302
:1024500043604B684468C3F302239B181B7B24FA38
:1024600003F3836049684368C1F3C2218918097B7B
:1024700023FA01F1C16010BC704710B50446B4F5F1
:10248000803F18BFB4F5003F14D0B4F5403F1CBFE7
:10249000DFF8840184420DD0DFF8800184421CBF44
:1024A000DFF87C01844205D040F2E1310FF2881060
:1024B000FEF7B2FCDFF8440104F44031B1F5403FCF
:1024C00006D1016821F0C04104F0C042114301600F
:1024D000416B21F440314163416B04F440321143BC
:1024E000416310BD10B5040018BF012C05D040F2A7
:1024F00003410FF24410FEF78FFCDFF8280104605F
:1025000010BD30B581B004460D46DFF81C01044211
:1025100000D12CB940F22F410FF21C10FEF77CFCC9
:1025200075B1012D05D04FF486610FF20C10FEF746
:1025300073FCDFF8F80001682143016001B030BD91
:10254000DFF8E8000168A143016001B030BD30B59B
:1025500081B004460D46DFF8D800044200D12CB902
:1025600040F27C410FF2D000FEF756FC6DB1012D18
:1025700005D040F27D410FF2C000FEF74DFC2D4822
:1025800001682143016001B030BD2A480168A143C0
:10259000016001B030BD30B581B004460025212C6A
:1025A00018BF312C1AD0292C18BF392C16D0492C21
:1025B00018BF412C12D05A2C18BF5B2C0ED05C2CAB
:1025C00018BF5D2C0AD05E2C1CBF5F2C592C05D087
:1025D00040F2B6510FF26000FEF71EFC0748610999
:1025E00001290CBF0068406B012104F01F029140DB
:1025F000084218BF0125284601B030BD003802400E
:102600000438024035380240083802400024F40003
:1026100000127A0028000020000003200000034080
:1026200000000360D8064742C06FFFFE1C3802401E
:10263000C8B5194F24380240433A5C3030466972BD
:102640006D77617265576F726B696E674143686140
:10265000755C576F726B696E675C475453565F5277
:10266000616E6765486F6F645C4C69627261726924
:1026700065735C53544D33324C3178785F537464D6
:102680005065726970685F4472697665725C7372D6
:10269000635C73746D33326C3178785F7263632E70
:1026A000630000002DE9F04381B004460D4600268A
:1026B000DFF8580284421CBFDFF85402844214D071
:1026C000DFF8500284421CBFDFF84C0284420CD079
:1026D000DFF8480284421CBFDFF84402844204D081
:1026E000C1210FF24020FEF797FB286820B9C221D4
:1026F0000FF23020FEF790FB2879002818BF012840
:1027000008D0022818BF032804D0C3210FF21420D8
:10271000FEF782FBE87940B1012818BF022804D0F7
:10272000C4210FF20020FEF777FB012000FA06F823
:10273000286808EA0000404545D177000320B840EA
:102740006FEA0009206809EA000020602068297902
:10275000B940084320602879012818BF022829D1F0
:102760006879002818BF012808D0022818BF03285C
:1027700004D0D8210FF2AC10FEF74EFBA06809EA96
:102780000000A060A0686979B9400843A060A879FA
:10279000002818BF012804D0DF210FF28810FEF7AF
:1027A0003BFBA08820EA0800A080A088A979B1405E
:1027B0000843A080E06809EA0000E060E068E97989
:1027C000B9400843E060761C102EAED301B0BDE8DE
:1027D000F0834FF6FF710160002101714171817139
:1027E000C171704730B581B004460D4647488442F8
:1027F0001CBF4748844211D0464884421CBF46480B
:1028000084420BD0454884421CBF4548844205D0D1
:1028100040F29B110FF20C10FEF7FEFA2DB94FF4A7
:10282000CE710FF20010FEF7F7FA658301B030BDEC
:1028300070B506460D461446344886421CBF3448DF
:10284000864211D0334886421CBF334886420BD0A3
:10285000324886421CBF3248864205D040F20921E8
:102860000FF2C000FEF7D8FA002D18BF012D21D0BD
:10287000022D18BF032D1DD0042D18BF052D19D012
:10288000062D18BF072D15D0082D18BF092D11D002
:102890000A2D18BF0B2D0DD00C2D18BF0D2D09D0F2
:1028A0000E2D18BF0F2D05D040F20A210FF2740033
:1028B000FEF7B2FA002C18BF012C16D0022C18BF5C
:1028C000032C12D0042C18BF052C0ED0072C18BFD7
:1028D0000A2C0AD00B2C1CBF0E2C0F2C05D040F25A
:1028E0000B210FF24000FEF797FAE81006EB80008C
:1028F00005F007018900026A0F238B409A430262A8
:10290000026A04FA01F11143016270BD0000024045
:102910000004024000080240000C02400010024087
:1029200000140240433A5C30304669726D77617240
:1029300065576F726B696E6741436861755C576F6D
:10294000726B696E675C475453565F52616E676580
:10295000486F6F645C4C69627261726965735C5345
:10296000544D33324C3178785F53746450657269DA
:1029700070685F4472697665725C7372635C7374CD
:102980006D33326C3178785F6770696F2E63000049
:1029900030B581B004460D46B4F1804F1CBFDFF85E
:1029A000380184421CD0DFF8340184421CBFDFF8B8
:1029B0003001844214D0DFF82C0184421CBFDFF8C0
:1029C000280184420CD0DFF8240184421CBFDFF8C8
:1029D0002001844204D0FA21DFF81801FEF71CFA26
:1029E0006888002818BF102809D020281CBF40285C
:1029F000602804D0FB21DFF8FC00FEF70DFAE88820
:102A000000281CBFB0F5807FB0F5007F04D0FC210A
:102A1000DFF8E000FEF700FA2088B4F1804F1FBF16
:102A2000DFF8B4108C42DFF8B4108C4204D14FF6BA
:102A30008F71084069880843DFF8A4108C421CBFDE
:102A4000DFF8A0108C4204D04FF6FF410840E9881F
:102A500008432080A888A085288820850120A0829E
:102A600001B030BD30B581B004460D46B4F1804FA1
:102A70001CBF1948844218D0184884421CBF18480B
:102A8000844212D0174884421CBF174884420CD09D
:102A9000164884421CBFDFF85800844205D040F23B
:102AA0001A21DFF85000FEF7B7F96DB1012D05D0FE
:102AB00040F21B21DFF83C00FEF7AEF9208840F021
:102AC0000100208001B030BD20884FF6FE71084023
:102AD000208001B030BD000000040040000800402C
:102AE000001000400014004000080140000C0140AC
:102AF00000100140802C000870B504460D461646B3
:102B0000B4F1804F1CBF564884421AD055488442C5
:102B10001CBFDFF86001844213D0DFF85C018442FF
:102B20001CBF514884420CD0504884421CBFDFF87F
:102B30004001844205D040F26A71DFF84001FEF79F
:102B40006BF94FF6A070054200D12DB940F26B71C0
:102B5000DFF82801FEF760F95EB1012E05D040F2E2
:102B60006C71DFF81801FEF757F9A0892843A0819E
:102B700070BDA089A843A08170BD70B506460C4603
:102B80000025B6F1804F1CBF354886421AD0354823
:102B900086421CBFDFF8DC00864213D0DFF8D80085
:102BA00086421CBF304886420CD0304886421CBF4B
:102BB000DFF8BC00864205D04FF4FF61DFF8BC00AF
:102BC000FEF72AF9012C18BF022C0DD0042C18BFD7
:102BD000082C09D0102C18BF402C05D040F2F971F8
:102BE000DFF89800FEF718F9308AB18921402042B9
:102BF0001CBF00290125284670BD30B581B00446B0
:102C00000D46B4F1804F1CBF1548844219D01548B9
:102C100084421CBFDFF85C00844212D0DFF8580009
:102C200084421CBF104884420BD0104884421CBF11
:102C30000F48844205D040F61F01DFF84000FEF740
:102C4000EBF84FF6A070054200D12DB94FF40261A8
:102C5000DFF82800FEF7E0F8E843208201B030BD3D
:102C6000000400400008004000080140000C014042
:102C7000001001400010004000140040802C0008AB
:102C8000433A5C30304669726D77617265576F7296
:102C90006B696E6741436861755C576F726B696EF3
:102CA000675C475453565F52616E6765486F6F6447
:102CB0005C4C69627261726965735C53544D333266
:102CC0004C3178785F5374645065726970685F4402
:102CD00072697665725C7372635C73746D33326CA7
:102CE0003178785F74696D2E6300000070B504461A
:102CF000E078002818BF012804D08C210FF288004A
:102D0000FEF78AF86078102804D38D210FF278003E
:102D1000FEF782F8A078102804D38E210FF2680005
:102D2000FEF77AF8227811460120E378E3B1124ADF
:102D3000126802F4E062C2F5E062120A6378C2F13E
:102D40000405AB40A5780F2626FA02F22A401A4362
:102D500012010A4BCA5421784A11094B01F01F0194
:102D6000884043F8220070BD4911064B02F01F0253
:102D7000904043F8210070BD0CED00E000E400E05D
:102D800000E100E080E100E0433A5C3030466972E7
:102D90006D77617265576F726B696E6741436861E9
:102DA000755C576F726B696E675C475453565F5220
:102DB000616E6765486F6F645C4C696272617269CD
:102DC00065735C53544D33324C3178785F5374647F
:102DD0005065726970685F4472697665725C73727F
:102DE000635C6D6973632E630000000030B581B0D1
:102DF00004462079002818BF042804D081210FF24E
:102E0000D400FEF709F8607908281CBF0C281028A8
:102E100004D082210FF2BC00FDF7FEFF2068C10D37
:102E2000C90500D120B983210FF2A800FDF7F4FFF6
:102E3000A07980B3012806D084210FF29800FDF715
:102E4000EBFFA07938B32148016822689143016003
:102E5000416822689143416022798218136825688D
:102E60002B431360826823689A438260C268236898
:102E70009A43C26062792368102A08D18168194395
:102E80008160C16822681143C16001B030BD821801
:102E90001068184307E0207900F1804202F5823281
:102EA000106821688843106001B030BD10B5044639
:102EB000E00DC00500D12CB94FF492710FF214004F
:102EC000FDF7AAFF0248046010BD000000040140A5
:102ED00014040140433A5C30304669726D77617288
:102EE00065576F726B696E6741436861755C576FB8
:102EF000726B696E675C475453565F52616E6765CB
:102F0000486F6F645C4C69627261726965735C538F
:102F1000544D33324C3178785F5374645065726924
:102F200070685F4472697665725C7372635C737417
:102F30006D33326C3178785F657874692E63000088
:102F4000002200F0EFBF50F8041B61B150F8042BD1
:102F5000D30744BFA9F101039A18002342F8043BA8
:102F6000091FFAD1EFE77047DFF8B807016841F0B1
:102F700001010160DFF8B0178A6842F0C0028A6080
:102F8000026842F0020202608A6842F440328A60BB
:102F9000026842F004020260CA6842F4F872CA6031
:102FA000826842F000428260086840004008086081
:102FB000DFF878070188018081688160B0F800142B
:102FC000A0F80014D0F80814C0F80814B0F80018DD
:102FD000A0F80018D0F80818C0F808180188018077
:102FE00081688160B0F80014A0F80014D0F80814CB
:102FF000C0F80814B0F80018A0F80018D0F80818A5
:10300000C0F80818FFE730B581B0DFF82447DFF8D3
:103010001857286820402860686880088000686029
:10302000012080F31088DFF80C07818A4FF67F7249
:1030300011408182016821F4404141F480410160E6
:10304000B0F814144FF6FD721140A0F81414D0F823
:10305000001421F00C0141F00401C0F80014B0F894
:1030600014184FF65F721140A0F81418D0F8001829
:1030700021F44C4141F48841C0F80018818A4FF690
:10308000BF7211408182016821F4405141F48051A6
:103090000160B0F814144FF6FE721140A0F8141439
:1030A000D0F800148908890041F00101C0F800142B
:1030B000B0F814184FF6AF721140A0F81418D0F8F9
:1030C000001821F44C5141F48851C0F80018818A4D
:1030D000818201680160B0F81414A0F81414D0F8CB
:1030E0000014C0F80014B0F814184FF6FF62114035
:1030F000A0F81418D0F8001821F4403141F48031C0
:10310000C0F80018002080F31088642000F01AFB3B
:10311000286820402860686880088000686001B0E6
:1031200030BD2DE9F04F81B00024DFF80C562C6043
:103130006C60AC60EC602C616C61DFF8F485DFF8EA
:10314000E875386808EA0000386078688008800010
:103150007860012080F31088DFF8D865B08A4FF6D8
:103160007F710840B082306820F4404040F48040D5
:103170003060B6F814044FF6FD710840A6F8140448
:10318000D6F8000420F00C0040F00400C6F800045B
:10319000B6F814084FF65F710840A6F81408D6F880
:1031A000000820F44C4040F48840C6F80008B08A7B
:1031B0004FF6BF710840B082306820F4405040F4B0
:1031C00080503060B6F814044FF6FE710840A6F83F
:1031D0001404D6F800048008800040F00100C6F80E
:1031E0000004B6F814084FF6AF710840A6F81408AA
:1031F000D6F8000820F44C5040F48850C6F8000877
:1032000084F31088322000F09DFA012080F31088AA
:10321000306820F440503060D6F800048008800008
:10322000C6F80004D6F8000820F44C50C6F8000890
:1032300084F310884FF6FC7944F2401A48F2802B50
:1032400038684BEA00003860786840F00200786027
:10325000012080F31088B08A40F04000B0823068CE
:1032600020F4405040F480503060B6F8140440F030
:103270000100A6F81404D6F800048008800040F08D
:103280000100C6F80004B6F8140840F05000A6F893
:103290001408D6F8000820F44C5040F48850C6F8C2
:1032A0000008002080F3108800F056FE287DC0073B
:1032B00007D4308A800704D52C80686940F001006B
:1032C0006861287D400608D4B6F81004800404D54F
:1032D000AC81686940F040006861287D000608D430
:1032E000B6F81008800704D5EC81686940F08000CA
:1032F00068616869800508D4B6F81008000604D52E
:103300006C82686940F400706861287D000707D40A
:10331000308A800504D5EC80686940F00800686157
:10332000287DC00607D4308A400404D52C81686902
:1033300040F010006861287D800707D4308A0006BD
:1033400004D56C80686940F002006861287D400700
:1033500008D4B6F81004800704D5AC80686940F042
:1033600004006861287D800608D4B6F81004800641
:1033700004D56C81686940F0200068616869C00507
:1033800008D4B6F81008800604D52C82686940F489
:1033900080706861641C012080F31088306820F41C
:1033A00040503060D6F8000480088000C6F8000461
:1033B000D6F8000820F44C50C6F80008002080F32E
:1033C000108838684AEA00003860786840F00100E8
:1033D000786000F0C3FD012080F31088306820F48D
:1033E00040403060D6F8000420F00C00C6F800041D
:1033F000D6F8000820F44C40C6F80008002080F3FE
:103400001088386808EA00003860786809EA000027
:10341000786041F2A940A4B2844203D300BF01B056
:10342000BDE8F08F288B6969014081427FF408AFC5
:1034300001B0BDE8F08F2DE9F04F81B00024BF4D01
:103440002C606C60AC60EC602C616C61DFF8F09219
:10345000B54F386809EA000038604FF6F9787868A7
:1034600008EA00007860012080F31088B14EB08A2D
:103470004FF67F710840B082306820F4404040F43D
:1034800080403060B6F814044FF6FD710840A6F88D
:103490001404D6F8000420F00C0040F00400C6F834
:1034A0000004B6F814084FF65F710840A6F8140837
:1034B000D6F8000820F44C4040F48840C6F80008D4
:1034C000B08AB08230683060B6F81404A6F81404EC
:1034D000D6F80004C6F80004B6F814084FF6FF61E9
:1034E0000840A6F81408D6F8000820F4403040F44C
:1034F0008030C6F8000884F31088322000F022F9EA
:10350000012080F3108830683060D6F80004C6F8D7
:103510000004D6F8000820F44030C6F8000884F310
:103520001088012080F31088306820F4404030601B
:10353000D6F8000420F00C00C6F80004D6F8000805
:1035400020F44C40C6F8000884F3108841F2A94AE0
:1035500048F2802B38684BEA00003860786840F009
:1035600002007860012080F31088B08AB082306851
:103570003060B6F81404A6F81404D6F80004C6F8AF
:103580000004B6F8140840F48070A6F81408D6F8C1
:10359000000820F4403040F48030C6F800080020D5
:1035A00080F3108800F0D8FC287DC00707D4308A4B
:1035B000800704D52C80686940F001006861287D8F
:1035C000400608D4B6F81004800404D5AC816869BC
:1035D00040F040006861287D000608D4B6F8100865
:1035E000800704D5EC81686940F0800068616869F3
:1035F000800508D4B6F81008000604D56C82686906
:1036000040F400706861287D000707D4308A800587
:1036100004D5EC80686940F008006861287DC00628
:1036200007D4308A400404D52C81686940F010002A
:103630006861287D800707D4308A000604D56C8035
:10364000686940F002006861287D400708D4B6F838
:103650001004800704D5AC80686940F004006861FC
:10366000287D800608D4B6F81004800604D56C8145
:10367000686940F0200068616869C00508D4B6F840
:103680001008800604D52C82686940F48070686157
:10369000012080F3108830683060D6F80004C6F846
:1036A0000004D6F8000820F44030C6F800080020D6
:1036B00080F31088641C38683860786840F0040033
:1036C000786000F04BFC012080F31088306820F413
:1036D00040403060D6F8000420F00C00C6F800042A
:1036E000D6F8000820F44C40C6F80008002080F30B
:1036F0001088386809EA00003860786808EA000035
:103700007860544503D300BF01B0BDE8F08F288B2B
:103710006969014081427FF41DAF01B0BDE8F08FBF
:10372000000000001C380240087C004004000240F9
:103730003F3CFFFF00000240000200201C0200206E
:103740007F7DFFFF00E0401E80B20028FBD1704764
:1037500010B5354C0020A06160612061E06184F803
:1037600028002046FEF734FE60684FF4FA61B0FB93
:10377000F1F0B0F1807F0CD22C490002000A401E0B
:103780004860F02081F8130D002088600720086051
:1037900010BDFEE72448416982690369142B10D3E8
:1037A000143B0361491CC3695B1CC3610A2922BF26
:1037B0000A39521C0A2A04D30A3A836A43F00103E5
:1037C000836282614161704710B5174C2069401CCB
:1037D0002061E06A10B1E06A401EE062FFF7DAFFA4
:1037E000A06A810704D520F00600A062C8202062EC
:1037F000A06A010704D520F01800A062C82060620A
:10380000206A30B1401E206203D1A06A40F004005B
:10381000A062606A30B1401E606203D1A06A40F0CD
:103820001000A06210BD0000AC01002010E000E01C
:1038300070B5DFF82C4300202083DFF82853DFF831
:10384000286330788821084203D1DFF820030088FC
:103850002083307D084205D1208BDFF81013498882
:103860000843208396F828008821084205D1208B40
:10387000DFF8F81289880843208396F83C008821F5
:10388000084205D1208BDFF8E412C9880843208361
:1038900004202870208BB0B1FFF743FCDFF8D00282
:1038A000017834F811107181417834F81110F183E6
:1038B000817834F811107186C07834F81000A6F8B9
:1038C00046000420287070BD70B5DFF8A8420020C3
:1038D0002083DFF89052DFF8906296F8500088213C
:1038E000084203D1DFF88402008920830520287074
:1038F000208B50B1FFF79FFDDFF87C02007834F891
:103900001000A6F85A000520287070BD70B5954CBF
:10391000002020706FF01105DFF8606200F03AF9C6
:10392000306880210170306845210174306841742D
:10393000306885742078401C2070C0B20528EDD313
:1039400070BD10B500F026F900F02EF98B4C206800
:103950000178012973D002290CD0042940D008290C
:1039600012D011295AD0142923D0242942D08029D9
:1039700072D076E04089323841F2774180B2884295
:1039800067D200F06FF820680079800758BF00F018
:1039900094F920687A490A8883881A430A80794909
:1039A0000A7803781A430A70416821F008014160DF
:1039B00010BD7549B1F9001090F9100081420CDB7F
:1039C00000F08EF92068817B491E81732068807B1E
:1039D0000028DED100F01FF9DBE700F003F9D8E79B
:1039E0004089323841F2774180B2884231D200F0CA
:1039F00072F8C8E790F91110634AB2F900209142B9
:103A000009DB817B491E81732068807B0028C0D13F
:103A100000F0D4F8BDE700F017F9BAE790F91210FA
:103A2000594AB2F900209142D7DB817B491E81734C
:103A30002068807B0028ACD100F014F9A9E7408908
:103A4000323841F2774180B2884202D200F075F8F4
:103A500099E700F01FF99CE7007900F003000328C4
:103A6000E9E7FEE730B581B0474DB5F90000434CBA
:103A7000216891F91220824204DB01B0BDE8304098
:103A800000F0E7B891F91010884222DB00F0BAF894
:103A90003E480078E8B92068817B491C8173B5F9FC
:103AA0000000216891F9101088420DDB00F018F930
:103AB0002068817B491E81732068807B48B901B0F2
:103AC000BDE8304000F0A7B801B0BDE8304000F0DC
:103AD00089B801B030BD30B581B02B4C274D286876
:103AE00090F91100B4F9001088421FDB00F0A3F830
:103AF00027480078F8B92868817B491C81732868B9
:103B000090F91110B4F9002091420ADB817B491E23
:103B100081732868807B70B901B0BDE8304000F047
:103B20004DB801B0BDE8304000F08EB801B0BDE83E
:103B3000304000F019B901B030BD104801688A89E1
:103B40004B899A188A810A7A521E0A720068017A91
:103B500021B98189C908818100F030B8704700001F
:103B600000020020DD01002048010020D4420008AE
:103B7000CC4200081C020020D0420008B002002005
:103B8000F8010020FC010020C0020020DF0100201D
:103B9000E0010020D148007800EB8001D04800EB24
:103BA0008100D04908607047CE480068B0F90C1019
:103BB000B0F90A00081ACC4908807047C948016862
:103BC0004A6842F008024A6002220A7000684168AE
:103BD00021F00401416021F08001416021F02001C9
:103BE00041607047BF48016802220A70006841685E
:103BF00021F00401416021F08001416021F02001A9
:103C000041607047B748016814220A700068B749DC
:103C1000097881737047B348016804220A7000680C
:103C2000416841F00401416041F008014160B04940
:103C3000097801727047AB48016824220A70006855
:103C4000AC49097881737047A64800680421017067
:103C50007047A448016811220A700068A6490978D3
:103C6000817370479F48016801220A7001684A68A1
:103C700022F004024A6042F008024A6022F0800208
:103C80004A6022F020024A6008220A72006800217D
:103C9000818170479348016808220A700068416872
:103CA00021F00401416041F00801416021F08001F0
:103CB000416041F02001416070478A4801688022DC
:103CC0000A700068416821F00401416041F0080178
:103CD000416021F08001416021F020014160704786
:103CE0008048006841680A0600D5704770B4427A7F
:103CF0007A4B1B787A4C6BB1657A1646354207D001
:103D000025792D0604D5817B491C817370BC7047D1
:103D1000012B08D0657F1646354202D0257E2D0640
:103D2000F1D4022B09D094F83150354203D094F8E5
:103D30002C502D06E7D4032B09D094F8455035427A
:103D400003D094F840502D06DDD4042B07D094F80E
:103D50005930134203D094F854201206D3D441F0C2
:103D60008001416070BC704764480078C0070DD581
:103D70005F48007850B15B4801680A7A521E0A72A7
:103D80000068007A002808BFFFF76CBF70472DE974
:103D9000F04F012080F3108859485A490A680260A0
:103DA00000220A6082F310884FF0FF314E4A4D4BDB
:103DB000DFF82C81494DDFF85091DFF850A10468FD
:103DC000002C00F08880641E04609AF80040002CEB
:103DD0001CBF641E8AF800404D4C2478641E5FFAB4
:103DE00084FCBCF1000F08D14FF00A0C99F8004098
:103DF000002C1CBF641E89F80040454C84F800C0AC
:103E0000444C94F800C04FF0010E00242C7046463C
:103E10001E603778142F18BF042F18BF242F04D129
:103E20003D4C247889F800401DE0022F14D1B6F9EA
:103E30000CB0B6F90A70ABEB070717803FB2002F42
:103E400006D003D5012C03DA0C4605E0002C02D580
:103E50004FF0000E00E001242F787F1C2F701436E5
:103E6000FFB2052FD4D39AF8004099F8006034438C
:103E7000A5D12A4C24788AF80040BEF1000F1CBF5F
:103E8000274C94F800C08CF0FF04641C5FFA84FE99
:103E9000BCF1000F93D000242C702C7804EB840626
:103EA00008EB86041C602678022E0DD1A689E77BDC
:103EB00007EB062667893F0207FB0CF706FB0E7629
:103EC000370CA781360AE6732C78641C2C70E4B298
:103ED000052CE2D373E70160BDE8F08FDD0100201F
:103EE00048010020B0020020C0020020DF010020B5
:103EF000DE010020E0010020E1010020F4010020AB
:103F0000B4020020C8010020E7010020E6010020E3
:103F1000E8010020E5010020E3010020E20100208B
:103F2000E401002000B500BF130096469446103906
:103F300028BFA0E80C50FAD85FEA417C28BF0CC02B
:103F400048BF40F8042BC90728BF20F8022B48BF00
:103F500000F8012B00BD000000BF704700BF704794
:103F60007047FEE7FEE7FEE7FEE7FEE7FEE7FEE757
:103F700030B581B0FFF728FC764CA078401CA070CB
:103F8000C0B2192805D10020A070206840F0800040
:103F90002060714D2888401C288080B20A2190FB47
:103FA000F1F101EB8102B0EB420138D1216841F01F
:103FB00001012160322290FBF2F302FB130070BB7F
:103FC00041F002002060FEF78CF92888642190FB04
:103FD000F1F201FB120111BB216841F004012160E3
:103FE000C82290FBF2F302FB130212B941F0100158
:103FF00021604FF4967190FBF1F201FB120119B9A7
:10400000216841F0400121604FF4FA7190FBF1F218
:1040100001FB120018B9206840F02000206001B0B8
:1040200030BD000010B54D4C01212046FEF7A5FD26
:1040300088B101212046FEF7E0FD49480168097872
:10404000C288521CC28090F8D030582B04D303226F
:10405000027101B9C18010BD0479032CFBD8DFE8DF
:1040600004F0041C2B02F4E7F5E771B992B2B2F543
:10407000FA7FEFD380F8D0100281012180F8D010B0
:104080000021C1800121017110BD4FF6FE7192B275
:104090008A42E0D14FF6FD71DCE70129DBD100EB6C
:1040A00043010A8190F8D010491C80F8D0100021FB
:1040B000C1800221017110BD31B900EB43010A81B9
:1040C00090F8D010491CD9E740F2F51192B28A421B
:1040D000C1D30321017110BD00B581B0FEF720F9F5
:1040E0000121204801B05DF804EBFEF786BD0120F8
:1040F000FEF7DCBE10B51748016841F00801016009
:10410000194A13785B1CDBB2082B0ED100235488AC
:10411000641C5480447A052C07D1448A002C07BFC4
:1041200041F400510160611E41821370FDF7F5FA00
:10413000FDF7BBF80120FCF787FE4FF48040FDF748
:1041400083FE4FF48010FEF7B1FE0020BDE8104062
:10415000FCF77ABE50020020BE0200200010004092
:104160004800002000140040B802002082B032480D
:10417000016841F4807101608168304A11408160BA
:1041800001682F4A11400160016821F4802101601B
:10419000816821F47D0181600021C160019100915D
:1041A000016841F001010160016801F00201009124
:1041B0000199491C0191009919B90199B1F5A06FB4
:1041C000F2D10168490801F001010091009901292B
:1041D0002FD1D0F8001441F00401C0F80014D0F839
:1041E000001441F00201C0F80014D0F8001441F0AE
:1041F0000101C0F80014416A41F080514162114947
:104200004FF400620A604A68D206FCD4816881607B
:104210008168816081688160816889088900816026
:10422000816841F001018160816801F00C0104297D
:10423000FAD102B070470000003802400CC0FF887D
:10424000FEFFFEEE0070004010B5074979441831BA
:10425000064C7C44163404E0081D0A68511888474F
:104260000146A142F8D110BD08000000280000005E
:10427000D7ECFFFF7C020000480000200000000097
:104280009BCBFFFF480000004C0100000000002015
:104290000000000000F009F8002801D0FFF7D4FF6B
:1042A0000020FBF727FF00F002F80120704700F024
:1042B00001B800000746384600F002F8FBE70000AE
:1042C00001491820ABBEFBE72600020001020908E5
:1042D00009000000020004000002000100020000CA
:1042E00001488047014800476D410008F14200083D
:1042F000C046C046C046C046FFF7CCFFFFF730BE01
:10430000FFF72FBEFFF72EBEFFF72DBEFFF72CBE27
:10431000FFF72BBEFFF72ABEFFF729BEFFF728BE27
:10432000FFF7FEBFFFF7FEBFFFF7FEBFFFF7E2BEDE
:10433000FFF7FEBFFFF7FEBFFFF7D9BEFFF7FEBFD7
:10434000FFF7FEBFFFF7FEBFFFF7FEBFFFF7FEBFA1
:10435000FFF7FEBFFFF7FEBFFFF7FEBFFFF7FEBF91
:10436000FFF7FEBFFFF7FEBFFFF7FEBFFFF7FEBF81
:10437000FFF7FEBFFFF7FEBFFFF7FEBFFFF7FEBF71
:10438000FFF7FEBFFFF7FEBFFFF7FEBFFFF7FEBF61
:10439000FFF7FEBFFFF7FEBFFFF7FEBFFFF7FEBF51
:1043A000FFF7FEBFFFF7FEBFFFF7FEBFFFF7FEBF41
:1043B000FFF7FEBFFFF7FEBFFFF7FEBFFFF7FEBF31
:1043C000FFF7FEBFFFF7FEBFFFF7FEBFFFF72ABEF6
:1043D000FFF782BE0024F400030406080C10182026
:1043E0003000000000000000010204000000000096
:1043F0000000000001020304060708090304060880
:104400000C1018203000000000000000010203041E
:0C44100001020304060708090000050073
:04000005080042F1BC
:00000001FF
