:020000040800F2
:10000000B806002081400008653D0008673D0008F3
:10001000693D00086B3D00086D3D000800000000D0
:100020000000000000000000000000006F3D00081C
:10003000713D000800000000733D0008753D000898
:10004000C1400008C5400008C9400008F33E000850
:10005000D1400008D5400008ED3E0008DD40000812
:10006000E1400008E5400008E9400008ED400008D4
:10007000F1400008F5400008F9400008FD40000884
:100080000141000805410008094100080D41000830
:100090001141000815410008194100081D410008E0
:1000A0002141000825410008294100082D41000890
:1000B0003141000835410008394100083D41000840
:1000C0004141000845410008494100084D410008F0
:1000D0005141000855410008594100085D410008A0
:1000E0006141000865410008694100080D3E0008B3
:1000F000C13E00082DE9F041DFF8C84A207A052802
:1001000000F26884DFE810F006006C00A300A7018D
:1001100091023D03DFF8F45B2946002000F0A9FFBF
:10012000287801F078F9687801F0A6F9022001F04A
:100130009FFB20B96069DFF8FC1A88420BD1287850
:10014000E07068782071206820F4806020600220D0
:1001500020720020A070032001F08AFB20B96069A2
:10016000DFF8D41A88420AD10120E071DFF8CC7A96
:1001700038720020387338713870032020720020E4
:1001800001F076FB20B96069DFF8B41A88420BD120
:100190000420E071DFF8A47A0020387238733871D7
:1001A0000120387003202072012001F061FB40B96A
:1001B0006069DFF85C1B88421CBFDFF8581B88426F
:1001C00001D10120207201F034FA20B10720BDE8EE
:1001D000F04101F0A5B90720BDE8F04101F0A8B950
:1001E000DFF8285B2946002000F043FFDFF8281BDA
:1001F000002000F079FF287801F00DF9687801F00F
:100200003BF901F016FA18B1072001F089F902E074
:10021000072001F08DF9062001F082F9DFF8FC5A81
:100220000120287001F024FB48B96069DFF8E01A6A
:1002300088421CBFDFF8DC1A884240F0CB830020E4
:10024000207228700620BDE8F04101F071B9072046
:1002500001F066F9DFF8706901203070DFF8BC5AF0
:1002600028712873A078401CA0702068400578D4BD
:10027000022001F0FDFA38B96069DFF8B819884248
:1002800002D0A078862805D3206880F480602060A2
:100290000020A070032001F0EBFA58B9032001F010
:1002A000EEFA10B12078000704D46069DFF88819ED
:1002B00088420BD1206820F0080020600020A07048
:1002C000E07817280CBF0020401CE070002001F0EF
:1002D000CFFA50B901F0D3FA10B12078000704D456
:1002E0006069DFF85C1988420BD1206820F00800B3
:1002F00020600020A070E07800280CBF1720401E6E
:10030000E070032001F0B7FA78B901F0B4FA60B9EF
:10031000042001F0ADFA40B9042001F0ACFA20B994
:100320006069DFF8FC19884201D10020A07001F05B
:1003300080F930B9032001F09EFA10B901F09BFA60
:1003400038B1E07801F067F82079BDE8F04101F0BC
:1003500093B8582001F05FF82079BDE8F04101F032
:100360008BB8022001F084FA38B96069DFF8C4184C
:10037000884202D0A078862809D300222179E0782B
:1003800001F05AFB0020307028712873207203207E
:1003900001F06EFA58B9032001F071FA10B120781B
:1003A000000704D46069DFF8901888420BD12068F8
:1003B00020F0080020600020A07020793B280CBFAE
:1003C0000020401C2071002001F052FA50B901F0C9
:1003D00056FA10B12078000704D46069DFF860187D
:1003E00088420BD1206820F0080020600020A07017
:1003F000207900280CBF3B20401E2071032001F013
:100400003AFA78B901F037FA60B9042001F030FA0D
:1004100040B9042001F02FFA20B96069DFF8001913
:10042000884201D10020A070E07800F0F4FF01F0D4
:1004300000F930B9032001F01EFA10B901F01BFADF
:1004400020B12079BDE8F04101F016B85820BDE890
:10045000F04101F011B8DFF8C45801202871287369
:10046000E079032802D301F0EAF801E001F0E4F8B2
:1004700001F06BF8072001F05BF8002000F0ADFF01
:10048000032000F0AAFFE179022000F075FF0A21A5
:10049000012000F071FFDFF8A477032001F0E8F9F4
:1004A00020B96069DFF89017884245D1E0790428C7
:1004B0000DD10020E0713872387338713870052022
:1004C00001F043F8002020722871287334E0401CAA
:1004D000C0B2401E032826D8DFE800F01D150B022D
:1004E0000420E071002038723873387101203870B0
:1004F00022E00320E0710020387238730120387147
:100500000020387018E00220E071002038720120CD
:100510003873002004E00120E07138720020387345
:100520003871387008E00020E07138723873387123
:100530003870052001F009F8002001F099F920B980
:100540006069DFF8FC16884245D1E07901280DD1B9
:100550000020E0713872387338713870052000F06F
:10056000F4FF002020722871287334E0401EC0B2CE
:10057000401E032826D8DFE800F01D150B020420DA
:10058000E07100203872387338710120387022E031
:100590000320E07100203872387301203871002088
:1005A000387018E00220E0710020387201203873A2
:1005B000002004E00120E0713872002038733871A7
:1005C000387008E00020E071387238733871387084
:1005D000052000F0BAFF012001F04AF940B9606936
:1005E000DFF82C1788421CBFDFF8281788420AD191
:1005F0000020E0713872387338713870052000F0CF
:10060000A4FF01202072022001F032F928B96069AC
:10061000DFF82016884240F0DD810120607104205F
:1006200020720020A070BDE8F081A078401CA0706E
:10063000DFF8940501210170E079032802D300F06E
:10064000FEFF01E000F0F8FF00F07FFF072000F060
:1006500067FF002000F064FF002000F00DFF00F0B5
:10066000E8FF30B9032001F006F910B901F003F9F1
:1006700048B1607900F0CFFE60790A2806D20020E8
:1006800000F0ABFE02E0582000F0C5FE032001F0B0
:10069000EFF858B9032001F0F2F810B12078C00645
:1006A00004D46069DFF8901588420BD1206820F0EF
:1006B000100020600020A07060790F280CBF01207E
:1006C000401C6071002001F0D3F850B901F0D7F858
:1006D00010B12078C00604D46069DFF86415884240
:1006E0000BD1206820F0100020600020A0706079FD
:1006F00001280CBF0F20401E6071032001F0BBF8E1
:1007000078B901F0B8F860B9042001F0B1F840B947
:10071000042001F0B0F820B96069DFF804168842BF
:1007200001D10020A070022001F0A2F820B9606978
:10073000DFF80015884204D103202072002000F069
:10074000F7FEA0788628C0F045810520207204F1CC
:100750000D01002000F08DFC6079A17B42183C2A3D
:1007600003DA4018A073BDE8F0813C384018A0734C
:10077000607A17283ABF607B401C00206073BDE898
:10078000F081DFF8446401203070DFF89055287163
:10079000287300F04EFF18B1002000F0C1FE01E008
:1007A00000F0C6FEE079032802D300F048FF01E024
:1007B00000F042FF00F0C9FE072000F0B9FE002063
:1007C00000F00BFE032000F008FEE179022000F0AB
:1007D000D3FD0A21012000F0CFFDDFF86074032073
:1007E00001F046F820B96069DFF84C14884249D11D
:1007F000E079042811D10020E07138723873387123
:100800003870052000F0A1FE0020207200F090FE5C
:10081000002028712873307034E0401CC0B2401EA4
:10082000032826D8DFE800F01D150B020420E07134
:1008300000203872387338710120387022E00320AC
:10084000E071002038723873012038710020387050
:1008500018E00220E0710020387201203873002077
:1008600004E00120E071387200203873387138706C
:1008700008E00020E0713872387338713870052054
:1008800000F063FE002000F0F3FF20B96069DFF89C
:10089000B013884249D1E079012811D10020E071DC
:1008A0003872387338713870052000F04EFE002021
:1008B000207200F03DFE002028712873307034E073
:1008C000401EC0B2401E032826D8DFE800F01D15E8
:1008D0000B020420E0710020387238733871012057
:1008E000387022E00320E071002038723873012054
:1008F00038710020387018E00220E0710020387252
:1009000001203873002004E00120E07138720020DB
:1009100038733871387008E00020E071387238732D
:1009200038713870052000F010FE012000F0A0FFA3
:1009300040B96069DFF8D81388421CBFDFF8D413D0
:10094000884211D10020E0713872387338713870E4
:10095000052000F0FAFD01202072002000F0E8FDE3
:100960000020287128733070022000F081FF20B928
:100970006069DFF8C012884204D103202072002091
:1009800000F0D6FDDFF884834146002000F071FBC3
:1009900098F80200E17B884202BF98F80100A17B31
:1009A000884202BF98F80000617B884212D101F0B2
:1009B00061F80020E07138723873387138700520A2
:1009C00000F0C3FD0020207200F0B2FD002028716D
:1009D00028733070BDE8F081022001F0BCF8DFF828
:1009E000440300684FF47A71B0FBF1F0B0F1807FFE
:1009F0000FD2DFF834130002000A401E4860F020D6
:100A000081F8130D0020886007200860F02081F82D
:100A1000130D00F0EEFF00F06FF800F013FE00F091
:100A2000D5F800F00FF901F0EFF800F059FFDFF80A
:100A3000FC4201202070DFF8E852624EDFF8F072CD
:100A400006E0012084F8800001F0CAFA00F01BFFE4
:100A500000F074FF00F0DEFE384601F025F9C8B161
:100A600078687061DFF8AC1288421CBF7449884214
:100A70000BD0A8421CBF7049884206D0DFF8901204
:100A800088421CBF6B49884201D100F0F3FF01F09E
:100A900021F900E07061FFF72DFB042000F0E8FE73
:100AA00010B97069A84203D1306880F4807030605A
:100AB0003068C0050BD5012000F032FD022000F0A7
:100AC0002FFD012084F86C0084F884000AE00120E6
:100AD00000F02EFD022000F02BFD012084F8AC0078
:100AE00084F8C400307A0028ABD13068C005A8D49F
:100AF000012084F8C000A7E770B500F0E6FD0121F1
:100B0000042001F082FB8B4C4FF400502060012048
:100B100020710020E08001206071874D2146284629
:100B200001F044FC4FF40051284601F0DFFC0121A4
:100B3000032001F06AFB1620206001202071A071C3
:100B4000E071607121467D4801F030FC4FF4E040D7
:100B500020607B4E2146304601F028FC0121022016
:100B600001F053FB4FF40040206000202071E07141
:100B7000012060712146304601F018FC012104205B
:100B800001F043FB0F202060012020710020A071A4
:100B90000120E07160712146284601F007FC012127
:100BA000022001F032FB8020206001202071002013
:100BB000A0710120E071607121463046BDE87040AF
:100BC00001F0F4BB44020020B882404230B581B04D
:100BD0000121102001F03FFB5A4C5248006844F6B6
:100BE0002061B0FBF1F0401EA08000202060E0807A
:100BF000554D2146284601F04FFD0121284601F0C0
:100C000080FE01220121284601F0FAFD2B202072EE
:100C10000E2060720120A072E07204F1080001F061
:100C2000E9FE0121284601F0A1FD01B0BDE83040F8
:100C300000F049BF6798FB047788FB0480024142BB
:100C4000AF50FB0410B5414C01F040FA2070201D5C
:100C500001F042FA212001F022FB616960F30001FA
:100C60006161292001F01BFB616960F34101616151
:100C7000312001F014FB616960F382016161392068
:100C800001F00DFB616960F3C3016161492001F06E
:100C900006FB616960F304116161412001F0FFFA14
:100CA000616960F345116161592001F0F8FA6169E9
:100CB00060F3861161615A2001F0F1FA616960F315
:100CC000C71161615B2001F0EAFA616960F30821F4
:100CD00061615C2001F0E3FA616960F349216161BF
:100CE0005D2001F0DCFA616960F38A2161615E20B8
:100CF00001F0D5FA616960F3CB2161615F2001F0F9
:100D0000CEFA616960F30C31616110BD7C02002094
:100D10006F90FB04BF40FB0470020020840240423D
:100D2000A758FB040000002010E000E0B082404221
:100D30005C020020980200200008024000000240EF
:100D4000000402408C020020001000402C02002011
:100D5000FEE710B450F8041B81B102681218001DA0
:100D600050F8043BDC0744BFA9F10104E31852F832
:100D7000044B43F8044B091FF9D1EBE710BC704753
:100D800030B581B0044600252068402818BF0028EF
:100D900005D04FF4B771DFF8AC04FFF7D9FF6068F6
:100DA000802805D340F26F11DFF89804FFF7D0FFD9
:100DB000A068B0F5005F05D34FF4B871DFF8840484
:100DC000FFF7C6FFDFF88004CA21C1615321C1616A
:100DD0000095416849060FD44FF0FF3141604168EA
:100DE000009A521C0092009AB2F5005F01D04906A9
:100DF000F5D54168490613D5016821F0400101602D
:100E00000168226811430160A1688160816862689D
:100E100041EA02418160416821F080014160012581
:100E2000FF21C161284601B030BD81B00020009093
:100E3000DFF81804CA21816153218161016821F022
:100E4000A00101600168009A521C0092009AB2F55C
:100E5000805F01D08906F5D50168FF2282614809CB
:100E600000F0010001B07047F0B581B00E460025DA
:100E7000DFF8CC4330B3DFF8CC73012804D040F264
:100E800083213846FFF764FF3078A168490640F1B6
:100E9000B980010901EB810200F00F0000EB420074
:100EA000C0B208B10D2804D340F299213846FFF7AB
:100EB0004FFFF078002818BF402800F0B38040F2C0
:100EC0009A21ACE03078A168490611D5401EC0B225
:100ED0000C2805D340F28921DFF86803FFF738FFBB
:100EE000F078002818BF40280BD040F28A2104E097
:100EF000F570182805D340F28F21DFF84803FFF77B
:100F000027FF70783C2805D340F29121DFF83403A5
:100F1000FFF71EFFB0783C2805D340F29221DFF89E
:100F20002403FFF715FF3078014600220A2805D375
:100F30000A22B0FBF2F2F62000FB021141EA021095
:100F400071780B4600220A2905D30A22B1FBF2F27E
:100F5000F62101FB023343EA0211B3781F46002257
:100F60000A2B05D30A22B3FBF2F2F62303FB027726
:100F7000C0B20906090C41EA004047EA0211C9B2B1
:100F80000843F17840EA0140CA216162532161625D
:100F90000095E16849060FD44FF0FF31E160E16848
:100FA000009A521C0092009AB2F5005F01D04906E7
:100FB000F5D5E168490620D5DFF894120840206095
:100FC000E06820F08000E0600095CA206062532055
:100FD0006062E06820F0A000E060E0680099491CD1
:100FE00000910099B1F5805F01D08006F5D5E068E9
:100FF000FF216162400900F00105FF206062284680
:1010000001B0F0BDF570010901EB810200F00F00A5
:1010100000EB4200C0B2182804D340F29F213846AA
:10102000FFF796FE7078010901EB810200F00F00D6
:1010300000EB4200C0B23C2804D340F2A121384664
:10104000FFF786FEB078010901EB810200F00F0086
:1010500000EB4200C0B23C2804D340F2A221384643
:10106000FFF776FE30787178090241EA0040B178E6
:1010700086E730B581B005000C4618BF012D05D0BC
:1010800040F2F521DFF8BC01FFF762FEDFF8B001A6
:101090000068DFF8BC110840010C01F03F0222702B
:1010A000020A6270A07001F04000E070D5B92078AB
:1010B000010901EB810200F00F0000EB42002070FB
:1010C0006078010901EB810200F00F0000EB4200A3
:1010D0006070A078010901EB810200F00F0000EBC5
:1010E0004200A07001B030BD30B581B005000C46A3
:1010F00018BF012D05D040F281310FF21020FFF70B
:1011000027FEDFF8F0010068DFF8EC110840010C61
:101110006172010A01F01F0161602072400B00F052
:1011200007002060E5B9607A010901EB810200F057
:101130000F0000EB420060726068C0B2010901EB71
:10114000810200F00F0000EB4200C0B26060207A24
:10115000010901EB810200F00F0000EB4200207258
:1011600001B030BD10B5040018BF012C0DD0022C09
:1011700018BF032C09D0042C18BF062C05D04FF43F
:101180009A610FF28810FFF7E3FDDFF87001CA21C2
:10119000C1615321C1610168C908C90001600168CA
:1011A00021430160FF21C16110BD10B50446B4F5B3
:1011B000803F05D340F2EB410FF25010FFF7C8FD1E
:1011C000DFF83C01CA210161532101610460FF2164
:1011D000016110BD10B582B0044600200090002CC3
:1011E00018BF012C05D04FF4A2610FF22010FFF7B9
:1011F000AFFDDFF80811CA20C8615320C861002C78
:10120000086807D040F4806008600120FF22CA61AE
:1012100002B010BD20F4806008604868009A521C3B
:101220000092009AB2F5005F01D04007F5D54868FA
:10123000800800F00100FF22CA6102B010BD00006A
:10124000002800400C130008082800400C2800402B
:101250007F7F7F0030B581B004000D4602D0294861
:10126000044205D040F293710FF2A000FFF770FD29
:10127000002D18BF012D05D040F294710FF28C00A3
:10128000FFF766FD1D48CA21C1615321C16104F009
:10129000040124F00402002D036808D01A43026000
:1012A000826B11438163FF21C16101B030BD23EA2C
:1012B00002020260826B22EA01018163FF21C161A7
:1012C00001B030BD10B5040002D034F43C3005D07C
:1012D00040F623010FF23400FFF73AFD0A482103DC
:1012E000090C41F08001026802F0800262EA01010B
:1012F000016010BD042800403FFFFF0008280040A7
:1013000014280040FB0FFFFF0C280040433A5C30DC
:10131000304669726D77617265576F726B696E677F
:1013200041436861755C576F726B696E675C4754C7
:1013300053565F52616E6765486F6F645C4C6962BB
:101340007261726965735C53544D33324C317878F5
:101350005F5374645065726970685F447269766542
:10136000725C7372635C73746D33326C3178785F66
:101370007274632E63000000F0B40FF28C42895C3B
:101380000FF2784202EB4002507892789400DFF836
:10139000342401F001031355DFF82C344D1005F00F
:1013A00001051D55DFF824548E1006F001062E5558
:1013B000CE1006F00106DFF818743E5580000C11BF
:1013C00004F001042C548C1104F001041C54491144
:1013D00001F001011154F0BC704770B40FF21C41D0
:1013E00001EB4000417880788000DFF8D8230023AB
:1013F0001354DFF8D43300241C54DFF8D043002505
:101400002554DFF8CC5300262E54880026541E5451
:10141000165470BC704710B518280FD20A2190FBE3
:10142000F1F404EB8401A0EB4101C9B20120FFF704
:10143000A3FFE1B20020BDE810409DE7DFF8940370
:10144000002180F8001380F8001280F8001101706C
:1014500080F8FC1080F8FC1180F8FC1280F808136A
:1014600080F8081280F80811017280F8041180F8E1
:10147000041280F8041310BD10B53C280FD20A21C5
:1014800090FBF1F404EB8401A0EB4101C9B203200D
:10149000FFF772FFE1B20220BDE810406CE7CE48D2
:1014A000002180F8001380F8001280F8001101700C
:1014B00080F8FC1080F8FC1180F8FC1280F82013F2
:1014C00080F8201280F8201180F8201080F8041194
:1014D00080F8041280F8041310BDC0480088C04989
:1014E00000F0010281F82820C0F3800281F8542026
:1014F000C0F3400281F85C200206D20F0A70C0F3EC
:10150000801281F85020C0F3C00281F85021C0F34E
:10151000001281F85022C0F3401081F85003704748
:10152000AE490A88012303FA00F010430880D4E78B
:10153000AA49082808BF002005D00A88012303FA19
:1015400000F022EA00000880C7E710B518B10228B1
:1015500012D005D327E0A14C208840F0080027E0F6
:101560009E4C20884FF6F77108402080FFF7B5FFAA
:10157000208840F0100022E0984C20884FF6F77148
:1015800008402080FFF7A9FF20884FF6EF71084040
:101590002080FFF7A2FF208840F020002080BDE8D7
:1015A0001040FFF79ABF8D4C20884FF6F771084026
:1015B0002080FFF792FF20884FF6EF7108402080CF
:1015C000FFF78BFF20884FF6DF7108402080BDE8D1
:1015D000104082E783480178491C0170C9B2142980
:1015E00004BF0021017001780A299241D20FC27014
:1015F0004178491C4170C9B2032909D100214170C9
:101600004179491C4171C9B2032904BF00214171CC
:101610008178491C8170C9B2062909D100218170E5
:101620000179491C0171C9B2032904BF002101716C
:1016300070476C48C07870476A48007970476948BD
:101640004079704700B585B001214FF4007000F07B
:1016500002FE002000904FF4701001900C200290C8
:10166000402003900020049000A800F03DFB0120E2
:1016700000F0FEFB4FF4E05000F08BFC002000F087
:1016800025FC602000F002FC00F0EDFB012000F0E2
:10169000D6FB012000F0A8FC0028FAD0102000F0B2
:1016A000A3FC0028FAD04FF48041002000F034FC65
:1016B000042000F099FC0028FAD140214A4801F0AA
:1016C00019FA00F08DFC05B000BD10B582B0012103
:1016D0003F2000F09AFD00A800F0FFFE4FF4074005
:1016E000009002208DF80400404C00A9204600F034
:1016F0005DFE0B220821204600F01EFF0B2209216F
:10170000204600F019FF0B220A21204600F014FFAA
:101710000B220F21204600F00FFF4FF44E70009077
:1017200002208DF80400324C00A9204600F03EFE55
:101730000B220321204600F0FFFE0B22042120464D
:1017400000F0FAFE0B220521204600F0F5FE0B22E8
:101750000821204600F0F0FE0B220921204600F06F
:10176000EBFE4FF4F050009002208DF80400214C65
:1017700000A9204600F01AFE0B220921204600F0A5
:10178000DBFE0B220A21204600F0D6FE0B220B21A5
:10179000204600F0D1FE0B220C21204600F0CCFEAA
:1017A0000420009002208DF80400134C00A920466C
:1017B00000F0FCFD0B220221204600F0BDFE02B02D
:1017C00010BD00008085044280840442808304426E
:1017D00080820442F4820442A0820442AA020020D1
:1017E0009C820442A0020020142400400000024019
:1017F0000004024000080240000C0240111C1D1EA3
:101800001F070809101B00003F065B4F666D7D0730
:101810007F6F710070B4464D05F1080005F11001AD
:1018200005F11802434B05241E7876070DD52E7856
:10183000002E01BF0678002E01262E70067846B1D4
:101840001688372E11D2761C05E006780EB10026D8
:10185000067000260E7016801433921C491C401C22
:101860006D1C641EE0D170BC704701260E70F3E75A
:101870002F49405C70472E494018007A70472C4928
:101880004018007C704710B5294C207828B1002002
:1018900020700120207200F0EDF8607828B100205F
:1018A00060700120607200F0E5F8A07828B1002097
:1018B000A0700120A07200F0DDF8E07828B10020CF
:1018C000E0700120E07200F0D5F8207938B10020F6
:1018D000207101202073BDE8104000F0CBB810BD8E
:1018E00000B581B001F01AF91348416841F00301D5
:1018F000416001214172816941F00301816101214F
:101900004177C16A41F00301C162012180F83110C1
:10191000016C41F003010164012180F84510416D23
:1019200041F003014165012180F8591001B000BD6B
:10193000AC0100201C0100201801002001F012B9A8
:1019400000B583B0012000F0AFFB492000F0A7FCF8
:101950000028FAD04FF4803000F013FC012000F092
:1019600045FCFFF762FA40487F214160FF2181601A
:1019700000210160FFF704FA0020FFF72BFC4FF471
:10198000801001F0A9F94FF48010019000208DF82B
:10199000080008208DF8090001208DF80A0001A830
:1019A00001F03AF903208DF8000001208DF80100C4
:1019B00000208DF8020001208DF8030000A801F03E
:1019C00019F82A48F02101700120FFF7EEFB0420EE
:1019D000FFF7C8FB4FF48040FFF774FC4FF4801012
:1019E00001F07AF901214FF48040FFF733FC03B096
:1019F00000BD00B581B001214FF0805000F02BFCFC
:101A0000012000F09BF8FFF79BFF1948052141607A
:101A1000012101720D214172032101600021C17376
:101A2000022101731921417300218173002001B04B
:101A30005DF804EB00F082B870B504460D4616461A
:101A4000012000F07BF80A480021C173047345733C
:101A5000867300F10C010020FFF706FA0020BDE8B4
:101A6000704000F06BB800008002002003E400E04A
:101A7000700200202D48018829B9C8214180012128
:101A80000180002070474FF0FF30704727480188E1
:101A900091B1012905D1022101800121244800F0E2
:101AA00065BE4288914202D2491C018070470021E4
:101AB00001801F4800F05ABE70471E48017881F02F
:101AC00001010170704710B584B00121202000F0A1
:101AD000C2FB194800684FF47A61B0FBF1F0401E78
:101AE000ADF8080000200190ADF80A00104C01A9E3
:101AF000204600F0D1FD0121204600F002FF012226
:101B00000121204600F07CFE2C208DF800000E20E4
:101B10008DF8010001208DF802008DF8030000A867
:101B200000F068FF04B010BD00000000A602002015
:101B300000140040B40241420000002010B504002F
:101B400018BF012C04D086210FF25000FFF700F9D6
:101B50001048046010BD30B581B004460025012C4A
:101B600018BF022C0DD0042C18BF082C09D0102C43
:101B700018BF202C05D040F20F310FF22000FFF7E4
:101B8000E7F805480068204218BF0125284601B043
:101B900030BD000020000E4204700040433A5C302B
:101BA000304669726D77617265576F726B696E67E7
:101BB00041436861755C576F726B696E675C47542F
:101BC00053565F52616E6765486F6F645C4C696223
:101BD0007261726965735C53544D33324C3178785D
:101BE0005F5374645065726970685F4472697665AA
:101BF000725C7372635C73746D33326C3178785FCE
:101C00007077722E630000003548364901607047D6
:101C10000021C2685388883B5D2B43D2304B93F838
:101C2000D030042B10D19188203917293EBFD1889C
:101C30000939092936D2002101704FF0FF31416086
:101C40000021017201207047442B2BD39388423B23
:101C50002E2B27D202F206025FF02003B2F800C05A
:101C6000ACF1090CBCF1090F1CD2B2F802C0ACF106
:101C7000160CBCF1110F0CD2490041F00101121DEC
:101C80005B1EEBD120220272416000210170012015
:101C90007047B2F802C0ACF1060CBCF1070F38BFB8
:101CA0004900ECD30020704710B50D4C04F1080139
:101CB000C16094F8D01001612179032901D000207E
:101CC00010BDFFF7A5FF08B1012010BD207184F8F9
:101CD000D00010BD02480021017180F8D01070477B
:101CE000440000203C82404210B504462068002891
:101CF00018BFB0F5800F2ED0B0F5000F18BFB0F5AB
:101D0000400F28D0B0F1807F18BFB0F1A07F22D063
:101D1000B0F1C07F18BFB0F1E07F1CD0B0F1007F00
:101D200018BFB0F1107F16D0B0F1207F18BFB0F10E
:101D3000307F10D0B0F1407F18BFB0F1507F0AD093
:101D4000B0F1607F18BFB0F1707F04D0B5210FF201
:101D5000EC20FEF7FDFF6068002818BFB0F5802F6B
:101D60002ED0B0F5002F18BFB0F5402F28D0B0F519
:101D7000801F18BFB0F5A01F22D0B0F5C01F18BF3C
:101D8000B0F5E01F1CD0B0F5001F18BFB0F5101F54
:101D900016D0B0F5201F18BFB0F5301F10D0B0F529
:101DA000401F18BFB0F5501F0AD0B0F5601F18BF14
:101DB000B0F5701F04D0B6210FF28020FEF7C8FFE7
:101DC000A068002818BF042809D008281CBF0C28C8
:101DD000102804D0B7210FF26420FEF7B9FFE068A5
:101DE00000281CBF2028402804D0B8210FF24C2026
:101DF000FEF7AEFF2069002818BF022804D0B921E1
:101E00000FF23820FEF7A4FF8648416821F07F7169
:101E100041604168226863681A43114341608168E8
:101E20008906FCD5016821F07E0101600168A26885
:101E3000E3681A4323691A431143016010BD30B5AA
:101E400081B0040018BF012C09D00FF2F015E22177
:101E50002846FEF77DFFE5212846FEF779FF724808
:101E6000046001B030BD714801688906FCD5704737
:101E700010B5040018BF012C05D040F215110FF267
:101E8000BC10FEF765FF6A48046010BD10B5040081
:101E900018BF102C11D0202C18BF302C0DD0402C86
:101EA00018BF502C09D0602C18BF702C05D04FF4EF
:101EB00096710FF28810FEF74BFF5E48016821F023
:101EC0007001016001682143016010BD10B504007C
:101ED00018BF802C17D0B4F5807F18BFB4F5C07F31
:101EE00011D0B4F5007F18BFB4F5207F0BD0B4F546
:101EF000407F18BFB4F5607F05D040F243110FF268
:101F00003C10FEF725FF4B48016821F46071016029
:101F100001682143016010BD30B581B004000D4659
:101F200018BFB4F5803F0BD0B4F5003F18BFB4F52F
:101F3000403F05D04FF4B1710FF20010FEF708FFDB
:101F4000002D18BFB5F5005F17D0B5F5804F18BF4D
:101F5000B5F5C04F11D0B5F5004F18BFB5F5204FFE
:101F60000BD0B5F5404F18BFB5F5604F05D040F226
:101F700063110FF2C800FEF7EBFE2E48016821F452
:101F800078310160016845EA04021143016001B043
:101F900030BD10B5040018BFB4F5806F17D0B4F58C
:101FA000006F18BFB4F5406F11D0B4F5805F18BF53
:101FB000B4F5A05F0BD0B4F5C05F18BFB4F5E05F17
:101FC00005D04FF4BD710FF27400FEF7C1FE194841
:101FD000016821F4E051016001682143016010BDF6
:101FE000154801210160704730B581B004460025D5
:101FF000012C18BF022C0DD0042C18BF082C09D0BE
:10200000102C18BF202C05D04FF406710FF22C00B5
:10201000FEF79EFE05480068204218BF01252846AD
:1020200001B030BD0024004000800442082400407C
:102030001C8004420424004008810442433A5C307E
:10204000304669726D77617265576F726B696E6742
:1020500041436861755C576F726B696E675C47548A
:1020600053565F52616E6765486F6F645C4C69627E
:102070007261726965735C53544D33324C317878B8
:102080005F5374645065726970685F447269766505
:10209000725C7372635C73746D33326C3178785F29
:1020A0006C63642E6300000010B504001CBF012C9B
:1020B000052C05D040F2BD110FF28420FEF748FE3A
:1020C000DFF8480200210170047010BDDFF8400203
:1020D000006800F00C00704710B4DFF82C124A685A
:1020E00002F00C020C2A23D8DFE802F0222222227E
:1020F000072222220A2222220D00DFF8182220E0E5
:10210000DFF814221DE04A684B68C2F38342DFF80F
:102110000C42125DC3F381535B1C4C68E40354BF53
:10212000DFF8F041DFF8F0416243B2FBF3F208E080
:102130000A680123520B02F00702521C03FA02F252
:10214000D20302604B68DFF8D4210468C3F30313A1
:102150009B181B7B24FA03F343604B684468C3F36A
:1021600002239B181B7B24FA03F3836049684368AE
:10217000C1F3C2218918097B23FA01F1C16010BCA7
:10218000704710B50446B4F5803F18BFB4F5003F62
:1021900014D0B4F5403F1CBFDFF8840184420DD059
:1021A000DFF8800184421CBFDFF87C01844205D047
:1021B00040F2E1310FF28810FEF7CAFDDFF844016A
:1021C00004F44031B1F5403F06D1016821F0C0412F
:1021D00004F0C04211430160416B21F4403141637E
:1021E000416B04F440321143416310BD10B504004B
:1021F00018BF012C05D040F203410FF24410FEF746
:10220000A7FDDFF82801046010BD30B581B0044699
:102210000D46DFF81C01044200D12CB940F22F41D9
:102220000FF21C10FEF794FD75B1012D05D04FF48F
:1022300086610FF20C10FEF78BFDDFF8F8000168E5
:102240002143016001B030BDDFF8E8000168A1431F
:10225000016001B030BD30B581B004460D46DFF8F5
:10226000D800044200D12CB940F27C410FF2D000DA
:10227000FEF76EFD6DB1012D05D040F27D410FF2EC
:10228000C000FEF765FD2D4801682143016001B0E3
:1022900030BD2A480168A143016001B030BD30B5AE
:1022A00081B004460025212C18BF312C1AD0292CCE
:1022B00018BF392C16D0492C18BF412C12D05A2CDB
:1022C00018BF5B2C0ED05C2C18BF5D2C0AD05E2C86
:1022D0001CBF5F2C592C05D040F2B6510FF26000A4
:1022E000FEF736FD0748610901290CBF0068406B05
:1022F000012104F01F029140084218BF0125284621
:1023000001B030BD00380240043802403538024088
:10231000083802400024F40000127A00280000204F
:10232000000003200000034000000360D80647427D
:10233000C06FFFFE1C380240C8B5194F2438024058
:10234000433A5C30304669726D77617265576F72DF
:102350006B696E6741436861755C576F726B696E3C
:10236000675C475453565F52616E6765486F6F6490
:102370005C4C69627261726965735C53544D3332AF
:102380004C3178785F5374645065726970685F444B
:1023900072697665725C7372635C73746D33326CF0
:1023A0003178785F7263632E630000002DE9F0439B
:1023B00081B004460D460026DFF8580284421CBF57
:1023C000DFF85402844214D0DFF8500284421CBF6C
:1023D000DFF84C0284420CD0DFF8480284421CBF74
:1023E000DFF84402844204D0C1210FF24020FEF7FE
:1023F000AFFC286820B9C2210FF23020FEF7A8FCFC
:102400002879002818BF012808D0022818BF0328FF
:1024100004D0C3210FF21420FEF79AFCE87940B1F2
:10242000012818BF022804D0C4210FF20020FEF7B3
:102430008FFC012000FA06F8286808EA00004045F1
:1024400045D177000320B8406FEA0009206809EA07
:102450000000206020682979B9400843206028796D
:10246000012818BF022829D16879002818BF01283F
:1024700008D0022818BF032804D0D8210FF2AC10CE
:10248000FEF766FCA06809EA0000A060A068697910
:10249000B9400843A060A879002818BF012804D0DB
:1024A000DF210FF28810FEF753FCA08820EA080015
:1024B000A080A088A979B1400843A080E06809EA1B
:1024C0000000E060E068E979B9400843E060761C0C
:1024D000102EAED301B0BDE8F0834FF6FF7101605E
:1024E0000021017141718171C171704730B581B0B6
:1024F00004460D46474884421CBF4748844211D0D9
:10250000464884421CBF464884420BD0454884421A
:102510001CBF4548844205D040F29B110FF20C10BD
:10252000FEF716FC2DB94FF4CE710FF20010FEF736
:102530000FFC658301B030BD70B506460D461446EC
:10254000344886421CBF3448864211D03348864204
:102550001CBF334886420BD0324886421CBF3248EB
:10256000864205D040F209210FF2C000FEF7F0FBD1
:10257000002D18BF012D21D0022D18BF032D1DD015
:10258000042D18BF052D19D0062D18BF072D15D005
:10259000082D18BF092D11D00A2D18BF0B2D0DD0F5
:1025A0000C2D18BF0D2D09D00E2D18BF0F2D05D0E5
:1025B00040F20A210FF27400FEF7CAFB002C18BF8C
:1025C000012C16D0022C18BF032C12D0042C18BFDB
:1025D000052C0ED0072C18BF0A2C0AD00B2C1CBFC0
:1025E0000E2C0F2C05D040F20B210FF24000FEF70D
:1025F000AFFBE81006EB800005F007018900026AD6
:102600000F238B409A430262026A04FA01F11143DC
:10261000016270BD00000240000402400008024058
:10262000000C02400010024000140240433A5C30AB
:10263000304669726D77617265576F726B696E674C
:1026400041436861755C576F726B696E675C475494
:1026500053565F52616E6765486F6F645C4C696288
:102660007261726965735C53544D33324C317878C2
:102670005F5374645065726970685F44726976650F
:10268000725C7372635C73746D33326C3178785F33
:102690006770696F2E63000030B581B004460D4647
:1026A000B4F1804F1CBFDFF8380184421CD0DFF842
:1026B000340184421CBFDFF83001844214D0DFF8BB
:1026C0002C0184421CBFDFF8280184420CD0DFF8C3
:1026D000240184421CBFDFF82001844204D0FA2187
:1026E000DFF81801FEF734FB6888002818BF1028AF
:1026F00009D020281CBF4028602804D0FB21DFF827
:10270000FC00FEF725FBE88800281CBFB0F5807FA1
:10271000B0F5007F04D0FC21DFF8E000FEF718FBE5
:102720002088B4F1804F1FBFDFF8B4108C42DFF86F
:10273000B4108C4204D14FF68F7108406988084369
:10274000DFF8A4108C421CBFDFF8A0108C4204D02C
:102750004FF6FF410840E98808432080A888A085FB
:10276000288820850120A08201B030BD30B581B01D
:1027700004460D46B4F1804F1CBF1948844218D05E
:10278000184884421CBF1848844212D0174884421B
:102790001CBF174884420CD0164884421CBFDFF887
:1027A0005800844205D040F21A21DFF85000FEF7AD
:1027B000CFFA6DB1012D05D040F21B21DFF83C00AE
:1027C000FEF7C6FA208840F00100208001B030BD3D
:1027D00020884FF6FE710840208001B030BD000017
:1027E00000040040000800400010004000140040B9
:1027F00000080140000C0140001001408829000839
:1028000070B504460D461646B4F1804F1CBF5648BD
:1028100084421AD0554884421CBFDFF860018442CC
:1028200013D0DFF85C0184421CBF514884420CD0B5
:10283000504884421CBFDFF84001844205D040F27A
:102840006A71DFF84001FEF783FA4FF6A070054287
:1028500000D12DB940F26B71DFF82801FEF778FA4C
:102860005EB1012E05D040F26C71DFF81801FEF761
:102870006FFAA0892843A08170BDA089A843A081D8
:1028800070BD70B506460C460025B6F1804F1CBFE2
:10289000354886421AD0354886421CBFDFF8DC0036
:1028A000864213D0DFF8D80086421CBF30488642EB
:1028B0000CD0304886421CBFDFF8BC00864205D0F1
:1028C0004FF4FF61DFF8BC00FEF742FA012C18BF9D
:1028D000022C0DD0042C18BF082C09D0102C18BFC6
:1028E000402C05D040F2F971DFF89800FEF730FA7D
:1028F000308AB189214020421CBF00290125284689
:1029000070BD30B581B004460D46B4F1804F1CBF98
:102910001548844219D0154884421CBFDFF85C007A
:10292000844212D0DFF8580084421CBF1048844211
:102930000BD0104884421CBF0F48844205D040F69B
:102940001F01DFF84000FEF703FA4FF6A0700542C2
:1029500000D12DB94FF40261DFF82800FEF7F8F935
:10296000E843208201B030BD000400400008004070
:1029700000080140000C0140001001400010004020
:102980000014004088290008433A5C3030466972E0
:102990006D77617265576F726B696E6741436861ED
:1029A000755C576F726B696E675C475453565F5224
:1029B000616E6765486F6F645C4C696272617269D1
:1029C00065735C53544D33324C3178785F53746483
:1029D0005065726970685F4472697665725C737283
:1029E000635C73746D33326C3178785F74696D2E0B
:1029F0006300000070B50446E078002818BF012885
:102A000004D08C210FF28800FEF7A2F9607810281C
:102A100004D38D210FF27800FEF79AF9A0781028E0
:102A200004D38E210FF26800FEF792F92278114646
:102A30000120E378E3B1124A126802F4E062C2F5C1
:102A4000E062120A6378C2F10405AB40A5780F2654
:102A500026FA02F22A401A4312010A4BCA5421787C
:102A60004A11094B01F01F01884043F8220070BD54
:102A70004911064B02F01F02904043F8210070BD3F
:102A80000CED00E000E400E000E100E080E100E0A7
:102A9000433A5C30304669726D77617265576F7288
:102AA0006B696E6741436861755C576F726B696EE5
:102AB000675C475453565F52616E6765486F6F6439
:102AC0005C4C69627261726965735C53544D333258
:102AD0004C3178785F5374645065726970685F44F4
:102AE00072697665725C7372635C6D6973632E6381
:102AF00000000000002200F039B950F8041B61B159
:102B000050F8042BD30744BFA9F101039A180023FE
:102B100042F8043B091FFAD1EFE7704710B50120D6
:102B200080F310883A4C0020E07020711420A071CE
:102B3000E0710A2060710020A070142020720A2029
:102B400060721420A0720020E072207300F028F957
:102B500000F01AFD00F0F6FD002080F3108801203F
:102B6000207010BD10B52A4C2078401E0A284DD880
:102B7000DFE800F006181D2B304C4C4C4C4C3D004F
:102B8000012080F3108823480168A26961F30002E4
:102B9000A261490849000160002080F310880220EA
:102BA000207010BD00F060FD0320207010BD0020DB
:102BB00084F8010000F0E2FD6078401C6070C0B253
:102BC0000428F7D30420207010BD00F099FD0520E3
:102BD000207010BD0420607000F0D0FD6078401CB3
:102BE0006070C0B20528F7D30B20207010BD00F034
:102BF000EAFFA08B20820020A08394F8200020759B
:102C0000002084F820000120207010BDFEE70000A5
:102C1000D0010020A401002030B581B00446207905
:102C2000002818BF042804D081210FF2D400FEF739
:102C30008FF8607908281CBF0C28102804D0822146
:102C40000FF2BC00FEF784F82068C10DC90500D161
:102C500020B983210FF2A800FEF77AF8A07980B39B
:102C6000012806D084210FF29800FEF771F8A079B0
:102C700038B32148016822689143016041682268A5
:102C80009143416022798218136825682B431360B1
:102C9000826823689A438260C26823689A43C2604C
:102CA00062792368102A08D1816819438160C1685C
:102CB00022681143C16001B030BD8218106818430A
:102CC00007E0207900F1804202F582321068216825
:102CD0008843106001B030BD10B50446E00DC0055A
:102CE00000D12CB94FF492710FF21400FEF730F8B6
:102CF0000248046010BD00000004014014040140BB
:102D0000433A5C30304669726D77617265576F7215
:102D10006B696E6741436861755C576F726B696E72
:102D2000675C475453565F52616E6765486F6F64C6
:102D30005C4C69627261726965735C53544D3332E5
:102D40004C3178785F5374645065726970685F4481
:102D500072697665725C7372635C73746D33326C26
:102D60003178785F657874692E63000000B500BF24
:102D7000130096469446103928BFA0E80C50FAD8A4
:102D80005FEA417C28BF0CC048BF40F8042BC9074C
:102D900028BF20F8022B48BF00F8012B00BD00001F
:102DA000DFF8B807016841F001010160DFF8B017F2
:102DB0008A6842F0C0028A60026842F00202026041
:102DC0008A6842F440328A60026842F0040202607B
:102DD000CA6842F4F872CA60826842F000428260B7
:102DE0000868400040080860DFF878070188018023
:102DF00081688160B0F80014A0F80014D0F80814BD
:102E0000C0F80814B0F80018A0F80018D0F8081896
:102E1000C0F808180188018081688160B0F800144A
:102E2000A0F80014D0F80814C0F80814B0F800187E
:102E3000A0F80018D0F80818C0F80818FFE730B557
:102E400081B0DFF82447DFF8185728682040286051
:102E50006868800880006860012080F31088DFF8CF
:102E60000C07818A4FF67F7211408182016821F43C
:102E7000404141F480410160B0F814144FF6FD72F6
:102E80001140A0F81414D0F8001421F00C0141F006
:102E90000401C0F80014B0F814184FF65F72114026
:102EA000A0F81418D0F8001821F44C4141F48841DE
:102EB000C0F80018818A4FF6BF7211408182016804
:102EC00021F4405141F480510160B0F814144FF6E0
:102ED000FE721140A0F81414D0F80014890889007B
:102EE00041F00101C0F80014B0F814184FF6AF72A9
:102EF0001140A0F81418D0F8001821F44C5141F4F6
:102F00008851C0F80018818A818201680160B0F898
:102F10001414A0F81414D0F80014C0F80014B0F879
:102F200014184FF6FF621140A0F81418D0F80018DA
:102F300021F4403141F48031C0F80018002080F3C2
:102F40001088642000F01AFB286820402860686818
:102F500080088000686001B030BD2DE9F04F81B07D
:102F60000024DFF80C562C606C60AC60EC602C61C7
:102F70006C61DFF8F485DFF8E875386808EA00006E
:102F800038607868800880007860012080F31088BD
:102F9000DFF8D865B08A4FF67F710840B08230689C
:102FA00020F4404040F480403060B6F814044FF6FE
:102FB000FD710840A6F81404D6F8000420F00C00B7
:102FC00040F00400C6F80004B6F814084FF65F712C
:102FD0000840A6F81408D6F8000820F44C4040F445
:102FE0008840C6F80008B08A4FF6BF710840B0822A
:102FF000306820F4405040F480503060B6F814043B
:103000004FF6FE710840A6F81404D6F800048008B4
:10301000800040F00100C6F80004B6F814084FF62E
:10302000AF710840A6F81408D6F8000820F44C50F8
:1030300040F48850C6F8000884F31088322000F06D
:103040009DFA012080F31088306820F440503060F1
:10305000D6F8000480088000C6F80004D6F80008FE
:1030600020F44C50C6F8000884F310884FF6FC7921
:1030700044F2401A48F2802B38684BEA000038606E
:10308000786840F002007860012080F31088B08AF0
:1030900040F04000B082306820F4405040F480504E
:1030A0003060B6F8140440F00100A6F81404D6F815
:1030B00000048008800040F00100C6F80004B6F863
:1030C000140840F05000A6F81408D6F8000820F4C0
:1030D0004C5040F48850C6F80008002080F3108857
:1030E00000F03CFE287DC00707D4308A800704D555
:1030F0002C80686940F001006861287D400608D492
:10310000B6F81004800404D5AC81686940F0400032
:103110006861287D000608D4B6F81008800704D539
:10312000EC81686940F0800068616869800508D4B6
:10313000B6F81008000604D56C82686940F4007087
:103140006861287D000707D4308A800504D5EC80AB
:10315000686940F008006861287DC00607D4308A9D
:10316000400404D52C81686940F010006861287D16
:10317000800707D4308A000604D56C80686940F067
:1031800002006861287D400708D4B6F81004800763
:1031900004D5AC80686940F004006861287D800631
:1031A00008D4B6F81004800604D56C81686940F034
:1031B000200068616869C00508D4B6F81008800668
:1031C00004D52C82686940F480706861641C012019
:1031D00080F31088306820F440503060D6F8000446
:1031E00080088000C6F80004D6F8000820F44C508F
:1031F000C6F80008002080F3108838684AEA00000A
:103200003860786840F00100786000F0A9FD012086
:1032100080F31088306820F440403060D6F8000415
:1032200020F00C00C6F80004D6F8000820F44C404A
:10323000C6F80008002080F31088386808EA00000B
:103240003860786809EA0000786041F2A940A4B2C9
:10325000844203D300BF01B0BDE8F08F288B6969B9
:10326000014081427FF408AF01B0BDE8F08F2DE945
:10327000F04F81B00024BF4D2C606C60AC60EC60FE
:103280002C616C61DFF8F092B54F386809EA0000F4
:1032900038604FF6F978786808EA00007860012015
:1032A00080F31088B14EB08A4FF67F710840B0822B
:1032B000306820F4404040F480403060B6F8140498
:1032C0004FF6FD710840A6F81404D6F8000420F06B
:1032D0000C0040F00400C6F80004B6F814084FF6DD
:1032E0005F710840A6F81408D6F8000820F44C4096
:1032F00040F48840C6F80008B08AB0823068306078
:10330000B6F81404A6F81404D6F80004C6F80004AD
:10331000B6F814084FF6FF610840A6F81408D6F86E
:10332000000820F4403040F48030C6F8000884F3F0
:103330001088322000F022F9012080F310883068D4
:103340003060D6F80004C6F80004D6F8000820F46F
:103350004030C6F8000884F31088012080F31088FC
:10336000306820F440403060D6F8000420F00C00B3
:10337000C6F80004D6F8000820F44C40C6F800084F
:1033800084F3108841F2A94A48F2802B38684BEA4E
:1033900000003860786840F002007860012080F317
:1033A0001088B08AB08230683060B6F81404A6F88D
:1033B0001404D6F80004C6F80004B6F8140840F463
:1033C0008070A6F81408D6F8000820F4403040F4C5
:1033D0008030C6F80008002080F3108800F0BEFCA2
:1033E000287DC00707D4308A800704D52C806869FF
:1033F00040F001006861287D400608D4B6F810044A
:10340000800404D5AC81686940F040006861287D83
:10341000000608D4B6F81008800704D5EC81686966
:1034200040F0800068616869800508D4B6F810082B
:10343000000604D56C82686940F400706861287DDC
:10344000000707D4308A800504D5EC80686940F015
:1034500008006861287DC00607D4308A400404D57E
:103460002C81686940F010006861287D800707D4CE
:10347000308A000604D56C80686940F002006861FB
:10348000287D400708D4B6F81004800704D5AC8026
:10349000686940F004006861287D800608D4B6F8A9
:1034A0001004800604D56C81686940F020006861D2
:1034B0006869C00508D4B6F81008800604D52C82C7
:1034C000686940F480706861012080F3108830687A
:1034D0003060D6F80004C6F80004D6F8000820F4DE
:1034E0004030C6F80008002080F31088641C38685B
:1034F0003860786840F00400786000F031FC01200A
:1035000080F31088306820F440403060D6F8000422
:1035100020F00C00C6F80004D6F8000820F44C4057
:10352000C6F80008002080F31088386809EA000017
:103530003860786808EA00007860544503D300BF1B
:1035400001B0BDE8F08F288B6969014081427FF4AA
:103550001DAF01B0BDE8F08F000000001C38024034
:10356000087C0040040002403F3CFFFF0000024096
:10357000F4010020100200207F7DFFFF00E0401ECC
:1035800080B20028FBD1704710B5354C0020A061F7
:1035900060612061E06184F828002046FEF79CFD10
:1035A00060684FF4FA61B0FBF1F0B0F1807F0CD2AB
:1035B0002C490002000A401E4860F02081F8130DDB
:1035C000002088600720086010BDFEE7244841699C
:1035D00082690369142B10D3143B0361491CC3692E
:1035E0005B1CC3610A2922BF0A39521C0A2A04D370
:1035F0000A3A836A43F00103836282614161704742
:1036000010B5174C2069401C2061E06A10B1E06AD7
:10361000401EE062FFF7DAFFA06A810704D520F0C0
:103620000600A062C8202062A06A010704D520F02D
:103630001800A062C8206062206A30B1401E20627B
:1036400003D1A06A40F00400A062606A30B1401E5D
:10365000606203D1A06A40F01000A06210BD0000BB
:103660007C01002010E000E070B5DFF82C43002062
:103670002083DFF82853DFF8286330788821084258
:1036800003D1DFF8200300882083307D084205D174
:10369000208BDFF8101349880843208396F8280010
:1036A0008821084205D1208BDFF8F8128988084369
:1036B000208396F83C008821084205D1208BDFF852
:1036C000E412C9880843208304202870208BB0B1FD
:1036D000FFF743FCDFF8D002017834F81110718154
:1036E000417834F81110F183817834F81110718623
:1036F000C07834F81000A6F846000420287070BD89
:1037000070B5DFF8A84200202083DFF89052DFF880
:10371000906296F850008821084203D1DFF88402B5
:103720000089208305202870208B50B1FFF79FFD72
:10373000DFF87C02007834F81000A6F85A00052063
:10374000287070BD70B5954C002020706FF0090591
:10375000DFF8606200F03AF930688021017030686B
:1037600044210174306843214174306885742078A5
:10377000401C2070C0B20528ECD370BD10B500F01D
:1037800025F900F02DF98B4C20680178012973D0C0
:1037900002290CD0042940D0082912D011295AD06E
:1037A000142923D0242942D0802972D076E0408980
:1037B000323841F2774180B2884267D200F06FF828
:1037C00020680079800758BF00F093F920687A4993
:1037D0000A8883881A430A8078490A7803781A434A
:1037E0000A70416821F00801416010BD7449B1F9C7
:1037F000001090F9100081420CDB00F08DF9206878
:10380000817B491E81732068807B0028DED100F017
:103810001EF9DBE700F002F9D8E74089323841F2BF
:10382000774180B2884231D200F072F8C8E790F94F
:103830001110634AB2F90020914209DB817B491ED5
:1038400081732068807B0028C0D100F0D3F8BDE7E9
:1038500000F016F9BAE790F91210594AB2F90020AF
:103860009142D7DB817B491E81732068807B0028D1
:10387000ACD100F013F9A9E74089323841F2774121
:1038800080B2884202D200F075F899E700F01EF984
:103890009CE7007900F003000328E9E7FEE730B574
:1038A00081B0474DB5F90000424C216891F91220D2
:1038B000824204DB01B0BDE8304000F0E6B891F987
:1038C0001010884222DB00F0B9F83E480078E8B9D1
:1038D0002068817B491C8173B5F90000216891F94A
:1038E000101088420DDB00F017F92068817B491E1B
:1038F00081732068807B48B901B0BDE8304000F09A
:10390000A6B801B0BDE8304000F088B801B030BDC5
:1039100030B581B02A4C274D286890F91100B4F9D0
:10392000001088421FDB00F0A2F827480078F8B9A1
:103930002868817B491C8173286890F91110B4F9BB
:10394000002091420ADB817B491E81732868807BBD
:1039500070B901B0BDE8304000F04CB801B0BDE82E
:10396000304000F08DB801B0BDE8304000F018B92B
:1039700001B030BD0F4801688A894B899A188A8145
:103980000A7A521E0A720068017A21B98189C9082F
:10399000818100F02FB87047F4010020D101002090
:1039A00018010020744000086C400008100200203C
:1039B00070400008AC020020EC010020F001002063
:1039C000B6020020D3010020D4010020D1480078A5
:1039D00000EB8001D04800EB8100D04908607047BF
:1039E000CE480068B0F90C10B0F90A00081ACC49AA
:1039F00008807047C94801684A6842F008024A6076
:103A000002220A700068416821F00401416021F03F
:103A10008001416021F0200141607047BF4801688A
:103A200002220A700068416821F00401416021F01F
:103A30008001416021F0200141607047B748016872
:103A400014220A700068B749097881737047B34837
:103A5000016804220A700068416841F00401416075
:103A600041F008014160B049097801727047AB48E4
:103A7000016824220A700068AC4909788173704794
:103A8000A6480068042101707047A448016811220B
:103A90000A700068A6490978817370479F480168D9
:103AA00001220A7001684A6822F004024A6042F06A
:103AB00008024A6022F080024A6022F020024A6036
:103AC00008220A72006800218181704793480168CA
:103AD00008220A700068416821F00401416041F049
:103AE0000801416021F08001416041F02001416006
:103AF00070478A48016880220A700068416821F096
:103B00000401416041F00801416021F08001416001
:103B100021F02001416070478048006841680A0632
:103B200000D5704770B4427A7A4B1B787A4C6BB1EF
:103B3000657A1646354207D025792D0604D5817B56
:103B4000491C817370BC7047012B08D0657F1646F5
:103B5000354202D0257E2D06F1D4022B09D094F8EF
:103B60003150354203D094F82C502D06E7D4032B66
:103B700009D094F84550354203D094F840502D06B2
:103B8000DDD4042B07D094F85930134203D094F8B5
:103B900054201206D3D441F08001416070BC7047BC
:103BA00064480078C0070DD55F48007850B15B4885
:103BB00001680A7A521E0A720068007A002808BF5B
:103BC000FFF76CBF70472DE9F04F012080F310889C
:103BD00059485A490A68026000220A6082F3108834
:103BE0004FF0FF314E4A4D4BDFF82C81494DDFF845
:103BF0005091DFF850A10468002C00F08880641E0A
:103C000004609AF80040002C1CBF641E8AF8004033
:103C10004D4C2478641E5FFA84FCBCF1000F08D17F
:103C20004FF00A0C99F80040002C1CBF641E89F864
:103C30000040454C84F800C0444C94F800C04FF05C
:103C4000010E00242C7046461E603778142F18BFD2
:103C5000042F18BF242F04D13D4C247889F800404C
:103C60001DE0022F14D1B6F90CB0B6F90A70ABEB17
:103C7000070717803FB2002F06D003D5012C03DAC7
:103C80000C4605E0002C02D54FF0000E00E00124A8
:103C90002F787F1C2F701436FFB2052FD4D39AF8DB
:103CA000004099F800603443A5D12A4C24788AF862
:103CB0000040BEF1000F1CBF274C94F800C08CF0F0
:103CC000FF04641C5FFA84FEBCF1000F93D0002453
:103CD0002C702C7804EB840608EB86041C60267894
:103CE000022E0DD1A689E77B07EB062667893F02E6
:103CF00007FB0CF706FB0E76370CA781360AE67336
:103D00002C78641C2C70E4B2052CE2D373E70160BC
:103D1000BDE8F08FD101002018010020AC02002086
:103D2000B6020020D3010020D2010020D4010020DF
:103D3000D5010020E8010020B002002098010020F9
:103D4000DB010020DA010020DC010020D901002085
:103D5000D7010020D6010020D801002000BF704705
:103D600000BF70477047FEE7FEE7FEE7FEE7FEE7AD
:103D7000FEE7FEE710B5FFF743FC57490888401CF3
:103D8000088080B20A2190FBF1F101EB8102B0EBD7
:103D9000420137D151490A6842F001020A603223D8
:103DA00090FBF3F403FB140363BB42F002020A60CE
:103DB000642390FBF3F403FB14031BBB42F00402E7
:103DC0000A60C82390FBF3F403FB140313B942F019
:103DD00008020A604FF4967290FBF2F302FB1302A2
:103DE0001AB90A6842F020020A604FF4FA7290FB96
:103DF000F2F302FB130018B9086840F010000860E5
:103E0000FDF7E8FBBDE81040FDF740BE10B5344CAF
:103E100001212046FEF735FD88B101212046FEF73D
:103E200070FD304801680978C288521CC28090F841
:103E3000D030582B04D30322027101B9C18010BDC8
:103E40000479032CFBD8DFE804F0041C2B02F4E710
:103E5000F5E771B992B2B2F5FA7FEFD380F8D010DE
:103E60000281012180F8D0100021C180012101715F
:103E700010BD4FF6FE7192B28A42E0D14FF6FD714D
:103E8000DCE70129DBD100EB43010A8190F8D01077
:103E9000491C80F8D0100021C1800221017110BDA1
:103EA00031B900EB43010A8190F8D010491CD9E7E1
:103EB00040F2F51192B28A42C1D30321017110BDC3
:103EC00000B581B0FDF7F9FD0121074801B05DF8AB
:103ED00004EBFEF716BD0000B402002044020020EF
:103EE0000010004044000020001400400120FEF7B4
:103EF000F3BE00B581B04FF48040FDF7E3F94FF415
:103F0000801001B05DF804EBFEF7E6BE82B03248E7
:103F1000016841F4807101608168304A114081601C
:103F200001682F4A11400160016821F4802101607D
:103F3000816821F47D0181600021C16001910091BF
:103F4000016841F001010160016801F00201009186
:103F50000199491C0191009919B90199B1F5A06F16
:103F6000F2D10168490801F001010091009901298D
:103F70002FD1D0F8001441F00401C0F80014D0F89B
:103F8000001441F00201C0F80014D0F8001441F010
:103F90000101C0F80014416A41F0805141621149A9
:103FA0004FF400620A604A68D206FCD481688160DE
:103FB0008168816081688160816889088900816089
:103FC000816841F001018160816801F00C010429E0
:103FD000FAD102B070470000003802400CC0FF88E0
:103FE000FEFFFEEE0070004010B50749794418311D
:103FF000064C7C44163404E0081D0A6851188847B2
:104000000146A142F8D110BD0800000028000000C0
:10401000EBEAFFFF740200004400002000000000F3
:1040200033CDFFFF440000004C01000000000020E1
:104030000000000000F009F8002801D0FFF7D4FFCD
:104040000020FCF7C9FC00F002F80120704700F0E6
:1040500001B800000746384600F002F8FBE7000010
:1040600001491820ABBEFBE7260002000102090847
:10407000090000000200040000020001000200002C
:1040800001488047014800470D3F00089140000863
:10409000C046C046C046C046FFF7CCFFFFF762BE31
:1040A000FFF761BEFFF760BEFFF75FBEFFF75EBEC2
:1040B000FFF75DBEFFF75CBEFFF75BBEFFF75ABEC2
:1040C000FFF7FEBFFFF7FEBFFFF7FEBFFFF711BF11
:1040D000FFF7FEBFFFF7FEBFFFF708BFFFF7FEBF0A
:1040E000FFF7FEBFFFF7FEBFFFF7FEBFFFF7FEBF04
:1040F000FFF7FEBFFFF7FEBFFFF7FEBFFFF7FEBFF4
:10410000FFF7FEBFFFF7FEBFFFF7FEBFFFF7FEBFE3
:10411000FFF7FEBFFFF7FEBFFFF7FEBFFFF7FEBFD3
:10412000FFF7FEBFFFF7FEBFFFF7FEBFFFF7FEBFC3
:10413000FFF7FEBFFFF7FEBFFFF7FEBFFFF7FEBFB3
:10414000FFF7FEBFFFF7FEBFFFF7FEBFFFF7FEBFA3
:10415000FFF7FEBFFFF7FEBFFFF7FEBFFFF7FEBF93
:10416000FFF7FEBFFFF7FEBFFFF7FEBFFFF74EBE34
:10417000FFF7A6BE0024F400030406080C10182064
:1041800030000000000000000102040000000000F8
:1041900000000000010203040607080903040608E2
:1041A0000C10182030000000000000000102030481
:0841B0000102030406070809DF
:04000005080040911E
:00000001FF
