:020000040800F2
:10000000C8060020694200082522000827220008AF
:10001000292200082B2200082D22000800000000E1
:100020000000000000000000000000002F22000877
:1000300031220008000000003322000835220008A9
:10004000A9420008AD420008B1420008B5230008EB
:10005000B9420008BD420008AF230008C5420008AD
:10006000C9420008CD420008D1420008D54200082C
:10007000D9420008DD420008E1420008E5420008DC
:10008000E9420008ED420008F1420008F54200088C
:10009000F9420008FD42000801430008054300083A
:1000A000094300080D4300081143000815430008E8
:1000B000194300081D430008214300082543000898
:1000C000294300082D430008314300083543000848
:1000D000394300083D4300084143000845430008F8
:1000E000494300084D43000851430008E522000839
:1000F000992300082DE9F041DFF8E44B207A052828
:1001000000F2DF84DFE810F006008300B800C601CB
:10011000CA029603DFF8CC7B3946002000F0FBFFD3
:10012000387801F088F9787801F0B6F901F089FAA9
:1001300018B1072001F005FA02E0072001F009FAE2
:10014000DFF8986BDFF8905B022001F006FC18B92D
:10015000022001F0F6FC80B13878E07078782071E8
:10016000206820F480602060022020720020A070AF
:1001700028702873287130713070032001F0EDFB76
:1001800010B901F0DEFC90B10120E071DFF8207CB5
:10019000387200203873387138700320207201F0F3
:1001A0001BFB0020287028732871307130700020EC
:1001B00001F0D3FB18B9012001F0C3FC98B1042071
:1001C000E071DFF8EC7B0020387238733871012061
:1001D00038700320207201F0FFFA00202870287385
:1001E000287130713070012001F0B7FB28B903206D
:1001F00001F0A7FC002800F0648401202072002098
:1002000028702873287130713070BDE8F081DFF8F4
:10021000D47A3946002000F07EFF387801F00BF9DF
:10022000787801F039F901F00CFA18B1072001F0E3
:1002300088F902E0072001F08CF9062001F081F92D
:10024000DFF8945A0120287001F087FB28B90320B9
:1002500001F077FC002800F0348400202072062092
:1002600001F077F90020287028732871DFF86C6A94
:1002700030713070BDE8F081072001F062F9DFF8DD
:100280005C6A01203071DFF8505A28712873A07819
:10029000401CA0702068400578D4207901F0FCF85B
:1002A00001F0CFF930B9032001F064FB10B901F07F
:1002B00061FB08B1E07800E0582001F0BCF80220B2
:1002C00001F04BFB38B96069DFF8E81A884202D0C8
:1002D000A07886280BD3206880F4806020600020FE
:1002E000A070022001F039FB08B901F043FC0320A3
:1002F00001F033FB58B9032001F043FB10B1207823
:10030000000704D46069DFF8B01A88420BD1206876
:1003100020F0080020600020A070E07817280CBFB3
:100320000020401CE070002001F017FB50B901F0E4
:1003300028FB10B12078000704D46069DFF87C1A2C
:1003400088420BD1206820F0080020600020A070B7
:10035000E07800280CBF1720401EE070032001F059
:1003600009FB002840F04D8201F004FB002840F01A
:100370004882042001F0F1FA002840F04282042073
:1003800001F0F8FA002840F03C8279E0E07801F0D2
:1003900052F801F056F930B9032001F0EBFA10B928
:1003A00001F0E8FA08B1207900E0582001F074F873
:1003B000022001F0D2FA38B96069DFF8F8198842F2
:1003C00002D0A07886280DD300222179E07801F0B0
:1003D000C6FC00202072287028732871307130709C
:1003E00001F0D3FB032001F0B8FA58B9032001F063
:1003F000C8FA10B12078000704D46069DFF8B81992
:1004000088420BD1206820F0080020600020A070F6
:1004100020793B280CBF0020401C2071002001F0F7
:100420009CFA50B901F0ADFA10B12078000704D45D
:100430006069DFF8881988420BD1206820F0080035
:1004400020600020A070207900280CBF3B20401EB7
:100450002071032001F08EFA002840F0D28101F0D3
:1004600089FA002840F0CD81042001F076FA0028B6
:1004700040F0C781042001F07DFA002840F0C181DE
:100480006069DFF83C19884240F01B830020A070AF
:10049000BDE8F081DFF8405801202871287307205B
:1004A00001F057F8002000F0A8FF032000F0A5FF9E
:1004B000E179022000F070FF0A21012000F06CFFBA
:1004C000E079032802D301F0C2F801E001F0BCF8A2
:1004D00001F04CF8DFF8D878032001F03EFA20B99B
:1004E0006069DFF8D41888424DD1E079042815D12D
:1004F0000020E0713872387338713870052001F0CF
:1005000035F80020207201F067F900202870287368
:100510002871DFF8C8673071307034E0401CC0B219
:10052000401E032826D8DFE800F01D150B0204202A
:10053000E07100203872387338710120387022E081
:100540000320E071002038723873012038710020D8
:10055000387018E00220E0710020387201203873F2
:10056000002004E00120E0713872002038733871F7
:10057000387008E00020E0713872387338713870D4
:10058000052000F0F3FF002001F0E7F920B96069D1
:10059000DFF8281888424DD1E079012815D10020D4
:1005A000E0713872387338713870052000F0DEFF62
:1005B0000020207201F010F90020287028732871A3
:1005C000DFF818673071307034E0401EC0B2401E52
:1005D000032826D8DFE800F01D150B020420E07187
:1005E00000203872387338710120387022E00320FF
:1005F000E0710020387238730120387100203870A3
:1006000018E00220E07100203872012038730020C9
:1006100004E00120E07138720020387338713870BE
:1006200008E00020E07138723873387138700520A6
:1006300000F09CFF012001F090F940B96069DFF8FB
:10064000841788421CBFDFF88017884214D100202D
:10065000E0713872387338713870052000F086FF09
:100660000120207201F0B8F800202870287328714A
:10067000DFF8686630713070022001F06EF928B939
:100680006069DFF83017884240F01B8201206071FA
:10069000042020720020A070BDE8F081DFF83C66E5
:1006A00001203071DFF8305628712873072000F0E0
:1006B00048FF002000F045FF002000F0EDFE00F0B4
:1006C000C0FF30B9032001F055F910B901F052F91B
:1006D00048B1607900F0AFFE60790A2806D20020A8
:1006E00000F08BFE02E0582000F0A5FEE079032820
:1006F00002D300F0ACFF01E000F0A6FF00F036FFEF
:10070000A078401CA070032001F027F958B90320FD
:1007100001F037F910B12078C00604D46069DFF821
:10072000981688420BD1206820F01000206000202D
:10073000A07060790F280CBF0120401C6071002060
:1007400001F00BF950B901F01CF910B12078C00686
:1007500004D46069DFF8641688420BD1206820F069
:10076000100020600020A070607901280CBF0F20CD
:10077000401E6071012001F0F0F840B96069DFF8B7
:10078000441688421CBFDFF84016884214D100206E
:10079000E071DFF81C7638723873387138700520D4
:1007A00000F0E4FE0120207201F016F8002028700D
:1007B0002873287130713070022001F0CEF820B912
:1007C0006069DFF8F015884207D10320207200200D
:1007D00000F0BFFE072000F0BCFE032001F0CAF8C5
:1007E00078B901F0C7F860B9042001F0B6F840B953
:1007F000042001F0BFF820B96069DFF8C415884211
:1008000003D10020A070BDE8F081A0788628C0F058
:100810005881052020726079C0EB00118800608249
:10082000206820F40060206000F0D6FFBDE8F041B1
:1008300001F0ABB9DFF8A46401203071DFF89854FF
:1008400028712873002000F0D8FD032000F0D5FDAA
:10085000072000F07EFEE179022000F09DFD0A21D4
:10086000012000F099FD00F0ECFE18B1002000F02E
:1008700068FE01E000F06DFEE079032802D300F08D
:10088000E6FE01E000F0E0FE00F070FEDFF820750B
:10089000032001F062F820B96069DFF81C15884276
:1008A0004BD1E079042813D10020E07138723873FD
:1008B00038713870052000F059FE0020207200F0D9
:1008C0008BFF00202870287328713071307034E05D
:1008D000401CC0B2401E032826D8DFE800F01D15DA
:1008E0000B020420E0710020387238733871012047
:1008F000387022E00320E071002038723873012044
:1009000038710020387018E00220E0710020387241
:1009100001203873002004E00120E07138720020CB
:1009200038733871387008E00020E071387238731D
:1009300038713870052000F019FE002001F00DF824
:1009400020B96069DFF8741488424BD1E07901283E
:1009500013D10020E0713872387338713870052077
:1009600000F004FE0020207200F036FF0020287006
:10097000287328713071307034E0401EC0B2401EC0
:10098000032826D8DFE800F01D150B020420E071D3
:1009900000203872387338710120387022E003204B
:1009A000E0710020387238730120387100203870EF
:1009B00018E00220E0710020387201203873002016
:1009C00004E00120E071387200203873387138700B
:1009D00008E00020E07138723873387138700520F3
:1009E00000F0C4FD012000F0B8FF40B96069DFF8F5
:1009F000D41388421CBFDFF8D013884212D10020E4
:100A0000E0713872387338713870052000F0AEFD2F
:100A10000120207200F0E0FE002028702873287169
:100A200030713070022000F09EFF18B1022000F0FB
:100A3000A8FF20B16069DFF87C13884204D103204D
:100A40002072002000F085FD022000F09AFFD8B14E
:100A50004FF03C08608A90FBF8F0C0B200F0EBFC6D
:100A6000608A90FBF8F1C1EB0112A0EB8200C0B2EA
:100A700000F012FD00F0E5FD18B1072000F061FD67
:100A800002E0072000F065FD022000F06CFF206806
:100A9000000516D50020E07138723873387138704F
:100AA000052000F063FD0020207200F095FE00207C
:100AB00028702873287130713070BDE8F04101F062
:100AC00059B8BDE8F081022001F073F900F00CF98B
:100AD000DFF8F80200684FF47A71B0FBF1F0B0F182
:100AE000807F0FD2DFF8E8120002000A401E486043
:100AF000F02081F8130D0020886007200860D020C6
:100B000081F8130D01F008F900F04AF800F0A2FD99
:100B100000F0AEF800F06AFF00F03AFFAD4C0120A3
:100B20002070A74D6E4E04E0012084F8800001F093
:100B300015FB00F08DFE00F0A9FF01F0C8FBFFF7E8
:100B4000D9FA042000F009FF10B97069A84203D156
:100B5000306880F4807030603068C0050BD50120AB
:100B600000F0EFFC022000F0ECFC012084F86C00A7
:100B700084F884000AE0012000F0EBFC022000F081
:100B8000E8FC012084F8AC0084F8C400307A002826
:100B9000CAD13068C005C7D4012084F8C000C6E7B8
:100BA00030B581B000F09CFD0121012001F0F5FC81
:100BB000894C4FF480502060012020710020E0809B
:100BC00001206071854D2146284601F0B7FD4FF4A4
:100BD0008051284601F052FE0121032001F0DDFC86
:100BE0001620206001202071A071E0716071214603
:100BF000284601F0A3FD4FF4E0402060784D2146E7
:100C0000284601F09BFD0121022001F0C6FC4FF4B3
:100C10000040206000202071E071012060712146B9
:100C2000284601F08BFD0121042001F0B6FC0F20C5
:100C30002060012020710020A0710120E07160710E
:100C40002146684801F07AFD0121022001F0A5FC4F
:100C500080202060012020710020A0710120E0711F
:100C600060712146284601B0BDE8304001F066BD04
:100C700030B581B00121102001F0B5FC5A4C534829
:100C8000006844F62061B0FBF1F0401EA080002017
:100C90002060E080554D2146284601F0C5FE012127
:100CA000284601F0F6FF01220121284601F070FFDD
:100CB0002B2020720B2060720120A072E07204F1E0
:100CC000080002F05FF80121284601F017FF01B08B
:100CD000BDE8304000F08ABF84024042B482404206
:100CE000500200208802002010B5414C01F0B6FBF4
:100CF0002070201D01F0B8FB212001F098FC6169F3
:100D000060F300016161292001F091FC616960F3E9
:100D100041016161312001F08AFC616960F3820167
:100D20006161392001F083FC616960F3C301616195
:100D3000492001F07CFC616960F30411616141208C
:100D400001F075FC616960F345116161592001F0A2
:100D50006EFC616960F3861161615A2001F067FCE5
:100D6000616960F3C71161615B2001F060FC61693A
:100D700060F3082161615C2001F059FC616960F356
:100D8000492161615D2001F052FC616960F38A21B3
:100D900061615E2001F04BFC616960F3CB21616110
:100DA0005F2001F044FC616960F30C31616110BDAA
:100DB000800241426798FB047788FB04AF50FB0434
:100DC000A758FB046F90FB04BF40FB040000002009
:100DD00010E000E0B0824042A40200200000024087
:100DE0000004024000080240980200200010004069
:100DF00038020020FEE710B450F8041B81B10268ED
:100E00001218001D50F8043BDC0744BFA9F101048F
:100E1000E31852F8044B43F8044B091FF9D1EBE7F0
:100E200010BC704730B581B00446002520684028CA
:100E300018BF002805D04FF4B771DFF83004FFF772
:100E4000D9FF6068802805D340F26F11DFF81C04D9
:100E5000FFF7D0FFA068B0F5005F05D34FF4B8717D
:100E6000DFF80804FFF7C6FFDFF80404CA21C161F8
:100E70005321C1610095416849060FD44FF0FF31FD
:100E800041604168009A521C0092009AB2F5005FDE
:100E900001D04906F5D54168490613D5016821F00E
:100EA000400101600168226811430160A16881600E
:100EB0008168626841EA02418160416821F08001F5
:100EC00041600125FF21C161284601B030BD81B0DC
:100ED00000200090DFF89C03CA21816153218161C9
:100EE000016821F0A00101600168009A521C009283
:100EF000009AB2F5805F01D08906F5D50168FF221E
:100F00008261480900F0010001B07047F0B581B07E
:100F10000E460025DFF8504330B3DFF85073012848
:100F200004D040F283213846FFF764FF3078A1688F
:100F3000490640F1B980010901EB810200F00F0080
:100F400000EB4200C0B208B10D2804D340F2992151
:100F50003846FFF74FFFF078002818BF402800F010
:100F6000B38040F29A21ACE03078A168490611D5EF
:100F7000401EC0B20C2805D340F28921DFF8EC02F4
:100F8000FFF738FFF078002818BF40280BD040F258
:100F90008A2104E0F570182805D340F28F21DFF88C
:100FA000CC02FFF727FF70783C2805D340F291214F
:100FB000DFF8B802FFF71EFFB0783C2805D340F2F7
:100FC0009221DFF8A802FFF715FF307801460022D2
:100FD0000A2805D30A22B0FBF2F2F62000FB021128
:100FE00041EA021071780B4600220A2905D30A2231
:100FF000B1FBF2F2F62101FB023343EA0211B378AE
:101000001F4600220A2B05D30A22B3FBF2F2F62375
:1010100003FB0277C0B20906090C41EA004047EA27
:101020000211C9B20843F17840EA0140CA21616265
:10103000532161620095E16849060FD44FF0FF31FA
:10104000E160E168009A521C0092009AB2F5005FDC
:1010500001D04906F5D5E168490620D5DFF8181218
:1010600008402060E06820F08000E0600095CA2021
:10107000606253206062E06820F0A000E060E068F9
:101080000099491C00910099B1F5805F01D080065C
:10109000F5D5E068FF216162400900F00105FF20FD
:1010A0006062284601B0F0BDF570010901EB8102D4
:1010B00000F00F0000EB4200C0B2182804D340F249
:1010C0009F213846FFF796FE7078010901EB8102F7
:1010D00000F00F0000EB4200C0B23C2804D340F205
:1010E000A1213846FFF786FEB078010901EB8102A5
:1010F00000F00F0000EB4200C0B23C2804D340F2E5
:10110000A2213846FFF776FE30787178090241EA6D
:101110000040B17886E730B581B005000C4618BFB5
:10112000012D05D040F2F521DFF84001FFF762FE06
:10113000DFF834010068DFF840110840010C01F0CD
:101140003F022270020A6270A07001F04000E0705D
:10115000D5B92078010901EB810200F00F0000EB06
:10116000420020706078010901EB810200F00F005D
:1011700000EB42006070A078010901EB810200F0F1
:101180000F0000EB4200A07001B030BD10B50400AC
:1011900018BF012C0DD0022C18BF032C09D0042C31
:1011A00018BF062C05D04FF49A610FF28010FFF79C
:1011B00021FEDFF86801CA21C1615321C1610168C4
:1011C000C908C9000160016821430160FF21C161B4
:1011D00010BD10B50446B4F5803F05D340F2EB4195
:1011E0000FF24810FFF706FEDFF83401CA21016153
:1011F000532101610460FF21016110BD10B582B06F
:10120000044600200090002C18BF012C05D04FF49C
:10121000A2610FF21810FFF7EDFDDFF80011CA20F0
:10122000C8615320C861002C086807D040F4806072
:1012300008600120FF22CA6102B010BD20F4806066
:1012400008604868009A521C0092009AB2F5005F4C
:1012500001D04007F5D54868800800F00100FF2262
:10126000CA6102B010BD0000002800402C13000825
:10127000082800400C2800407F7F7F0030B581B0F7
:1012800004000D4602D02748044205D040F2937175
:101290000FF29800FFF7AEFD002D18BF012D05D00D
:1012A00040F294710FF28400FFF7A4FD1B48CA219D
:1012B000C1615321C16104F0040124F00402002D36
:1012C000036808D01A430260826B11438163FF21D7
:1012D000C16101B030BD23EA02020260826B22EAE2
:1012E00001018163FF21C16101B030BD10B504006F
:1012F00002D034F43C3005D040F623010FF22C002C
:10130000FFF778FD08482103090C41F080010268CD
:1013100002F0800262EA0101016010BD082800406D
:1013200014280040FB0FFFFF0C280040433A5C30BC
:10133000304669726D77617265576F726B696E675F
:1013400041436861755C576F726B696E675C4754A7
:1013500053565F52616E6765486F6F645C4C69629B
:101360007261726965735C53544D33324C317878D5
:101370005F5374645065726970685F447269766522
:10138000725C7372635C73746D33326C3178785F46
:101390007274632E63000000F0B40FF2A842895CFF
:1013A0000FF2944202EB4002507892789400DFF8FA
:1013B000502401F001031355DFF848344D1005F0B7
:1013C00001051D55DFF840548E1006F001062E551C
:1013D000CE1006F00106DFF834743E5580000C1183
:1013E00004F001042C548C1104F001041C54491124
:1013F00001F001011154F0BC704770B40FF2384194
:1014000001EB4000417880788000DFF8F42300236E
:101410001354DFF8F03300241C54DFF8EC430025AC
:101420002554DFF8E85300262E54880026541E5415
:10143000165470BC704710B518280FD20A2190FBC3
:10144000F1F404EB8401A0EB4101C9B20120FFF7E4
:10145000A3FFE1B20020BDE810409DE7DFF8B00334
:10146000002180F8001380F8001280F8001101704C
:1014700080F8FC1080F8FC1180F8FC1280F808134A
:1014800080F8081280F80811017280F8041180F8C1
:10149000041280F8041310BD10B53C280FD20A21A5
:1014A00090FBF1F404EB8401A0EB4101C9B20320ED
:1014B000FFF772FFE1B20220BDE810406CE7DFF8F1
:1014C0005403002180F8001380F8001280F8001106
:1014D000017080F8FC1080F8FC1180F8FC1280F894
:1014E000201380F8201280F8201180F8201080F856
:1014F000041180F8041280F8041310BDC648008857
:10150000C64900F0010281F82820C0F3800281F86A
:101510005420C0F3400281F85C200206D20F0A700A
:10152000C0F3801281F85020C0F3C00281F850212E
:10153000C0F3001281F85022C0F3401081F850032C
:101540007047B5490A88012303FA00F01043088068
:10155000D4E7B149082808BF002005D00A88012334
:1015600003FA00F022EA00000880C7E710B518B1BE
:10157000022812D005D327E0A74C208840F00800AD
:1015800027E0A54C20884FF6F77108402080FFF730
:10159000B5FF208840F0100022E09F4C20884FF6D5
:1015A000F77108402080FFF7A9FF20884FF6EF7100
:1015B00008402080FFF7A2FF208840F02000208014
:1015C000BDE81040FFF79ABF934C20884FF6F771A3
:1015D00008402080FFF792FF20884FF6EF71084007
:1015E0002080FFF78BFF20884FF6DF7108402080B6
:1015F000BDE8104082E78A488179491CC9B20829B0
:1016000008BF00218171817904299241D20FC270F3
:101610004179491C4171C9B2032904BF00214171BC
:101620008178491C8170C9B2032909D100218170D8
:101630000179491C0171C9B2032904BF002101715C
:1016400070477748C078704775480079704774488C
:101650004079704700B585B001214FF4007000F06B
:10166000C2FF002000904FF4701001900C200290F7
:10167000402003900020049000A800F0F3FB01201C
:1016800000F0B4FC4FF4E05000F041FD002000F009
:10169000DBFC602000F0B8FC00F0A3FC012000F0AF
:1016A0008CFC012000F05EFD0028FAD0102000F034
:1016B00059FD0028FAD04FF48041002000F0EAFCE8
:1016C000554800210180042000F04CFD0028FAD18B
:1016D0004021544801F0D6FB00F040FD05B000BDAC
:1016E00010B582B001213F2000F057FF00A801F0A3
:1016F000BCF84FF40740009002208DF804004A4CDB
:1017000000A9204601F01AF80B220821204601F01A
:10171000DBF80B220921204601F0D6F80B220A2122
:10172000204601F0D1F80B220F21204601F0CCF821
:101730004FF44E70009002208DF804003B4C00A93D
:10174000204600F0FBFF0B220321204601F0BCF8ED
:101750000B220421204601F0B7F80B220521204678
:1017600001F0B2F80B220821204601F0ADF80B225F
:101770000921204601F0A8F84FF4F0500090022013
:101780008DF804002A4C00A9204600F0D7FF0B2258
:101790000921204601F098F80B220A21204601F089
:1017A00093F80B220B21204601F08EF80B220C211E
:1017B000204601F089F80420009002208DF80400F2
:1017C0001C4C00A9204600F0B9FF0B220221204644
:1017D00001F07AF802B010BD00B581B00E480021CA
:1017E0000180042000F0BEFC0028FAD140210D4801
:1017F00001F048FB01B05DF804EB00F0AFBC000065
:1018000080850442808404428083044280820442B2
:10181000F4820442A0820442C00200209C8204425E
:10182000AC020020142400400000024000040240EA
:1018300000080240000C0240111C1D1E1F07080971
:10184000101B00003F065B4F666D7D077F6F7100C8
:1018500070B501F04FFB624C624D05262068C10750
:1018600006D54008400040F00400206000F082F9F6
:101870002068810744BF20F0060020602068297896
:10188000490704D5410707D440F0010003E04107B0
:1018900002D540F0020020601435241D761EDDD1F3
:1018A00070BD4F4801684A0708D542780D2A28BF05
:1018B00041F0080107D2511C417005E00021417040
:1018C000016821F00801016041684A0708D54279A2
:1018D0000D2A28BF41F0080107D2511C417105E0D3
:1018E00000214171416821F00801416081684A0787
:1018F00008D5427A0D2A28BF41F0080107D2511CB1
:10190000417205E000214172816821F00801816087
:10191000C1684A0708D5427B0D2A28BF41F008015B
:1019200007D2511C417305E000214173C16821F0C9
:101930000801C16001694A0708D5427C0D2A28BF09
:1019400041F0080107D2511C4174704700214174D5
:10195000016921F0080101617047214911F8200057
:1019600000F0010070471E4951F82000400800F0C7
:10197000010070471A4951F82000800800F001006A
:101980007047174951F82000C00800F00100704767
:1019900000B581B001F08AFA1348416841F00301B3
:1019A000416001214172816941F00301816101219E
:1019B0004177C16A41F00301C162012180F8311011
:1019C000016C41F003010164012180F84510416D73
:1019D00041F003014165012180F8591001B000BDBB
:1019E000680200204C0100204801002059485A4953
:1019F000016070470021C2685388883B5D2B43D249
:101A0000544B93F8D030042B10D1918820391729EA
:101A10003EBFD1880939092936D2002101704FF023
:101A2000FF3141600021017201207047442B2BD30C
:101A30009388423B2E2B27D202F206025FF020034E
:101A4000B2F800C0ACF1090CBCF1090F1CD2B2F81D
:101A500002C0ACF1160CBCF1110F0CD2490041F0E0
:101A60000101121D5B1EEBD1202202724160002198
:101A7000017001207047B2F802C0ACF1060CBCF155
:101A8000070F38BF4900ECD30020704710B5314C28
:101A900004F10800C4F8E00094F8D000C4F8E400B1
:101AA0002079032827D104F1D400FFF7A3FFF8B170
:101AB000D4F8D8002949884228D0294988422CD016
:101AC000284988420DD0284988422DD0274988428C
:101AD0001CD02749884212D00020207184F8D00001
:101AE00010BDD4F8F80040F00100C4F8F80021E07F
:101AF000207184F8D0000020C4F8FC0010BDD4F898
:101B0000F00040F00100C4F8F00013E0D4F8F40055
:101B100040F00100C4F8F4000CE0D4F8EC0040F010
:101B20000100C4F8EC0005E0D4F8E80040F0010042
:101B3000C4F8E80000F01EF80020207184F8D000FE
:101B400010BD044901EB800090F8E80000F00100AE
:101B500070470000480000203C824042BF40FB0428
:101B6000AF50FB04A758FB047788FB046F90FB047D
:101B70006798FB043648017821B901210170417052
:101B8000002070474FF0FF3070473148017829B985
:101B90000121017002214170002070474FF0FF3099
:101BA000704710B52A4C2078C8B10146628890422F
:101BB00008D2012804BF274800F0A0FF2078401C6D
:101BC000207010BD0021234800F098FF6078401E6F
:101BD0006070C1B2491E8941C943C90F217010BD4F
:101BE0001D48017881F001010170704710B584B083
:101BF0000121202000F0F7FC184800684FF47A61BA
:101C0000B0FBF1F0401EADF8080000200190ADF8E7
:101C10000A00104C01A9204600F006FF01212046D1
:101C200001F037F801220121204600F0B1FF2C20FD
:101C30008DF800000A208DF8010001208DF80200C7
:101C40008DF8030000A801F09DF804B010BD00005D
:101C50004400002000140040B00240420000002078
:101C600000B583B0012000F0E7FB492000F0DFFC65
:101C70000028FAD04FF4803000F04BFC012000F037
:101C80007DFCFFF724F941487F214160FF218160FD
:101C900000210160FFF7C6F80020FFF7AFFA4FF40C
:101CA000801001F0E1F94FF48010019000208DF8D0
:101CB000080008208DF8090001208DF80A0001A80D
:101CC00001F072F903208DF8000001208DF8010069
:101CD00000208DF8020001208DF8030000A801F01B
:101CE00051F82B48E02101700020FFF74FFAFF2048
:101CF000FFF76FFA4FF48040FFF7F8FA4FF48010C7
:101D000001F0B2F901214FF48040FFF7B7FA01204A
:101D1000FFF774FA03B000BD00B581B001214FF0A8
:101D2000805000F060FC012000F036F8FFF798FFCB
:101D3000184805214160012101720D2141720321E2
:101D400001600021C1730221017319214173002137
:101D50008173002001B05DF804EB00F01DB870B590
:101D600004460D461646012000F016F809480021E9
:101D7000C17304734573867300F10C010020FFF7F3
:101D8000C5F80020BDE8704000F006B88C020020C5
:101D900003E400E07C02002010B5040018BF012C11
:101DA00004D086210FF25000FFF724F81048046099
:101DB00010BD30B581B004460025012C18BF022C9F
:101DC0000DD0042C18BF082C09D0102C18BF202CC3
:101DD00005D040F20F310FF22000FFF70BF8054855
:101DE0000068204218BF0125284601B030BD000020
:101DF00020000E4204700040433A5C303046697265
:101E00006D77617265576F726B696E674143686188
:101E1000755C576F726B696E675C475453565F52BF
:101E2000616E6765486F6F645C4C6962726172696C
:101E300065735C53544D33324C3178785F5374641E
:101E40005065726970685F4472697665725C73721E
:101E5000635C73746D33326C3178785F7077722E97
:101E60006300000010B504462068002818BFB0F5D4
:101E7000800F2ED0B0F5000F18BFB0F5400F28D05E
:101E8000B0F1807F18BFB0F1A07F22D0B0F1C07F49
:101E900018BFB0F1E07F1CD0B0F1007F18BFB0F1E7
:101EA000107F16D0B0F1207F18BFB0F1307F10D076
:101EB000B0F1407F18BFB0F1507F0AD0B0F1607F21
:101EC00018BFB0F1707F04D0B5210FF2EC20FEF7FF
:101ED00091FF6068002818BFB0F5802F2ED0B0F5B4
:101EE000002F18BFB0F5402F28D0B0F5801F18BFC5
:101EF000B0F5A01F22D0B0F5C01F18BFB0F5E01F8D
:101F00001CD0B0F5001F18BFB0F5101F16D0B0F5EB
:101F1000201F18BFB0F5301F10D0B0F5401F18BFFC
:101F2000B0F5501F0AD0B0F5601F18BFB0F5701F94
:101F300004D0B6210FF28020FEF75CFFA0680028D5
:101F400018BF042809D008281CBF0C28102804D06A
:101F5000B7210FF26420FEF74DFFE06800281CBF98
:101F60002028402804D0B8210FF24C20FEF742FF71
:101F70002069002818BF022804D0B9210FF23820A8
:101F8000FEF738FF8648416821F07F714160416863
:101F9000226863681A431143416081688906FCD551
:101FA000016821F07E0101600168A268E3681A43BC
:101FB00023691A431143016010BD30B581B004009C
:101FC00018BF012C09D00FF2F015E2212846FEF7C8
:101FD00011FFE5212846FEF70DFF7248046001B0AD
:101FE00030BD714801688906FCD5704710B5040002
:101FF00018BF012C05D040F215110FF2BC10FEF7EE
:10200000F9FE6A48046010BD10B5040018BF102C1A
:1020100011D0202C18BF302C0DD0402C18BF502CC4
:1020200009D0602C18BF702C05D04FF496710FF2B8
:102030008810FEF7DFFE5E48016821F07001016044
:1020400001682143016010BD10B5040018BF802C49
:1020500017D0B4F5807F18BFB4F5C07F11D0B4F5A8
:10206000007F18BFB4F5207F0BD0B4F5407F18BFB8
:10207000B4F5607F05D040F243110FF23C10FEF73B
:10208000B9FE4B48016821F4607101600168214389
:10209000016010BD30B581B004000D4618BFB4F525
:1020A000803F0BD0B4F5003F18BFB4F5403F05D0DA
:1020B0004FF4B1710FF20010FEF79CFE002D18BF17
:1020C000B5F5005F17D0B5F5804F18BFB5F5C04F17
:1020D00011D0B5F5004F18BFB5F5204F0BD0B5F5B1
:1020E000404F18BFB5F5604F05D040F263110FF2B5
:1020F000C800FEF77FFE2E48016821F478310160A8
:10210000016845EA04021143016001B030BD10B519
:10211000040018BFB4F5806F17D0B4F5006F18BF76
:10212000B4F5406F11D0B4F5805F18BFB4F5A05F6F
:102130000BD0B4F5C05F18BFB4F5E05F05D04FF425
:10214000BD710FF27400FEF755FE1948016821F4C5
:10215000E051016001682143016010BD1548012173
:102160000160704730B581B004460025012C18BFCE
:10217000022C0DD0042C18BF082C09D0102C18BF2D
:10218000202C05D04FF406710FF22C00FEF732FE22
:1021900005480068204218BF0125284601B030BD1F
:1021A0000024004000800442082400401C800442B7
:1021B0000424004008810442433A5C30304669728E
:1021C0006D77617265576F726B696E6741436861C5
:1021D000755C576F726B696E675C475453565F52FC
:1021E000616E6765486F6F645C4C696272617269A9
:1021F00065735C53544D33324C3178785F5374645B
:102200005065726970685F4472697665725C73725A
:10221000635C73746D33326C3178785F6C63642EF9
:10222000630000007047FEE7FEE7FEE7FEE7FEE71B
:10223000FEE7FEE730B581B000F09CFF774D2888BF
:10224000401C288080B20A2190FBF1F101EB810251
:10225000B0EB420139D1724C216841F0010121609B
:10226000322290FBF2F302FB130070BB41F002003C
:102270002060FFF796FC2888642190FBF1F201FBB7
:10228000120111BB216841F004012160C82290FBBA
:10229000F2F302FB130212B941F0080121604FF47E
:1022A000967190FBF1F201FB120119B9216841F01E
:1022B000200121604FF4FA7190FBF1F201FB120052
:1022C00018B9206840F01000206001B030BD5448BB
:1022D00001688A0704D521F00201016001207047DE
:1022E0000020704710B54F4C0121204600F091FCB2
:1022F00088B10121204600F0CCFC4B4801680978E8
:10230000C288521CC28090F8D030582B04D30322CC
:10231000027101B9C18010BD0479032CFBD8DFE83C
:1023200004F0041C2B02F4E7F5E771B992B2B2F5A0
:10233000FA7FEFD380F8D0100281012180F8D0100D
:102340000021C1800121017110BD4FF6FE7192B2D2
:102350008A42E0D14FF6FD71DCE70129DBD100EBC9
:1023600043010A8190F8D010491C80F8D010002158
:10237000C1800221017110BD31B900EB43010A8116
:1023800090F8D010491CD9E740F2F51192B28A4278
:10239000C1D30321017110BD00B581B0FFF720FC4E
:1023A0000121224801B05DF804EB00F072BC01206D
:1023B00000F05ABE00B581B01D480178491CC9B271
:1023C000082910D100214288521C4280144A137AF5
:1023D000052B08D1538A23B9136843F400631360B3
:1023E00001E05B1E5382017012490020FEF793FE4C
:1023F000FFF757FAFFF7FFF80120FFF7CDFC4FF486
:102400008040FEF773FF4FF4801000F02DFE002097
:1024100001B05DF804EBFFF7BFBC0000C202002072
:10242000500200200010004048000020001400402E
:10243000BC0200208802002010B504001CBF012C43
:10244000052C05D040F2BD110FF28420FEF7D2FC1E
:10245000DFF8480200210170047010BDDFF840026F
:10246000006800F00C00704710B4DFF82C124A68C6
:1024700002F00C020C2A23D8DFE802F022222222EA
:10248000072222220A2222220D00DFF8182220E051
:10249000DFF814221DE04A684B68C2F38342DFF87C
:1024A0000C42125DC3F381535B1C4C68E40354BFC0
:1024B000DFF8F041DFF8F0416243B2FBF3F208E0ED
:1024C0000A680123520B02F00702521C03FA02F2BF
:1024D000D20302604B68DFF8D4210468C3F303130E
:1024E0009B181B7B24FA03F343604B684468C3F3D7
:1024F00002239B181B7B24FA03F38360496843681B
:10250000C1F3C2218918097B23FA01F1C16010BC13
:10251000704710B50446B4F5803F18BFB4F5003FCE
:1025200014D0B4F5403F1CBFDFF8840184420DD0C5
:10253000DFF8800184421CBFDFF87C01844205D0B3
:1025400040F2E1310FF28810FEF754FCDFF844014D
:1025500004F44031B1F5403F06D1016821F0C0419B
:1025600004F0C04211430160416B21F440314163EA
:10257000416B04F440321143416310BD10B50400B7
:1025800018BF012C05D040F203410FF24410FEF7B2
:1025900031FCDFF82801046010BD30B581B004467D
:1025A0000D46DFF81C01044200D12CB940F22F4146
:1025B0000FF21C10FEF71EFC75B1012D05D04FF473
:1025C00086610FF20C10FEF715FCDFF8F8000168C9
:1025D0002143016001B030BDDFF8E8000168A1438C
:1025E000016001B030BD30B581B004460D46DFF862
:1025F000D800044200D12CB940F27C410FF2D00047
:10260000FEF7F8FB6DB1012D05D040F27D410FF2D0
:10261000C000FEF7EFFB2D4801682143016001B0C7
:1026200030BD2A480168A143016001B030BD30B51A
:1026300081B004460025212C18BF312C1AD0292C3A
:1026400018BF392C16D0492C18BF412C12D05A2C47
:1026500018BF5B2C0ED05C2C18BF5D2C0AD05E2CF2
:102660001CBF5F2C592C05D040F2B6510FF2600010
:10267000FEF7C0FB0748610901290CBF0068406BE9
:10268000012104F01F029140084218BF012528468D
:1026900001B030BD003802400438024035380240F5
:1026A000083802400024F40000127A0028000020BC
:1026B000000003200000034000000360D8064742EA
:1026C000C06FFFFE1C380240C8B5194F24380240C5
:1026D000433A5C30304669726D77617265576F724C
:1026E0006B696E6741436861755C576F726B696EA9
:1026F000675C475453565F52616E6765486F6F64FD
:102700005C4C69627261726965735C53544D33321B
:102710004C3178785F5374645065726970685F44B7
:1027200072697665725C7372635C73746D33326C5C
:102730003178785F7263632E630000002DE9F04307
:1027400081B004460D460026DFF8580284421CBFC3
:10275000DFF85402844214D0DFF8500284421CBFD8
:10276000DFF84C0284420CD0DFF8480284421CBFE0
:10277000DFF84402844204D0C1210FF24020FEF76A
:1027800039FB286820B9C2210FF23020FEF732FB56
:102790002879002818BF012808D0022818BF03286C
:1027A00004D0C3210FF21420FEF724FBE87940B1D6
:1027B000012818BF022804D0C4210FF20020FEF720
:1027C00019FB012000FA06F8286808EA00004045D5
:1027D00045D177000320B8406FEA0009206809EA74
:1027E0000000206020682979B940084320602879DA
:1027F000012818BF022829D16879002818BF0128AC
:1028000008D0022818BF032804D0D8210FF2AC103A
:10281000FEF7F0FAA06809EA0000A060A0686979F4
:10282000B9400843A060A879002818BF012804D047
:10283000DF210FF28810FEF7DDFAA08820EA0800F9
:10284000A080A088A979B1400843A080E06809EA87
:102850000000E060E068E979B9400843E060761C78
:10286000102EAED301B0BDE8F0834FF6FF710160CA
:102870000021017141718171C171704730B581B022
:1028800004460D46474884421CBF4748844211D045
:10289000464884421CBF464884420BD04548844287
:1028A0001CBF4548844205D040F29B110FF20C102A
:1028B000FEF7A0FA2DB94FF4CE710FF20010FEF71B
:1028C00099FA658301B030BD70B506460D461446D1
:1028D000344886421CBF3448864211D03348864271
:1028E0001CBF334886420BD0324886421CBF324858
:1028F000864205D040F209210FF2C000FEF77AFAB5
:10290000002D18BF012D21D0022D18BF032D1DD081
:10291000042D18BF052D19D0062D18BF072D15D071
:10292000082D18BF092D11D00A2D18BF0B2D0DD061
:102930000C2D18BF0D2D09D00E2D18BF0F2D05D051
:1029400040F20A210FF27400FEF754FA002C18BF6F
:10295000012C16D0022C18BF032C12D0042C18BF47
:10296000052C0ED0072C18BF0A2C0AD00B2C1CBF2C
:102970000E2C0F2C05D040F20B210FF24000FEF779
:1029800039FAE81006EB800005F007018900026AB9
:102990000F238B409A430262026A04FA01F1114349
:1029A000016270BD000002400004024000080240C5
:1029B000000C02400010024000140240433A5C3018
:1029C000304669726D77617265576F726B696E67B9
:1029D00041436861755C576F726B696E675C475401
:1029E00053565F52616E6765486F6F645C4C6962F5
:1029F0007261726965735C53544D33324C3178782F
:102A00005F5374645065726970685F44726976657B
:102A1000725C7372635C73746D33326C3178785F9F
:102A20006770696F2E63000030B581B004460D46B3
:102A3000B4F1804F1CBFDFF8380184421CD0DFF8AE
:102A4000340184421CBFDFF83001844214D0DFF827
:102A50002C0184421CBFDFF8280184420CD0DFF82F
:102A6000240184421CBFDFF82001844204D0FA21F3
:102A7000DFF81801FEF7BEF96888002818BF102893
:102A800009D020281CBF4028602804D0FB21DFF893
:102A9000FC00FEF7AFF9E88800281CBFB0F5807F86
:102AA000B0F5007F04D0FC21DFF8E000FEF7A2F9CA
:102AB0002088B4F1804F1FBFDFF8B4108C42DFF8DC
:102AC000B4108C4204D14FF68F71084069880843D6
:102AD000DFF8A4108C421CBFDFF8A0108C4204D099
:102AE0004FF6FF410840E98808432080A888A08568
:102AF000288820850120A08201B030BD30B581B08A
:102B000004460D46B4F1804F1CBF1948844218D0CA
:102B1000184884421CBF1848844212D01748844287
:102B20001CBF174884420CD0164884421CBFDFF8F3
:102B30005800844205D040F21A21DFF85000FEF719
:102B400059F96DB1012D05D040F21B21DFF83C0091
:102B5000FEF750F9208840F00100208001B030BD20
:102B600020884FF6FE710840208001B030BD000083
:102B70000004004000080040001000400014004025
:102B800000080140000C014000100140182D000811
:102B900070B504460D461646B4F1804F1CBF56482A
:102BA00084421AD0554884421CBFDFF86001844239
:102BB00013D0DFF85C0184421CBF514884420CD022
:102BC000504884421CBFDFF84001844205D040F2E7
:102BD0006A71DFF84001FEF70DF94FF6A07005426B
:102BE00000D12DB940F26B71DFF82801FEF702F930
:102BF0005EB1012E05D040F26C71DFF81801FEF7CE
:102C0000F9F8A0892843A08170BDA089A843A081BC
:102C100070BD70B506460C460025B6F1804F1CBF4E
:102C2000354886421AD0354886421CBFDFF8DC00A2
:102C3000864213D0DFF8D80086421CBF3048864257
:102C40000CD0304886421CBFDFF8BC00864205D05D
:102C50004FF4FF61DFF8BC00FEF7CCF8012C18BF81
:102C6000022C0DD0042C18BF082C09D0102C18BF32
:102C7000402C05D040F2F971DFF89800FEF7BAF861
:102C8000308AB189214020421CBF002901252846F5
:102C900070BD30B581B004460D46B4F1804F1CBF05
:102CA0001548844219D0154884421CBFDFF85C00E7
:102CB000844212D0DFF8580084421CBF104884427E
:102CC0000BD0104884421CBF0F48844205D040F608
:102CD0001F01DFF84000FEF78DF84FF6A0700542A7
:102CE00000D12DB94FF40261DFF82800FEF782F819
:102CF000E843208201B030BD0004004000080040DD
:102D000000080140000C014000100140001000408C
:102D100000140040182D0008433A5C3030466972B8
:102D20006D77617265576F726B696E674143686159
:102D3000755C576F726B696E675C475453565F5290
:102D4000616E6765486F6F645C4C6962726172693D
:102D500065735C53544D33324C3178785F537464EF
:102D60005065726970685F4472697665725C7372EF
:102D7000635C73746D33326C3178785F74696D2E77
:102D80006300000070B50446E078002818BF0128F1
:102D900004D08C210FF28800FEF72CF86078102800
:102DA00004D38D210FF27800FEF724F8A0781028C4
:102DB00004D38E210FF26800FEF71CF8227811462A
:102DC0000120E378E3B1124A126802F4E062C2F52E
:102DD000E062120A6378C2F10405AB40A5780F26C1
:102DE00026FA02F22A401A4312010A4BCA542178E9
:102DF0004A11094B01F01F01884043F8220070BDC1
:102E00004911064B02F01F02904043F8210070BDAB
:102E10000CED00E000E400E000E100E080E100E013
:102E2000433A5C30304669726D77617265576F72F4
:102E30006B696E6741436861755C576F726B696E51
:102E4000675C475453565F52616E6765486F6F64A5
:102E50005C4C69627261726965735C53544D3332C4
:102E60004C3178785F5374645065726970685F4460
:102E700072697665725C7372635C6D6973632E63ED
:102E800000000000002200F0A9B950F8041B61B155
:102E900050F8042BD30744BFA9F101039A1800236B
:102EA00042F8043B091FFAD1EFE7704710B5012043
:102EB00080F310883A4C0020E07020711420A0713B
:102EC000E0710A2060710020A070142020720A2096
:102ED00060721420A0720020E072207300F098F954
:102EE00000F00CF900F0F6FD002080F310880120BE
:102EF000207010BD10B52A4C2078401E0A284DD8ED
:102F0000DFE800F006181D2B304C4C4C4C4C3D00BB
:102F1000012080F3108823480168A26961F3000250
:102F2000A261490849000160002080F31088022056
:102F3000207010BD00F060FD0320207010BD002047
:102F400084F8010000F0E2FD6078401C6070C0B2BF
:102F50000428F7D30420207010BD00F099FD05204F
:102F6000207010BD0420607000F0D0FD6078401C1F
:102F70006070C0B20528F7D30B20207010BD00F0A0
:102F8000EAFFA08B20820020A08394F82000207507
:102F9000002084F820000120207010BDFEE7000012
:102FA000DC010020D401002030B581B00446207936
:102FB000002818BF042804D081210FF2D400FDF7A7
:102FC00019FF607908281CBF0C28102804D0822122
:102FD0000FF2BC00FDF70EFF2068C10DC90500D13E
:102FE00020B983210FF2A800FDF704FFA07980B378
:102FF000012806D084210FF29800FDF7FBFEA0798E
:1030000038B3214801682268914301604168226811
:103010009143416022798218136825682B4313601D
:10302000826823689A438260C26823689A43C260B8
:1030300062792368102A08D1816819438160C168C8
:1030400022681143C16001B030BD82181068184376
:1030500007E0207900F1804202F582321068216891
:103060008843106001B030BD10B50446E00DC005C6
:1030700000D12CB94FF492710FF21400FDF7BAFE93
:103080000248046010BD0000000401401404014027
:10309000433A5C30304669726D77617265576F7282
:1030A0006B696E6741436861755C576F726B696EDF
:1030B000675C475453565F52616E6765486F6F6433
:1030C0005C4C69627261726965735C53544D333252
:1030D0004C3178785F5374645065726970685F44EE
:1030E00072697665725C7372635C73746D33326C93
:1030F0003178785F657874692E63000010B5354CBF
:103100000020A06160612061E06184F82800204611
:10311000FFF7AAF960684FF4FA61B0FBF1F0B0F183
:10312000807F0CD22C490002000A401E4860F0202B
:1031300081F8130D002088600720086010BDFEE7AD
:103140002448416982690369142B10D3143B03613D
:10315000491CC3695B1CC3610A2922BF0A39521C7E
:103160000A2A04D30A3A836A43F001038362826124
:103170004161704710B5174C2069401C2061E06A1E
:1031800010B1E06A401EE062FFF7DAFFA06A810733
:1031900004D520F00600A062C8202062A06A0107C2
:1031A00004D520F01800A062C8206062206A30B107
:1031B000401E206203D1A06A40F00400A062606A51
:1031C00030B1401E606203D1A06A40F01000A062DE
:1031D00010BD0000AC01002010E000E000B500BF11
:1031E000130096469446103928BFA0E80C50FAD830
:1031F0005FEA417C28BF0CC048BF40F8042BC907D8
:1032000028BF20F8022B48BF00F8012B00BD0000AA
:10321000DFF8B807016841F001010160DFF8B0177D
:103220008A6842F0C0028A60026842F002020260CC
:103230008A6842F440328A60026842F00402026006
:10324000CA6842F4F872CA60826842F00042826042
:103250000868400040080860DFF8780701880180AE
:1032600081688160B0F80014A0F80014D0F8081448
:10327000C0F80814B0F80018A0F80018D0F8081822
:10328000C0F808180188018081688160B0F80014D6
:10329000A0F80014D0F80814C0F80814B0F800180A
:1032A000A0F80018D0F80818C0F80818FFE730B5E3
:1032B00081B0DFF82447DFF81857286820402860DD
:1032C0006868800880006860012080F31088DFF85B
:1032D0000C07818A4FF67F7211408182016821F4C8
:1032E000404141F480410160B0F814144FF6FD7282
:1032F0001140A0F81414D0F8001421F00C0141F092
:103300000401C0F80014B0F814184FF65F721140B1
:10331000A0F81418D0F8001821F44C4141F4884169
:10332000C0F80018818A4FF6BF721140818201688F
:1033300021F4405141F480510160B0F814144FF66B
:10334000FE721140A0F81414D0F800148908890006
:1033500041F00101C0F80014B0F814184FF6AF7234
:103360001140A0F81418D0F8001821F44C5141F481
:103370008851C0F80018818A818201680160B0F824
:103380001414A0F81414D0F80014C0F80014B0F805
:1033900014184FF6FF621140A0F81418D0F8001866
:1033A00021F4403141F48031C0F80018002080F34E
:1033B0001088642000F01AFB2868204028606868A4
:1033C00080088000686001B030BD2DE9F04F81B009
:1033D0000024DFF80C562C606C60AC60EC602C6153
:1033E0006C61DFF8F485DFF8E875386808EA0000FA
:1033F00038607868800880007860012080F3108849
:10340000DFF8D865B08A4FF67F710840B082306827
:1034100020F4404040F480403060B6F814044FF689
:10342000FD710840A6F81404D6F8000420F00C0042
:1034300040F00400C6F80004B6F814084FF65F71B7
:103440000840A6F81408D6F8000820F44C4040F4D0
:103450008840C6F80008B08A4FF6BF710840B082B5
:10346000306820F4405040F480503060B6F81404C6
:103470004FF6FE710840A6F81404D6F80004800840
:10348000800040F00100C6F80004B6F814084FF6BA
:10349000AF710840A6F81408D6F8000820F44C5084
:1034A00040F48850C6F8000884F31088322000F0F9
:1034B0009DFA012080F31088306820F4405030607D
:1034C000D6F8000480088000C6F80004D6F800088A
:1034D00020F44C50C6F8000884F310884FF6FC79AD
:1034E00044F2401A48F2802B38684BEA00003860FA
:1034F000786840F002007860012080F31088B08A7C
:1035000040F04000B082306820F4405040F48050D9
:103510003060B6F8140440F00100A6F81404D6F8A0
:1035200000048008800040F00100C6F80004B6F8EE
:10353000140840F05000A6F81408D6F8000820F44B
:103540004C5040F48850C6F80008002080F31088E2
:1035500000F0CCFD287DC00707D4308A800704D551
:103560002C80686940F001006861287D400608D41D
:10357000B6F81004800404D5AC81686940F04000BE
:103580006861287D000608D4B6F81008800704D5C5
:10359000EC81686940F0800068616869800508D442
:1035A000B6F81008000604D56C82686940F4007013
:1035B0006861287D000707D4308A800504D5EC8037
:1035C000686940F008006861287DC00607D4308A29
:1035D000400404D52C81686940F010006861287DA2
:1035E000800707D4308A000604D56C80686940F0F3
:1035F00002006861287D400708D4B6F810048007EF
:1036000004D5AC80686940F004006861287D8006BC
:1036100008D4B6F81004800604D56C81686940F0BF
:10362000200068616869C00508D4B6F810088006F3
:1036300004D52C82686940F480706861641C0120A4
:1036400080F31088306820F440503060D6F80004D1
:1036500080088000C6F80004D6F8000820F44C501A
:10366000C6F80008002080F3108838684AEA000095
:103670003860786840F00100786000F039FD012082
:1036800080F31088306820F440403060D6F80004A1
:1036900020F00C00C6F80004D6F8000820F44C40D6
:1036A000C6F80008002080F31088386808EA000097
:1036B0003860786809EA0000786041F2A940A4B255
:1036C000844203D300BF01B0BDE8F08F288B696945
:1036D000014081427FF408AF01B0BDE8F08F2DE9D1
:1036E000F04F81B00024BF4D2C606C60AC60EC608A
:1036F0002C616C61DFF8F092B54F386809EA000080
:1037000038604FF6F978786808EA000078600120A0
:1037100080F31088B14EB08A4FF67F710840B082B6
:10372000306820F4404040F480403060B6F8140423
:103730004FF6FD710840A6F81404D6F8000420F0F6
:103740000C0040F00400C6F80004B6F814084FF668
:103750005F710840A6F81408D6F8000820F44C4021
:1037600040F48840C6F80008B08AB0823068306003
:10377000B6F81404A6F81404D6F80004C6F8000439
:10378000B6F814084FF6FF610840A6F81408D6F8FA
:10379000000820F4403040F48030C6F8000884F37C
:1037A0001088322000F022F9012080F31088306860
:1037B0003060D6F80004C6F80004D6F8000820F4FB
:1037C0004030C6F8000884F31088012080F3108888
:1037D000306820F440403060D6F8000420F00C003F
:1037E000C6F80004D6F8000820F44C40C6F80008DB
:1037F00084F3108841F2A94A48F2802B38684BEADA
:1038000000003860786840F002007860012080F3A2
:103810001088B08AB08230683060B6F81404A6F818
:103820001404D6F80004C6F80004B6F8140840F4EE
:103830008070A6F81408D6F8000820F4403040F450
:103840008030C6F80008002080F3108800F04EFC9D
:10385000287DC00707D4308A800704D52C8068698A
:1038600040F001006861287D400608D4B6F81004D5
:10387000800404D5AC81686940F040006861287D0F
:10388000000608D4B6F81008800704D5EC816869F2
:1038900040F0800068616869800508D4B6F81008B7
:1038A000000604D56C82686940F400706861287D68
:1038B000000707D4308A800504D5EC80686940F0A1
:1038C00008006861287DC00607D4308A400404D50A
:1038D0002C81686940F010006861287D800707D45A
:1038E000308A000604D56C80686940F00200686187
:1038F000287D400708D4B6F81004800704D5AC80B2
:10390000686940F004006861287D800608D4B6F834
:103910001004800604D56C81686940F0200068615D
:103920006869C00508D4B6F81008800604D52C8252
:10393000686940F480706861012080F31088306805
:103940003060D6F80004C6F80004D6F8000820F469
:103950004030C6F80008002080F31088641C3868E6
:103960003860786840F00400786000F0C1FB012006
:1039700080F31088306820F440403060D6F80004AE
:1039800020F00C00C6F80004D6F8000820F44C40E3
:10399000C6F80008002080F31088386809EA0000A3
:1039A0003860786808EA00007860544503D300BFA7
:1039B00001B0BDE8F08F288B6969014081427FF436
:1039C0001DAF01B0BDE8F08F000000001C380240C0
:1039D000087C0040040002403F3CFFFF0000024022
:1039E000000200201C0200207F7DFFFF00E0401E3F
:1039F00080B20028FBD1704770B5DFF82C4300205F
:103A00002083DFF82853DFF82863307888210842C4
:103A100003D1DFF8200300882083307D084205D1E0
:103A2000208BDFF8101349880843208396F828007C
:103A30008821084205D1208BDFF8F81289880843D5
:103A4000208396F83C008821084205D1208BDFF8BE
:103A5000E412C9880843208304202870208BB0B169
:103A6000FFF7B3FCDFF8D002017834F81110718150
:103A7000417834F81110F183817834F8111071868F
:103A8000C07834F81000A6F846000420287070BDF5
:103A900070B5DFF8A84200202083DFF89052DFF8ED
:103AA000906296F850008821084203D1DFF8840222
:103AB0000089208305202870208B50B1FFF70FFE6E
:103AC000DFF87C02007834F81000A6F85A000520D0
:103AD000287070BD70B5954C002020706FF00905FE
:103AE000DFF8606200F03AF93068802101703068D8
:103AF0004421017430684321417430688574207812
:103B0000401C2070C0B20528ECD370BD10B500F089
:103B100025F900F02DF98B4C20680178012973D02C
:103B200002290CD0042940D0082912D011295AD0DA
:103B3000142923D0242942D0802972D076E04089EC
:103B4000323841F2774180B2884267D200F06FF894
:103B500020680079800758BF00F093F920687A49FF
:103B60000A8883881A430A8078490A7803781A43B6
:103B70000A70416821F00801416010BD7449B1F933
:103B8000001090F9100081420CDB00F08DF92068E4
:103B9000817B491E81732068807B0028DED100F084
:103BA0001EF9DBE700F002F9D8E74089323841F22C
:103BB000774180B2884231D200F072F8C8E790F9BC
:103BC0001110634AB2F90020914209DB817B491E42
:103BD00081732068807B0028C0D100F0D3F8BDE756
:103BE00000F016F9BAE790F91210594AB2F900201C
:103BF0009142D7DB817B491E81732068807B00283E
:103C0000ACD100F013F9A9E74089323841F277418D
:103C100080B2884202D200F075F899E700F01EF9F0
:103C20009CE7007900F003000328E9E7FEE730B5E0
:103C300081B0474DB5F90000424C216891F912203E
:103C4000824204DB01B0BDE8304000F0E6B891F9F3
:103C50001010884222DB00F0B9F83E480078E8B93D
:103C60002068817B491C8173B5F90000216891F9B6
:103C7000101088420DDB00F017F92068817B491E87
:103C800081732068807B48B901B0BDE8304000F006
:103C9000A6B801B0BDE8304000F088B801B030BD32
:103CA00030B581B02A4C274D286890F91100B4F93D
:103CB000001088421FDB00F0A2F827480078F8B90E
:103CC0002868817B491C8173286890F91110B4F928
:103CD000002091420ADB817B491E81732868807B2A
:103CE00070B901B0BDE8304000F04CB801B0BDE89B
:103CF000304000F08DB801B0BDE8304000F018B998
:103D000001B030BD0F4801688A894B899A188A81B1
:103D10000A7A521E0A720068017A21B98189C9089B
:103D2000818100F02FB8704700020020DD010020E3
:103D3000480100205C420008544200081C02002098
:103D400058420008B4020020F8010020FC010020C5
:103D5000C4020020DF010020E0010020D1480078EB
:103D600000EB8001D04800EB8100D049086070472B
:103D7000CE480068B0F90C10B0F90A00081ACC4916
:103D800008807047C94801684A6842F008024A60E2
:103D900002220A700068416821F00401416021F0AC
:103DA0008001416021F0200141607047BF480168F7
:103DB00002220A700068416821F00401416021F08C
:103DC0008001416021F0200141607047B7480168DF
:103DD00014220A700068B749097881737047B348A4
:103DE000016804220A700068416841F004014160E2
:103DF00041F008014160B049097801727047AB4851
:103E0000016824220A700068AC4909788173704700
:103E1000A6480068042101707047A4480168112277
:103E20000A700068A6490978817370479F48016845
:103E300001220A7001684A6822F004024A6042F0D6
:103E400008024A6022F080024A6022F020024A60A2
:103E500008220A7200680021818170479348016836
:103E600008220A700068416821F00401416041F0B5
:103E70000801416021F08001416041F02001416072
:103E800070478A48016880220A700068416821F002
:103E90000401416041F00801416021F0800141606E
:103EA00021F02001416070478048006841680A069F
:103EB00000D5704770B4427A7A4B1B787A4C6BB15C
:103EC000657A1646354207D025792D0604D5817BC3
:103ED000491C817370BC7047012B08D0657F164662
:103EE000354202D0257E2D06F1D4022B09D094F85C
:103EF0003150354203D094F82C502D06E7D4032BD3
:103F000009D094F84550354203D094F840502D061E
:103F1000DDD4042B07D094F85930134203D094F821
:103F200054201206D3D441F08001416070BC704728
:103F300064480078C0070DD55F48007850B15B48F1
:103F400001680A7A521E0A720068007A002808BFC7
:103F5000FFF76CBF70472DE9F04F012080F3108808
:103F600059485A490A68026000220A6082F31088A0
:103F70004FF0FF314E4A4D4BDFF82C81494DDFF8B1
:103F80005091DFF850A10468002C00F08880641E76
:103F900004609AF80040002C1CBF641E8AF80040A0
:103FA0004D4C2478641E5FFA84FCBCF1000F08D1EC
:103FB0004FF00A0C99F80040002C1CBF641E89F8D1
:103FC0000040454C84F800C0444C94F800C04FF0C9
:103FD000010E00242C7046461E603778142F18BF3F
:103FE000042F18BF242F04D13D4C247889F80040B9
:103FF0001DE0022F14D1B6F90CB0B6F90A70ABEB84
:10400000070717803FB2002F06D003D5012C03DA33
:104010000C4605E0002C02D54FF0000E00E0012414
:104020002F787F1C2F701436FFB2052FD4D39AF847
:10403000004099F800603443A5D12A4C24788AF8CE
:104040000040BEF1000F1CBF274C94F800C08CF05C
:10405000FF04641C5FFA84FEBCF1000F93D00024BF
:104060002C702C7804EB840608EB86041C60267800
:10407000022E0DD1A689E77B07EB062667893F0252
:1040800007FB0CF706FB0E76370CA781360AE673A2
:104090002C78641C2C70E4B2052CE2D373E7016029
:1040A000BDE8F08FDD01002048010020B4020020AF
:1040B000C4020020DF010020DE010020E00100201A
:1040C000E1010020F4010020B8020020C801002016
:1040D000E7010020E6010020E8010020E5010020C2
:1040E000E3010020E2010020E401002000BF70474E
:1040F00000BF704782B03248016841F480710160AE
:104100008168304A1140816001682F4A1140016086
:10411000016821F480210160816821F47D018160C2
:104120000021C16001910091016841F0010101602D
:10413000016801F0020100910199491C0191009967
:1041400019B90199B1F5A06FF2D10168490801F0E0
:1041500001010091009901292FD1D0F8001441F0FC
:104160000401C0F80014D0F8001441F00201C0F8B6
:104170000014D0F8001441F00101C0F80014416AA5
:1041800041F08051416211494FF400620A604A686F
:10419000D206FCD481688160816881608168816019
:1041A0008168890889008160816841F0010181602E
:1041B000816801F00C010429FAD102B070470000B7
:1041C000003802400CC0FF88FEFFFEEE0070004089
:1041D00010B5074979441831064C7C44163404E084
:1041E000081D0A68511888470146A142F8D110BD40
:1041F000080000002800000093ECFFFF8002000090
:104200004800002000000000EFCBFFFF4800000046
:104210004C010000000000200000000000F009F840
:10422000002801D0FFF7D4FF0020FCF74CFC00F081
:1042300002F80120704700F001B800000746384638
:1042400000F002F8FBE7000001491820ABBEFBE7D5
:104250002600020001020908090000000200040013
:1042600000020001000200000148804701480047A9
:10427000F540000879420008C046C046C046C04626
:10428000FFF7CCFFFDF7CEBFFDF7CDBFFDF7CCBFED
:10429000FDF7CBBFFDF7CABFFDF7C9BFFDF7C8BF2C
:1042A000FDF7C7BFFDF7C6BFFFF7FEBFFFF7FEBFB5
:1042B000FFF7FEBFFEF77EB8FFF7FEBFFFF7FEBFBA
:1042C000FEF775B8FFF7FEBFFFF7FEBFFFF7FEBFB3
:1042D000FFF7FEBFFFF7FEBFFFF7FEBFFFF7FEBF12
:1042E000FFF7FEBFFFF7FEBFFFF7FEBFFFF7FEBF02
:1042F000FFF7FEBFFFF7FEBFFFF7FEBFFFF7FEBFF2
:10430000FFF7FEBFFFF7FEBFFFF7FEBFFFF7FEBFE1
:10431000FFF7FEBFFFF7FEBFFFF7FEBFFFF7FEBFD1
:10432000FFF7FEBFFFF7FEBFFFF7FEBFFFF7FEBFC1
:10433000FFF7FEBFFFF7FEBFFFF7FEBFFFF7FEBFB1
:10434000FFF7FEBFFFF7FEBFFFF7FEBFFFF7FEBFA1
:10435000FFF7FEBFFDF7C6BFFEF71EB80024F4004E
:10436000030406080C1018203000000000000000B4
:10437000010204000000000000000000010203042C
:1043800006070809030406080C1018203000000076
:1043900000000000010203040102030406070809EB
:0443A0000000050014
:040000050800427934
:00000001FF
