:020000040800F2
:10000000F0090020C13E0008213B0008233B000806
:10001000253B0008273B0008293B000800000000A2
:100020000000000000000000000000002B3B000862
:100030002D3B0008000000002F3B0008313B00086A
:10004000013F0008053F0008093F0008B53C0008D3
:10005000113F0008153F0008AF3C00081D3F000895
:10006000213F0008253F0008293F00082D3F0008D8
:10007000313F0008353F0008393F00083D3F000888
:10008000413F0008453F0008493F00084D3F000838
:10009000513F0008553F0008593F00085D3F0008E8
:1000A000613F0008653F0008693F00086D3F000898
:1000B000713F0008753F0008793F00087D3F000848
:1000C000813F0008853F0008893F00088D3F0008F8
:1000D000913F0008153D0008993F00089D3F00082A
:1000E000A13F0008A53F0008A93F0008E53B000824
:1000F000993C0008022000F052FF00F0B5FEDFF846
:10010000C00B00684FF47A71B0FBF1F0B0F1807F62
:100110000FD2DFF8B01B0002000A401E4860F0203A
:1001200081F8130D0020886007200860D02081F836
:10013000130D00F0E9FF00F0CBFD01F095F901F09F
:100140002DFB00F05BFE01F027FC01F0B7FDDFF8AE
:10015000780BDFF8784B21465FF0030210F8013B83
:100160008B7510F8013BCB7510F8013B0B7610F83E
:10017000013B4B76091D521EF0D101F01EF90620FD
:1001800001F04CF95FF0640501F017F96D1EFBD129
:1001900000F00AF8E0780028FAD00020E070DFF8DC
:1001A000541C01F042FFF3E730B581B001F0D8FCF8
:1001B00001F044FC01F040F8062001F0F8F808B125
:1001C00001F0FBF801F046F9DFF8004B40B30021E5
:1001D000A27D03789A421BD1491CC9B20A19927DAB
:1001E0000B5C9A4214D1491CC9B20A19927D0B5C6E
:1001F0009A420DD1491CC9B20A19927D0B5C9A42F0
:1002000006D1491CC9B20A19927D0B5C9A42E3D00F
:10021000085C0919897D88429241D20FA27001E0E1
:100220000120A07000F056F8042001F02CFD18B950
:10023000042001F07CFC18B1206880F4806020600C
:10024000DFF8B45B2068400509D5012001F01DFAF4
:10025000022001F01AFA0120287028760AE0012015
:1002600001F01BFA022001F018FA012085F8400085
:1002700085F85800A07A30B92068400503D40120E1
:1002800085F8540001E001202875A07820B900F01D
:100290008BFD062001F001FAA078012804D100F0BE
:1002A00083FD062001F0F1F9DFF8B80BD0F8CC029D
:1002B000C00107D5012001F0E8F901B0BDE83040E8
:1002C00002F070B9012001F0E8F901B0BDE830405A
:1002D00002F068B92DE9F041DFF8F049A07A05286D
:1002E00000F2E784DFE810F006007F00B000D701DD
:1002F000D502AA03DFF8FC7A387801F040F9787863
:1003000001F06EF901F041FA18B1072001F0BDF9D2
:1003100002E0072001F0C1F9DFF8A069DFF8985981
:10032000022001F0B0FC18B9022001F000FC80B1FD
:10033000387860717878A071206820F4805020604F
:100340000220A0720020207128702873287130715B
:100350003070032001F097FC10B901F0E8FB90B178
:1003600001206072DFF8C87B387200203873387162
:1003700038700320A07201F0D3FA0020287028738F
:10038000287130713070002001F07DFC18B9012017
:1003900001F0CDFB98B104206072DFF8947B00205F
:1003A000387238733871012038700320A07201F060
:1003B000B7FA00202870287328713071307001203E
:1003C00001F061FC28B9032001F0B1FB002800F026
:1003D00070840120A0720020287028732871307169
:1003E0003070BDE8F081DFF80C7A387801F0C7F89A
:1003F000787801F0F5F801F0C8F918B1072001F09C
:1004000044F902E0072001F048F9062001F03DF927
:10041000DFF8A4580120287001F035FC28B903202A
:1004200001F085FB002800F044840020A072062023
:1004300001F033F90020287028732871DFF87C68F8
:1004400030713070BDE8F081072001F01EF9DFF84F
:100450006C6801203071DFF86058287128732068BB
:10046000C00400F18980A07901F0BAF8032001F0FE
:1004700017FC48B901F014FC30B901F058FB18B969
:10048000012001F054FB00E0012084F8240001F079
:100490007CF994F82410084314BF6079582001F0C7
:1004A0006EF82079401C2071032001F0F9FBA8B9F7
:1004B00001F0F6FB90B9042001F0E5FB70B90420CF
:1004C00001F0EEFB50B901F032FB38B9012001F028
:1004D0002EFB18B9042001F02AFB08B1002020717E
:1004E000022001F0D0FB30B9022001F020FB10B94E
:1004F0002079592807D3206880F48050206000209C
:10050000207102F0B3F8032001F0BDFB50B90320C5
:1005100001F0CDFB10B12078400603D4002001F09B
:1005200006FB58B1206820F04000206000202071B8
:10053000607917280CBF0020401C6071002001F07A
:10054000A2FB58B901F0B3FB10B12078400605D4E6
:10055000012001F0ECFA002800F0AB83206820F0C5
:100560004000206000202071607900280CBF172017
:10057000401E6071BDE8F081607901F000F8032051
:1005800001F08EFB48B901F08BFB30B901F0CFFAD6
:1005900018B9012001F0CBFA00E0012084F8240012
:1005A00001F0F3F894F82410084314BFA079582000
:1005B00001F016F82079401C2071032001F070FB37
:1005C000A8B901F06DFB90B9042001F05CFB70B993
:1005D000042001F065FB50B901F0A9FA38B90120F7
:1005E00001F0A5FA18B9042001F0A1FA08B1002021
:1005F0002071022001F047FB30B9022001F097FA88
:1006000010B9207959280DD30022A179607900F022
:100610009EFD0020A0722870287328713071307000
:1006200002F02FF8032001F02EFB50B9032001F057
:100630003EFB10B12078400603D4002001F077FA89
:1006400058B1206820F04000206000202071A0797F
:100650003B280CBF0020401CA071002001F013FBC0
:1006600058B901F024FB10B12078400605D40120D0
:1006700001F05DFA002800F01C83206820F04000A3
:10068000206000202071A07900280CBF3B20401E74
:10069000A071BDE8F081DFF8205601202871287391
:1006A000072000F0FAFF002000F04BFF032000F0CD
:1006B00048FF617A022000F013FF0A21012000F0B8
:1006C0000FFF607A032802D301F065F801E001F022
:1006D0005FF800F0EFFFDFF85878032001F0D3FA5D
:1006E00018B901F024FA00284DD0607A042815D1F9
:1006F000002060723872387338713870052000F04D
:10070000D9FF0020A07201F00BF900202870287397
:100710002871DFF8A8653071307034E0401CC0B239
:10072000401E032826D8DFE800F01D150B02042028
:10073000607200203872387338710120387022E0FE
:100740000320607200203872387301203871002055
:10075000387018E00220607200203872012038736F
:10076000002004E001206072387200203873387174
:10077000387008E000206072387238733871387051
:10078000052000F097FF002001F07DFA20B901203C
:1007900001F0CDF900284DD0607A012815D1002054
:1007A00060723872387338713870052000F082FF3B
:1007B0000020A07201F0B4F800202870287328717E
:1007C000DFF8F8643071307034E0401EC0B2401E73
:1007D000032826D8DFE800F01D150B020420607204
:1007E00000203872387338710120387022E00320FD
:1007F0006072002038723873012038710020387020
:1008000018E0022060720020387201203873002046
:1008100004E001206072387200203873387138703B
:1008200008E0002060723872387338713870052023
:1008300000F040FF012001F026FA18B9032001F072
:1008400076F9A0B100206072387238733871387050
:10085000052000F02FFF0120A07201F061F80020B8
:10086000287028732871DFF85464307130700220CA
:1008700001F009FA28B9022001F059F9002800F026
:1008800018820120E0710420A07200202071BDE8D0
:10089000F081DFF8286401203071DFF81C542871E2
:1008A0002873072000F0F1FE002000F0EEFE00208B
:1008B00000F096FE032001F0F3F948B901F0F0F9D9
:1008C00030B901F034F918B9012001F030F900E035
:1008D000012084F8240000F058FF94F82410084305
:1008E00009D0E07900F04BFEE0790A2806D200201A
:1008F00000F027FE02E0582000F041FE607A032855
:1009000002D300F048FF01E000F042FF00F0D2FE09
:100910002079401C2071032001F0C2F9A8B901F030
:10092000BFF990B9042001F0AEF970B9042001F0CC
:10093000B7F950B901F0FBF838B9012001F0F7F828
:1009400018B9042001F0F3F808B100202071032049
:1009500001F099F950B9032001F0A9F910B12078FC
:10096000800603D4002001F0E2F858B1206820F09E
:100970002000206000202071E0790F280CBF0120AA
:10098000401CE071002001F07EF948B901F08FF9B8
:1009900010B12078800603D4012001F0C8F858B1C6
:1009A000206820F02000206000202071E0790128DC
:1009B0000CBF0F20401EE071012001F064F918B94E
:1009C000032001F0B4F8A0B100206072DFF8607578
:1009D0003872387338713870052000F06BFE0120D2
:1009E000A07200F09DFF00202870287328713071DC
:1009F0003070022001F047F918B9022001F097F891
:100A000038B10320A072002000F047FE072000F05C
:100A100044FE20795928C0F04C810520A072E0796D
:100A2000C0EB00118800A082206820F400502060F4
:100A300000F076FFBDE8F04101F023BE9F4E01209B
:100A400030719D4D28712873002000F07AFD03203D
:100A500000F077FD072000F020FE617A022000F010
:100A60003FFD0A21012000F03BFD00F08EFE18B191
:100A7000002000F00AFE01E000F00FFE607A03287B
:100A800002D300F088FE01E000F082FE00F012FECA
:100A9000DFF89C74032001F0F6F818B901F047F86C
:100AA00000284BD0607A042813D10020607238727D
:100AB000387338713870052000F0FCFD0020A072FA
:100AC00000F02EFF002028702873287130713070DC
:100AD00034E0401CC0B2401E032826D8DFE800F0F6
:100AE0001D150B02042060720020387238733871B3
:100AF0000120387022E003206072002038723873C1
:100B0000012038710020387018E002206072002047
:100B1000387201203873002004E0012060723872BE
:100B2000002038733871387008E000206072387225
:100B3000387338713870052000F0BCFD002001F0DA
:100B4000A2F820B9012000F0F2FF00284BD0607A13
:100B5000012813D1002060723872387338713870F0
:100B6000052000F0A7FD0020A07200F0D9FE0020B3
:100B70002870287328713071307034E0401EC0B284
:100B8000401E032826D8DFE800F01D150B020420C4
:100B9000607200203872387338710120387022E09A
:100BA00003206072002038723873012038710020F1
:100BB000387018E00220607200203872012038730B
:100BC000002004E001206072387200203873387110
:100BD000387008E0002060723872387338713870ED
:100BE000052000F067FD012001F04DF818B9032041
:100BF00000F09DFF90B10020607238723873387138
:100C00003870052000F056FD0120A07200F088FE2B
:100C1000002028702873287130713070022001F094
:100C200038F818B1022001F042F818B1022000F0A3
:100C30007EFF20B10320A072002000F02EFD0220D4
:100C400001F035F8D8B14FF03C08A08A90FBF8F0DD
:100C5000C0B200F094FCA08A90FBF8F1C1EB011245
:100C6000A0EB8200C0B200F0BBFC00F08EFD18B11A
:100C7000072000F00AFD02E0072000F00EFD2068CA
:100C8000800416D50020607238723873387138705D
:100C9000052000F00FFD0020A07200F041FE0020B2
:100CA00028702873287130713070BDE8F04101F070
:100CB000DDBCBDE8F081000084024042B4824042C5
:100CC0000000002010E000E05000F81F3405002074
:100CD00070B500F0A9FD0121022001F0EEFD954C58
:100CE0000220207160710020A0710120E07140207D
:100CF0002060914D2146284601F0DAFE0220207145
:100D000060710120A0710020E071802020602146E8
:100D1000284601F0CDFE07220621284601F08EFF6D
:100D200007220721284601F089FF0121084601F02A
:100D3000C4FD4FF480502060012020710020E0802D
:100D4000012060717D4E2146304601F0B1FE4FF426
:100D50008051304601F04CFF0121032001F0ADFD30
:100D60001620206001202071A071E0716071214681
:100D7000304601F09DFE4FF4E040206021462846B9
:100D800001F096FE0121022001F097FD4FF4004092
:100D9000206000202071E07101206071214628460A
:100DA00001F086FEBDE8704030B581B0012104201D
:100DB00001F083FD5F4C0F20206000202071E08057
:100DC000012060715E4D2146284601F071FE01212F
:100DD000042001F072FD4FF40050206000202071CB
:100DE000E080012060712146284601B0BDE8304016
:100DF00001F05EBEC00500201C83404230B581B0CA
:100E00000121102001F0A5FD4E4C4F48006844F62A
:100E10002061B0FBF1F0401EA08000202060E08047
:100E20004A4D2146284601F0B9FF0121284602F02B
:100E3000EAF801220121284602F064F82B202072F2
:100E40000A2060720120A072E07204F1080002F032
:100E500053F90121284602F00BF801B0BDE83040FB
:100E600001F040BC4800002010B5394C01F086FC70
:100E70002070201D01F088FC212001F08EFD6169A9
:100E800060F300016161292001F087FD616960F371
:100E900041016161312001F080FD616960F38201EF
:100EA0006161392001F079FD616960F3C30161611D
:100EB000492001F072FD616960F304116161412014
:100EC00001F06BFD616960F345116161592001F02A
:100ED00064FD616960F3861161615A2001F05DFD76
:100EE000616960F3C71161615B2001F056FD6169C2
:100EF00060F3082161615C2001F04FFD616960F3DE
:100F0000492161615D2001F048FD616960F38A213A
:100F100061615E2001F041FD616960F3CB21616197
:100F20005F2001F03AFD616960F30C31616110BD31
:100F300080024142DC050020000402400000024023
:100F400000080240D00500200000002000100040F2
:100F50009C050020FEE710B450F8041B81B1026824
:100F60001218001D50F8043BDC0744BFA9F101042E
:100F7000E31852F8044B43F8044B091FF9D1EBE78F
:100F800010BC704710B5040018BF012C04D0862196
:100F90000FF25000FFF7DEFF1048046010BD30B5BF
:100FA00081B004460025012C18BF022C0DD0042C62
:100FB00018BF082C09D0102C18BF202C05D040F2E7
:100FC0000F310FF22000FFF7C5FF054800682042EF
:100FD00018BF0125284601B030BD000020000E4298
:100FE00004700040433A5C30304669726D7761723C
:100FF00065576F726B696E6741436861755C576FC7
:10100000726B696E675C475453565F52616E6765D9
:10101000486F6F645C4C69627261726965735C539E
:10102000544D33324C3178785F5374645065726933
:1010300070685F4472697665725C7372635C737426
:101040006D33326C3178785F7077722E63000000F8
:1010500000B583B0012001F07FFB492001F09DFC29
:101060000028FAD04FF4803001F0E3FB012001F0BA
:1010700015FC00F0B6FE41487F214160FF218160F0
:101080000021016000F058FE002001F041F84FF40B
:10109000801002F011F94FF48010019000208DF8BB
:1010A000080008208DF8090001208DF80A0001A829
:1010B00002F0A2F803208DF8000001208DF8010055
:1010C00000208DF8020001208DF8030000A802F036
:1010D00013F82B48E0210170002000F0E1FFFF2011
:1010E00001F001F84FF4804001F08AF84FF48010CD
:1010F00002F0E2F801214FF4804001F049F80120AC
:1011000001F006F803B000BD00B581B001214FF039
:10111000805001F01EFC0120FFF734FFFFF798FF1D
:10112000184805214160012101720D2141720321FE
:1011300001600021C1730221017319214173002153
:101140008173002001B05DF804EBFFF71BBF70B5A1
:1011500004460D4616460120FFF714FF09480021FA
:10116000C17304734573867300F10C01002000F015
:1011700057FE0020BDE87040FFF704BFC405002003
:1011800003E400E0B405002010B4D14991F8C02276
:10119000002A4DD0582291F8C13202FB03131B786C
:1011A00080F85C3091F8C13202FB0312521C826558
:1011B0001278027091F8C022521E81F8C02291F874
:1011C000C122521C81F8C122D2B2082A04BF0022D7
:1011D00081F8C122027881F8D022062A28D8DFE8D7
:1011E00002F0212121212104210090F85C200F2A06
:1011F0001ED100220B46941E0C2C03D2846D247841
:1012000083F8C142846D641C8465521C5B1C0F2AE8
:10121000F1DBD1F8CC0240F08070C1F8CC020120A3
:1012200010BC7047002180F85410012010BC70479A
:10123000002010BC7047000010B5A64C04F124003B
:10124000FFF7A2FF002833D094F8240006282BD8FB
:10125000DFE800F004090E13181D2500206840F097
:101260000100206010BD606840F00100606010BDAA
:10127000A06840F00100A06010BDE06840F00100EF
:10128000E06010BD206940F00100206110BD606980
:1012900040F001006061BDE8104001F0E7B9A069CD
:1012A00040F00100A06110BD002084F8200010BDB6
:1012B00084F82000206840084000206060684008F2
:1012C00040006060A06840084000A060E0684008FE
:1012D0004000E060206940084000206160694008EB
:1012E00040006061A06940084000A061E0694008DA
:1012F0004000E06110BD704760B581B0764802F0F3
:10130000F7F8734991F8D222582391F8C25203FB9F
:101310000515505591F8D10258B991F8C20203FB56
:101320000010105C18B9012081F8D1023AE00020C9
:1013300039E0032A36D391F8C20203FB0010857806
:1013400075B9C078FF2829D191F8C20203FB0010BB
:1013500003220270002081F8D10281F8D2020BE052
:10136000EE1CB2421ED1105CFF2817D191F8C202C8
:1013700003FB0010EA1C027091F8C202401C81F8C5
:10138000C202C0B2082804BF002081F8C20291F84E
:10139000C002401C81F8C00201B060BD002081F88D
:1013A000D10200E0501C81F8D20201B060BD494971
:1013B00011F8200000F00100704770B584B00020E3
:1013C0008DF80000FF208DF80F0005208DF801003A
:1013D0000C208DF802000DF10300404903228B7DA3
:1013E00000F8013BCB7D00F8013B0B7E00F8013B90
:1013F0004B7E00F8013B091D521EF0D100AC1025B8
:10140000354E8021304602F0E1F80028F9D014F87A
:10141000010BB0806D1EF4D104B070BD70B582B008
:1014200000218DF800108DF801008DF80210FF20CA
:101430008DF8030000AC0425274E8021304602F0D1
:10144000C5F80028F9D014F8010BB0806D1EF4D156
:1014500002B070BD1E48D0F8CC12C90102D500F20E
:10146000C32070470020704710B586B001214FF4AB
:10147000804001F048FA4FF416500190002002908D
:10148000ADF80C00ADF810000C20ADF80E00124CB9
:1014900001A9204601F05AFF012240F225512046C1
:1014A00002F03DF825208DF800000D208DF8010098
:1014B00000208DF8020001208DF8030000A801F043
:1014C0001BFE0121204601F0E8FF06B010BD000020
:1014D000480000201C040020003801403405002092
:1014E000F0B40FF2A842895C0FF2944202EB400282
:1014F000507892789400DFF8502401F001031355DE
:10150000DFF848344D1005F001051D55DFF8405453
:101510008E1006F001062E55CE1006F00106DFF8FB
:1015200034743E5580000C1104F001042C548C11CD
:1015300004F001041C54491101F001011154F0BCE4
:10154000704770B40FF2384101EB40004178807869
:101550008000DFF8F42300231354DFF8F033002475
:101560001C54DFF8EC4300252554DFF8E85300262F
:101570002E54880026541E54165470BC704710B563
:1015800018280FD20A2190FBF1F404EB8401A0EBA0
:101590004101C9B20120FFF7A3FFE1B20020BDE87D
:1015A00010409DE7DFF8B003002180F8001380F8B9
:1015B000001280F80011017080F8FC1080F8FC1116
:1015C00080F8FC1280F8081380F8081280F80811DF
:1015D000017280F8041180F8041280F8041310BD21
:1015E00010B53C280FD20A2190FBF1F404EB8401E2
:1015F000A0EB4101C9B20320FFF772FFE1B2022064
:10160000BDE810406CE7DFF85403002180F80013B8
:1016100080F8001280F80011017080F8FC1080F84A
:10162000FC1180F8FC1280F8201380F8201280F85A
:10163000201180F8201080F8041180F8041280F83E
:10164000041310BDC6480088C64900F0010281F8A5
:101650002820C0F3800281F85420C0F3400281F8B2
:101660005C200206D20F0A70C0F3801281F850206D
:10167000C0F3C00281F85021C0F3001281F850225B
:10168000C0F3401081F850037047B5490A88012320
:1016900003FA00F010430880D4E7B149082808BFD6
:1016A000002005D00A88012303FA00F022EA000096
:1016B0000880C7E710B518B1022812D005D327E07B
:1016C000A74C208840F0080027E0A54C20884FF662
:1016D000F77108402080FFF7B5FF208840F0100028
:1016E00022E09F4C20884FF6F77108402080FFF7DA
:1016F000A9FF20884FF6EF7108402080FFF7A2FF76
:10170000208840F020002080BDE81040FFF79ABFFD
:10171000934C20884FF6F77108402080FFF792FF26
:1017200020884FF6EF7108402080FFF78BFF20885C
:101730004FF6DF7108402080BDE8104082E78A48FC
:101740008179491CC9B2082908BF002181718179BA
:1017500004299241D20FC2704179491C4171C9B22A
:10176000032904BF002141718178491C8170C9B2ED
:10177000032909D1002181700179491C0171C9B285
:10178000032904BF0021017170477748C078704772
:1017900075480079704774484079704700B585B046
:1017A00001214FF4007001F0D4F8002000904FF4B4
:1017B000701001900C2002904020039000200490B3
:1017C00000A800F073FD012000F034FE4FF4E0505B
:1017D00000F0C1FE002000F05BFE602000F038FE4B
:1017E00000F023FE012000F00CFE012000F0DEFEE0
:1017F0000028FAD0102000F0D9FE0028FAD04FF4CB
:101800008041002000F06AFE55480021018004203C
:1018100000F0CCFE0028FAD14021544801F09EFF90
:1018200000F0C0FE05B000BD10B582B001213F2020
:1018300001F043F800A801F0D2F94FF407400090FE
:1018400002208DF804004A4C00A9204601F030F92E
:101850000B220821204601F0F1F90B220921204634
:1018600001F0ECF90B220A21204601F0E7F90B22E6
:101870000F21204601F0E2F94FF44E700090022053
:101880008DF804003B4C00A9204601F011F90B2211
:101890000321204601F0D2F90B220421204601F059
:1018A000CDF90B220521204601F0C8F90B220821B1
:1018B000204601F0C3F90B220921204601F0BEF9B0
:1018C0004FF4F050009002208DF804002A4C00A93B
:1018D000204601F0EDF80B220921204601F0AEF977
:1018E0000B220A21204601F0A9F90B220B212046E8
:1018F00001F0A4F90B220C21204601F09FF90420ED
:10190000009002208DF804001C4C00A9204601F034
:10191000CFF80B220221204601F090F902B010BD51
:1019200000B581B00E4800210180042000F03EFE89
:101930000028FAD140210D4801F010FF01B05DF8F8
:1019400004EB00F02FBE0000808504428084044236
:101950008083044280820442F4820442A0820442D2
:10196000EC0500209C82044259050020142400400C
:10197000000002400004024000080240000C024047
:10198000111C1D1E1F070809101B00003F065B4F9E
:10199000666D7D077F6F7100DFF8A401DFF8A41189
:1019A000016070470021C2685388883B5D2B43D299
:1019B000634B93F8D030042B10D19188203917292C
:1019C0003EBFD1880939092936D2002101704FF074
:1019D000FF3141600021017201207047442B2BD35D
:1019E0009388423B2E2B27D202F206025FF020039F
:1019F000B2F800C0ACF1090CBCF1090F1CD2B2F86E
:101A000002C0ACF1160CBCF1110F0CD2490041F030
:101A10000101121D5B1EEBD12022027241600021E8
:101A2000017001207047B2F802C0ACF1060CBCF1A5
:101A3000070F38BF4900ECD30020704710B5404C69
:101A400004F10800C4F8E00094F8D000C4F8E40001
:101A50002079032827D104F1D400FFF7A3FFF8B1C0
:101A6000D4F8D8003849884246D0384988424AD00C
:101A7000374988420DD0374988424BD03649884291
:101A80003AD03649884230D00020207184F8D00006
:101A900010BDD4F8F80040F00100C4F8F8003FE0B1
:101AA000207184F8D0000020C4F8FC00D4F8E800CD
:101AB00040084000C4F8E800D4F8EC0040084000BA
:101AC000C4F8EC00D4F8F00040084000C4F8F0007E
:101AD000D4F8F40040084000C4F8F400D4F8F8004A
:101AE00040084000C4F8F80010BDD4F8F00040F001
:101AF0000100C4F8F00013E0D4F8F40040F0010055
:101B0000C4F8F4000CE0D4F8EC0040F00100C4F894
:101B1000EC0005E0D4F8E80040F00100C4F8E8006B
:101B200000F0A4FD0020207184F8D00010BD04490D
:101B300001EB800090F8E80000F001007047000021
:101B40001C0300203C824042BF40FB04AF50FB041A
:101B5000A758FB047788FB046F90FB046798FB048D
:101B6000F0B581B0714C6069400840006061254665
:101B70006F4E05272868C10706D54008400040F091
:101B80000400286000F072FD2868810744BF20F03F
:101B90000600286028683178490704D5410707D432
:101BA00040F0010003E0410702D540F00200286048
:101BB0006069410855F8042B104300F0010050EA19
:101BC0004100606114367F1ED4D101B0F0BD57488A
:101BD00001684A0708D54278092A28BF41F0080160
:101BE00007D2511C417005E000214170016821F0CD
:101BF0000801016041684A0708D54279092A28BFCF
:101C000041F0080107D2511C417105E000214171EA
:101C1000416821F00801416081684A0708D5427A8D
:101C2000092A28BF41F0080107D2511C417205E082
:101C300000214172816821F008018160C1684A0772
:101C400008D5427B092A28BF41F0080107D2511C60
:101C5000417305E000214173C16821F00801C160B2
:101C600001694A0708D5427C092A28BF41F00801CA
:101C700007D2511C4174704700214174016921F061
:101C8000080101617047294911F8200000F00100A6
:101C90007047264951F82000400800F001007047C5
:101CA000224951F82000800800F0010070471F49C8
:101CB00051F82000C00800F00100704700B581B065
:101CC00001F060FD1B48416841F0030141600121C2
:101CD0004172816941F00301816101214177C16A4B
:101CE00041F00301C162012180F83110016C41F023
:101CF00003010164012180F84510416D41F00301A9
:101D00004165012180F85910262180F8381080F8AB
:101D100039106FF0150180F83A103A2280F86020EF
:101D200080F8612080F8621001B000BD84050020B9
:101D3000A4040020A004002030B581B00446002592
:101D40002068402818BF002805D04FF4B771DFF88D
:101D50003004FFF7FFF86068802805D340F26F1168
:101D6000DFF81C04FFF7F6F8A068B0F5005F05D3B4
:101D70004FF4B871DFF80804FFF7ECF8DFF804045B
:101D8000CA21C1615321C1610095416849060FD440
:101D90004FF0FF3141604168009A521C0092009A56
:101DA000B2F5005F01D04906F5D54168490613D563
:101DB000016821F04001016001682268114301605F
:101DC000A16881608168626841EA0241816041687E
:101DD00021F0800141600125FF21C161284601B049
:101DE00030BD81B000200090DFF89C03CA218161E2
:101DF00053218161016821F0A00101600168009A0E
:101E0000521C0092009AB2F5805F01D08906F5D588
:101E10000168FF228261480900F0010001B07047AB
:101E2000F0B581B00E460025DFF8504330B3DFF83F
:101E30005073012804D040F283213846FFF78AF816
:101E40003078A168490640F1B980010901EB8102AF
:101E500000F00F0000EB4200C0B208B10D2804D31F
:101E600040F299213846FFF775F8F078002818BF3E
:101E7000402800F0B38040F29A21ACE03078A168AD
:101E8000490611D5401EC0B20C2805D340F2892165
:101E9000DFF8EC02FFF75EF8F078002818BF402862
:101EA0000BD040F28A2104E0F570182805D340F2E7
:101EB0008F21DFF8CC02FFF74DF870783C2805D36E
:101EC00040F29121DFF8B802FFF744F8B0783C28DF
:101ED00005D340F29221DFF8A802FFF73BF83078F3
:101EE000014600220A2805D30A22B0FBF2F2F620AE
:101EF00000FB021141EA021071780B4600220A2908
:101F000005D30A22B1FBF2F2F62101FB023343EAC8
:101F10000211B3781F4600220A2B05D30A22B3FB15
:101F2000F2F2F62303FB0277C0B20906090C41EA7C
:101F3000004047EA0211C9B20843F17840EA014083
:101F4000CA216162532161620095E16849060FD49C
:101F50004FF0FF31E160E168009A521C0092009A54
:101F6000B2F5005F01D04906F5D5E168490620D5F4
:101F7000DFF8181208402060E06820F08000E06080
:101F80000095CA20606253206062E06820F0A000E3
:101F9000E060E0680099491C00910099B1F5805F0C
:101FA00001D08006F5D5E068FF216162400900F0AC
:101FB0000105FF206062284601B0F0BDF5700109FF
:101FC00001EB810200F00F0000EB4200C0B21828C4
:101FD00004D340F29F213846FEF7BCFF7078010918
:101FE00001EB810200F00F0000EB4200C0B23C2880
:101FF00004D340F2A1213846FEF7ACFFB0780109C6
:1020000001EB810200F00F0000EB4200C0B23C285F
:1020100004D340F2A2213846FEF79CFF3078717855
:10202000090241EA0040B17886E730B581B0050089
:102030000C4618BF012D05D040F2F521DFF8400114
:10204000FEF788FFDFF834010068DFF84011084030
:10205000010C01F03F022270020A6270A07001F0D0
:102060004000E070D5B92078010901EB810200F051
:102070000F0000EB420020706078010901EB810243
:1020800000F00F0000EB42006070A078010901EB46
:10209000810200F00F0000EB4200A07001B030BDE3
:1020A00010B5040018BF012C0DD0022C18BF032C52
:1020B00009D0042C18BF062C05D04FF49A610FF2FA
:1020C0008010FEF747FFDFF86801CA21C161532184
:1020D000C1610168C908C90001600168214301604C
:1020E000FF21C16110BD10B50446B4F5803F05D392
:1020F00040F2EB410FF24810FEF72CFFDFF83401FD
:10210000CA210161532101610460FF21016110BDF9
:1021100010B582B0044600200090002C18BF012C9E
:1021200005D04FF4A2610FF21810FEF713FFDFF88D
:102130000011CA20C8615320C861002C086807D06C
:1021400040F4806008600120FF22CA6102B010BD27
:1021500020F4806008604868009A521C0092009A3F
:10216000B2F5005F01D04007F5D54868800800F05F
:102170000100FF22CA6102B010BD0000002800402B
:1021800040220008082800400C2800407F7F7F0084
:1021900030B581B004000D4602D02748044205D076
:1021A00040F293710FF29800FEF7D4FE002D18BF95
:1021B000012D05D040F294710FF28400FEF7CAFEA3
:1021C0001B48CA21C1615321C16104F0040124F0FC
:1021D0000402002D036808D01A430260826B114389
:1021E0008163FF21C16101B030BD23EA02020260B8
:1021F000826B22EA01018163FF21C16101B030BD20
:1022000010B5040002D034F43C3005D040F6230170
:102210000FF22C00FEF79EFE08482103090C41F046
:102220008001026802F0800262EA0101016010BDD3
:102230000828004014280040FB0FFFFF0C28004036
:10224000433A5C30304669726D77617265576F72E0
:102250006B696E6741436861755C576F726B696E3D
:10226000675C475453565F52616E6765486F6F6491
:102270005C4C69627261726965735C53544D3332B0
:102280004C3178785F5374645065726970685F444C
:1022900072697665725C7372635C73746D33326CF1
:1022A0003178785F7274632E6300000010B50446C5
:1022B0002068002818BFB0F5800F2ED0B0F5000FB1
:1022C00018BFB0F5400F28D0B0F1807F18BFB0F133
:1022D000A07F22D0B0F1C07F18BFB0F1E07F1CD04A
:1022E000B0F1007F18BFB0F1107F16D0B0F1207FA1
:1022F00018BFB0F1307F10D0B0F1407F18BFB0F1FF
:10230000507F0AD0B0F1607F18BFB0F1707F04D069
:10231000B5210FF2EC20FEF71DFE6068002818BF03
:10232000B0F5802F2ED0B0F5002F18BFB0F5402F9C
:1023300028D0B0F5801F18BFB0F5A01F22D0B0F58F
:10234000C01F18BFB0F5E01F1CD0B0F5001F18BFAC
:10235000B0F5101F16D0B0F5201F18BFB0F5301F14
:1023600010D0B0F5401F18BFB0F5501F0AD0B0F51F
:10237000601F18BFB0F5701F04D0B6210FF2802087
:10238000FEF7E8FDA068002818BF042809D0082837
:102390001CBF0C28102804D0B7210FF26420FEF7D0
:1023A000D9FDE06800281CBF2028402804D0B821AF
:1023B0000FF24C20FEF7CEFD2069002818BF02283E
:1023C00004D0B9210FF23820FEF7C4FD86484168D9
:1023D00021F07F7141604168226863681A431143AC
:1023E000416081688906FCD5016821F07E010160A9
:1023F0000168A268E3681A4323691A431143016024
:1024000010BD30B581B0040018BF012C09D00FF207
:10241000F015E2212846FEF79DFDE5212846FEF74E
:1024200099FD7248046001B030BD714801688906A9
:10243000FCD5704710B5040018BF012C05D040F240
:1024400015110FF2BC10FEF785FD6A48046010BD3F
:1024500010B5040018BF102C11D0202C18BF302C40
:102460000DD0402C18BF502C09D0602C18BF702CF8
:1024700005D04FF496710FF28810FEF76BFD5E48A1
:10248000016821F07001016001682143016010BD05
:1024900010B5040018BF802C17D0B4F5807F18BF8A
:1024A000B4F5C07F11D0B4F5007F18BFB4F5207F1C
:1024B0000BD0B4F5407F18BFB4F5607F05D040F273
:1024C00043110FF23C10FEF745FD4B48016821F423
:1024D0006071016001682143016010BD30B581B0B9
:1024E00004000D4618BFB4F5803F0BD0B4F5003F93
:1024F00018BFB4F5403F05D04FF4B1710FF2001092
:10250000FEF728FD002D18BFB5F5005F17D0B5F513
:10251000804F18BFB5F5C04F11D0B5F5004F18BFAB
:10252000B5F5204F0BD0B5F5404F18BFB5F5604F4E
:1025300005D040F263110FF2C800FEF70BFD2E48E4
:10254000016821F478310160016845EA0402114311
:10255000016001B030BD10B5040018BFB4F5806F44
:1025600017D0B4F5006F18BFB4F5406F11D0B4F5B3
:10257000805F18BFB4F5A05F0BD0B4F5C05F18BF83
:10258000B4F5E05F05D04FF4BD710FF27400FEF7B3
:10259000E1FC1948016821F4E05101600168214320
:1025A000016010BD154801210160704730B581B050
:1025B00004460025012C18BF022C0DD0042C18BF96
:1025C000082C09D0102C18BF202C05D04FF4067110
:1025D0000FF22C00FEF7BEFC05480068204218BF31
:1025E0000125284601B030BD00240040008004428F
:1025F000082400401C800442042400400881044256
:10260000433A5C30304669726D77617265576F721C
:102610006B696E6741436861755C576F726B696E79
:10262000675C475453565F52616E6765486F6F64CD
:102630005C4C69627261726965735C53544D3332EC
:102640004C3178785F5374645065726970685F4488
:1026500072697665725C7372635C73746D33326C2D
:102660003178785F6C63642E63000000364801782F
:1026700021B9012101704170002070474FF0FF30F7
:1026800070473148017829B9012101700221417058
:10269000002070474FF0FF30704710B52A4C20786B
:1026A000C8B101466288904208D2012804BF274879
:1026B00000F0DEFB2078401C207010BD0021234874
:1026C00000F0D6FB6078401E6070C1B2491E89419F
:1026D000C943C90F217010BD1D48017881F0010167
:1026E0000170704710B584B00121202000F031F94D
:1026F000184800684FF47A61B0FBF1F0401EADF865
:10270000080000200190ADF80A00104C01A92046F5
:1027100000F044FB0121204600F075FC012201215C
:10272000204600F0EFFB2C208DF800000B208DF8E8
:10273000010001208DF802008DF8030000A800F0D0
:10274000DBFC04B010BD0000440000200014004079
:10275000B00240420000002010B504001CBF012C54
:10276000052C05D040F2BD110FF2D820FEF7F2FB88
:10277000DFF8940200210170047010BDDFF88C02B4
:10278000006800F00C00704710B4DFF878124A6857
:1027900002F00C020C2A23D8DFE802F022222222C7
:1027A000072222220A2222220D00DFF8642220E0E2
:1027B000DFF860221DE04A684B68C2F38342DFF80D
:1027C0005842125DC3F381535B1C4C68E40354BF51
:1027D000DFF83C42DFF83C426243B2FBF3F208E030
:1027E0000A680123520B02F00702521C03FA02F29C
:1027F000D20302604B68DFF820220468C3F303139E
:102800009B181B7B24FA03F343604B684468C3F3B3
:1028100002239B181B7B24FA03F3836049684368F7
:10282000C1F3C2218918097B23FA01F1C16010BCF0
:10283000704710B50446B4F5803F18BFB4F5003FAB
:1028400014D0B4F5403F1CBFDFF8D00184420DD056
:10285000DFF8CC0184421CBFDFF8C801844205D0F8
:1028600040F2E1310FF2DC10FEF774FBDFF890016B
:1028700004F44031B1F5403F06D1016821F0C04178
:1028800004F0C04211430160416B21F440314163C7
:10289000416B04F440321143416310BD10B5040094
:1028A00018BF012C05D040F203410FF29810FEF73B
:1028B00051FBDFF87401046010BD30B581B00446EF
:1028C0000D46DFF86801044200D12CB940F22F41D7
:1028D0000FF27010FEF73EFB75B1012D05D04FF4DD
:1028E00086610FF26010FEF735FBDFF844010168E6
:1028F0002143016001B030BDDFF834010168A1431C
:10290000016001B030BD30B581B004460D46DFF83E
:102910002401044200D12CB940F251410FF224109D
:10292000FEF718FB75B1012D05D040F252410FF2B0
:102930001410FEF70FFBDFF800010168214301606E
:1029400001B030BDDFF8F0000168A143016001B0C3
:1029500030BD30B581B004460D46DFF8E0000442DA
:1029600000D12CB940F27C410FF2D800FEF7F2FA08
:102970006DB1012D05D040F27D410FF2C800FEF788
:10298000E9FA2F4801682143016001B030BD2C48AD
:102990000168A143016001B030BD30B581B004468B
:1029A0000025212C18BF312C1AD0292C18BF392C06
:1029B00016D0492C18BF412C12D05A2C18BF5B2CB2
:1029C0000ED05C2C18BF5D2C0AD05E2C1CBF5F2C77
:1029D000592C05D040F2B6510FF26800FEF7BAFA52
:1029E0000748610901290CBF0068406B012104F010
:1029F0001F029140084218BF0125284601B030BD92
:102A0000003802400438024035380240083802409D
:102A10000024F40000127A002800002000000320A7
:102A20000000034000000360D8064742C06FFFFE6D
:102A30001C380240E2ADFFFF20380240C8B5194FF4
:102A400024380240433A5C30304669726D776172D7
:102A500065576F726B696E6741436861755C576F4C
:102A6000726B696E675C475453565F52616E67655F
:102A7000486F6F645C4C69627261726965735C5324
:102A8000544D33324C3178785F53746450657269B9
:102A900070685F4472697665725C7372635C7374AC
:102AA0006D33326C3178785F7263632E630000009F
:102AB0002DE9F04381B004460D460026DFF85802A8
:102AC00084421CBFDFF85402844214D0DFF8500265
:102AD00084421CBFDFF84C0284420CD0DFF848026D
:102AE00084421CBFDFF84402844204D0C1210FF2AB
:102AF0004020FEF72FFA286820B9C2210FF23020BB
:102B0000FEF728FA2879002818BF012808D00228E3
:102B100018BF032804D0C3210FF21420FEF71AFABD
:102B2000E87940B1012818BF022804D0C4210FF26F
:102B30000020FEF70FFA012000FA06F8286808EADC
:102B40000000404545D177000320B8406FEA0009F6
:102B5000206809EA0000206020682979B94008430C
:102B600020602879012818BF022829D16879002817
:102B700018BF012808D0022818BF032804D0D82184
:102B80000FF2AC10FEF7E6F9A06809EA0000A060B9
:102B9000A0686979B9400843A060A879002818BFE7
:102BA000012804D0DF210FF28810FEF7D3F9A088A6
:102BB00020EA0800A080A088A979B1400843A0803D
:102BC000E06809EA0000E060E068E979B94008439C
:102BD000E060761C102EAED301B0BDE8F0834FF656
:102BE000FF7101600021017141718171C1717047F4
:102BF00030B581B004460D46474884421CBF474863
:102C0000844211D0464884421CBF464884420BD0BF
:102C1000454884421CBF4548844205D040F29B1180
:102C20000FF20C10FEF796F92DB94FF4CE710FF29A
:102C30000010FEF78FF9658301B030BD70B5064610
:102C40000D461446344886421CBF3448864211D093
:102C5000334886421CBF334886420BD032488642F6
:102C60001CBF3248864205D040F209210FF2C00055
:102C7000FEF770F9002D18BF012D21D0022D18BFCD
:102C8000032D1DD0042D18BF052D19D0062D18BFFA
:102C9000072D15D0082D18BF092D11D00A2D18BFEA
:102CA0000B2D0DD00C2D18BF0D2D09D00E2D18BFDA
:102CB0000F2D05D040F20A210FF27400FEF74AF9F9
:102CC000002C18BF012C16D0022C18BF032C12D0D8
:102CD000042C18BF052C0ED0072C18BF0A2C0AD0C4
:102CE0000B2C1CBF0E2C0F2C05D040F20B210FF229
:102CF0004000FEF72FF9E81006EB800005F0070111
:102D00008900026A0F238B409A430262026A04FA26
:102D100001F11143016270BD000002400004024055
:102D200000080240000C0240001002400014024063
:102D3000433A5C30304669726D77617265576F72E5
:102D40006B696E6741436861755C576F726B696E42
:102D5000675C475453565F52616E6765486F6F6496
:102D60005C4C69627261726965735C53544D3332B5
:102D70004C3178785F5374645065726970685F4451
:102D800072697665725C7372635C73746D33326CF6
:102D90003178785F6770696F2E63000030B581B05D
:102DA00004460D46B4F1804F1CBFDFF83801844261
:102DB0001CD0DFF8340184421CBFDFF830018442AC
:102DC00014D0DFF82C0184421CBFDFF828018442B4
:102DD0000CD0DFF8240184421CBFDFF820018442BC
:102DE00004D0FA21DFF81801FEF7B4F8688800284B
:102DF00018BF102809D020281CBF4028602804D004
:102E0000FB21DFF8FC00FEF7A5F8E88800281CBFCE
:102E1000B0F5807FB0F5007F04D0FC21DFF8E00042
:102E2000FEF798F82088B4F1804F1FBFDFF8B41088
:102E30008C42DFF8B4108C4204D14FF68F710840F9
:102E400069880843DFF8A4108C421CBFDFF8A0108B
:102E50008C4204D04FF6FF410840E98808432080A7
:102E6000A888A085288820850120A08201B030BDD7
:102E700030B581B004460D46B4F1804F1CBF1948EF
:102E8000844218D0184884421CBF1848844212D08B
:102E9000174884421CBF174884420CD0164884420D
:102EA0001CBFDFF85800844205D040F21A21DFF839
:102EB0005000FEF74FF86DB1012D05D040F21B21F7
:102EC000DFF83C00FEF746F8208840F00100208043
:102ED00001B030BD20884FF6FE710840208001B05F
:102EE00030BD000000040040000800400010004019
:102EF0000014004000080140000C01400010014097
:102F00008C30000870B504460D461646B4F1804F6B
:102F10001CBF564884421AD0554884421CBFDFF873
:102F20006001844213D0DFF85C0184421CBF514829
:102F300084420CD0504884421CBFDFF840018442D8
:102F400005D040F26A71DFF84001FEF703F84FF652
:102F5000A070054200D12DB940F26B71DFF8280155
:102F6000FDF7F8FF5EB1012E05D040F26C71DFF87D
:102F70001801FDF7EFFFA0892843A08170BDA0894B
:102F8000A843A08170BD70B506460C460025B6F179
:102F9000804F1CBF354886421AD0354886421CBF38
:102FA000DFF8DC00864213D0DFF8D80086421CBF71
:102FB000304886420CD0304886421CBFDFF8BC0047
:102FC000864205D04FF4FF61DFF8BC00FDF7C2FF79
:102FD000012C18BF022C0DD0042C18BF082C09D0CE
:102FE000102C18BF402C05D040F2F971DFF8980082
:102FF000FDF7B0FF308AB189214020421CBF002973
:103000000125284670BD30B581B004460D46B4F1A7
:10301000804F1CBF1548844219D0154884421CBFFC
:10302000DFF85C00844212D0DFF8580084421CBFF5
:10303000104884420BD0104884421CBF0F48844281
:1030400005D040F61F01DFF84000FDF783FF4FF683
:10305000A070054200D12DB94FF40261DFF82800BD
:10306000FDF778FFE843208201B030BD0004004046
:103070000008004000080140000C01400010014021
:1030800000100040001400408C300008433A5C30CF
:10309000304669726D77617265576F726B696E67E2
:1030A00041436861755C576F726B696E675C47542A
:1030B00053565F52616E6765486F6F645C4C69621E
:1030C0007261726965735C53544D33324C31787858
:1030D0005F5374645065726970685F4472697665A5
:1030E000725C7372635C73746D33326C3178785FC9
:1030F00074696D2E6300000070B50446E078002806
:1031000018BF012804D08C210FF28800FDF722FFA0
:103110006078102804D38D210FF27800FDF71AFF94
:10312000A078102804D38E210FF26800FDF712FF5B
:10313000227811460120E378E3B1124A126802F4C2
:10314000E062C2F5E062120A6378C2F10405AB40A6
:10315000A5780F2626FA02F22A401A4312010A4BDA
:10316000CA5421784A11094B01F01F01884043F8E5
:10317000220070BD4911064B02F01F02904043F837
:10318000210070BD0CED00E000E400E000E100E093
:1031900080E100E0433A5C30304669726D776172DD
:1031A00065576F726B696E6741436861755C576FF5
:1031B000726B696E675C475453565F52616E676508
:1031C000486F6F645C4C69627261726965735C53CD
:1031D000544D33324C3178785F5374645065726962
:1031E00070685F4472697665725C7372635C6D6966
:1031F00073632E630000000030B581B0044620796F
:10320000002818BF042804D081210FF2D400FDF754
:10321000A1FE607908281CBF0C28102804D0822148
:103220000FF2BC00FDF796FE2068C10DC90500D164
:1032300020B983210FF2A800FDF78CFEA07980B39E
:10324000012806D084210FF29800FDF783FEA079B3
:1032500038B32148016822689143016041682268BF
:103260009143416022798218136825682B431360CB
:10327000826823689A438260C26823689A43C26066
:1032800062792368102A08D1816819438160C16876
:1032900022681143C16001B030BD82181068184324
:1032A00007E0207900F1804202F58232106821683F
:1032B0008843106001B030BD10B50446E00DC00574
:1032C00000D12CB94FF492710FF21400FDF742FEB9
:1032D0000248046010BD00000004014014040140D5
:1032E000433A5C30304669726D77617265576F7230
:1032F0006B696E6741436861755C576F726B696E8D
:10330000675C475453565F52616E6765486F6F64E0
:103310005C4C69627261726965735C53544D3332FF
:103320004C3178785F5374645065726970685F449B
:1033300072697665725C7372635C73746D33326C40
:103340003178785F657874692E630000F0B585B0D8
:1033500004460D460FF29836DFF88473BC421FBF57
:10336000DFF880038442DFF88003844203D0D82151
:103370003046FDF7EFFD286818B1DFF8701388427A
:1033800003D3D9213046FDF7E5FDA888002818BFF2
:10339000B0F5805F03D0DA213046FDF7DBFDE88829
:1033A000002818BFB0F5805F09D0B0F5005F18BFE6
:1033B000B0F5405F03D0DB213046FDF7CBFD288917
:1033C00000281CBFB0F5806FB0F5C06F03D0DC21C2
:1033D0003046FDF7BFFD68894FF6F371084200D112
:1033E00018B9DD213046FDF7B5FDA889002818BFC2
:1033F000B0F5807F09D0B0F5007F18BFB0F5407FF1
:1034000003D0DE213046FDF7A5FD208A4CF6FF7182
:103410000840E98808432082A0894EF6F31108404D
:10342000A98808432989084369890843A081A08A9B
:103430004FF6FF410840A9890843A08200A8FFF782
:10344000A3F9BC420CBF0398029829681922504383
:10345000A28912044CBF49008900B0FBF1F164223B
:10346000B1FBF2F00001030902FB1311A3891B0455
:1034700009D5C9003231B1FBF2F101F0070108436F
:10348000208105B0F0BD09013231B1FBF2F101F04C
:103490000F010843208105B0F0BD30B581B004466E
:1034A0000D46DFF83C0284421FBFDFF83802844239
:1034B000DFF83402844205D040F27F110FF2302051
:1034C000FDF748FD6DB1012D05D04FF4C0710FF22D
:1034D0002020FDF73FFDA08940F40050A08101B0FD
:1034E00030BDA0894DF6FF710840A08101B030BD0C
:1034F00010B50446DFF8E80184421FBFDFF8E4019D
:103500008442DFF8E401844205D040F217210FF233
:10351000E010FDF71FFDA088C005C00D10BD70B5FF
:1035200005460E4614466E4885421FBF6D488542CB
:103530006D48854205D040F2B9410FF2B410FDF755
:1035400009FD282E1CBF40F2277086421BD040F296
:10355000266086421CBF40F22550864213D040F2BE
:10356000244086421CBF40F6460086420BD040F6FF
:103570006A10864218BF602E05D040F2BA410FF2A1
:103580007010FDF7E7FC002C18BF012C05D040F2AD
:10359000BB410FF25C10FDF7DDFC3006400F01214E
:1035A00006F01F029140012808BF05F10C0005D06C
:1035B00002280CBF05F1100005F11400002C026870
:1035C00014BF114322EA0101016070BD70B50446C9
:1035D0000D460026424884421FBF4248844242486A
:1035E000844205D040F2F3410FF20410FDF7B2FC23
:1035F000012D18BF802D17D0402D18BF202D13D0BE
:10360000102D18BFB5F5807F0ED0B5F5007F18BF1F
:10361000082D09D0042D18BF022D05D040F2F44129
:103620000FF2CC00FDF796FC2088284218BF012637
:10363000304670BD70B505460E46002428488542C8
:103640001FBF284885422848854205D040F23C519A
:103650000FF29C00FDF77EFC282E1CBF40F2277065
:10366000864222D040F2266086421CBF40F225509E
:1036700086421AD040F2244086421CBF40F64600E3
:10368000864212D040F66A10864218BFB6F5587FBF
:103690000BD0B6F5187F18BFB6F5B07F05D040F255
:1036A0003D510FF24C00FDF755FC3006400F012153
:1036B00006F01F0201FA02F2012808BFA88903D010
:1036C00002280CBF288AA88A1040320A91402A8812
:1036D000114000281CBF00290124204670BD0000B5
:1036E00000380140004400400048004001093D000E
:1036F000433A5C30304669726D77617265576F721C
:103700006B696E6741436861755C576F726B696E78
:10371000675C475453565F52616E6765486F6F64CC
:103720005C4C69627261726965735C53544D3332EB
:103730004C3178785F5374645065726970685F4487
:1037400072697665725C7372635C73746D33326C2C
:103750003178785F75736172742E6300002200F017
:1037600037B850F8041B61B150F8042BD30744BF9D
:10377000A9F101039A18002342F8043B091FFAD16A
:10378000EFE7704710B5012080F310880F4C002040
:10379000E07020711420A071E0710A206071002097
:1037A000A070142020720A2060721420A0720020E1
:1037B000E072207300F026F800F012F900F080F9B2
:1037C000002080F310880120207010BD60050020CB
:1037D00000B500BF130096469446103928BFA0E8F4
:1037E0000C50FAD85FEA417C28BF0CC048BF40F8B3
:1037F000042BC90728BF20F8022B48BF00F8012B73
:1038000000BD0000DFF8B801016841F0010101606E
:10381000DFF8B0118A6842F0C0028A60026842F0A4
:10382000020202608A6842F440328A60026842F012
:1038300004020260CA6842F4F872CA60826842F008
:10384000004282600868400040080860DFF87801A4
:103850000188018081688160B0F80014A0F800142C
:10386000D0F80814C0F80814B0F80018A0F8001830
:10387000D0F80818C0F808180188018081688160B4
:10388000B0F80014A0F80014D0F80814C0F8081418
:10389000B0F80018A0F80018D0F80818C0F80818F8
:1038A000FFE730B581B0DFF82441DFF81851286810
:1038B000204028606868800880006860012080F3EC
:1038C0001088DFF80C01818A4FF67F7211408182E7
:1038D000016821F4404141F480410160B0F81414C2
:1038E0004FF6FD721140A0F81414D0F8001421F026
:1038F0000C0141F00401C0F80014B0F814184FF6A0
:103900005F721140A0F81418D0F8001821F44C414F
:1039100041F48841C0F80018818A4FF6BF72114007
:103920008182016821F4405141F480510160B0F876
:1039300014144FF6FE721140A0F81414D0F80014BD
:103940008908890041F00101C0F80014B0F814188A
:103950004FF6AF721140A0F81418D0F8001821F4F7
:103960004C5141F48851C0F80018818A8182016865
:103970000160B0F81414A0F81414D0F80014C0F8C2
:103980000014B0F814184FF6FF621140A0F8141894
:10399000D0F8001821F4403141F48031C0F800180B
:1039A000002080F31088642000F014F8286820407C
:1039B0002860686880088000686001B030BD000041
:1039C0001C380240087C0040040002403F3CFFFFDE
:1039D0000000024000E0401E80B20028FBD170478A
:1039E00010B5354C0020A06160612061E06184F871
:1039F00028002046FEF7C8FE60684FF4FA61B0FB6D
:103A0000F1F0B0F1807F0CD22C490002000A401E78
:103A10004860F02081F8130D0020886007200860BE
:103A200010BDFEE72448416982690369142B10D355
:103A3000143B0361491CC3695B1CC3610A2922BF93
:103A40000A39521C0A2A04D30A3A836A43F0010352
:103A5000836282614161704710B5174C2069401C38
:103A60002061E06A10B1E06A401EE062FFF7DAFF11
:103A7000A06A810704D520F00600A062C820206259
:103A8000A06A010704D520F01800A062C820606277
:103A9000206A30B1401E206203D1A06A40F00400C9
:103AA000A062606A30B1401E606203D1A06A40F03B
:103AB0001000A06210BD00000405002010E000E02E
:103AC00070B50D4C002020706FF01105DFF82C60F0
:103AD00000F016F8306880210170306845210174CB
:103AE00030684174306885742078401C2070C0B202
:103AF0000528EDD370BD000061050020E40500201D
:103B00000448007800EB8001034800EB8100034982
:103B10000860704761050020A0040020E405002033
:103B20007047FEE7FEE7FEE7FEE7FEE7FEE7FEE79B
:103B300030B581B0FFF790FF824CE078401CE07018
:103B4000C0B2192805D10020E070206840F0800044
:103B500020607D4D2888401C288080B20A2190FB7F
:103B6000F1F101EB8102B0EB420138D1216841F063
:103B700001012160322290FBF2F302FB130070BBC3
:103B800041F002002060FEF788FD2888642190FB48
:103B9000F1F201FB120111BB216841F00401216027
:103BA000C82290FBF2F302FB130212B941F010019C
:103BB00021604FF4967190FBF1F201FB120119B9EB
:103BC000216841F0400121604FF4FA7190FBF1F25D
:103BD00001FB120018B9206840F02000206001B0FD
:103BE00030BD000010B5594C01212046FFF7CBF93C
:103BF00088B101212046FFF706FA55480168097887
:103C0000C288521CC28090F8D030582B04D30322B3
:103C1000027101B9C18010BD0479032CFBD8DFE823
:103C200004F0041C2B02F4E7F5E771B992B2B2F587
:103C3000FA7FEFD380F8D0100281012180F8D010F4
:103C40000021C1800121017110BD4FF6FE7192B2B9
:103C50008A42E0D14FF6FD71DCE70129DBD100EBB0
:103C600043010A8190F8D010491C80F8D01000213F
:103C7000C1800221017110BD31B900EB43010A81FD
:103C800090F8D010491CD9E740F2F51192B28A425F
:103C9000C1D30321017110BD00B581B0FEF71CFD39
:103CA00001212C4801B05DF804EBFFF7ACB901200D
:103CB000FFF702BB10B52348016841F0080101601D
:103CC000254A13785B1CDBB2082B0ED100235488E5
:103CD000641C5480847A052C07D1848A002C07BF89
:103CE00041F400510160611E81821370FDF76FFF86
:103CF000FDF725FD0120FDF745F94FF48040FEF763
:103D00007FFA4FF48010FFF7D7FA0020BDE810408B
:103D1000FDF738B910B5114C40F227712046FFF776
:103D200089FC012808BFFDF7E6FA40F2255120463C
:103D3000FFF780FC012804BFBDE81040FDF7DCBAA6
:103D400010BD000034050020EE05002000100040EA
:103D50001C03002000140040E8050020003801404A
:103D600082B03248016841F4807101608168304A54
:103D70001140816001682F4A11400160016821F4FF
:103D800080210160816821F47D0181600021C16092
:103D900001910091016841F001010160016801F0A9
:103DA000020100910199491C0191009919B90199E9
:103DB000B1F5A06FF2D10168490801F0010100914D
:103DC000009901292FD1D0F8001441F00401C0F866
:103DD0000014D0F8001441F00201C0F80014D0F82B
:103DE000001441F00101C0F80014416A41F0805113
:103DF000416211494FF400620A604A68D206FCD45D
:103E000081688160816881608168816081688908DA
:103E100089008160816841F001018160816801F061
:103E20000C010429FAD102B07047000000380240AA
:103E30000CC0FF88FEFFFEEE0070004010B5074981
:103E400079441831064C7C44163404E0081D0A6895
:103E5000511888470146A142F8D110BD0800000062
:103E600028000000FFF8FFFFA80500004800002020
:103E700000000000E3D0FFFF480000003801000010
:103E8000000000200000000000F009F8002801D028
:103E9000FFF7D4FF0020FCF72DF900F002F8012015
:103EA000704700F001B800000746384600F002F8FD
:103EB000FBE7000001491820ABBEFBE7260002002B
:103EC0000148804701480047613D0008D13E000895
:103ED000C046C046C046C046FFF7D6FFFFF720BE2B
:103EE000FFF71FBEFFF71EBEFFF71DBEFFF71CBE8C
:103EF000FFF71BBEFFF71ABEFFF719BEFFF718BE8C
:103F0000FFF7FEBFFFF7FEBFFFF7FEBFFFF7D2BE12
:103F1000FFF7FEBFFFF7FEBFFFF7C9BEFFF7FEBF0B
:103F2000FFF7FEBFFFF7FEBFFFF7FEBFFFF7FEBFC5
:103F3000FFF7FEBFFFF7FEBFFFF7FEBFFFF7FEBFB5
:103F4000FFF7FEBFFFF7FEBFFFF7FEBFFFF7FEBFA5
:103F5000FFF7FEBFFFF7FEBFFFF7FEBFFFF7FEBF95
:103F6000FFF7FEBFFFF7FEBFFFF7FEBFFFF7FEBF85
:103F7000FFF7FEBFFFF7FEBFFFF7FEBFFFF7FEBF75
:103F8000FFF7FEBFFFF7FEBFFFF7FEBFFFF7FEBF65
:103F9000FFF7FEBFFFF7BEBEFFF7FEBFFFF7FEBF96
:103FA000FFF7FEBFFFF7FEBFFFF7FEBFFFF71ABE2A
:103FB000FFF772BE0024F400030406080C1018205A
:103FC00030000000000000000102040000000000BA
:103FD00000000000010203040607080903040608A4
:103FE0000C10182030000000000000000102030443
:0C3FF00001020304060708090000050098
:0400000508003ED1E0
:00000001FF
