:020000040800F2
:10000000400A0020794F0008D14B0008D34B00086C
:10001000D54B0008D74B0008D94B00080000000062
:10002000000000000000000000000000DB4B0008A2
:10003000DD4B000800000000DF4B0008E14B00082A
:10004000B94F0008BD4F0008C14F0008694D0008B6
:10005000C94F0008CD4F0008634D0008D54F000878
:10006000D94F0008DD4F0008E14F0008E54F0008B8
:10007000E94F0008ED4F0008F14F0008F54F000868
:10008000F94F0008FD4F0008015000080550000816
:10009000095000080D5000081150000815500008C4
:1000A000195000081D500008215000082550000874
:1000B000295000082D500008315000083550000824
:1000C000395000083D5000084150000845500008D4
:1000D00049500008C94D000851500008555000080B
:1000E000595000085D50000861500008994C000804
:1000F0004D4D0008022001F08AF800F0EDFF734832
:1001000000684FF47A71B0FBF1F0B0F1807F0ED24D
:100110006F490002000A401E4860F02081F8130D6C
:100120000020886007200860D02081F8130D01F0BE
:1001300023F900F0E3FE01F024FB01F0B9FC00F02C
:1001400097FF01F0B3FD01F043FF6248624C214686
:100150005FF0030210F8013B8B7510F8013BCB7583
:1001600010F8013B0B7610F8013B4B76091D521E2F
:10017000F0D101F09BFA01F099FA01F097FA01F041
:1001800095FA01F093FA01F091FA01F08FFA01F07B
:100190008DFA00BF01F07EFF00F009F8E07800283A
:1001A000F8D00020E0704D4902F047F9F2E730B591
:1001B00081B001F05FFE01F0CBFD01F01DF901F00F
:1001C000C7FA454C40B30021A27D03789A421BD167
:1001D000491CC9B20A19927D0B5C9A4214D1491C80
:1001E000C9B20A19927D0B5C9A420DD1491CC9B261
:1001F0000A19927D0B5C9A4206D1491CC9B20A19B0
:10020000927D0B5C9A42E3D0085C0919897D884293
:100210009241D20FA27001E00120A07000F060F8BE
:10022000042001F0BAFE18B9042001F00AFE48B11A
:10023000206880F48060206001F0EBF901F0E9F9BA
:1002400001F0E7F9002001F077F958B1DFF8900CE0
:1002500090F8D202012820680CBF40F4806020F49E
:1002600080602060DFF87C5C2068400509D50120B3
:1002700001F095FB022001F092FB01202870287606
:100280000AE0012001F093FB022001F090FB012025
:1002900085F8400085F85800A07A30B920684005FC
:1002A00003D4012085F8540001E001202875A078CE
:1002B00008B900F08FFEA078012808BF00F0B0FE5A
:1002C00001B0BDE8304002F075BB00000000002026
:1002D00010E000E05000F81F400500200406002058
:1002E0002DE9F041DFF8004CA07A052800F2F585F1
:1002F000DFE810F00600AB00E7005C0286038B0429
:10030000DFF8E87B387801F0C4FA787801F0F2FA87
:1003100001F0C5FB18B1072001F041FB02E0072006
:1003200001F045FBDFF8C86BDFF8C85B022001F085
:1003300034FE38B9022001F084FD18B9032001F021
:10034000FBF8B8B1032001F0F7F810B9032001F071
:10035000E0F9387860717878A071206820F48050D6
:1003600020600220A072002020712870287328715C
:1003700030713070032001F010FE30B901F061FDE2
:1003800018B9012001F0D8F8C8B1012001F0D4F863
:1003900010B9012001F0BDF901206072DFF8587B2F
:1003A000387200203873387138700320A07201F061
:1003B00041FC0020287028732871307130700020B3
:1003C00001F0EBFD38B9012001F03BFD18B9022026
:1003D00001F0B2F8D0B1022001F0AEF810B902205D
:1003E00001F097F904206072DFF80C7B002038726E
:1003F00038733871012038700320A07201F01AFCA4
:10040000002028702873287130713070012001F0AD
:10041000C4FD48B9032001F014FD28B9042001F0FF
:100420008BF8002800F05985042001F085F810B9F8
:10043000042001F06EF90120A072002028702873BA
:10044000287130713070BDE8F081DFF8A07A38781B
:1004500001F01FFA787801F04DFA01F020FB18B195
:10046000072001F09CFA02E0072001F0A0FA062024
:1004700001F095FADFF87C5A0120287001F08DFD1B
:1004800048B9032001F0DDFC28B9042001F054F83C
:10049000002800F02285042001F04EF810B9042055
:1004A00001F037F90020A072062001F080FA002048
:1004B000287028732871DFF8386A30713070BDE811
:1004C000F081072001F06BFADFF8246A0120307117
:1004D000DFF8205A287128732068C00400F1AB802F
:1004E000A07901F007FA032001F064FD48B901F09A
:1004F00061FD30B901F0A5FC18B9012001F0A1FCA3
:1005000000E0012084F8240001F0C9FA94F82410D6
:10051000084314BF6079582001F0BBF92079401CD2
:100520002071032001F046FDC8B901F043FDB0B9C8
:10053000042001F032FD90B9042001F03BFD70B9B8
:1005400001F07FFC58B9012001F07BFC38B9042090
:1005500001F077FC18B9092000F0EEFF40B1092046
:1005600000F0EAFF10B9092001F0D3F80020207153
:10057000022001F012FD50B9022001F062FC30B9F6
:100580002079592803D2032000F0D6FF90B1022031
:1005900001F003FD18B9022001F053FC10B1032053
:1005A00001F0B7F8206880F48050206000202071AE
:1005B00002F064FA032001F0F0FC50B9032001F0CE
:1005C00000FD10B12078400603D4002001F039FC72
:1005D00068B1206820F04000206000202071607920
:1005E00017280CBF0020401C607101F039F8002072
:1005F00001F0D3FC48B901F0E4FC10B120784006CA
:1006000003D4012001F01DFC68B1206820F04000F7
:10061000206000202071607900280CBF1720401E48
:10062000607101F01DF8082000F086FF002840F0FE
:10063000B180BDE8F081607901F02BF9032001F071
:10064000B9FC48B901F0B6FC30B901F0FAFB18B9B1
:10065000012001F0F6FB00E0012084F8240001F005
:100660001EFA94F82410084314BFA079582001F012
:1006700041F92079401C2071032001F09BFCC8B98E
:1006800001F098FCB0B9042001F087FC90B9042077
:1006900001F090FC70B901F0D4FB58B9012001F0D1
:1006A000D0FB38B9042001F0CCFB18B9092000F0C8
:1006B00043FF40B1092000F03FFF10B9092001F0CD
:1006C00028F800202071022001F067FC50B90220B8
:1006D00001F0B7FB30B92079592803D2032000F08C
:1006E0002BFFC0B1022001F058FC18B9022001F024
:1006F000A8FB10B1032001F00CF80022A179607969
:1007000000F05DFE0020A0722870287328713071FF
:10071000307002F0BEF9032001F03FFC50B9032015
:1007200001F04FFC10B12078400603D4002001F006
:1007300088FB68B1206820F0400020600020207114
:10074000A0793B280CBF0020401CA07100F088FF5E
:10075000002001F022FC48B901F033FC10B12078F0
:10076000400603D4012001F06CFB68B1206820F042
:100770004000206000202071A07900280CBF3B20A1
:10078000401EA07100F06CFF082000F0D5FE00288C
:1007900000F0A383DFF8480790F8D012617190F859
:1007A000CF02A07100202071BDE8F081DFF844572E
:1007B000012028712873072001F0F9F8002001F0CA
:1007C0004AF8032001F047F8617A022001F012F89C
:1007D0000A21012001F00EF8607A032802D301F00B
:1007E00064F901E001F05EF901F0EEF8DFF8087756
:1007F000032001F0D2FB38B901F023FB20B901201E
:1008000000F09AFE002854D0012000F095FE10B9A7
:10081000012000F07EFF607A042815D1002060726C
:100820003872387338713870052001F0CDF8002027
:10083000A07201F0FFF90020287028732871DFF8FA
:10084000B0663071307034E0401CC0B2401E0328E6
:1008500026D8DFE800F01D150B020420607200208E
:100860003872387338710120387022E003206072CA
:10087000002038723873012038710020387018E079
:10088000022060720020387201203873002004E0DA
:10089000012060723872002038733871387008E0B7
:1008A000002060723872387338713870052001F09A
:1008B0008BF8002001F071FB40B9012001F0C1FA72
:1008C00020B9022000F038FE002854D0022000F0A9
:1008D00033FE10B9022000F01CFF607A012815D108
:1008E000002060723872387338713870052001F05A
:1008F0006BF80020A07201F09DF900202870287389
:100900002871DFF8EC653071307034E0401EC0B201
:10091000401E032826D8DFE800F01D150B02042036
:10092000607200203872387338710120387022E00C
:100930000320607200203872387301203871002063
:10094000387018E00220607200203872012038737D
:10095000002004E001206072387200203873387182
:10096000387008E00020607238723873387138705F
:10097000052001F029F8012001F00FFB38B9032010
:1009800001F05FFA18B9042000F0D6FDD8B10420B8
:1009900000F0D2FD10B9042000F0BBFE0020607210
:1009A0003872387338713870052001F00DF8012065
:1009B000A07201F03FF90020287028732871DFF839
:1009C000306530713070022001F0E7FA48B902203A
:1009D00001F037FA28B9032000F0AEFD002800F03E
:1009E0007C82032000F0A8FD10B9032000F091FEE6
:1009F0000120A0710420A07200202071BDE8F081C8
:100A0000DFF8EC6401203071DFF8E85428712873B6
:100A1000072000F0C4FF002000F0C1FF002000F01C
:100A200069FF032001F0C6FA48B901F0C3FA30B9F2
:100A300001F007FA18B9012001F003FA00E00120E3
:100A400084F8240001F02BF894F82410084309D00E
:100A5000A07900F01EFFA0790A2806D2002000F03D
:100A6000FAFE02E0582000F014FF607A032802D357
:100A700001F01BF801E001F015F800F0A5FF207966
:100A8000401C2071032001F095FAC8B901F092FAD8
:100A9000B0B9042001F081FA90B9042001F08AFA7B
:100AA00070B901F0CEF958B9012001F0CAF938B98E
:100AB000042001F0C6F918B9092000F03DFD40B14D
:100AC000092000F039FD10B9092000F022FE0020B5
:100AD0002071032001F061FA50B9032001F071FA8E
:100AE00010B12078800603D4002001F0AAF968B183
:100AF000206820F02000206000202071A0790F28BD
:100B00000CBF0120401CA07100F0AAFD002001F0E4
:100B100044FA48B901F055FA10B12078800603D4A0
:100B2000012001F08EF968B1206820F020002060DB
:100B300000202071A07901280CBF0F20401EA07159
:100B400000F08EFD082000F0F7FC30B1DFF89003D4
:100B500090F8CF02A07100202071012001F01DFA51
:100B600038B9032001F06DF918B9042000F0E4FC55
:100B7000D8B1042000F0E0FC10B9042000F0C9FD59
:100B800000206072DFF87073387238733871387013
:100B9000052000F019FF0120A07201F04BF80020A1
:100BA00028702873287130713070022001F0F5F937
:100BB00038B9022001F045F918B9032000F0BCFC57
:100BC00070B1032000F0B8FC10B9032000F0A1FDC3
:100BD0000320A072002000F0EAFE072000F0E7FEEC
:100BE00020795928C0F079810520A072A079C0EB46
:100BF00000118800A082206820F40050206001F0DD
:100C000019F8BDE8F04101F044BFDFF8E4620120CB
:100C10003071DFF8E05228712873002000F01BFECD
:100C2000032000F018FE072000F0C1FE617A0220C8
:100C300000F0E0FD0A21012000F0DCFD00F02FFFB4
:100C400018B1002000F0ABFE01E000F0B0FE607AC9
:100C5000032802D300F029FF01E000F023FF00F099
:100C6000B3FEA54F032001F098F938B901F0E9F877
:100C700020B9012000F060FC002852D0012000F0D3
:100C80005BFC10B9012000F044FD607A042813D108
:100C9000002060723872387338713870052000F0A7
:100CA00093FE0020A07200F0C5FF0020287028737A
:100CB00028713071307034E0401CC0B2401E0328EF
:100CC00026D8DFE800F01D150B020420607200201A
:100CD0003872387338710120387022E00320607256
:100CE000002038723873012038710020387018E005
:100CF000022060720020387201203873002004E066
:100D0000012060723872002038733871387008E042
:100D1000002060723872387338713870052000F026
:100D200053FE002001F039F940B9012001F089F8A3
:100D300020B9022000F000FC002852D0022000F070
:100D4000FBFB10B9022000F0E4FC607A012813D10B
:100D5000002060723872387338713870052000F0E6
:100D600033FE0020A07200F065FF00202870287379
:100D700028713071307034E0401EC0B2401E03282C
:100D800026D8DFE800F01D150B0204206072002059
:100D90003872387338710120387022E00320607295
:100DA000002038723873012038710020387018E044
:100DB000022060720020387201203873002004E0A5
:100DC000012060723872002038733871387008E082
:100DD000002060723872387338713870052000F066
:100DE000F3FD012001F0D9F838B9032001F029F80A
:100DF00018B9042000F0A0FBC8B1042000F09CFB4F
:100E000010B9042000F085FC00206072387238733D
:100E100038713870052000F0D7FD0120A07200F075
:100E200009FF00202870287328713071307002206B
:100E300001F0B9F818B1022001F0C3F838B102206E
:100E400000F0FFFF18B9032000F076FB58B1032033
:100E500000F072FB10B9032000F05BFC0320A072CD
:100E6000002000F0A4FD022001F0ABF8D8B14FF053
:100E70003C08A08A90FBF8F0C0B200F00AFDA08AFE
:100E800090FBF8F1C1EB0112A0EB8200C0B200F0C0
:100E900031FD00F004FE18B1072000F080FD02E0F3
:100EA000072000F084FD2068800416D500206072C1
:100EB0003872387338713870052000F085FD0020D5
:100EC000A07200F0B7FE00202870287328713071DE
:100ED0003070BDE8F04101F0D1BDBDE8F081000007
:100EE000480000201C8340424005002004060020EA
:100EF000B4824042840240428002414270B500F018
:100F00001DFE0121022001F0E0FEA74C022020710D
:100F100060710020A0710120E07140202060A34D8D
:100F20002146284601F0CCFF02202071607101208B
:100F3000A0710020E071802020602146284601F049
:100F4000BFFF07220621284602F080F8072207216A
:100F5000284602F07BF80121084601F0B6FE4FF466
:100F600080502060012020710020E080012060710D
:100F70008F4E2146304601F0A3FF4FF4805130469A
:100F800002F03EF80121032001F09FFE16202060B0
:100F900001202071A071E07160712146304601F09E
:100FA0008FFF4FF4E04020602146284601F088FF83
:100FB0000121022001F089FE4FF400402060002052
:100FC0002071E071012060712146284601F078FF10
:100FD000BDE8704030B581B00121042001F075FEFC
:100FE000714C0F20206000202071E0800120607192
:100FF000704D2146284601F063FF0121042001F0D5
:1010000064FE4FF40050206000202071E080012039
:1010100060712146284601B0BDE8304001F050BF64
:1010200030B581B00121042001F04FFE5E4C0F204D
:101030002060012020710020E080012060715D4D62
:101040002146284601F03CFF0121042001F03DFE2D
:101050004FF400502060012020710020E08001202A
:1010600060712146284601B0BDE8304001F028BF3C
:1010700030B581B00121102001F073FE4E4C49487B
:10108000006844F62061B0FBF1F0401EA080002013
:101090002060E080494D2146284602F087F8012172
:1010A000284602F0B8F901220121284602F032F95F
:1010B0002B2020720A2060720120A072E07204F1DD
:1010C000080002F021FA0121284602F0D9F801B007
:1010D000BDE8304001F00EBD10B5394C01F056FDB1
:1010E0002070201D01F058FD212001F05EFE616995
:1010F00060F300016161292001F057FE616960F32E
:1011000041016161312001F050FE616960F38201AB
:101110006161392001F049FE616960F3C3016161D9
:10112000492001F042FE616960F3041161614120D0
:1011300001F03BFE616960F345116161592001F0E6
:1011400034FE616960F3861161615A2001F02DFE61
:10115000616960F3C71161615B2001F026FE61697E
:1011600060F3082161615C2001F01FFE616960F39A
:10117000492161615D2001F018FE616960F38A21F7
:1011800061615E2001F011FE616960F3CB21616154
:101190005F2001F00AFE616960F30C31616110BDEE
:1011A0000000000000000020200600200004024093
:1011B0000000024000080240140600200010004019
:1011C000E0050020FEE710B450F8041B81B102686E
:1011D0001218001D50F8043BDC0744BFA9F10104BC
:1011E000E31852F8044B43F8044B091FF9D1EBE71D
:1011F00010BC704710B5040018BF012C04D0862124
:101200000FF25000FFF7DEFF1048046010BD30B54C
:1012100081B004460025012C18BF022C0DD0042CEF
:1012200018BF082C09D0102C18BF202C05D040F274
:101230000F310FF22000FFF7C5FF0548006820427C
:1012400018BF0125284601B030BD000020000E4225
:1012500004700040433A5C30304669726D776172C9
:1012600065576F726B696E6741436861755C576F54
:10127000726B696E675C475453565F52616E676567
:10128000486F6F645C4C69627261726965735C532C
:10129000544D33324C3178785F53746450657269C1
:1012A00070685F4472697665725C7372635C7374B4
:1012B0006D33326C3178785F7077722E6300000086
:1012C00000B583B0012001F04FFC492001F06DFD15
:1012D0000028FAD04FF4803001F0B3FC012001F077
:1012E000E5FC00F086FF41487F214160FF218160DD
:1012F0000021016000F028FF002001F011F94FF4F7
:10130000801002F0E1F94FF48010019000208DF878
:10131000080008208DF8090001208DF80A0001A8B6
:1013200002F072F903208DF8000001208DF8010011
:1013300000208DF8020001208DF8030000A802F0C3
:10134000E3F82B48E0210170002001F0B1F8FF2004
:1013500001F0D1F84FF4804001F05AF94FF48010B9
:1013600002F0B2F901214FF4804001F019F9012097
:1013700001F0D6F803B000BD00B581B001214FF0F7
:10138000805001F0EEFC0120FFF734FFFFF798FFDB
:10139000184805214160012101720D21417203218C
:1013A00001600021C17302210173192141730021E1
:1013B0008173002001B05DF804EBFFF71BBF70B52F
:1013C00004460D4616460120FFF714FF0948002188
:1013D000C17304734573867300F10C01002000F0A3
:1013E00027FF0020BDE87040FFF704BF080600207B
:1013F00003E400E0F805002010B4DFF8EC0390F8F7
:10140000C112582202FB010202F20301937890F804
:10141000C042002C00F07F805278092A69D8DFE8AA
:1014200002F00511181F26342D685362012B60D17C
:10143000D0F8D42242F00102C0F8D422097880F812
:10144000D21256E0D0F8D81241F00101C0F8D812FB
:101450004FE0D0F8DC1241F00101C0F8DC1248E0A6
:10146000D0F8E01241F00101C0F8E01241E0D0F8FC
:10147000E41241F00101C0F8E4123AE0D0F8EC12B5
:1014800041F00101C0F8EC1233E00C2B31D10246DF
:101490005FF0030311F8014B82F8C34211F8014BCE
:1014A00082F8C44211F8014B82F8C54211F8014B91
:1014B00082F8C642121D5B1EECD1D0F8D01241F466
:1014C0008071C0F8D01214E0022B12D14A7880F853
:1014D000D022097880F8CF12D0F8F41241F001013F
:1014E000C0F8F41205E0D0F8F81241F00101C0F89C
:1014F000F81290F8C012491E80F8C01290F8C1127C
:10150000491C80F8C112C9B2082912D1002180F803
:10151000C11210BC704700F53570052102685208F1
:101520005200026042685208520042600830491E70
:10153000F4D110BC70470000AB4901EB8000D0F83B
:10154000D40200F00100704760B581B0A74802F0F6
:10155000FAF9A54991F8FF22582391F8C25203FBEA
:101560000515505591F8FE0298B991F8C20203FB97
:101570000010105CAA280AD1012081F8FE02501C3C
:1015800081F8FF020020A1F8000301B060BD002037
:101590003BE001283BD1032A36D391F8C20203FB7A
:1015A0000010857875B9C078CC2829D191F8C2028D
:1015B00003FB001003220270002081F8FE0281F874
:1015C000FF020BE0EE1CB2421ED1105CCC2817D1FA
:1015D00091F8C20203FB0010EA1C027091F8C202EB
:1015E000401C81F8C202C0B2082804BF002081F864
:1015F000C20291F8C002401C81F8C00201B060BD77
:10160000002081F8FE0200E0501C81F8FF0201B0CA
:1016100060BD70B582B0AA208DF8000000208DF862
:10162000010001208DF8020071480068800A00F076
:1016300001008DF80300CC208DF8040000AC0525D6
:101640006A4E8021304602F0ECF90028F9D014F8F7
:10165000011B304602F054F96D1EF2D102B070BD8C
:1016600070B582B0AA208DF8000008208DF8010026
:1016700000A8022181705E498A798DF8032049799A
:101680008DF80410CC21417100AC0625574E802105
:10169000304602F0C6F90028F9D014F8011B304694
:1016A00002F02EF96D1EF2D102B070BD70B584B09B
:1016B000AA208DF80000CC208DF80F0005208DF8B1
:1016C00001000C208DF802000DF1030048490322AF
:1016D0008B7D00F8013BCB7D00F8013B0B7E00F8D1
:1016E000013B4B7E00F8013B091D521EF0D100ACBE
:1016F00010253E4E8021304602F093F90028F9D0A3
:1017000014F8011B304602F0FBF86D1EF2D104B054
:1017100070BD70B582B0AA218DF800108DF801005F
:1017200000208DF80200CC208DF8030000AC0425C9
:101730002E4E8021304602F074F90028F9D014F8BA
:10174000011B304602F0DCF86D1EF2D102B070BD14
:101750002548D0F8D012C90502D500F2C320704741
:10176000002070472048B0F80013062903D3002159
:1017700080F8FE127047B0F80013491CA0F800135F
:10178000704710B586B001214FF4804001F0C3FAD4
:101790004FF49660019000200290ADF80C00ADF877
:1017A00010000C20ADF80E00104C01A9204601F0ED
:1017B000D5FF012240F22551204602F0DBF825201A
:1017C0008DF800000E208DF8010000208DF8020039
:1017D00001208DF8030000A801F096FE01212046AB
:1017E00002F063F806B010BD480000200038014048
:1017F00040050020F0B40FF2A842895C0FF2944239
:1018000002EB4002507892789400DFF8502401F007
:1018100001031355DFF848344D1005F001051D553F
:10182000DFF840548E1006F001062E55CE1006F05B
:101830000106DFF834743E5580000C1104F00104F9
:101840002C548C1104F001041C54491101F00101C5
:101850001154F0BC704770B40FF2384101EB4000F6
:10186000417880788000DFF8F42300231354DFF8F8
:10187000F03300241C54DFF8EC4300252554DFF836
:10188000E85300262E54880026541E54165470BC6B
:10189000704710B518280FD20A2190FBF1F404EB21
:1018A0008401A0EB4101C9B20120FFF7A3FFE1B21F
:1018B0000020BDE810409DE7DFF8B003002180F86C
:1018C000001380F8001280F80011017080F8FC10FD
:1018D00080F8FC1180F8FC1280F8081380F80812D8
:1018E00080F80811017280F8041180F8041280F861
:1018F000041310BD10B53C280FD20A2190FBF1F45F
:1019000004EB8401A0EB4101C9B20320FFF772FF91
:10191000E1B20220BDE810406CE7DFF8540300217B
:1019200080F8001380F8001280F80011017080F830
:10193000FC1080F8FC1180F8FC1280F8201380F86D
:10194000201280F8201180F8201080F8041180F80F
:10195000041280F8041310BDC6480088C64900F080
:10196000010281F82820C0F3800281F85420C0F3DE
:10197000400281F85C200206D20F0A70C0F3801288
:1019800081F85020C0F3C00281F85021C0F300124A
:1019900081F85022C0F3401081F850037047B549D8
:1019A0000A88012303FA00F010430880D4E7B14904
:1019B000082808BF002005D00A88012303FA00F098
:1019C00022EA00000880C7E710B518B1022812D03B
:1019D00005D327E0A74C208840F0080027E0A54C5D
:1019E00020884FF6F77108402080FFF7B5FF208868
:1019F00040F0100022E09F4C20884FF6F77108401D
:101A00002080FFF7A9FF20884FF6EF710840208063
:101A1000FFF7A2FF208840F020002080BDE81040A2
:101A2000FFF79ABF934C20884FF6F771084020804B
:101A3000FFF792FF20884FF6EF7108402080FFF7F4
:101A40008BFF20884FF6DF7108402080BDE81040F2
:101A500082E78A488179491CC9B2082908BF002158
:101A60008171817904299241D20FC2704179491C58
:101A70004171C9B2032904BF002141718178491C19
:101A80008170C9B2032909D1002181700179491CF3
:101A90000171C9B2032904BF002101717047774861
:101AA000C07870477548007970477448407970472E
:101AB00000B585B001214FF4007001F052F900200B
:101AC00000904FF4701001900C2002904020039081
:101AD0000020049000A800F0F1FD012000F0B2FE0B
:101AE0004FF4E05000F03FFF002000F0D9FE6020EE
:101AF00000F0B6FE00F0A1FE012000F08AFE0120F9
:101B000000F05CFF0028FAD0102000F057FF0028FA
:101B1000FAD04FF48041002000F0E8FE5548002143
:101B20000180042000F04AFF0028FAD140215448E7
:101B300002F03EF800F03EFF05B000BD10B582B0E7
:101B400001213F2001F0C1F800A801F050FA4FF444
:101B50000740009002208DF804004A4C00A920465E
:101B600001F0AEF90B220821204601F06FFA0B229A
:101B70000921204601F06AFA0B220A21204601F0D1
:101B800065FA0B220F21204601F060FA4FF44E70E7
:101B9000009002208DF804003B4C00A9204601F083
:101BA0008FF90B220321204601F050FA0B22042169
:101BB000204601F04BFA0B220521204601F046FA9F
:101BC0000B220821204601F041FA0B220921204670
:101BD00001F03CFA4FF4F050009002208DF8040020
:101BE0002A4C00A9204601F06BF90B22092120465E
:101BF00001F02CFA0B220A21204601F027FA0B22D1
:101C00000B21204601F022FA0B220C21204601F084
:101C10001DFA0420009002208DF804001C4C00A93D
:101C2000204601F04DF90B220221204601F00EFA68
:101C300002B010BD00B581B00E4800210180042023
:101C400000F0BCFE0028FAD140210D4801F0B0FFA1
:101C500001B05DF804EB00F0ADBE000080850442E9
:101C6000808404428083044280820442F4820442DD
:101C7000A0820442340600209C82044265050020B4
:101C8000142400400000024000040240000802400A
:101C9000000C0240111C1D1E1F070809101B00002C
:101CA0003F065B4F666D7D077F6F7100DFF8A40113
:101CB000DFF8A411016070470021C2685388883B97
:101CC0005D2B43D2634B93F8D030042B10D1918815
:101CD000203917293EBFD1880939092936D2002178
:101CE00001704FF0FF314160002101720120704707
:101CF000442B2BD39388423B2E2B27D202F2060291
:101D00005FF02003B2F800C0ACF1090CBCF1090F80
:101D10001CD2B2F802C0ACF1160CBCF1110F0CD2FF
:101D2000490041F00101121D5B1EEBD1202202721D
:101D300041600021017001207047B2F802C0ACF18F
:101D4000060CBCF1070F38BF4900ECD300207047E8
:101D500010B5404C04F10800C4F8E00094F8D0003D
:101D6000C4F8E4002079032827D104F1D400FFF758
:101D7000A3FFF8B1D4F8D8003849884246D0384992
:101D800088424AD0374988420DD0374988424BD0E3
:101D9000364988423AD03649884230D000202071F6
:101DA00084F8D00010BDD4F8F80040F00100C4F869
:101DB000F8003FE0207184F8D0000020C4F8FC0057
:101DC000D4F8E80040084000C4F8E800D4F8EC007B
:101DD00040084000C4F8EC00D4F8F000400840008F
:101DE000C4F8F000D4F8F40040084000C4F8F4004F
:101DF000D4F8F80040084000C4F8F80010BDD4F84A
:101E0000F00040F00100C4F8F00013E0D4F8F40052
:101E100040F00100C4F8F4000CE0D4F8EC0040F00D
:101E20000100C4F8EC0005E0D4F8E80040F001003F
:101E3000C4F8E80000F022FE0020207184F8D000F1
:101E400010BD044901EB800090F8E80000F00100AB
:101E500070470000AC0300203C824042BF40FB04BE
:101E6000AF50FB04A758FB047788FB046F90FB047A
:101E70006798FB04F0B581B0714C60694008400080
:101E8000606125466F4E05272868C10706D54008C2
:101E9000400040F00400286000F0F0FD2868810751
:101EA00044BF20F00600286028683178490704D52F
:101EB000410707D440F0010003E0410702D540F09C
:101EC000020028606069410855F8042B104300F0B7
:101ED000010050EA4100606114367F1ED4D101B088
:101EE000F0BD574801684A0708D54278092A28BF3B
:101EF00041F0080107D2511C417005E000214170FA
:101F0000016821F00801016041684A0708D542795B
:101F1000092A28BF41F0080107D2511C417105E090
:101F200000214171416821F00801416081684A0740
:101F300008D5427A092A28BF41F0080107D2511C6E
:101F4000417205E000214172816821F00801816041
:101F5000C1684A0708D5427B092A28BF41F0080119
:101F600007D2511C417305E000214173C16821F083
:101F70000801C16001694A0708D5427C092A28BFC7
:101F800041F0080107D2511C41747047002141748F
:101F9000016921F0080101617047294911F8200009
:101FA00000F001007047264951F82000400800F079
:101FB00001007047224951F82000800800F001001C
:101FC00070471F4951F82000C00800F00100704719
:101FD00000B581B000F03AF81B48416841F00301B8
:101FE000416001214172816941F003018161012158
:101FF0004177C16A41F00301C162012180F83110CB
:10200000016C41F003010164012180F84510416D2C
:1020100041F003014165012180F85910262180F823
:10202000381080F839106FF0150180F83A103A2214
:1020300080F8602080F8612080F8621001B000BD57
:10204000C8050020B0040020AC04002010B5012019
:1020500080F310883A4C0020E07020711420A071A9
:10206000E0710A2060710020A070142020720A2004
:1020700060721420A0720020E072207301F0ACFDA9
:1020800002F09EF902F07AFA002080F31088012015
:10209000207010BD10B52A4C2078401E0A284DD85B
:1020A000DFE800F006181D2B304C4C4C4C4C3D002A
:1020B000012080F3108823480168A26961F30002BF
:1020C000A261490849000160002080F310880220C5
:1020D000207010BD02F0E4F90320207010BD002034
:1020E00084F8010002F065FA6078401C6070C0B2AC
:1020F0000428F7D30420207010BD02F01DFA05203B
:10210000207010BD0420607002F053FA6078401C0B
:102110006070C0B20528F7D30B20207010BD02F00C
:102120006EFCA08B20820020A08394F820002075F4
:10213000002084F820000120207010BDFEE7000080
:102140006C0500203805002030B581B0044600251C
:102150002068402818BF002805D04FF4B771DFF879
:102160003004FFF72FF86068802805D340F26F1124
:10217000DFF81C04FFF726F8A068B0F5005F05D370
:102180004FF4B871DFF80804FFF71CF8DFF8040417
:10219000CA21C1615321C1610095416849060FD42C
:1021A0004FF0FF3141604168009A521C0092009A42
:1021B000B2F5005F01D04906F5D54168490613D54F
:1021C000016821F04001016001682268114301604B
:1021D000A16881608168626841EA0241816041686A
:1021E00021F0800141600125FF21C161284601B035
:1021F00030BD81B000200090DFF89C03CA218161CE
:1022000053218161016821F0A00101600168009AF9
:10221000521C0092009AB2F5805F01D08906F5D574
:102220000168FF228261480900F0010001B0704797
:10223000F0B581B00E460025DFF8504330B3DFF82B
:102240005073012804D040F283213846FEF7BAFFCC
:102250003078A168490640F1B980010901EB81029B
:1022600000F00F0000EB4200C0B208B10D2804D30B
:1022700040F299213846FEF7A5FFF078002818BFF4
:10228000402800F0B38040F29A21ACE03078A16899
:10229000490611D5401EC0B20C2805D340F2892151
:1022A000DFF8EC02FEF78EFFF078002818BF402818
:1022B0000BD040F28A2104E0F570182805D340F2D3
:1022C0008F21DFF8CC02FEF77DFF70783C2805D324
:1022D00040F29121DFF8B802FEF774FFB0783C2895
:1022E00005D340F29221DFF8A802FEF76BFF3078A9
:1022F000014600220A2805D30A22B0FBF2F2F6209A
:1023000000FB021141EA021071780B4600220A29F3
:1023100005D30A22B1FBF2F2F62101FB023343EAB4
:102320000211B3781F4600220A2B05D30A22B3FB01
:10233000F2F2F62303FB0277C0B20906090C41EA68
:10234000004047EA0211C9B20843F17840EA01406F
:10235000CA216162532161620095E16849060FD488
:102360004FF0FF31E160E168009A521C0092009A40
:10237000B2F5005F01D04906F5D5E168490620D5E0
:10238000DFF8181208402060E06820F08000E0606C
:102390000095CA20606253206062E06820F0A000CF
:1023A000E060E0680099491C00910099B1F5805FF8
:1023B00001D08006F5D5E068FF216162400900F098
:1023C0000105FF206062284601B0F0BDF5700109EB
:1023D00001EB810200F00F0000EB4200C0B21828B0
:1023E00004D340F29F213846FEF7ECFE70780109D5
:1023F00001EB810200F00F0000EB4200C0B23C286C
:1024000004D340F2A1213846FEF7DCFEB078010982
:1024100001EB810200F00F0000EB4200C0B23C284B
:1024200004D340F2A2213846FEF7CCFE3078717812
:10243000090241EA0040B17886E730B581B0050075
:102440000C4618BF012D05D040F2F521DFF8400100
:10245000FEF7B8FEDFF834010068DFF840110840ED
:10246000010C01F03F022270020A6270A07001F0BC
:102470004000E070D5B92078010901EB810200F03D
:102480000F0000EB420020706078010901EB81022F
:1024900000F00F0000EB42006070A078010901EB32
:1024A000810200F00F0000EB4200A07001B030BDCF
:1024B00010B5040018BF012C0DD0022C18BF032C3E
:1024C00009D0042C18BF062C05D04FF49A610FF2E6
:1024D0008010FEF777FEDFF86801CA21C161532141
:1024E000C1610168C908C900016001682143016038
:1024F000FF21C16110BD10B50446B4F5803F05D37E
:1025000040F2EB410FF24810FEF75CFEDFF83401B9
:10251000CA210161532101610460FF21016110BDE5
:1025200010B582B0044600200090002C18BF012C8A
:1025300005D04FF4A2610FF21810FEF743FEDFF84A
:102540000011CA20C8615320C861002C086807D058
:1025500040F4806008600120FF22CA6102B010BD13
:1025600020F4806008604868009A521C0092009A2B
:10257000B2F5005F01D04007F5D54868800800F04B
:102580000100FF22CA6102B010BD00000028004017
:1025900050260008082800400C2800407F7F7F005C
:1025A00030B581B004000D4602D02748044205D062
:1025B00040F293710FF29800FEF704FE002D18BF51
:1025C000012D05D040F294710FF28400FEF7FAFD60
:1025D0001B48CA21C1615321C16104F0040124F0E8
:1025E0000402002D036808D01A430260826B114375
:1025F0008163FF21C16101B030BD23EA02020260A4
:10260000826B22EA01018163FF21C16101B030BD0B
:1026100010B5040002D034F43C3005D040F623015C
:102620000FF22C00FEF7CEFD08482103090C41F003
:102630008001026802F0800262EA0101016010BDBF
:102640000828004014280040FB0FFFFF0C28004022
:10265000433A5C30304669726D77617265576F72CC
:102660006B696E6741436861755C576F726B696E29
:10267000675C475453565F52616E6765486F6F647D
:102680005C4C69627261726965735C53544D33329C
:102690004C3178785F5374645065726970685F4438
:1026A00072697665725C7372635C73746D33326CDD
:1026B0003178785F7274632E6300000010B50446B1
:1026C0002068002818BFB0F5800F2ED0B0F5000F9D
:1026D00018BFB0F5400F28D0B0F1807F18BFB0F11F
:1026E000A07F22D0B0F1C07F18BFB0F1E07F1CD036
:1026F000B0F1007F18BFB0F1107F16D0B0F1207F8D
:1027000018BFB0F1307F10D0B0F1407F18BFB0F1EA
:10271000507F0AD0B0F1607F18BFB0F1707F04D055
:10272000B5210FF2EC20FEF74DFD6068002818BFC0
:10273000B0F5802F2ED0B0F5002F18BFB0F5402F88
:1027400028D0B0F5801F18BFB0F5A01F22D0B0F57B
:10275000C01F18BFB0F5E01F1CD0B0F5001F18BF98
:10276000B0F5101F16D0B0F5201F18BFB0F5301F00
:1027700010D0B0F5401F18BFB0F5501F0AD0B0F50B
:10278000601F18BFB0F5701F04D0B6210FF2802073
:10279000FEF718FDA068002818BF042809D00828F3
:1027A0001CBF0C28102804D0B7210FF26420FEF7BC
:1027B00009FDE06800281CBF2028402804D0B8216B
:1027C0000FF24C20FEF7FEFC2069002818BF0228FB
:1027D00004D0B9210FF23820FEF7F4FC8648416896
:1027E00021F07F7141604168226863681A43114398
:1027F000416081688906FCD5016821F07E01016095
:102800000168A268E3681A4323691A43114301600F
:1028100010BD30B581B0040018BF012C09D00FF2F3
:10282000F015E2212846FEF7CDFCE5212846FEF70B
:10283000C9FC7248046001B030BD71480168890666
:10284000FCD5704710B5040018BF012C05D040F22C
:1028500015110FF2BC10FEF7B5FC6A48046010BDFC
:1028600010B5040018BF102C11D0202C18BF302C2C
:102870000DD0402C18BF502C09D0602C18BF702CE4
:1028800005D04FF496710FF28810FEF79BFC5E485E
:10289000016821F07001016001682143016010BDF1
:1028A00010B5040018BF802C17D0B4F5807F18BF76
:1028B000B4F5C07F11D0B4F5007F18BFB4F5207F08
:1028C0000BD0B4F5407F18BFB4F5607F05D040F25F
:1028D00043110FF23C10FEF775FC4B48016821F4E0
:1028E0006071016001682143016010BD30B581B0A5
:1028F00004000D4618BFB4F5803F0BD0B4F5003F7F
:1029000018BFB4F5403F05D04FF4B1710FF200107D
:10291000FEF758FC002D18BFB5F5005F17D0B5F5D0
:10292000804F18BFB5F5C04F11D0B5F5004F18BF97
:10293000B5F5204F0BD0B5F5404F18BFB5F5604F3A
:1029400005D040F263110FF2C800FEF73BFC2E48A1
:10295000016821F478310160016845EA04021143FD
:10296000016001B030BD10B5040018BFB4F5806F30
:1029700017D0B4F5006F18BFB4F5406F11D0B4F59F
:10298000805F18BFB4F5A05F0BD0B4F5C05F18BF6F
:10299000B4F5E05F05D04FF4BD710FF27400FEF79F
:1029A00011FC1948016821F4E051016001682143DC
:1029B000016010BD154801210160704730B581B03C
:1029C00004460025012C18BF022C0DD0042C18BF82
:1029D000082C09D0102C18BF202C05D04FF40671FC
:1029E0000FF22C00FEF7EEFB05480068204218BFEE
:1029F0000125284601B030BD00240040008004427B
:102A0000082400401C800442042400400881044241
:102A1000433A5C30304669726D77617265576F7208
:102A20006B696E6741436861755C576F726B696E65
:102A3000675C475453565F52616E6765486F6F64B9
:102A40005C4C69627261726965735C53544D3332D8
:102A50004C3178785F5374645065726970685F4474
:102A600072697665725C7372635C73746D33326C19
:102A70003178785F6C63642E63000000364801781B
:102A800021B9012101704170002070474FF0FF30E3
:102A900070473148017829B9012101700221417044
:102AA000002070474FF0FF30704710B52A4C207857
:102AB000C8B101466288904208D2012804BF274865
:102AC00000F0DEFB2078401C207010BD0021234860
:102AD00000F0D6FB6078401E6070C1B2491E89418B
:102AE000C943C90F217010BD1D48017881F0010153
:102AF0000170704710B584B00121202000F031F939
:102B0000184800684FF47A61B0FBF1F0401EADF850
:102B1000080000200190ADF80A00104C01A92046E1
:102B200000F044FB0121204600F075FC0122012148
:102B3000204600F0EFFB2C208DF800000B208DF8D4
:102B4000010001208DF802008DF8030000A800F0BC
:102B5000DBFC04B010BD0000440000200014004065
:102B6000B00240420000002010B504001CBF012C40
:102B7000052C05D040F2BD110FF2D820FEF722FB44
:102B8000DFF8940200210170047010BDDFF88C02A0
:102B9000006800F00C00704710B4DFF878124A6843
:102BA00002F00C020C2A23D8DFE802F022222222B3
:102BB000072222220A2222220D00DFF8642220E0CE
:102BC000DFF860221DE04A684B68C2F38342DFF8F9
:102BD0005842125DC3F381535B1C4C68E40354BF3D
:102BE000DFF83C42DFF83C426243B2FBF3F208E01C
:102BF0000A680123520B02F00702521C03FA02F288
:102C0000D20302604B68DFF820220468C3F3031389
:102C10009B181B7B24FA03F343604B684468C3F39F
:102C200002239B181B7B24FA03F3836049684368E3
:102C3000C1F3C2218918097B23FA01F1C16010BCDC
:102C4000704710B50446B4F5803F18BFB4F5003F97
:102C500014D0B4F5403F1CBFDFF8D00184420DD042
:102C6000DFF8CC0184421CBFDFF8C801844205D0E4
:102C700040F2E1310FF2DC10FEF7A4FADFF8900128
:102C800004F44031B1F5403F06D1016821F0C04164
:102C900004F0C04211430160416B21F440314163B3
:102CA000416B04F440321143416310BD10B5040080
:102CB00018BF012C05D040F203410FF29810FEF727
:102CC00081FADFF87401046010BD30B581B00446AC
:102CD0000D46DFF86801044200D12CB940F22F41C3
:102CE0000FF27010FEF76EFA75B1012D05D04FF49A
:102CF00086610FF26010FEF765FADFF844010168A3
:102D00002143016001B030BDDFF834010168A14307
:102D1000016001B030BD30B581B004460D46DFF82A
:102D20002401044200D12CB940F251410FF2241089
:102D3000FEF748FA75B1012D05D040F252410FF26D
:102D40001410FEF73FFADFF800010168214301602B
:102D500001B030BDDFF8F0000168A143016001B0AF
:102D600030BD30B581B004460D46DFF8E0000442C6
:102D700000D12CB940F27C410FF2D800FEF722FAC4
:102D80006DB1012D05D040F27D410FF2C800FEF774
:102D900019FA2F4801682143016001B030BD2C4869
:102DA0000168A143016001B030BD30B581B0044677
:102DB0000025212C18BF312C1AD0292C18BF392CF2
:102DC00016D0492C18BF412C12D05A2C18BF5B2C9E
:102DD0000ED05C2C18BF5D2C0AD05E2C1CBF5F2C63
:102DE000592C05D040F2B6510FF26800FEF7EAF90F
:102DF0000748610901290CBF0068406B012104F0FC
:102E00001F029140084218BF0125284601B030BD7D
:102E10000038024004380240353802400838024089
:102E20000024F40000127A00280000200000032093
:102E30000000034000000360D8064742C06FFFFE59
:102E40001C380240E2ADFFFF20380240C8B5194FE0
:102E500024380240433A5C30304669726D776172C3
:102E600065576F726B696E6741436861755C576F38
:102E7000726B696E675C475453565F52616E67654B
:102E8000486F6F645C4C69627261726965735C5310
:102E9000544D33324C3178785F53746450657269A5
:102EA00070685F4472697665725C7372635C737498
:102EB0006D33326C3178785F7263632E630000008B
:102EC0002DE9F04381B004460D460026DFF8580294
:102ED00084421CBFDFF85402844214D0DFF8500251
:102EE00084421CBFDFF84C0284420CD0DFF8480259
:102EF00084421CBFDFF84402844204D0C1210FF297
:102F00004020FEF75FF9286820B9C2210FF2302077
:102F1000FEF758F92879002818BF012808D00228A0
:102F200018BF032804D0C3210FF21420FEF74AF97A
:102F3000E87940B1012818BF022804D0C4210FF25B
:102F40000020FEF73FF9012000FA06F8286808EA99
:102F50000000404545D177000320B8406FEA0009E2
:102F6000206809EA0000206020682979B9400843F8
:102F700020602879012818BF022829D16879002803
:102F800018BF012808D0022818BF032804D0D82170
:102F90000FF2AC10FEF716F9A06809EA0000A06075
:102FA000A0686979B9400843A060A879002818BFD3
:102FB000012804D0DF210FF28810FEF703F9A08862
:102FC00020EA0800A080A088A979B1400843A08029
:102FD000E06809EA0000E060E068E979B940084388
:102FE000E060761C102EAED301B0BDE8F0834FF642
:102FF000FF7101600021017141718171C1717047E0
:1030000030B581B004460D46474884421CBF47484E
:10301000844211D0464884421CBF464884420BD0AB
:10302000454884421CBF4548844205D040F29B116C
:103030000FF20C10FEF7C6F82DB94FF4CE710FF257
:103040000010FEF7BFF8658301B030BD70B50646CD
:103050000D461446344886421CBF3448864211D07F
:10306000334886421CBF334886420BD032488642E2
:103070001CBF3248864205D040F209210FF2C00041
:10308000FEF7A0F8002D18BF012D21D0022D18BF8A
:10309000032D1DD0042D18BF052D19D0062D18BFE6
:1030A000072D15D0082D18BF092D11D00A2D18BFD6
:1030B0000B2D0DD00C2D18BF0D2D09D00E2D18BFC6
:1030C0000F2D05D040F20A210FF27400FEF77AF8B6
:1030D000002C18BF012C16D0022C18BF032C12D0C4
:1030E000042C18BF052C0ED0072C18BF0A2C0AD0B0
:1030F0000B2C1CBF0E2C0F2C05D040F20B210FF215
:103100004000FEF75FF8E81006EB800005F00701CD
:103110008900026A0F238B409A430262026A04FA12
:1031200001F11143016270BD000002400004024041
:1031300000080240000C024000100240001402404F
:10314000433A5C30304669726D77617265576F72D1
:103150006B696E6741436861755C576F726B696E2E
:10316000675C475453565F52616E6765486F6F6482
:103170005C4C69627261726965735C53544D3332A1
:103180004C3178785F5374645065726970685F443D
:1031900072697665725C7372635C73746D33326CE2
:1031A0003178785F6770696F2E63000030B581B049
:1031B00004460D46B4F1804F1CBFDFF8380184424D
:1031C0001CD0DFF8340184421CBFDFF83001844298
:1031D00014D0DFF82C0184421CBFDFF828018442A0
:1031E0000CD0DFF8240184421CBFDFF820018442A8
:1031F00004D0FA21DFF81801FDF7E4FF6888002801
:1032000018BF102809D020281CBF4028602804D0EF
:10321000FB21DFF8FC00FDF7D5FFE88800281CBF84
:10322000B0F5807FB0F5007F04D0FC21DFF8E0002E
:10323000FDF7C8FF2088B4F1804F1FBFDFF8B4103E
:103240008C42DFF8B4108C4204D14FF68F710840E5
:1032500069880843DFF8A4108C421CBFDFF8A01077
:103260008C4204D04FF6FF410840E9880843208093
:10327000A888A085288820850120A08201B030BDC3
:1032800030B581B004460D46B4F1804F1CBF1948DB
:10329000844218D0184884421CBF1848844212D077
:1032A000174884421CBF174884420CD016488442F9
:1032B0001CBFDFF85800844205D040F21A21DFF825
:1032C0005000FDF77FFF6DB1012D05D040F21B21AD
:1032D000DFF83C00FDF776FF208840F001002080F9
:1032E00001B030BD20884FF6FE710840208001B04B
:1032F00030BD000000040040000800400010004005
:103300000014004000080140000C01400010014082
:103310009C34000870B504460D461646B4F1804F43
:103320001CBF564884421AD0554884421CBFDFF85F
:103330006001844213D0DFF85C0184421CBF514815
:1033400084420CD0504884421CBFDFF840018442C4
:1033500005D040F26A71DFF84001FDF733FF4FF608
:10336000A070054200D12DB940F26B71DFF8280141
:10337000FDF728FF5EB1012E05D040F26C71DFF839
:103380001801FDF71FFFA0892843A08170BDA08907
:10339000A843A08170BD70B506460C460025B6F165
:1033A000804F1CBF354886421AD0354886421CBF24
:1033B000DFF8DC00864213D0DFF8D80086421CBF5D
:1033C000304886420CD0304886421CBFDFF8BC0033
:1033D000864205D04FF4FF61DFF8BC00FDF7F2FE36
:1033E000012C18BF022C0DD0042C18BF082C09D0BA
:1033F000102C18BF402C05D040F2F971DFF898006E
:10340000FDF7E0FE308AB189214020421CBF00292F
:103410000125284670BD30B581B004460D46B4F193
:10342000804F1CBF1548844219D0154884421CBFE8
:10343000DFF85C00844212D0DFF8580084421CBFE1
:10344000104884420BD0104884421CBF0F4884426D
:1034500005D040F61F01DFF84000FDF7B3FE4FF640
:10346000A070054200D12DB94FF40261DFF82800A9
:10347000FDF7A8FEE843208201B030BD0004004003
:103480000008004000080140000C0140001001400D
:1034900000100040001400409C340008433A5C30A7
:1034A000304669726D77617265576F726B696E67CE
:1034B00041436861755C576F726B696E675C475416
:1034C00053565F52616E6765486F6F645C4C69620A
:1034D0007261726965735C53544D33324C31787844
:1034E0005F5374645065726970685F447269766591
:1034F000725C7372635C73746D33326C3178785FB5
:1035000074696D2E6300000070B50446E0780028F1
:1035100018BF012804D08C210FF28800FDF752FE5D
:103520006078102804D38D210FF27800FDF74AFE51
:10353000A078102804D38E210FF26800FDF742FE18
:10354000227811460120E378E3B1124A126802F4AE
:10355000E062C2F5E062120A6378C2F10405AB4092
:10356000A5780F2626FA02F22A401A4312010A4BC6
:10357000CA5421784A11094B01F01F01884043F8D1
:10358000220070BD4911064B02F01F02904043F823
:10359000210070BD0CED00E000E400E000E100E07F
:1035A00080E100E0433A5C30304669726D776172C9
:1035B00065576F726B696E6741436861755C576FE1
:1035C000726B696E675C475453565F52616E6765F4
:1035D000486F6F645C4C69627261726965735C53B9
:1035E000544D33324C3178785F537464506572694E
:1035F00070685F4472697665725C7372635C6D6952
:1036000073632E630000000030B581B0044620795A
:10361000002818BF042804D081210FF2D400FDF740
:10362000D1FD607908281CBF0C28102804D0822105
:103630000FF2BC00FDF7C6FD2068C10DC90500D121
:1036400020B983210FF2A800FDF7BCFDA07980B35B
:10365000012806D084210FF29800FDF7B3FDA07970
:1036600038B32148016822689143016041682268AB
:103670009143416022798218136825682B431360B7
:10368000826823689A438260C26823689A43C26052
:1036900062792368102A08D1816819438160C16862
:1036A00022681143C16001B030BD82181068184310
:1036B00007E0207900F1804202F58232106821682B
:1036C0008843106001B030BD10B50446E00DC00560
:1036D00000D12CB94FF492710FF21400FDF772FD76
:1036E0000248046010BD00000004014014040140C1
:1036F000433A5C30304669726D77617265576F721C
:103700006B696E6741436861755C576F726B696E78
:10371000675C475453565F52616E6765486F6F64CC
:103720005C4C69627261726965735C53544D3332EB
:103730004C3178785F5374645065726970685F4487
:1037400072697665725C7372635C73746D33326C2C
:103750003178785F657874692E630000F0B585B0C4
:1037600004460D460FF2DC36DFF8C873BC421FBFBB
:10377000DFF8C4038442DFF8C403844203D0D821B5
:103780003046FDF71FFD286818B1DFF8B4138842F2
:1037900003D3D9213046FDF715FDA888002818BFAE
:1037A000B0F5805F03D0DA213046FDF70BFDE888E5
:1037B000002818BFB0F5805F09D0B0F5005F18BFD2
:1037C000B0F5405F03D0DB213046FDF7FBFC2889D4
:1037D00000281CBFB0F5806FB0F5C06F03D0DC21AE
:1037E0003046FDF7EFFC68894FF6F371084200D1CF
:1037F00018B9DD213046FDF7E5FCA889002818BF7F
:10380000B0F5807F09D0B0F5007F18BFB0F5407FDC
:1038100003D0DE213046FDF7D5FC208A4CF6FF713F
:103820000840E98808432082A0894EF6F311084039
:10383000A98808432989084369890843A081A08A87
:103840004FF6FF410840A9890843A08200A8FFF76E
:10385000A3F9BC420CBF039802982968192250436F
:10386000A28912044CBF49008900B0FBF1F1642227
:10387000B1FBF2F00001030902FB1311A3891B0441
:1038800009D5C9003231B1FBF2F101F0070108435B
:10389000208105B0F0BD09013231B1FBF2F101F038
:1038A0000F010843208105B0F0BD30B581B004465A
:1038B0000D46DFF8800284421FBFDFF87C0284429D
:1038C000DFF87802844205D040F27F110FF27420B5
:1038D000FDF778FC6DB1012D05D04FF4C0710FF2EA
:1038E0006420FDF76FFCA08940F40050A08101B076
:1038F00030BDA0894DF6FF710840A08101B030BDF8
:1039000030B581B004460D46DFF8280284421FBF5F
:10391000DFF824028442DFF82402844205D040F21A
:1039200006210FF22020FDF74DFCB5F5007F05D3F1
:1039300040F207210FF20C20FDF744FCE805C00D12
:10394000A08001B030BD10B50446DFF8E801844224
:103950001FBFDFF8E4018442DFF8E001844205D0B4
:1039600040F217210FF2DC10FDF72CFCA088C005F7
:10397000C00D10BD70B505460E4614466D48854213
:103980001FBF6D4885426D48854205D040F2B94160
:103990000FF2B010FDF716FC282E1CBF40F2277066
:1039A00086421BD040F2266086421CBF40F2255062
:1039B000864213D040F2244086421CBF40F64600A7
:1039C00086420BD040F66A10864218BF602E05D0A2
:1039D00040F2BA410FF26C10FDF7F4FB002C18BF57
:1039E000012C05D040F2BB410FF25810FDF7EAFB65
:1039F0003006400F012106F01F029140012808BF48
:103A000005F10C0005D002280CBF05F1100005F1EE
:103A10001400002C026814BF114322EA0101016066
:103A200070BD70B504460D460026424884421FBF53
:103A3000414884424148844205D040F2F3410FF2AC
:103A40000410FDF7BFFB012D18BF802D17D0402DAE
:103A500018BF202D13D0102D18BFB5F5807F0ED0C4
:103A6000B5F5007F18BF082D09D0042D18BF022D11
:103A700005D040F2F4410FF2CC00FDF7A3FB208803
:103A8000284218BF0126304670BD70B505460E4667
:103A90000024284885421FBF274885422748854281
:103AA00005D040F23C510FF29C00FDF78BFB282E15
:103AB0001CBF40F22770864222D040F22660864228
:103AC0001CBF40F2255086421AD040F22440864264
:103AD0001CBF40F64600864212D040F66A1086426D
:103AE00018BFB6F5587F0BD0B6F5187F18BFB6F5DE
:103AF000B07F05D040F23D510FF24800FDF762FB68
:103B00003006400F012106F01F0201FA02F20128DF
:103B100008BFA88903D002280CBF288AA88A1040B1
:103B2000320A91402A88114000281CBF0029012434
:103B3000204670BD0038014000440040004800406D
:103B400001093D00433A5C30304669726D7761721D
:103B500065576F726B696E6741436861755C576F3B
:103B6000726B696E675C475453565F52616E67654E
:103B7000486F6F645C4C69627261726965735C5313
:103B8000544D33324C3178785F53746450657269A8
:103B900070685F4472697665725C7372635C73749B
:103BA0006D33326C3178785F75736172742E630097
:103BB000002200F0EFBF50F8041B61B150F8042B55
:103BC000D30744BFA9F101039A18002342F8043B2C
:103BD000091FFAD1EFE77047DFF8B807016841F035
:103BE00001010160DFF8B0178A6842F0C0028A6004
:103BF000026842F0020202608A6842F440328A603F
:103C0000026842F004020260CA6842F4F872CA60B4
:103C1000826842F000428260086840004008086004
:103C2000DFF878070188018081688160B0F80014AE
:103C3000A0F80014D0F80814C0F80814B0F8001860
:103C4000A0F80018D0F80818C0F8081801880180FA
:103C500081688160B0F80014A0F80014D0F808144E
:103C6000C0F80814B0F80018A0F80018D0F8081828
:103C7000C0F80818FFE730B581B0DFF82447DFF857
:103C800018572868204028606868800880006860AD
:103C9000012080F31088DFF80C07818A4FF67F72CD
:103CA00011408182016821F4404141F4804101606A
:103CB000B0F814144FF6FD721140A0F81414D0F8A7
:103CC000001421F00C0141F00401C0F80014B0F818
:103CD00014184FF65F721140A0F81418D0F80018AD
:103CE00021F44C4141F48841C0F80018818A4FF614
:103CF000BF7211408182016821F4405141F480512A
:103D00000160B0F814144FF6FE721140A0F81414BC
:103D1000D0F800148908890041F00101C0F80014AE
:103D2000B0F814184FF6AF721140A0F81418D0F87C
:103D3000001821F44C5141F48851C0F80018818AD0
:103D4000818201680160B0F81414A0F81414D0F84E
:103D50000014C0F80014B0F814184FF6FF621140B8
:103D6000A0F81418D0F8001821F4403141F4803143
:103D7000C0F80018002080F31088642000F01AFBBF
:103D8000286820402860686880088000686001B06A
:103D900030BD2DE9F04F81B00024DFF80C562C60C7
:103DA0006C60AC60EC602C616C61DFF8F485DFF86E
:103DB000E875386808EA0000386078688008800094
:103DC0007860012080F31088DFF8D865B08A4FF65C
:103DD0007F710840B082306820F4404040F4804059
:103DE0003060B6F814044FF6FD710840A6F81404CC
:103DF000D6F8000420F00C0040F00400C6F80004DF
:103E0000B6F814084FF65F710840A6F81408D6F803
:103E1000000820F44C4040F48840C6F80008B08AFE
:103E20004FF6BF710840B082306820F4405040F433
:103E300080503060B6F814044FF6FE710840A6F8C2
:103E40001404D6F800048008800040F00100C6F891
:103E50000004B6F814084FF6AF710840A6F814082D
:103E6000D6F8000820F44C5040F48850C6F80008FA
:103E700084F31088322000F09DFA012080F310882E
:103E8000306820F440503060D6F80004800880008C
:103E9000C6F80004D6F8000820F44C50C6F8000814
:103EA00084F310884FF6FC7944F2401A48F2802BD4
:103EB00038684BEA00003860786840F002007860AB
:103EC000012080F31088B08A40F04000B082306852
:103ED00020F4405040F480503060B6F8140440F0B4
:103EE0000100A6F81404D6F800048008800040F011
:103EF0000100C6F80004B6F8140840F05000A6F817
:103F00001408D6F8000820F44C5040F48850C6F845
:103F10000008002080F3108800F056FE287DC007BE
:103F200007D4308A800704D52C80686940F00100EE
:103F30006861287D400608D4B6F81004800404D5D2
:103F4000AC81686940F040006861287D000608D4B3
:103F5000B6F81008800704D5EC81686940F080004D
:103F600068616869800508D4B6F81008000604D5B1
:103F70006C82686940F400706861287D000707D48E
:103F8000308A800504D5EC80686940F008006861DB
:103F9000287DC00607D4308A400404D52C81686986
:103FA00040F010006861287D800707D4308A000641
:103FB00004D56C80686940F002006861287D400784
:103FC00008D4B6F81004800704D5AC80686940F0C6
:103FD00004006861287D800608D4B6F810048006C5
:103FE00004D56C81686940F0200068616869C0058B
:103FF00008D4B6F81008800604D52C82686940F40D
:1040000080706861641C012080F31088306820F49F
:1040100040503060D6F8000480088000C6F80004E4
:10402000D6F8000820F44C50C6F80008002080F3B1
:10403000108838684AEA00003860786840F001006B
:10404000786000F0C3FD012080F31088306820F410
:1040500040403060D6F8000420F00C00C6F80004A0
:10406000D6F8000820F44C40C6F80008002080F381
:104070001088386808EA00003860786809EA0000AB
:10408000786041F2A940A4B2844203D300BF01B0DA
:10409000BDE8F08F288B6969014081427FF408AF49
:1040A00001B0BDE8F08F2DE9F04F81B00024BF4D85
:1040B0002C606C60AC60EC602C616C61DFF8F0929D
:1040C000B54F386809EA000038604FF6F97878682B
:1040D00008EA00007860012080F31088B14EB08AB1
:1040E0004FF67F710840B082306820F4404040F4C1
:1040F00080403060B6F814044FF6FD710840A6F811
:104100001404D6F8000420F00C0040F00400C6F8B7
:104110000004B6F814084FF65F710840A6F81408BA
:10412000D6F8000820F44C4040F48840C6F8000857
:10413000B08AB08230683060B6F81404A6F814046F
:10414000D6F80004C6F80004B6F814084FF6FF616C
:104150000840A6F81408D6F8000820F4403040F4CF
:104160008030C6F8000884F31088322000F022F96D
:10417000012080F3108830683060D6F80004C6F85B
:104180000004D6F8000820F44030C6F8000884F394
:104190001088012080F31088306820F4404030609F
:1041A000D6F8000420F00C00C6F80004D6F8000889
:1041B00020F44C40C6F8000884F3108841F2A94A64
:1041C00048F2802B38684BEA00003860786840F08D
:1041D00002007860012080F31088B08AB0823068D5
:1041E0003060B6F81404A6F81404D6F80004C6F833
:1041F0000004B6F8140840F48070A6F81408D6F845
:10420000000820F4403040F48030C6F80008002058
:1042100080F3108800F0D8FC287DC00707D4308ACE
:10422000800704D52C80686940F001006861287D12
:10423000400608D4B6F81004800404D5AC8168693F
:1042400040F040006861287D000608D4B6F81008E8
:10425000800704D5EC81686940F080006861686976
:10426000800508D4B6F81008000604D56C82686989
:1042700040F400706861287D000707D4308A80050B
:1042800004D5EC80686940F008006861287DC006AC
:1042900007D4308A400404D52C81686940F01000AE
:1042A0006861287D800707D4308A000604D56C80B9
:1042B000686940F002006861287D400708D4B6F8BC
:1042C0001004800704D5AC80686940F00400686180
:1042D000287D800608D4B6F81004800604D56C81C9
:1042E000686940F0200068616869C00508D4B6F8C4
:1042F0001008800604D52C82686940F480706861DB
:10430000012080F3108830683060D6F80004C6F8C9
:104310000004D6F8000820F44030C6F80008002059
:1043200080F31088641C38683860786840F00400B6
:10433000786000F04BFC012080F31088306820F496
:1043400040403060D6F8000420F00C00C6F80004AD
:10435000D6F8000820F44C40C6F80008002080F38E
:104360001088386809EA00003860786808EA0000B8
:104370007860544503D300BF01B0BDE8F08F288BAF
:104380006969014081427FF41DAF01B0BDE8F08F43
:10439000000000001C380240087C0040040002407D
:1043A0003F3CFFFF0000024090050020AC050020CC
:1043B0007F7DFFFF00E0401E80B20028FBD17047E8
:1043C00010B5354C0020A06160612061E06184F887
:1043D00028002046FEF7E0FB60684FF4FA61B0FB6E
:1043E000F1F0B0F1807F0CD22C490002000A401E8F
:1043F0004860F02081F8130D0020886007200860D5
:1044000010BDFEE72448416982690369142B10D36B
:10441000143B0361491CC3695B1CC3610A2922BFA9
:104420000A39521C0A2A04D30A3A836A43F0010368
:10443000836282614161704710B5174C2069401C4E
:104440002061E06A10B1E06A401EE062FFF7DAFF27
:10445000A06A810704D520F00600A062C82020626F
:10446000A06A010704D520F01800A062C82060628D
:10447000206A30B1401E206203D1A06A40F00400DF
:10448000A062606A30B1401E606203D1A06A40F051
:104490001000A06210BD00001005002010E000E038
:1044A00070B5DFF82C4300202083DFF82853DFF8B5
:1044B000286330788821084203D1DFF82003008880
:1044C0002083307D084205D1208BDFF81013498806
:1044D0000843208396F828008821084205D1208BC4
:1044E000DFF8F81289880843208396F83C00882179
:1044F000084205D1208BDFF8E412C98808432083E5
:1045000004202870208BB0B1FFF743FCDFF8D00205
:10451000017834F811107181417834F81110F18369
:10452000817834F811107186C07834F81000A6F83C
:1045300046000420287070BD70B5DFF8A842002046
:104540002083DFF89052DFF8906296F850008821BF
:10455000084203D1DFF884020089208305202870F7
:10456000208B50B1FFF79FFDDFF87C02007834F814
:104570001000A6F85A000520287070BD70B5954C43
:10458000002020706FF01105DFF8606200F03AF94A
:1045900030688021017030684521017430684174B1
:1045A000306885742078401C2070C0B20528EDD397
:1045B00070BD10B500F026F900F02EF98B4C206884
:1045C0000178012973D002290CD0042940D0082990
:1045D00012D011295AD0142923D0242942D080295D
:1045E00072D076E04089323841F2774180B2884219
:1045F00067D200F06FF820680079800758BF00F09C
:1046000094F920687A490A8883881A430A8079498C
:104610000A7803781A430A70416821F00801416062
:1046200010BD7549B1F9001090F9100081420CDB02
:1046300000F08EF92068817B491E81732068807BA1
:104640000028DED100F01FF9DBE700F003F9D8E71E
:104650004089323841F2774180B2884231D200F04D
:1046600072F8C8E790F91110634AB2F9002091423C
:1046700009DB817B491E81732068807B0028C0D1C3
:1046800000F0D4F8BDE700F017F9BAE790F912107E
:10469000594AB2F900209142D7DB817B491E8173D0
:1046A0002068807B0028ACD100F014F9A9E740898C
:1046B000323841F2774180B2884202D200F075F878
:1046C00099E700F01FF99CE7007900F00300032848
:1046D000E9E7FEE730B581B0474DB5F90000434C3E
:1046E000216891F91220824204DB01B0BDE830401C
:1046F00000F0E7B891F91010884222DB00F0BAF818
:104700003E480078E8B92068817B491C8173B5F97F
:104710000000216891F9101088420DDB00F018F9B3
:104720002068817B491E81732068807B48B901B075
:10473000BDE8304000F0A7B801B0BDE8304000F05F
:1047400089B801B030BD30B581B02B4C274D2868F9
:1047500090F91100B4F9001088421FDB00F0A3F8B3
:1047600027480078F8B92868817B491C817328683C
:1047700090F91110B4F9002091420ADB817B491EA7
:1047800081732868807B70B901B0BDE8304000F0CB
:104790004DB801B0BDE8304000F08EB801B0BDE8C2
:1047A000304000F019B901B030BD104801688A8965
:1047B0004B899A188A810A7A521E0A720068017A15
:1047C00021B98189C908818100F030B870470000A3
:1047D000900500206D050020AC0400206C4F0008FF
:1047E000644F0008AC050020684F00082806002030
:1047F000880500208C050020380600206F05002069
:1048000070050020D148007800EB8001D04800EB13
:104810008100D04908607047CE480068B0F90C109C
:10482000B0F90A00081ACC4908807047C9480168E5
:104830004A6842F008024A6002220A700068416831
:1048400021F00401416021F08001416021F020014C
:1048500041607047BF48016802220A7000684168E1
:1048600021F00401416021F08001416021F020012C
:1048700041607047B748016814220A700068B74960
:10488000097881737047B348016804220A70006890
:10489000416841F00401416041F008014160B049C4
:1048A000097801727047AB48016824220A700068D9
:1048B000AC49097881737047A648006804210170EB
:1048C0007047A448016811220A700068A649097857
:1048D000817370479F48016801220A7001684A6825
:1048E00022F004024A6042F008024A6022F080028C
:1048F0004A6022F020024A6008220A720068002101
:10490000818170479348016808220A7000684168F5
:1049100021F00401416041F00801416021F0800173
:10492000416041F02001416070478A48016880225F
:104930000A700068416821F00401416041F00801FB
:10494000416021F08001416021F020014160704709
:104950008048006841680A0600D5704770B4427A02
:104960007A4B1B787A4C6BB1657A1646354207D084
:1049700025792D0604D5817B491C817370BC704755
:10498000012B08D0657F1646354202D0257E2D06C4
:10499000F1D4022B09D094F83150354203D094F869
:1049A0002C502D06E7D4032B09D094F845503542FE
:1049B00003D094F840502D06DDD4042B07D094F892
:1049C0005930134203D094F854201206D3D441F046
:1049D0008001416070BC704764480078C0070DD505
:1049E0005F48007850B15B4801680A7A521E0A722B
:1049F0000068007A002808BFFFF76CBF70472DE9F8
:104A0000F04F012080F3108859485A490A68026023
:104A100000220A6082F310884FF0FF314E4A4D4B5E
:104A2000DFF82C81494DDFF85091DFF850A1046880
:104A3000002C00F08880641E04609AF80040002C6E
:104A40001CBF641E8AF800404D4C2478641E5FFA37
:104A500084FCBCF1000F08D14FF00A0C99F800401B
:104A6000002C1CBF641E89F80040454C84F800C02F
:104A7000444C94F800C04FF0010E00242C704646C0
:104A80001E603778142F18BF042F18BF242F04D1AD
:104A90003D4C247889F800401DE0022F14D1B6F96E
:104AA0000CB0B6F90A70ABEB070717803FB2002FC6
:104AB00006D003D5012C03DA0C4605E0002C02D504
:104AC0004FF0000E00E001242F787F1C2F70143669
:104AD000FFB2052FD4D39AF8004099F80060344310
:104AE000A5D12A4C24788AF80040BEF1000F1CBFE3
:104AF000274C94F800C08CF0FF04641C5FFA84FE1D
:104B0000BCF1000F93D000242C702C7804EB8406A9
:104B100008EB86041C602678022E0DD1A689E77B5F
:104B200007EB062667893F0207FB0CF706FB0E76AC
:104B3000370CA781360AE6732C78641C2C70E4B21B
:104B4000052CE2D373E70160BDE8F08F6D0500200E
:104B5000AC04002028060020380600206F05002045
:104B60006E050020700500207105002084050020DE
:104B70002C0600202C05002077050020760500205B
:104B800078050020750500207305002072050020BF
:104B90007405002000B500BF1300964694461039F6
:104BA00028BFA0E80C50FAD85FEA417C28BF0CC0AF
:104BB00048BF40F8042BC90728BF20F8022B48BF84
:104BC00000F8012B00BD000000BF704700BF704718
:104BD0007047FEE7FEE7FEE7FEE7FEE7FEE7FEE7DB
:104BE00030B581B0FFF728FC7F4CE078401CE070C6
:104BF000C0B2192805D10020E070206840F0800084
:104C000020607A4D2888401C288080B20A2190FBC1
:104C1000F1F101EB8102B0EB42013BD1216841F09F
:104C200001012160322290FBF2F302FB130088BBEA
:104C300041F002002060FDF738FF2888642190FBD6
:104C4000F1F201FB120028BBFCF78CFD206840F05C
:104C5000040020602988C82291FBF2F302FB1312A2
:104C600012B940F0100020604FF4967091FBF0F202
:104C700000FB121018B9206840F0400020604FF48B
:104C8000FA7091FBF0F200FB121018B9206840F0A6
:104C90002000206001B030BD10B5554C01212046E8
:104CA000FEF779FB88B101212046FEF7B4FB51489D
:104CB00001680978C288521CC28090F8D030582B05
:104CC00004D30322027101B9C18010BD0479032C01
:104CD000FBD8DFE804F0041C2B02F4E7F5E771B918
:104CE00092B2B2F5FA7FEFD380F8D01002810121A1
:104CF00080F8D0100021C1800121017110BD4FF654
:104D0000FE7192B28A42E0D14FF6FD71DCE70129D3
:104D1000DBD100EB43010A8190F8D010491C80F8E8
:104D2000D0100021C1800221017110BD31B900EB0A
:104D300043010A8190F8D010491CD9E740F2F511DF
:104D400092B28A42C1D30321017110BD00B581B076
:104D5000FDF7CAFE0121284801B05DF804EBFEF71B
:104D60005ABB0120FEF7B0BC10B51F48016841F0E6
:104D700008010160214A13785B1CDBB2082B0ED1BD
:104D800000235488641C5480847A052C07D1848ABB
:104D9000002C07BF41F400510160611E8182137035
:104DA000FDF79FF8FCF755FE0120FCF723FA4FF4BE
:104DB0008040FDF72DFC4FF48010FEF785FC0020AD
:104DC000BDE81040FCF716BA00B581B040F225519D
:104DD0000B48FEF75AFE012804D101B05DF804EB40
:104DE000FCF7B2BB01B000BD400500203606002034
:104DF00000100040AC0300200014004030060020EA
:104E00000038014082B03248016841F4807101608D
:104E10008168304A1140816001682F4A1140016069
:104E2000016821F480210160816821F47D018160A5
:104E30000021C16001910091016841F00101016010
:104E4000016801F0020100910199491C019100994A
:104E500019B90199B1F5A06FF2D10168490801F0C3
:104E600001010091009901292FD1D0F8001441F0DF
:104E70000401C0F80014D0F8001441F00201C0F899
:104E80000014D0F8001441F00101C0F80014416A88
:104E900041F08051416211494FF400620A604A6852
:104EA000D206FCD4816881608168816081688160FC
:104EB0008168890889008160816841F00101816011
:104EC000816801F00C010429FAD102B0704700009A
:104ED000003802400CC0FF88FEFFFEEE007000406C
:104EE00010B5074979441831064C7C44163404E067
:104EF000081D0A68511888470146A142F8D110BD23
:104F00000800000028000000AFECFFFFF4050000DF
:104F10004800002000000000AFC2FFFF4800000072
:104F20004C010000000000200000000000F009F823
:104F3000002801D0FFF7D4FF0020FBF7DBF800F0DA
:104F400002F80120704700F001B80000074638461B
:104F500000F002F8FBE7000001491820ABBEFBE7B8
:104F600026000200010209080900000002000400F6
:104F7000000200010002000001488047014800478C
:104F8000054E0008894F0008C046C046C046C046CE
:104F9000FFF7CCFFFFF71CBEFFF71BBEFFF71ABEE3
:104FA000FFF719BEFFF718BEFFF717BEFFF716BED3
:104FB000FFF715BEFFF714BEFFF7FEBFFFF7FEBFFA
:104FC000FFF7FEBFFFF7D0BEFFF7FEBFFFF7FEBF44
:104FD000FFF7C7BEFFF7FEBFFFF7FEBFFFF7FEBF3D
:104FE000FFF7FEBFFFF7FEBFFFF7FEBFFFF7FEBFF5
:104FF000FFF7FEBFFFF7FEBFFFF7FEBFFFF7FEBFE5
:10500000FFF7FEBFFFF7FEBFFFF7FEBFFFF7FEBFD4
:10501000FFF7FEBFFFF7FEBFFFF7FEBFFFF7FEBFC4
:10502000FFF7FEBFFFF7FEBFFFF7FEBFFFF7FEBFB4
:10503000FFF7FEBFFFF7FEBFFFF7FEBFFFF7FEBFA4
:10504000FFF7FEBFFFF7FEBFFFF7FEBFFFF7BCBED7
:10505000FFF7FEBFFFF7FEBFFFF7FEBFFFF7FEBF84
:10506000FFF7FEBFFFF718BEFFF770BE0024F40085
:10507000030406080C101820300000000000000097
:10508000010204000000000000000000010203040F
:1050900006070809030406080C1018203000000059
:1050A00000000000010203040102030406070809CE
:0450B00000000500F7
:0400000508004F8917
:00000001FF
