:020000040800F2
:1000000070060020212E0008C12A0008C32A00081B
:10001000C52A0008C72A0008C92A000800000000F5
:10002000000000000000000000000000CB2A0008D3
:10003000CD2A000800000000CF2A0008D12A0008BD
:10004000612E0008652E0008692E00085F2C00084C
:10005000712E0008752E0008592C00087D2E00080E
:10006000812E0008852E0008892E00088D2E00089C
:10007000912E0008952E0008992E00089D2E00084C
:10008000A12E0008A52E0008A92E0008AD2E0008FC
:10009000B12E0008B52E0008B92E0008BD2E0008AC
:1000A000C12E0008C52E0008C92E0008CD2E00085C
:1000B000D12E0008D52E0008D92E0008DD2E00080C
:1000C000E12E0008E52E0008E92E0008ED2E0008BC
:1000D000F12E0008F52E0008F92E0008FD2E00086C
:1000E000012F0008052F0008092F00085F2B0008CA
:1000F0000D2C0008DFF84C07016841F00101016098
:10010000DFF844178A6842F0C0028A60026842F051
:10011000020202608A6842F40C128A60026842F0AD
:1001200004020260CA6842F4F872CA60826842F04F
:10013000004282600868400040080860DFF80C0751
:100140000188018081688160DFF804170A880A80CD
:100150008A688A60DFF8FC261388138093689360AE
:1001600003880380836883600888088088688860C3
:10017000108810809068906070B5DFF8DC46DFF87A
:10018000C856286820402860686820F0230068600E
:10019000012080F31088DFF8C406818A4FF67F7251
:1001A00011408182016821F4404141F480410160A5
:1001B000DFF8AC168A8A4FF6DD731A408A820A6825
:1001C000DFF8A0361A4040F204431A430A60DFF811
:1001D0009826938A4FF65F7633409382136823F410
:1001E0004C4343F488431360838A4FF6BF76334011
:1001F0008382036823F4405343F4805303608B8A63
:100200004FF6FE7633408B820B689B089B0043F0D1
:1002100001030B60938A4FF6AF76334093821368E5
:1002200023F44C5343F488531360838A8382036816
:100230000360888A888208680860908A4FF6FF61A8
:1002400008409082106820F4403040F48030106004
:10025000002080F31088642000F011FB2868204003
:100260002860686820F02300686070BD2DE9F84FB1
:100270004FF00008DFF8F455C5F80080C5F8048099
:10028000C5F80880C5F80C80C5F81080C5F8148042
:10029000DFF8C495DFF8B0B5DBF8000009EA00002C
:1002A000CBF80000DBF8040020F02300CBF80400BA
:1002B000012080F31088DFF8A445A08A4FF67F71F3
:1002C0000840A082206820F4404040F48040206034
:1002D000DFF88C65B08A4FF6DD710840B082DFF838
:1002E00084A530680AEA000040F204410843306007
:1002F000DFF87475B88A4FF65F710840B8823868C5
:1003000020F44C4040F488403860A08A4FF6BF711A
:100310000840A082206820F4405040F480502060C3
:10032000B08A4FF6FE710840B082306880088000C5
:1003300040F001003060B88A4FF6AF710840B882D3
:10034000386820F44C5040F48850386088F31088A6
:10035000322000F094FA012080F31088206820F405
:10036000405020603068800880003060386820F499
:100370004C50386088F31088DBF8000040F40240ED
:1003800040F08000CBF80000DBF8040040F02200D1
:10039000CBF80400012080F31088A08A40F04000D0
:1003A000A082206820F4405040F480502060B08A41
:1003B00040F00100B08230688008800040F0010009
:1003C0003060B88A40F05000B882386820F44C5051
:1003D00040F488503860002080F3108800F06CFAF8
:1003E000287DC00708D4208A800705D5A5F800809D
:1003F000686940F001006861287D400608D4308AB1
:10040000800405D5A5F80C80686940F0400068615B
:10041000287D000608D4388A800705D5A5F80E8007
:10042000686940F0800068616869800508D4388A8E
:10043000000605D5A5F81280686940F4007068616F
:10044000287D000708D4208A800505D5A5F80680F8
:10045000686940F008006861287DC00608D4208AD9
:10046000400405D5A5F80880686940F0100068616F
:10047000287D800708D4208A000605D5A5F80280CB
:10048000686940F002006861287D400708D4308A1E
:10049000800705D5A5F80480686940F0040068610C
:1004A000287D800608D4308A800605D5A5F80A8004
:1004B000686940F0200068616869C00508D4388A1E
:1004C000800605D5A5F81080686940F480706861E1
:1004D00008F10108012080F31088206820F44050C2
:1004E00020603068800880003060386820F44C500C
:1004F0003860002080F31088DBF8000040F4824070
:1005000040F04000CBF80000DBF8040040F00100B0
:10051000CBF8040000F0D2F9012080F310882068A5
:1005200020F44040206030680AEA000030603868FB
:1005300020F44C403860002080F31088DBF8000085
:1005400009EA0000CBF80000DBF804004FF6DC718C
:100550000840CBF8040041F2A9401FFA88F8804512
:1005600000D389E1288B6969014081427FF404AF9F
:10057000BDE8F18F2DE9F84F4FF00008BC4DC5F8EC
:100580000080C5F80480C5F80880C5F80C80C5F85F
:100590001080C5F81480DFF8B092D9F80000B54992
:1005A0000840C9F800004FF6D97BD9F804000BEADF
:1005B0000000C9F80400012080F31088A74CA08A2D
:1005C0004FF67F710840A082206820F4404040F43C
:1005D00080402060A24EB08A4FF6DD710840B082A4
:1005E000DFF880A230680AEA000040F204410843C4
:1005F00030609D4FB88A4FF65F710840B882386806
:1006000020F44C4040F488403860A08AA0822068E2
:100610002060B08AB08230683060B88A4FF6FF61DF
:100620000840B882386820F4403040F480303860A8
:1006300088F31088322000F022F9012080F310881E
:100640002068206030683060386820F440303860BE
:1006500088F31088012080F31088206820F440403F
:10066000206030680AEA00003060386820F44C40AE
:10067000386088F31088D9F8000040F4024040F058
:100680008000C9F80000D9F8040040F02200C9F841
:100690000400012080F31088A08AA08220682060D6
:1006A000B08AB08230683060B88A40F48070B88216
:1006B000386820F4403040F480303860002080F307
:1006C000108800F0F9F8287DC00708D4208A800738
:1006D00005D5A5F80080686940F001006861287DB3
:1006E000400608D4308A800405D5A5F80C806869D6
:1006F00040F040006861287D000608D4388A8007F1
:1007000005D5A5F80E80686940F0800068616869C9
:10071000800508D4388A000605D5A5F812806869D6
:1007200040F400706861287D000708D4208A8005A5
:1007300005D5A5F80680686940F008006861287D45
:10074000C00608D4208A400405D5A5F80880686949
:1007500040F010006861287D800708D4208A0006D8
:1007600005D5A5F80280686940F002006861287D1F
:10077000400708D4308A800705D5A5F80480686949
:1007800040F004006861287D800608D4308A800625
:1007900005D5A5F80A80686940F02000686168699D
:1007A000C00508D4388A800605D5A5F81080686988
:1007B00040F480706861012080F310882068206018
:1007C00030683060386820F440303860002080F3B2
:1007D000108808F10108D9F80000C9F80000D9F81C
:1007E000040040F00400C9F8040000F067F801209C
:1007F00080F31088206820F44040206030680AEAC6
:1008000000003060386820F44C403860002080F3ED
:100810001088D9F8000017490840C9F80000D9F835
:1008200004000BEA0000C9F8040041F2A940804529
:1008300000D321E0288B6969014081427FF41BAF1E
:10084000BDE8F18F1C380240087C004004000240E3
:1008500004040240040802403F3CFFFF0000024045
:1008600000040240F3F3FFFF00080240E001002013
:10087000FC0100207F7DFFFF00BFBDE8F18F00E09D
:10088000401E80B20028FBD1704710B450F8041B02
:1008900081B102681218001D50F8043BDC0744BF08
:1008A000A9F10104E31852F8044B43F8044B091F63
:1008B000F9D1EBE710BC704700BF704700BF70472D
:1008C00010B504462068002818BFB0F5800F2ED060
:1008D000B0F5000F18BFB0F5400F28D0B0F1807F01
:1008E00018BFB0F1A07F22D0B0F1C07F18BFB0F127
:1008F000E07F1CD0B0F1007F18BFB0F1107F16D0A0
:10090000B0F1207F18BFB0F1307F10D0B0F1407F40
:1009100018BFB0F1507F0AD0B0F1607F18BFB0F1BE
:10092000707F04D0B5210FF2D02000F04FFB60683B
:10093000002818BFB0F5802F2ED0B0F5002F18BFBB
:10094000B0F5402F28D0B0F5801F18BFB0F5A01F1C
:1009500022D0B0F5C01F18BFB0F5E01F1CD0B0F515
:10096000001F18BFB0F5101F16D0B0F5201F18BF1C
:10097000B0F5301F10D0B0F5401F18BFB0F5501FB4
:100980000AD0B0F5601F18BFB0F5701F04D0B621B3
:100990000FF2642000F01AFBA068002818BF04289A
:1009A00009D008281CBF0C28102804D0B7210FF24A
:1009B000482000F00BFBE06800281CBF20284028DE
:1009C00004D0B8210FF2302000F000FB206900288D
:1009D00018BF022804D0B9210FF21C2000F0F6FA4B
:1009E0007F48416821F07F714160416822686368F7
:1009F0001A431143416081688906FCD5016821F0E2
:100A00007E0101600168A268E3681A4323691A4302
:100A10001143016010BD38B5040018BF012C09D086
:100A20000FF2D415E221284600F0D0FAE52128463D
:100A300000F0CCFA6B48046031BD6B480168890650
:100A4000FCD5704710B5040018BF012C05D040F24A
:100A500015110FF2A41000F0B9FA6448046010BD3B
:100A600010B5040018BF102C11D0202C18BF302C4A
:100A70000DD0402C18BF502C09D0602C18BF702C02
:100A800005D04FF496710FF2701000F09FFA58489D
:100A9000016821F0700120E010B5040018BF802C1F
:100AA00017D0B4F5807F18BFB4F5C07F11D0B4F56E
:100AB000007F18BFB4F5207F0BD0B4F5407F18BF7E
:100AC000B4F5607F05D040F243110FF22C1000F016
:100AD0007DFA4748016821F4607101600168214393
:100AE000016010BD38B504000D4618BFB4F5803F55
:100AF0000BD0B4F5003F18BFB4F5403F05D04FF41C
:100B0000B1710FF2F40000F061FA002D18BFB5F5D5
:100B1000005F17D0B5F5804F18BFB5F5C04F11D0A5
:100B2000B5F5004F18BFB5F5204F0BD0B5F5404FC8
:100B300018BFB5F5604F05D040F263110FF2B80051
:100B400000F044FA2A48016821F478310160016814
:100B500045EA04021143016031BD10B5040018BF1D
:100B6000B4F5806F17D0B4F5006F18BFB4F5406FBF
:100B700011D0B4F5805F18BFB4F5A05F0BD0B4F509
:100B8000C05F18BFB4F5E05F05D04FF4BD710FF240
:100B9000680000F01BFA1648016821F4E0519CE758
:100BA000144801210160704738B504460025012C26
:100BB00018BF022C0DD0042C18BF082C09D0102C03
:100BC00018BF202C05D04FF406710FF22C0000F056
:100BD000FDF905480068204218BF0125284632BDAE
:100BE0000024004000800442082400401C8004428D
:100BF0000424004008810442433A5C303046697264
:100C00006D77617265576F726B696E67414368619A
:100C1000755C576F726B696E675C475453565F52D1
:100C2000616E6765486F6F645C4C6962726172697E
:100C300065735C53544D33324C3178785F53746430
:100C40005065726970685F4472697665725C737230
:100C5000635C73746D33326C3178785F6C63642ECF
:100C600063000000022000F0D0F900F051F800F01D
:100C700073FA00F097FA00F063F800F0D5F800F08E
:100C800028F900F05BFB00F061FB00F01DF8DFF8D5
:100C90000C43DFF80C5300F087FB287940070ED493
:100CA000287E40070BD495F82C00400707D495F810
:100CB0004000400703D495F854004007EBD50121CC
:100CC000204600F0DBFBE6E7DFF8D402416841F0A4
:100CD00003014160011D01224A714A6942F0030289
:100CE0004A6101224A768A6A42F003028A6201213D
:100CF00080F83110016C41F00301016440300121A2
:100D00004171416941F00301416101214176704720
:100D1000A44800684FF47A71B0FBF1F0B0F1807F25
:100D20000DD2A1490002000A401E48609F48F022EF
:100D3000027000228A6007220A60F0210170704769
:100D400070B500F069FA0121022000F095FD984C81
:100D5000C0202060012020710020E080012060710F
:100D6000944D2146284600F04DFE0121042000F05C
:100D700083FD4FF400502060012020710020E080AE
:100D8000012060718C4E2146304600F03BFE4FF44E
:100D90000051304600F0D4FE0121032000F06CFD2C
:100DA0001620206001202071A071E0716071214641
:100DB000824800F027FE4FF4E0402060214628469C
:100DC00000F020FE0121022000F056FD4FF400400B
:100DD000206000202071E0710120607121462846CA
:100DE00000F010FE0121042000F046FD0F202060DD
:100DF000012020710020E0800120607121463046F2
:100E000000F000FE0121022000F036FD802020606D
:100E1000012020710020E0800120607121462846D9
:100E2000BDE8704000F0EEBD70B50121102000F06B
:100E300045FD634C5B4D286844F62061B0FBF1F042
:100E4000401E20810020606060815E4E211D304682
:100E500000F0ACFA0121304600F0E3FB0122012151
:100E6000304600F055FB2B2020700E2060700120D2
:100E7000A070E070204600F039FF0121304600F0FC
:100E8000FDFA0121202000F019FD2868A189490000
:100E9000B0FBF1F0401E20810020606060813F4D7A
:100EA000211D284600F082FA0121284600F0B9FBF6
:100EB00001221146284600F02BFB2C2020700F2029
:100EC00060700120A070E0702046BDE8704000F026
:100ED0000DBF10B53C4C00F033FC2070201D00F01D
:100EE00035FC212000F009FD616960F300016161BA
:100EF000292000F002FD616960F341016161312048
:100F000000F0FBFC616960F382016161392000F04F
:100F1000F4FC616960F3C3016161492000F0EDFCFC
:100F2000616960F304116161412000F0E6FC6169D0
:100F300060F345116161592000F0DFFC616960F3E5
:100F4000861161615A2000F0D8FC616960F3C71115
:100F500061615B2000F0D1FC616960F3082161618F
:100F60005C2000F0CAFC616960F3492161615D2089
:100F700000F0C3FC616960F38A2161615E2000F0CA
:100F8000BCFC616960F3CB2161615F2000F0B5FCBE
:100F9000616960F30C31616110BD00000014004014
:100FA000280100202400002010E000E023ED00E0F4
:100FB00054020020000402400008024000000240E9
:100FC000440000200010004018020020FEE750F806
:100FD000041B61B150F8042BD30744BFA9F10103EE
:100FE0009A18002342F8043B091FFAD1EFE7704733
:100FF00010B5040018BF012C04D086210FF24C005C
:10100000FFF7E4FF0F48046010BD38B50446002523
:10101000012C18BF022C0DD0042C18BF082C09D0AD
:10102000102C18BF202C05D040F20F310FF21C00FD
:10103000FFF7CCFF04480068204218BF012528466E
:1010400032BD000020000E4204700040433A5C3084
:10105000304669726D77617265576F726B696E6742
:1010600041436861755C576F726B696E675C47548A
:1010700053565F52616E6765486F6F645C4C69627E
:101080007261726965735C53544D33324C317878B8
:101090005F5374645065726970685F447269766505
:1010A000725C7372635C73746D33326C3178785F29
:1010B0007077722E6300000000B583B0012000F04D
:1010C0002DFB492000F019FC0028FAD04FF48030A5
:1010D00000F08EFB012000F0C0FB00F0E4FE2E4883
:1010E0007F214160FF2181600021016000F07EFED0
:1010F0004FF4801001F079F84FF480100190002037
:101100008DF8080008208DF8090001208DF80A00EC
:1011100001A801F00DF803208DF8000000208DF8E3
:1011200001008DF8020001208DF8030000A800F0F6
:10113000DDFD042000F0D6FE002000F0F3FE17488D
:10114000E021017001214FF4804000F03FFF0120B9
:1011500000F0FDFE03B000BD80B501214FF08050CE
:1011600000F0ACFB0120FFF743FFFFF7A5FF0C48A1
:1011700005214160012101720D21417203210160AD
:101180000021C17317210173002141738173002075
:10119000BDE80240FFF72CBF4002002003E400E05E
:1011A0003002002000B585B001214FF4007000F03E
:1011B00085FB002000904FF4701001900C200290ED
:1011C000402003900020049000A8FFF779FB012045
:1011D000FFF738FC4FF4E050FFF7BFFC0020FFF7AB
:1011E0005BFC6020FFF73CFCFFF727FC0120FFF7CA
:1011F00012FC0120FFF7D8FC0028FAD01020FFF7DE
:10120000D3FC0028FAD04FF480410020FFF76AFC9D
:1012100000F07CF805B000BD1CB501213F2000F0B6
:101220002BFB00A800F083FC4FF407400090022045
:101230008DF804003C4C00A9204600F0E3FB0B2293
:101240000821204600F0A0FC0B220921204600F0D6
:101250009BFC0B220A21204600F096FC0B220F215A
:10126000204600F091FC4FF44E70009002208DF863
:1012700004002E4C00A9204600F0C4FB0B220321E1
:10128000204600F081FC0B220421204600F07CFC6B
:101290000B220521204600F077FC0B220821204676
:1012A00000F072FC0B220921204600F06DFC4FF487
:1012B000F050009002208DF804001D4C00A920463B
:1012C00000F0A0FB0B220921204600F05DFC0B2260
:1012D0000A21204600F058FC0B220B21204600F08A
:1012E00053FC0B220C21204600F04EFC0420009001
:1012F00002208DF804000F4C00A9204600F082FB6C
:101300000B220221204600F03FFC13BD80B50420D3
:10131000FFF74AFC0028FAD14021074800F0B0FF4F
:10132000BDE80140FFF73CBC000002400004024061
:1013300000080240000C0240142400400148024909
:1013400001607047540000203C82404280B501217A
:101350004FF0004000F0B2FA00F096FF11484168EB
:1013600041F003014160011D01224A714A6942F0C6
:1013700003024A6101224A768A6A42F003028A62C3
:10138000012180F83110016C41F00301016440300B
:1013900001214171416941F003014161012141761F
:1013A00001BD00002801002000F092BF38B50446BE
:1013B0000D46B4F1804F1CBFDFF8340184421CD0CD
:1013C000DFF8300184421CBFDFF82C01844214D0C6
:1013D000DFF8280184421CBFDFF8240184420CD0CE
:1013E000DFF8200184421CBFDFF81C01844204D0D6
:1013F000FA21DFF81801FFF7E9FD6888002818BF17
:10140000102809D020281CBF4028602804D0FB21C8
:10141000DFF8F800FFF7DAFDE88800281CBFB0F518
:10142000807FB0F5007F04D0FC21DFF8E000FFF7FB
:10143000CDFD2088B4F1804F1FBFDFF8B4108C427F
:10144000DFF8B0108C4204D14FF68F7108406988E4
:101450000843DFF8A4108C421CBFDFF8A0108C42B8
:1014600004D04FF6FF410840E98808432080A8884F
:10147000A085288820850120A08231BD38B504468A
:101480000D46B4F1804F1CBF194884421DD0DFF8CF
:10149000640084421CBFDFF86000844215D0DFF88E
:1014A0005C0084421CBFDFF8580084420DD0DFF896
:1014B000540084421CBFDFF85000844205D040F243
:1014C0001A21DFF84800FFF781FD5DB1012D05D03D
:1014D00040F21B21DFF83400FFF778FD208840F050
:1014E000010003E020884FF6FE710840208031BDE6
:1014F00000040040000800400010004000140040BC
:1015000000080140000C014000100140B016000826
:1015100070B504460D461646B4F1804F1CBFDFF887
:10152000700184421DD0DFF86C0184421CBFDFF8DB
:101530007801844215D0DFF8740184421CBFDFF8C3
:10154000580184420DD0DFF8540184421CBFDFF8FB
:101550005001844205D040F26A71DFF84801FFF77C
:1015600035FD4FF6A070054200D12DB940F26B71E8
:10157000DFF83001FFF72AFD56B1012E05D040F209
:101580006C71DFF82001FFF721FDA089284301E0FD
:10159000A089A843A08170BD000070B506460C4626
:1015A0000025B6F1804F1CBFDFF8E40086421DD055
:1015B000DFF8E00086421CBFDFF8EC00864215D061
:1015C000DFF8E80086421CBFDFF8CC0086420DD071
:1015D000DFF8C80086421CBFDFF8C400864205D091
:1015E0004FF4FF61DFF8BC00FFF7F0FC012C18BFDF
:1015F000022C0DD0042C18BF082C09D0102C18BFB9
:10160000402C05D040F2F971DFF89800FFF7DEFCBE
:10161000308AB189214020421CBF0029012528467B
:1016200070BD38B504460D46B4F1804F1CBFDFF8DD
:10163000600084421DD0DFF85C0084421CBFDFF8EC
:101640006800844215D0DFF8640084421CBFDFF8D4
:10165000480084420DD0DFF8440084421CBFDFF80C
:101660004000844205D040F61F01DFF83800FFF744
:10167000ADFC4FF6A070054200D12DB94FF40261C8
:10168000DFF82000FFF7A2FCE843208231BD000014
:10169000000400400008004000080140000C014028
:1016A00000100140B0160008001000400014004077
:1016B000433A5C30304669726D77617265576F727C
:1016C0006B696E6741436861755C576F726B696ED9
:1016D000675C475453565F52616E6765486F6F642D
:1016E0005C4C69627261726965735C53544D33324C
:1016F0004C3178785F5374645065726970685F44E8
:1017000072697665725C7372635C73746D33326C8C
:101710003178785F74696D2E6300000010B50400A5
:101720001CBF012C052C05D040F2BD110FF2682022
:10173000FFF74CFCDFF82C0200210170047010BD93
:10174000DFF82402006800F00C00704710B4DFF8E6
:1017500010124A6812F00C0221D0042A04D0082A80
:1017600005D00C2A06D01AE0DFF8002220E0DFF8CE
:1017700000221DE04A684B68C2F38342DFF8F4415F
:10178000125DC3F381535B1C4C68E40354BFDFF864
:10179000DC41DFF8DC416243B2FBF3F208E00A68A7
:1017A0000123520B02F00702521C03FA02F2D20389
:1017B00002604B68DFF8BC210468C3F303139B1875
:1017C0001B7B24FA03F343604B684468C3F3022392
:1017D0009B181B7B24FA03F3836049684368C1F3B9
:1017E000C2218918097B23FA01F1C16010BC70473E
:1017F00010B50446B4F5803F18BFB4F5003F14D0CF
:10180000B4F5403F1CBFDFF8700184420DD0DFF813
:101810006C0184421CBFDFF86801844205D040F2AD
:10182000E1310FF27410FFF7D1FBDFF8300104F45F
:101830004031B1F5403F06D1016821F0C04104F0CC
:10184000C04211430160416B21F440314163416B5F
:1018500004F440321143416310BD10B5040018BFB9
:10186000012C05D040F203410FF22C10FFF7AEFB24
:10187000DFF81001046010BD38B504460D46DFF8EE
:101880000801044200D12CB940F22F410FF2081098
:10189000FFF79CFB65B1012D05D04FF486610FF277
:1018A000F800FFF793FBDFF8E4000168214303E051
:1018B000DFF8D8000168A143016031BD38B50446A6
:1018C0000D463348044200D12CB940F27C410FF25E
:1018D000C800FFF77BFB5DB1012D05D040F27D41D3
:1018E0000FF2B400FFF772FB2A480168214302E0BF
:1018F00028480168A143016031BD38B50446002580
:10190000212C18BF312C1AD0292C18BF392C16D0F5
:10191000492C18BF412C12D05A2C18BF5B2C0ED06A
:101920005C2C18BF5D2C0AD05E2C1CBF5F2C592C80
:1019300005D040F2B6510FF26000FFF747FB0748B1
:10194000610901290CBF0068406B012104F01F02EE
:101950009140084218BF0125284632BD0038024098
:101960000438024035380240083802400024F400B0
:1019700000127A002800002000000320000003402D
:1019800000000360D8064742C06FFFFE1C380240CB
:10199000C8B5194F24380240433A5C30304669726A
:1019A0006D77617265576F726B696E6741436861ED
:1019B000755C576F726B696E675C475453565F5224
:1019C000616E6765486F6F645C4C696272617269D1
:1019D00065735C53544D33324C3178785F53746483
:1019E0005065726970685F4472697665725C737283
:1019F000635C73746D33326C3178785F7263632E1D
:101A0000630000002DE9F84304460D460026DFF888
:101A1000580284421CBFDFF85402844214D0DFF81D
:101A2000500284421CBFDFF84C0284420CD0DFF825
:101A3000480284421CBFDFF84402844204D0C12122
:101A40000FF23C20FFF7C2FA286820B9C2210FF23A
:101A50003020FFF7BBFA2879002818BF012808D0EA
:101A6000022818BF032804D0C3210FF21420FFF767
:101A7000ADFAE87940B1012818BF022804D0C4218A
:101A80000FF2FC10FFF7A2FA012000FA06F828680E
:101A900008EA0000404545D177000320B8406FEACE
:101AA0000009206809EA0000206020682979B9400F
:101AB000084320602879012818BF022829D16879B5
:101AC000002818BF012808D0022818BF032804D016
:101AD000D8210FF2AC10FFF779FAA06809EA0000EC
:101AE000A060A0686979B9400843A060A87900287F
:101AF00018BF012804D0DF210FF28410FFF766FA27
:101B0000A08820EA0800A080A088A979B1400843F5
:101B1000A080E06809EA0000E060E068E979B94087
:101B20000843E060761C102EAED3BDE8F1834FF67B
:101B3000FF7101600021017141718171C1717047B4
:101B400038B504460D46484884421CBF4748844285
:101B500011D0474884421CBF464884420BD04648B7
:101B600084421CBF4548844205D040F29B110FF2CD
:101B70001010FFF72BFA2DB94FF4CE710FF20010B1
:101B8000FFF724FA658331BD70B506460D4614464D
:101B9000354886421CBF3548864211D034488642BB
:101BA0001CBF344886420BD0334886421CBF3348A2
:101BB000864205D040F209210FF2C400FFF706FA71
:101BC000002D18BF012D21D0022D18BF032D1DD0CF
:101BD000042D18BF052D19D0062D18BF072D15D0BF
:101BE000082D18BF092D11D00A2D18BF0B2D0DD0AF
:101BF0000C2D18BF0D2D09D00E2D18BF0F2D05D09F
:101C000040F20A210FF27800FFF7E0F9002C18BF2C
:101C1000012C16D0022C18BF032C12D0042C18BF94
:101C2000052C0ED0072C18BF0A2C0AD00B2C1CBF79
:101C30000E2C0F2C05D040F20B210FF24400FFF7C1
:101C4000C5F9E81006EB800005F007018900026A7B
:101C50000F238B409A430262026A04FA01F1114396
:101C6000016270BD0000000000000240000402405C
:101C700000080240000C0240001002400014024024
:101C8000433A5C30304669726D77617265576F72A6
:101C90006B696E6741436861755C576F726B696E03
:101CA000675C475453565F52616E6765486F6F6457
:101CB0005C4C69627261726965735C53544D333276
:101CC0004C3178785F5374645065726970685F4412
:101CD00072697665725C7372635C73746D33326CB7
:101CE0003178785F6770696F2E63000070B50446C5
:101CF000E078002818BF012804D08C210FF288005A
:101D0000FFF764F96078102804D38D210FF2780072
:101D1000FFF75CF9A078102804D38E210FF2680039
:101D2000FFF754F9227811460120E378E3B1124A13
:101D3000126802F4E062C2F5E062120A6378C2F14E
:101D40000405AB40A5780F2626FA02F22A401A4372
:101D500012010A4BCA5421784A11094B01F01F01A4
:101D6000884043F8220070BD4911064B02F01F0263
:101D7000904043F8210070BD0CED00E000E400E06D
:101D800000E100E080E100E0433A5C3030466972F7
:101D90006D77617265576F726B696E6741436861F9
:101DA000755C576F726B696E675C475453565F5230
:101DB000616E6765486F6F645C4C696272617269DD
:101DC00065735C53544D33324C3178785F5374648F
:101DD0005065726970685F4472697665725C73728F
:101DE000635C6D6973632E630000000070B5044688
:101DF00000262068402818BF002805D04FF4B7718E
:101E0000DFF8BC01FFF7E2F86068802805D340F2F4
:101E10006F11DFF8AC01FFF7D9F8A068B0F5005FEB
:101E200005D34FF4B871DFF89801FFF7CFF8DFF86A
:101E30009451CA20E8615320E86100F019F898B184
:101E4000286820F04000286028682168084328603E
:101E5000A068A860A868616840EA0140A860686856
:101E600020F0800068600126FF20E861304670BDE8
:101E700081B000200090DFF85001016849060FD4BE
:101E80004FF0FF3101600168009A521C0092009AE5
:101E9000B2F5005F01D04906F5D5006880091DE064
:101EA000012001B0704781B000200090DFF81801D8
:101EB000CA21816153218161016821F0A001016083
:101EC0000168009A521C0092009AB2F5805F01D01E
:101ED0008906F5D50168FF228261480900F00100FA
:101EE00001B0704710B5040018BF012C0DD0022CB2
:101EF00018BF032C09D0042C18BF062C05D04FF4B2
:101F00009A610FF2C010FFF761F8DFF87401CA217F
:101F1000C1615321C1610168C908C900016001683C
:101F2000214349E010B50446B4F5803F05D340F2A3
:101F3000EB410FF29010FFF749F8DFF84801CA2192
:101F40000161532101610460FF21016110BD10B5E1
:101F500082B0044600200090002C18BF012C05D050
:101F60004FF4A2610FF25C10FFF730F8DFF81011A8
:101F7000CA20C8615320C861002C086804D040F40E
:101F800080600860012010E020F4806008604868EC
:101F9000009A521C0092009AB2F5005F01D04007EF
:101FA000F5D54868800800F00100FF22CA6116BD1F
:101FB0000160FF21C16131BD0160FF21C16110BD20
:101FC000C4200008082800400C28004038B5040050
:101FD0000D4602D02C48044205D040F293710FF216
:101FE000E400FEF7F3FF002D18BF012D05D040F2ED
:101FF00094710FF2D000FEF7E9FF2148CA21C161B8
:102000005321C16104F0040124F00402002D03688F
:1020100004D01A430260826B114305E023EA0202F6
:102020000260826B22EA01018163C2E738B505468E
:102030000024B5F5004F18BFB5F5804F0DD0B5F5AC
:10204000005F1CBFB5F5805FB5F5003F05D040F2DD
:10205000FC710FF27000FEF7B9FF0948816B02684E
:10206000406800EA15102A4001EAD53101F0040168
:10207000114302D0000418BF0124204632BD0000E5
:102080000828004014280040FB0FFFFF10B5040093
:1020900002D034F43C3005D040F623010FF2240086
:1020A000FEF794FF004801E00C2800402103090CD2
:1020B00041F08001026802F0800262EA01010160E1
:1020C00010BD0000433A5C30304669726D77617232
:1020D00065576F726B696E6741436861755C576FD6
:1020E000726B696E675C475453565F52616E6765E9
:1020F000486F6F645C4C69627261726965735C53AE
:10210000544D33324C3178785F5374645065726942
:1021100070685F4472697665725C7372635C737435
:102120006D33326C3178785F7274632E6300000017
:1021300038B504462079002818BF042804D081212E
:102140000FF2D000FEF742FF607908281CBF0C2870
:10215000102804D082210FF2BC00FEF737FF206860
:10216000C10DC90500D120B983210FF2A800FEF7E7
:102170002DFFA07978B3012806D084210FF29400B6
:10218000FEF724FFA07930B320480168226891430C
:102190000160416822689143416022798218136886
:1021A00025682B431360826823689A438260C26863
:1021B00023689A43C26062792368102A07D1816834
:1021C00019438160C16822681143C16031BD821822
:1021D0001068184307E0207900F1804202F582324E
:1021E000106821688843106031BD10B50446E00DC9
:1021F000C00500D12CB94FF492710FF21800FEF710
:10220000E5FE0348046010BD00000000000401402A
:1022100014040140433A5C30304669726D77617254
:1022200065576F726B696E6741436861755C576F84
:10223000726B696E675C475453565F52616E676597
:10224000486F6F645C4C69627261726965735C535C
:10225000544D33324C3178785F53746450657269F1
:1022600070685F4472697665725C7372635C7374E4
:102270006D33326C3178785F657874692E63000055
:10228000002200F077B8000010B5012080F310881C
:10229000364CE070002020711420A071E0710A20FB
:1022A00060710020A070142020720A206072142037
:1022B000A0720020E0722073FDF71CFF00F074F89C
:1022C00000F04DF9002080F310880120207010BD2F
:1022D00010B5264C207801280AD0022819D00328EE
:1022E0001BD0042825D0052827D00B2831D03CE06E
:1022F00080F310881E480168226A61F3000222629E
:10230000490849000160002080F3108802202070F5
:1023100010BD00F0C3F80320F9E70020607000F062
:1023200039F96078401C6070C0B20428F7D30420EB
:10233000EDE700F0F7F80520E9E70420607000F011
:1023400029F96078401C6070C0B20528F7D30B20D3
:10235000DDE700F0F9FAA08B20830020A083207D28
:102360002074002020750120D1E7FEE7BC01002089
:102370008C01002000B500BF13009646944610392A
:1023800028BFA0E80C50FAD85FEA417C28BF0CC0F7
:1023900048BF40F8042BC90728BF20F8022B48BFCC
:1023A00000F8012B00BD000010B5394C0020E061A1
:1023B000A061606120622070201DFFF7C7F9A0684E
:1023C0004FF4FA61B0FBF1F0B0F1807F0CD23149EB
:1023D0000002000A401E48602F48F02202700020D0
:1023E00088600720086010BDFEE72948C1690A29F6
:1023F00005D30A39C161016841F0010101607047EC
:10240000234881690A2905D30A398161C169491CB8
:10241000C161EAE770471E484169142908D314399D
:1024200041618169491C8161016A491C0162E7E7D8
:10243000704710B5164C6069401C6061E06A10B1CD
:10244000E06A401EE062FFF7E6FF2068810704D5DE
:1024500020F006002060C82060622068010704D5D3
:1024600020F018002060C820A062606A30B1401ED1
:10247000606203D1206840F004002060A06A30B19F
:10248000401EA06203D1206840F01000206010BD03
:102490008C01002010E000E023ED00E070B5BC4CA2
:1024A00000202083BB4DBC4E30788821084202D1E9
:1024B000BA4800882083307D084204D1208BB74978
:1024C00049880843208396F828008821084204D1CF
:1024D000208BB24989880843208396F83C008821E4
:1024E000084204D1208BAD49C988084320830420C9
:1024F0002870208BA8B1FDF7B9FEA948017834F8FF
:1025000011107181417834F81110F183817834F819
:1025100011107186C07834F81000A6F84600042027
:10252000287070BD70B59F4C00202083994D9A4E45
:1025300096F850008821084202D1984800892083EB
:1025400005202870208B48B1FEF714F896480078D3
:1025500034F81000A6F85A000520287070BD70B538
:102560008C4C002020706FF00905904E00F02AF985
:1025700030688021017030686321017430685F2108
:102580004174306885742078401C2070C0B20528E2
:10259000ECD370BD10B500F015F900F01DF9834CB7
:1025A00020680078012838D002280CD0042827D0D1
:1025B00008281FD011282DD014281ED0242826D05A
:1025C000802831D033E000F0D5F888B100F061F90F
:1025D000206877490A8883881A430A8075490A78EF
:1025E00003781A430A70416821F00801416010BD68
:1025F00000F01EF800F0ACF8EAE700F038F8E7E782
:1026000000F0B8F80028E1D100F04DF8F2E700F052
:1026100065F8DDE700F076F8DAE700F0ABF80028BF
:10262000D4D100F083F8E5E700F09AF8D0E7FEE7B0
:1026300010B56148B0F900005C4C216891F9122096
:102640008242A4BFBDE8104000F004B991F9101017
:1026500088420BDB00F0D9F85848007830B9206880
:10266000817B491C8173BDE8104000E010BD10B5AE
:102670004E4C5148B0F90000216891F91010884281
:102680000CDB00F02CF92068817B491E81732068E7
:10269000807B38B9BDE8104000F0BEB8BDE81040FE
:1026A00000F0AAB810BD10B5404C206890F9110098
:1026B0004149B1F9001088420BDB00F0BDF84048F9
:1026C000007850B92068817B491C8173BDE81040B7
:1026D00004E0BDE8104000F024B910BD33480168A3
:1026E00091F91120344BB3F900309A4207DB8A7B11
:1026F000521E8A730068807B18B900F077B800F02A
:10270000A4B870472948016891F912202A4BB3F9FF
:1027100000309A4207DB8A7B521E8A730068807BF6
:1027200018B900F09EB800F067B870471F480168FC
:102730008A894B899A188A810A7A521E0A7200681D
:10274000017A21B98189C908818100F04FB87047A9
:10275000164800680079800758BF00F0ADB8704790
:1027600012480068007900F00300032808BF00F059
:1027700078B870470D4800684089323841F2774197
:1027800080B2884201D3FF207047002070470000CC
:10279000E0010020BD01002028010020142E0008C7
:1027A0000C2E0008FC010020102E00085C02002006
:1027B000D8010020D001002066020020BF010020C7
:1027C000C0010020AB48007800EB8001AA4800EB74
:1027D0008100AA4908607047A8480068B0F90C1049
:1027E000B0F90A00081AA64908807047A348006893
:1027F000416841F008014160A048016802220A7066
:102800000068416821F0040161E09C4801681422DD
:102810000A7000689B4915E09848016804220A7014
:102820000068416841F00401416041F008014160E5
:1028300095490978017270479048016824220A700E
:10284000006892490978817370478C4800680421B8
:10285000017070478948016811220A7000688C492C
:10286000F0E78648016801220A7001684A6822F090
:1028700004024A6042F008024A6022F080024A6084
:1028800022F020024A6008220A7200680021818139
:1028900070477A48016808220A700068416821F090
:1028A0000401416041F00801416021F08001416074
:1028B00041F02001416070477048016880220A7031
:1028C0000068416821F00401416041F00801416065
:1028D00021F08001416021F020014160704767488C
:1028E000006841680A0600D5704778B4427A002330
:1028F000684C604D2D78AB421CBF6679164207D0FC
:102900002678360604D5817B491C817371BC7047DB
:102910005B1C1434052BEEDB41F08001416071BC7F
:1029200070475D480078C0070DD55748007850B112
:10293000524801680A7A521E0A720068007A00281A
:1029400008BFFFF78EBF70472DE9F84F012080F3D5
:102950001088524C5248016821600021016081F3C7
:102960001088DFF818A1434E4E4FDFF83C812068F5
:10297000002879D0401E206098F8000010B1401E59
:1029800088F8000049480078401EC0B220B90A20EB
:10299000397809B1491E397044490870444890F8A3
:1029A000009001254FF0000B00203070FFF70AFF68
:1029B000DAF800000078142818BF042818BF24286B
:1029C00003D13C48007838701CE0022814D1FFF78E
:1029D00003FF2B48B0F90000002809D005D5BBF152
:1029E000010F05DA4FF0FF3B06E0BBF1000F01D508
:1029F000002501E04FF0010B3078401C3070C0B270
:102A00000528D3D398F8000039780843AFD12A4875
:102A1000007888F8000015B1284890F8009089F0F7
:102A2000FF00401CC5B2B9F1000FA0D000203070EB
:102A3000FFF7C8FEDAF80000017802290DD181897C
:102A4000C27B02EB01214289120202FB09F201FB67
:102A500005210A0C8281090AC1733078401C30704C
:102A6000C0B20528E4D382E74FF0FF302060BDE814
:102A7000F18F0000BD010020280100205C02002031
:102A800066020020BF010020BE010020C00100201E
:102A9000C10100202C010020DC0100206002002088
:102AA000AC010020C7010020C6010020C8010020A1
:102AB000C5010020C3010020C2010020C401002084
:102AC0007047FEE7FEE7FEE7FEE7FEE7FEE7FEE70C
:102AD00010B5FFF7AEFC6D490888401C088080B235
:102AE0000A2190FBF1F101EB8102B0EB420135D1FB
:102AF00067490A6842F001020A60322390FBF3F44E
:102B000003FB140353BB42F002020A60642390FBF0
:102B1000F3F403FB14030BBB42F004020A60C82366
:102B200090FBF3F403FB140313B942F008020A60AC
:102B30004FF4967290FBF2F302FB13021AB90A6883
:102B400042F020020A604FF4FA7290FBF2F302FBAB
:102B5000130018B9086840F01000086010BD10B5E7
:102B60004C4C01212046FEF718FD88B1012120467A
:102B7000FEF757FD484801680978C288521CC28098
:102B800090F8D030582B04D30322027101B9C180D0
:102B900010BD04792CB1022C29D01AD3032CF5D006
:102BA00010BD71B992B2B2F5FA7FF0D380F8D010AF
:102BB0000281012180F8D0100021C1800121017122
:102BC00010BD4FF6FE7192B28A42E1D14FF6FD710F
:102BD000DDE70129DCD100EB43010A8190F8D01038
:102BE000491C80F8D0100021C1800221E7E731B9EB
:102BF00000EB43010A8190F8D010491CDAE740F25B
:102C0000F51192B28A42C3D30321D8E738B5234CD9
:102C10002088401C2080224D80B222490988A1F5DD
:102C20007A71214A128851434FF47A72B1FBF2F162
:102C3000884206D100212846FEF720FC0020208093
:102C400004E01A48018881F40051018001212846DE
:102C5000BDE83440FEF7E5BC0120FFF7C6BA80B5F9
:102C60004FF48040FFF7E2F970B11148018881F01C
:102C7000800101804FF48040FFF708FA4FF4801084
:102C8000BDE80240FFF7B1BA01BD000064020020B8
:102C90004C02002000100040540000206802002078
:102CA0000014004050000020520000201408024090
:102CB0001404024082B02F48016841F48071016021
:102CC00081682D4A1140816001682C4A11400160E1
:102CD000016821F480210160816821F47D01816017
:102CE0000021C16001910091016841F00101016082
:102CF000016801F0020100910199491C01910099BC
:102D000019B90199B1F5A06FF2D10168490801F034
:102D100001010091009901292AD119490A6842F05C
:102D200004020A600A6842F002020A600A6842F07D
:102D300001020A60416A41F08051416211494FF439
:102D400000620A604A68D206FCD4816881608168AA
:102D500081608168816081688908890081608168FB
:102D600041F001018160816801F00C010429FAD170
:102D700002B07047003802400CC0FF88FEFFFEEE34
:102D8000003C02400070004010B5074979441831FA
:102D9000064C7C44163404E0081D0A685118884724
:102DA0000146A142F8D110BD080000002800000033
:102DB0001FE2FFFF18020000540000200000000086
:102DC000CBDAFFFF540000004C010000000000209F
:102DD0000000000000F009F8002801D0FFF7D4FF40
:102DE0000020FDF73FFF00F002F80120704700F0DF
:102DF00001B800000746384600F002F8FBE7000083
:102E000001491820ABBEFBE72600020001020908B9
:102E1000090000000200040000020001000200009E
:102E20000148804701480047B52C0008312E0008B2
:102E3000C046C046C046C046FFF7CCFFFFF740BEC5
:102E4000FFF73FBEFFF73EBEFFF73DBEFFF73CBEBC
:102E5000FFF73BBEFFF73ABEFFF739BEFFF738BEBC
:102E6000FFF7FEBFFFF7FEBFFFF7FEBFFFF7F7BE9E
:102E7000FFF7FEBFFFF7FEBFFFF7EEBEFFF7FEBF97
:102E8000FFF7FEBFFFF7FEBFFFF7FEBFFFF7FEBF76
:102E9000FFF7FEBFFFF7FEBFFFF7FEBFFFF7FEBF66
:102EA000FFF7FEBFFFF7FEBFFFF7FEBFFFF7FEBF56
:102EB000FFF7FEBFFFF7FEBFFFF7FEBFFFF7FEBF46
:102EC000FFF7FEBFFFF7FEBFFFF7FEBFFFF7FEBF36
:102ED000FFF7FEBFFFF7FEBFFFF7FEBFFFF7FEBF26
:102EE000FFF7FEBFFFF7FEBFFFF7FEBFFFF7FEBF16
:102EF000FFF7FEBFFFF7FEBFFFF7FEBFFFF7FEBF06
:102F0000FFF7FEBFFFF7FEBFFFF7FEBFFFF727BECD
:102F1000FFF77CBE030406080C10182030000000E8
:102F2000000000000102040000000000000000009A
:102F300001020304060708090024F400030406083C
:102F40000C101820300000000000000001020304F3
:102F50000102030406070809000000000000000049
:082F600000000000D0072C0165
:0400000508002E3190
:00000001FF
