:020000040800F2
:10000000D006002031410008B13D0008B33D000892
:10001000B53D0008B73D0008B93D000800000000EC
:10002000000000000000000000000000BB3D0008D0
:10003000BD3D000800000000BF3D0008C13D0008B4
:10004000714100087541000879410008453F0008EA
:1000500081410008854100083F3F00088D410008AC
:100060009141000895410008994100089D41000810
:10007000A1410008A5410008A9410008AD410008C0
:10008000B1410008B5410008B9410008BD41000870
:10009000C1410008C5410008C9410008CD41000820
:1000A000D1410008D5410008D9410008DD410008D0
:1000B000E1410008E5410008E9410008ED41000880
:1000C000F1410008F5410008F9410008FD41000830
:1000D0000142000805420008094200080D420008DC
:1000E000114200081542000819420008753E000838
:1000F000293F0008022000F0AEFE00F005FEDFF808
:10010000F40B00684FF47A71B0FBF1F0B0F1807F2E
:100110000FD2DFF8E41B0002000A401E4860F02006
:1001200081F8130D0020886007200860D02081F836
:10013000130D00F045FF00F03FFD01F0DFF800F087
:10014000A3FD01F0D9F901F087FADFF8B00B012126
:1001500080F80010DFF8A84BDFF8A85B01F0DEFAAA
:10016000A8780028FAD00020A870214601F0A9FC48
:1001700000F001F8F2E730B581B001F0CFF900F0FE
:100180003DF8DFF8804B042001F04BFA20B9A0695C
:10019000DFF83C1C884203D1206880F48060206036
:1001A000DFF8305C2068400509D5012001F01DF81A
:1001B000022001F01AF80120287028760AE00120B8
:1001C00001F01BF8022001F018F8012085F840002A
:1001D00085F85800607A50B92068400507D401209E
:1001E00085F8540001B0BDE8304001F027BF012080
:1001F000287501B0BDE8304001F020BF2DE9F04185
:10020000DFF8004B607A052800F2D384DFE810F0B5
:1002100006007F00B000BC01C0028E03DFF8E07A68
:10022000387800F05CFF787800F08AFF01F05DF824
:1002300018B1072000F0D9FF02E0072000F0DDFF31
:10024000DFF8AC6ADFF83C5A022001F0EAF918B98D
:10025000022001F055F980B138782071787860710A
:10026000206820F480502060022060720020E0703E
:1002700028702873287130713070032001F0D1F993
:1002800010B901F03DF990B101202072DFF8487BF0
:10029000387200203873387138700320607201F0B2
:1002A000EFF800202870287328713071307000201A
:1002B00001F0B7F918B9012001F022F998B1042032
:1002C0002072DFF8147B00203872387338710120F7
:1002D00038700320607201F0D3F800202870287372
:1002E000287130713070012001F09BF928B903208A
:1002F00001F006F9002800F05C8401206072002003
:1003000028702873287130713070BDE8F081DFF8F3
:10031000F079387800F0E3FE787800F011FF00F013
:10032000E4FF18B1072000F060FF02E0072000F0B2
:1003300064FF062000F059FFDFF8485901202870BB
:1003400001F06FF928B9032001F0DAF8002800F075
:10035000308400206072062000F04FFF00202870DB
:1003600028732871DFF8886930713070BDE8F0813A
:10037000072000F03AFFDFF8786901203071DFF8DC
:100380000459287128732068C0047BD4607900F078
:10039000D7FE032001F052F910B901F04FF900E047
:1003A0000120207500F0A1FF217D084314BF2079B2
:1003B000582000F094FEE078401CE070032001F02B
:1003C0003DF978B901F03AF960B9042001F029F952
:1003D00040B9042001F032F920B9A069DFF8F01922
:1003E000884201D10020E070022001F01AF938B9EA
:1003F000A069DFF8E819884202D0E078592807D3CD
:10040000206880F4805020600020E07001F07AFEC7
:10041000032001F006F958B9032001F016F910B1D4
:100420002078C00604D4A069DFF8B41988420BD143
:10043000206820F0100020600020E070207917284C
:100440000CBF0020401C2071002001F0EAF858B9D0
:1004500001F0FBF810B12078C00605D4A069DFF8E0
:100460008419884240F0A583206820F010002060A5
:100470000020E070207900280CBF1720401E20715A
:10048000BDE8F081207900F02AFE032001F0D6F8C3
:1004900010B901F0D3F800E00120207500F025FF2D
:1004A000217D084314BF6079582000F049FEE078B0
:1004B000401CE070032001F0C1F878B901F0BEF8EB
:1004C00060B9042001F0ADF840B9042001F0B6F89D
:1004D00020B9A069DFF8F818884201D10020E07047
:1004E000022001F09EF838B9A069DFF8F0188842C0
:1004F00002D0E07859280DD300226179207900F0EC
:1005000082FD00206072287028732871307130706D
:1005100001F003FE032001F084F858B9032001F034
:1005200094F810B12078C00604D4A069DFF8B018A0
:1005300088420BD1206820F0100020600020E0707D
:1005400060793B280CBF0020401C6071002001F046
:1005500068F858B901F079F810B12078C00605D4D0
:10056000A069DFF88018884240F02383206820F0DB
:10057000100020600020E070607900280CBF3B2054
:10058000401E6071BDE8F081DFF8F8560120287147
:100590002873072000F031FE002000F082FD0320C8
:1005A00000F07FFD217A022000F04AFD0A2101209F
:1005B00000F046FD207A032802D300F09CFE01E003
:1005C00000F096FE00F026FEDFF80C78032001F024
:1005D00028F820B9A069DFF8081888424DD1207AA0
:1005E000042815D1002020723872387338713870A1
:1005F000052000F00FFE0020607200F041FF002097
:10060000287028732871DFF8E8663071307034E0A4
:10061000401CC0B2401E032826D8DFE800F01D159C
:100620000B020420207200203872387338710120C8
:10063000387022E0032020720020387238730120C5
:1006400038710020387018E00220207200203872C3
:1006500001203873002004E001202072387200204D
:1006600038733871387008E000202072387238739F
:1006700038713870052000F0CDFD002000F0D1FF6A
:1006800020B9A069DFF85C1788424DD1207A012893
:1006900015D10020207238723873387138700520F7
:1006A00000F0B8FD0020607200F0EAFE0020287023
:1006B00028732871DFF838663071307034E0401EDE
:1006C000C0B2401E032826D8DFE800F01D150B023B
:1006D000042020720020387238733871012038707D
:1006E00022E0032020720020387238730120387114
:1006F0000020387018E0022020720020387201209B
:100700003873002004E00120207238720020387312
:100710003871387008E000202072387238733871F0
:100720003870052000F076FD012000F07AFF40B916
:10073000A069DFF8B41688421CBFDFF8B016884203
:1007400014D1002020723872387338713870052047
:1007500000F060FD0120607200F092FE0020287021
:1007600028732871DFF8886530713070022000F03E
:1007700058FF28B9A069DFF86416884240F0198252
:100780000120A071042060720020E070BDE8F081BB
:10079000DFF85C6501203071DFF8E85428712873B8
:1007A000072000F022FD002000F01FFD002000F0D7
:1007B000C7FC032000F042FF10B900F03FFF00E04B
:1007C0000120207500F091FD217D084309D0A0791A
:1007D00000F085FCA0790A2806D2002000F061FC18
:1007E00002E0582000F07BFC207A032802D300F0BE
:1007F00082FD01E000F07CFD00F00CFDE078401C83
:10080000E070032000F01AFF78B900F017FF60B91C
:10081000042000F006FF40B9042000F00FFF20B9CB
:10082000A069DFF8AC15884201D10020E0700320F8
:1008300000F0F7FE58B9032000F007FF10B1207850
:10084000800604D4A069DFF8981588420BD120688F
:1008500020F0200020600020E070A0790F280CBF5D
:100860000120401CA071002000F0DBFE50B900F018
:10087000ECFE10B12078800604D4A069DFF864157E
:1008800088420BD1206820F0200020600020E0701A
:10089000A07901280CBF0F20401EA071012000F09C
:1008A000C0FE40B9A069DFF8401588421CBFDFF8E0
:1008B0003C15884214D100202072DFF81C75387274
:1008C000387338713870052000F0A4FC0120607284
:1008D00000F0D6FD00202870287328713071307028
:1008E000022000F09EFE20B9A069DFF8F0148842D3
:1008F00007D103206072002000F07FFC072000F089
:100900007CFCE0785928C0F0548105206072A07901
:10091000C0EB001188006082206820F40050206045
:1009200000F0AEFDBDE8F04101F0F7BBDFF8C063B9
:1009300001203071DFF84C5328712873002000F03B
:10094000B0FB032000F0ADFB072000F056FC217A3D
:10095000022000F075FB0A21012000F071FB00F07D
:10096000C4FC18B1002000F040FC01E000F045FCA0
:10097000207A032802D300F0BEFC01E000F0B8FCAE
:1009800000F048FCDFF85074032000F04AFE20B964
:10099000A069DFF84C1488424BD1207A042813D187
:1009A000002020723872387338713870052000F0DA
:1009B00031FC0020607200F063FD00202870287375
:1009C00028713071307034E0401CC0B2401E0328E2
:1009D00026D8DFE800F01D150B020420207200204D
:1009E0003872387338710120387022E00320207289
:1009F000002038723873012038710020387018E0F8
:100A0000022020720020387201203873002004E098
:100A1000012020723872002038733871387008E075
:100A2000002020723872387338713870052000F059
:100A3000F1FB002000F0F5FD20B9A069DFF8A41358
:100A400088424BD1207A012813D1002020723872BD
:100A5000387338713870052000F0DCFB00206072BC
:100A600000F00EFD0020287028732871307130705E
:100A700034E0401EC0B2401E032826D8DFE800F054
:100A80001D150B0204202072002038723873387153
:100A90000120387022E00320207200203872387361
:100AA000012038710020387018E0022020720020E8
:100AB000387201203873002004E00120207238725F
:100AC000002038733871387008E0002020723872C6
:100AD000387338713870052000F09CFB012000F05D
:100AE000A0FD40B9A069DFF8001388421CBFDFF801
:100AF000FC12884212D1002020723872387338718B
:100B00003870052000F086FB0120607200F0B8FC10
:100B1000002028702873287130713070022000F096
:100B200086FD18B1022000F090FD18B1A069AB4914
:100B3000884204D103206072002000F05EFB022096
:100B400000F083FDD8B14FF03C08608A90FBF8F0CC
:100B5000C0B200F0C4FA608A90FBF8F1C1EB011258
:100B6000A0EB8200C0B200F0EBFA00F0BEFB18B1BF
:100B7000072000F03AFB02E0072000F03EFB20686F
:100B8000800416D50020207238723873387138709E
:100B9000052000F03FFB0020607200F071FC002097
:100BA00028702873287130713070BDE8F04101F071
:100BB000A9BABDE8F081000030B581B000F0E4FBD7
:100BC0000121012001F0C5FB894C4FF480502060C9
:100BD000012020710020E08001206071854D2146B8
:100BE000284601F087FC4FF48051284601F022FD91
:100BF0000121032001F0ADFB1620206001202071AF
:100C0000A071E07160712146284601F073FC4FF439
:100C1000E0402060784D2146284601F06BFC012120
:100C2000022001F096FB4FF400402060002020716C
:100C3000E071012060712146284601F05BFC012132
:100C4000042001F086FB0F2020600120207100208D
:100C5000E080012060712146684801F04BFC0121D1
:100C6000022001F076FB802020600120207100200E
:100C7000E080012060712146284601B0BDE8304087
:100C800001F038BC8402404230B581B0012110200F
:100C900001F085FB5A4C1748006844F62061B0FB10
:100CA000F1F0401EA08000202060E080554D2146DC
:100CB000284601F095FD0121284601F0C6FE0122DB
:100CC0000121284601F040FE2B2020720B2060728B
:100CD0000120A072E07204F1080001F02FFF012151
:100CE000284601F0E7FD01B0BDE8304001F046BA0A
:100CF000B48240420000002010E000E0B082404298
:100D00008C0200200002002010B53F4C01F082FA56
:100D10002070201D01F084FA212001F064FB61693C
:100D200060F300016161292001F05DFB616960F3FE
:100D300041016161312001F056FB616960F382017C
:100D40006161392001F04FFB616960F3C3016161AA
:100D5000492001F048FB616960F3041161614120A1
:100D600001F041FB616960F345116161592001F0B7
:100D70003AFB616960F3861161615A2001F033FB2F
:100D8000616960F3C71161615B2001F02CFB61694F
:100D900060F3082161615C2001F025FB616960F36B
:100DA000492161615D2001F01EFB616960F38A21C8
:100DB00061615E2001F017FB616960F3CB21616125
:100DC0005F2001F010FB616960F30C31616110BDBF
:100DD000A758FB041C834042800241426798FB04F1
:100DE0007788FB04AF50FB046F90FB04BF40FB040B
:100DF000A802002000000240000402400008024057
:100E00009C0200200010004054020020FEE710B4B5
:100E100050F8041B81B102681218001D50F8043B01
:100E2000DC0744BFA9F10104E31852F8044B43F86E
:100E3000044B091FF9D1EBE710BC704710B5040053
:100E400018BF012C04D086210FF25000FFF7DEFFFF
:100E50001048046010BD30B581B004460025012C57
:100E600018BF022C0DD0042C18BF082C09D0102C50
:100E700018BF202C05D040F20F310FF22000FFF7F1
:100E8000C5FF05480068204218BF0125284601B06B
:100E900030BD000020000E4204700040433A5C3038
:100EA000304669726D77617265576F726B696E67F4
:100EB00041436861755C576F726B696E675C47543C
:100EC00053565F52616E6765486F6F645C4C696230
:100ED0007261726965735C53544D33324C3178786A
:100EE0005F5374645065726970685F4472697665B7
:100EF000725C7372635C73746D33326C3178785FDB
:100F00007077722E6300000000B583B0012001F0FD
:100F10006FF9492001F067FA0028FAD04FF48030C9
:100F200001F0D3F9012001F005FA00F0A6FC4148D8
:100F30007F214160FF2181600021016000F048FCB9
:100F4000002000F031FE4FF4801001F0D7FE4FF486
:100F50008010019000208DF8080008208DF809000D
:100F600001208DF80A0001A801F068FE03208DF829
:100F7000000001208DF8010000208DF80200012002
:100F80008DF8030000A801F0D9FD2B48E021017085
:100F9000002000F0D1FDFF2000F0F1FD4FF4804073
:100FA00000F07AFE4FF4801001F0A8FE01214FF40A
:100FB000804000F039FE012000F0F6FD03B000BDD6
:100FC00000B581B001214FF0805001F0E8F9012017
:100FD000FFF734FFFFF798FF184805214160012112
:100FE00001720D214172032101600021C1730221B0
:100FF00001731921417300218173002001B05DF854
:1010000004EBFFF71BBF70B504460D4616460120E2
:10101000FFF714FF09480021C173047345738673F9
:1010200000F10C01002000F047FC0020BDE87040FA
:10103000FFF704BF9002002003E400E080020020DC
:10104000F0B40FF2A842895C0FF2944202EB400226
:10105000507892789400DFF8502401F00103135582
:10106000DFF848344D1005F001051D55DFF84054F8
:101070008E1006F001062E55CE1006F00106DFF8A0
:1010800034743E5580000C1104F001042C548C1172
:1010900004F001041C54491101F001011154F0BC89
:1010A000704770B40FF2384101EB4000417880780E
:1010B0008000DFF8F42300231354DFF8F03300241A
:1010C0001C54DFF8EC4300252554DFF8E8530026D4
:1010D0002E54880026541E54165470BC704710B508
:1010E00018280FD20A2190FBF1F404EB8401A0EB45
:1010F0004101C9B20120FFF7A3FFE1B20020BDE822
:1011000010409DE7DFF8B003002180F8001380F85D
:10111000001280F80011017080F8FC1080F8FC11BA
:1011200080F8FC1280F8081380F8081280F8081183
:10113000017280F8041180F8041280F8041310BDC5
:1011400010B53C280FD20A2190FBF1F404EB840186
:10115000A0EB4101C9B20320FFF772FFE1B2022008
:10116000BDE810406CE7DFF85403002180F800135D
:1011700080F8001280F80011017080F8FC1080F8EF
:10118000FC1180F8FC1280F8201380F8201280F8FF
:10119000201180F8201080F8041180F8041280F8E3
:1011A000041310BDC6480088C64900F0010281F84A
:1011B0002820C0F3800281F85420C0F3400281F857
:1011C0005C200206D20F0A70C0F3801281F8502012
:1011D000C0F3C00281F85021C0F3001281F8502200
:1011E000C0F3401081F850037047B5490A880123C5
:1011F00003FA00F010430880D4E7B149082808BF7B
:10120000002005D00A88012303FA00F022EA00003A
:101210000880C7E710B518B1022812D005D327E01F
:10122000A74C208840F0080027E0A54C20884FF606
:10123000F77108402080FFF7B5FF208840F01000CC
:1012400022E09F4C20884FF6F77108402080FFF77E
:10125000A9FF20884FF6EF7108402080FFF7A2FF1A
:10126000208840F020002080BDE81040FFF79ABFA2
:10127000934C20884FF6F77108402080FFF792FFCB
:1012800020884FF6EF7108402080FFF78BFF208801
:101290004FF6DF7108402080BDE8104082E78A48A1
:1012A0008179491CC9B2082908BF0021817181795F
:1012B00004299241D20FC2704179491C4171C9B2CF
:1012C000032904BF002141718178491C8170C9B292
:1012D000032909D1002181700179491C0171C9B22A
:1012E000032904BF0021017170477748C078704717
:1012F00075480079704774484079704700B585B0EB
:1013000001214FF4007001F04AF8002000904FF4E2
:10131000701001900C200290402003900020049057
:1013200000A800F00FFD012000F0D0FD4FF4E050C8
:1013300000F05DFE002000F0F7FD602000F0D4FD1D
:1013400000F0BFFD012000F0A8FD012000F07AFEB2
:101350000028FAD0102000F075FE0028FAD04FF4D3
:101360008041002000F006FE554800210180042045
:1013700000F068FE0028FAD14021544801F008FD31
:1013800000F05CFE05B000BD10B582B001213F2029
:1013900000F0DFFF00A801F044F94FF4074000908F
:1013A00002208DF804004A4C00A9204601F0A2F862
:1013B0000B220821204601F063F90B220921204667
:1013C00001F05EF90B220A21204601F059F90B22A7
:1013D0000F21204601F054F94FF44E700090022086
:1013E0008DF804003B4C00A9204601F083F80B2245
:1013F0000321204601F044F90B220421204601F08C
:101400003FF90B220521204601F03AF90B22082171
:10141000204601F035F90B220921204601F030F970
:101420004FF4F050009002208DF804002A4C00A9DF
:10143000204601F05FF80B220921204601F020F937
:101440000B220A21204601F01BF90B220B2120461A
:1014500001F016F90B220C21204601F011F90420AD
:10146000009002208DF804001C4C00A9204601F0D9
:1014700041F80B220221204601F002F902B010BD12
:1014800000B581B00E4800210180042000F0DAFD93
:101490000028FAD140210D4801F07AFC01B05DF836
:1014A00004EB00F0CBBD0000808504428084044240
:1014B0008083044280820442F4820442A082044277
:1014C000C40200209C820442B00200201424004088
:1014D000000002400004024000080240000C0240EC
:1014E000111C1D1E1F070809101B00003F065B4F43
:1014F000666D7D077F6F7100064807490160704780
:10150000044901EB800090F8E80000F0010070470A
:1015100000000000480000203C82404270B56A4C48
:101520006A4D05262068C10706D54008400040F0F6
:101530000400206000F0E6FD2068810744BF20F031
:101540000600206020682978490704D5410707D4A0
:1015500040F0010003E0410702D540F002002060A6
:101560001435241D761EDDD170BD574801684A0729
:1015700008D54278092A28BF41F0080107D2511C3A
:10158000417005E000214170016821F0080101600F
:1015900041684A0708D54279092A28BF41F0080165
:1015A00007D2511C417105E000214171416821F0D1
:1015B0000801416081684A0708D5427A092A28BF94
:1015C00041F0080107D2511C417205E0002141722F
:1015D000816821F008018160C1684A0708D5427B13
:1015E000092A28BF41F0080107D2511C417305E0C8
:1015F00000214173C16821F00801C16001694A07F7
:1016000008D5427C092A28BF41F0080107D2511CA5
:101610004174704700214174016921F008010161A2
:101620007047294911F8200000F001007047264951
:1016300051F82000400800F001007047224951F89D
:101640002000800800F0010070471F4951F8200079
:10165000C00800F00100704700B581B000F03AF812
:101660001B48416841F003014160012141728169D9
:1016700041F00301816101214177C16A41F0030119
:10168000C162012180F83110016C41F00301016455
:10169000012180F84510416D41F0030141650121B0
:1016A00080F85910262180F8381080F839106FF032
:1016B000150180F83A103A2280F8602080F8612005
:1016C00080F8621001B000BD6C0200204C010020C7
:1016D0004801002010B5012080F310883A4C00200A
:1016E000E07020711420A071E0710A206071002068
:1016F000A070142020720A2060721420A0720020B2
:10170000E072207301F058FB01F04AFF02F026F866
:10171000002080F310880120207010BD10B52A4CE5
:101720002078401E0A284DD8DFE800F006181D2B4F
:10173000304C4C4C4C4C3D00012080F31088234829
:101740000168A26961F30002A261490849000160D1
:10175000002080F310880220207010BD01F090FF5F
:101760000320207010BD002084F8010002F011F861
:101770006078401C6070C0B20428F7D30420207049
:1017800010BD01F0C9FF0520207010BD042060705D
:1017900001F0FFFF6078401C6070C0B20528F7D3ED
:1017A0000B20207010BD02F01AFAA08B20820020BE
:1017B000A08394F820002075002084F820000120E8
:1017C000207010BDFEE70000DC010020D4010020E5
:1017D00030B581B0044600252068402818BF002895
:1017E00005D04FF4B771DFF83004FFF70FFB6068E6
:1017F000802805D340F26F11DFF81C04FFF706FBC9
:10180000A068B0F5005F05D34FF4B871DFF80804A5
:10181000FFF7FCFADFF80404CA21C1615321C1615A
:101820000095416849060FD44FF0FF31416041688F
:10183000009A521C0092009AB2F5005F01D049064E
:10184000F5D54168490613D5016821F040010160D2
:101850000168226811430160A16881608168626843
:1018600041EA02418160416821F080014160012527
:10187000FF21C161284601B030BD81B00020009039
:10188000DFF89C03CA21816153218161016821F045
:10189000A00101600168009A521C0092009AB2F502
:1018A000805F01D08906F5D50168FF228261480971
:1018B00000F0010001B07047F0B581B00E46002580
:1018C000DFF8504330B3DFF85073012804D040F202
:1018D00083213846FFF79AFA3078A168490640F12B
:1018E000B980010901EB810200F00F0000EB42001A
:1018F000C0B208B10D2804D340F299213846FFF751
:1019000085FAF078002818BF402800F0B38040F234
:101910009A21ACE03078A168490611D5401EC0B2CA
:101920000C2805D340F28921DFF8EC02FFF76EFAAC
:10193000F078002818BF40280BD040F28A2104E03C
:10194000F570182805D340F28F21DFF8CC02FFF79D
:101950005DFA70783C2805D340F29121DFF8B80297
:10196000FFF754FAB0783C2805D340F29221DFF813
:10197000A802FFF74BFA3078014600220A2805D367
:101980000A22B0FBF2F2F62000FB021141EA02103B
:1019900071780B4600220A2905D30A22B1FBF2F224
:1019A000F62101FB023343EA0211B3781F460022FD
:1019B0000A2B05D30A22B3FBF2F2F62303FB0277CC
:1019C000C0B20906090C41EA004047EA0211C9B257
:1019D0000843F17840EA0140CA2161625321616203
:1019E0000095E16849060FD44FF0FF31E160E168EE
:1019F000009A521C0092009AB2F5005F01D049068D
:101A0000F5D5E168490620D5DFF8181208402060B6
:101A1000E06820F08000E0600095CA2060625320FA
:101A20006062E06820F0A000E060E0680099491C76
:101A300000910099B1F5805F01D08006F5D5E0688E
:101A4000FF216162400900F00105FF206062284625
:101A500001B0F0BDF570010901EB810200F00F004B
:101A600000EB4200C0B2182804D340F29F21384650
:101A7000FFF7CCF97078010901EB810200F00F004B
:101A800000EB4200C0B23C2804D340F2A12138460A
:101A9000FFF7BCF9B078010901EB810200F00F00FB
:101AA00000EB4200C0B23C2804D340F2A2213846E9
:101AB000FFF7ACF930787178090241EA0040B1785B
:101AC00086E730B581B005000C4618BF012D05D062
:101AD00040F2F521DFF84001FFF798F9DFF8340113
:101AE0000068DFF840110840010C01F03F0222704D
:101AF000020A6270A07001F04000E070D5B9207851
:101B0000010901EB810200F00F0000EB42002070A0
:101B10006078010901EB810200F00F0000EB420048
:101B20006070A078010901EB810200F00F0000EB6A
:101B30004200A07001B030BD10B5040018BF012CE8
:101B40000DD0022C18BF032C09D0042C18BF062C72
:101B500005D04FF49A610FF28010FFF757F9DFF8C4
:101B60006801CA21C1615321C1610168C908C90066
:101B70000160016821430160FF21C16110BD10B502
:101B80000446B4F5803F05D340F2EB410FF2481014
:101B9000FFF73CF9DFF83401CA21016153210161EB
:101BA0000460FF21016110BD10B582B00446002021
:101BB0000090002C18BF012C05D04FF4A2610FF249
:101BC0001810FFF723F9DFF80011CA20C86153206D
:101BD000C861002C086807D040F4806008600120CC
:101BE000FF22CA6102B010BD20F48060086048681E
:101BF000009A521C0092009AB2F5005F01D0400793
:101C0000F5D54868800800F00100FF22CA6102B0E3
:101C100010BD000000280040D81C00080828004023
:101C20000C2800407F7F7F0030B581B004000D4656
:101C300002D02748044205D040F293710FF2980079
:101C4000FFF7E4F8002D18BF012D05D040F2947184
:101C50000FF28400FFF7DAF81B48CA21C161532153
:101C6000C16104F0040124F00402002D036808D0CF
:101C70001A430260826B11438163FF21C16101B08D
:101C800030BD23EA02020260826B22EA0101816315
:101C9000FF21C16101B030BD10B5040002D034F4A1
:101CA0003C3005D040F623010FF22C00FFF7AEF8D0
:101CB00008482103090C41F08001026802F080020B
:101CC00062EA0101016010BD0828004014280040AC
:101CD000FB0FFFFF0C280040433A5C30304669722E
:101CE0006D77617265576F726B696E6741436861AA
:101CF000755C576F726B696E675C475453565F52E1
:101D0000616E6765486F6F645C4C6962726172698D
:101D100065735C53544D33324C3178785F5374643F
:101D20005065726970685F4472697665725C73723F
:101D3000635C73746D33326C3178785F7274632EC8
:101D40006300000010B504462068002818BFB0F5F5
:101D5000800F2ED0B0F5000F18BFB0F5400F28D07F
:101D6000B0F1807F18BFB0F1A07F22D0B0F1C07F6A
:101D700018BFB0F1E07F1CD0B0F1007F18BFB0F108
:101D8000107F16D0B0F1207F18BFB0F1307F10D097
:101D9000B0F1407F18BFB0F1507F0AD0B0F1607F42
:101DA00018BFB0F1707F04D0B5210FF2EC20FFF71F
:101DB0002DF86068002818BFB0F5802F2ED0B0F540
:101DC000002F18BFB0F5402F28D0B0F5801F18BFE6
:101DD000B0F5A01F22D0B0F5C01F18BFB0F5E01FAE
:101DE0001CD0B0F5001F18BFB0F5101F16D0B0F50D
:101DF000201F18BFB0F5301F10D0B0F5401F18BF1E
:101E0000B0F5501F0AD0B0F5601F18BFB0F5701FB5
:101E100004D0B6210FF28020FEF7F8FFA06800285A
:101E200018BF042809D008281CBF0C28102804D08B
:101E3000B7210FF26420FEF7E9FFE06800281CBF1D
:101E40002028402804D0B8210FF24C20FEF7DEFFF6
:101E50002069002818BF022804D0B9210FF23820C9
:101E6000FEF7D4FF8648416821F07F7141604168E8
:101E7000226863681A431143416081688906FCD572
:101E8000016821F07E0101600168A268E3681A43DD
:101E900023691A431143016010BD30B581B00400BD
:101EA00018BF012C09D00FF2F015E2212846FEF7E9
:101EB000ADFFE5212846FEF7A9FF7248046001B096
:101EC00030BD714801688906FCD5704710B5040023
:101ED00018BF012C05D040F215110FF2BC10FEF70F
:101EE00095FF6A48046010BD10B5040018BF102C9F
:101EF00011D0202C18BF302C0DD0402C18BF502CE6
:101F000009D0602C18BF702C05D04FF496710FF2D9
:101F10008810FEF77BFF5E48016821F070010160C8
:101F200001682143016010BD10B5040018BF802C6A
:101F300017D0B4F5807F18BFB4F5C07F11D0B4F5C9
:101F4000007F18BFB4F5207F0BD0B4F5407F18BFD9
:101F5000B4F5607F05D040F243110FF23C10FEF75C
:101F600055FF4B48016821F460710160016821430D
:101F7000016010BD30B581B004000D4618BFB4F546
:101F8000803F0BD0B4F5003F18BFB4F5403F05D0FB
:101F90004FF4B1710FF20010FEF738FF002D18BF9B
:101FA000B5F5005F17D0B5F5804F18BFB5F5C04F38
:101FB00011D0B5F5004F18BFB5F5204F0BD0B5F5D2
:101FC000404F18BFB5F5604F05D040F263110FF2D6
:101FD000C800FEF71BFF2E48016821F4783101602C
:101FE000016845EA04021143016001B030BD10B53B
:101FF000040018BFB4F5806F17D0B4F5006F18BF98
:10200000B4F5406F11D0B4F5805F18BFB4F5A05F90
:102010000BD0B4F5C05F18BFB4F5E05F05D04FF446
:10202000BD710FF27400FEF7F1FE1948016821F44A
:10203000E051016001682143016010BD1548012194
:102040000160704730B581B004460025012C18BFEF
:10205000022C0DD0042C18BF082C09D0102C18BF4E
:10206000202C05D04FF406710FF22C00FEF7CEFEA7
:1020700005480068204218BF0125284601B030BD40
:102080000024004000800442082400401C800442D8
:102090000424004008810442433A5C3030466972AF
:1020A0006D77617265576F726B696E6741436861E6
:1020B000755C576F726B696E675C475453565F521D
:1020C000616E6765486F6F645C4C696272617269CA
:1020D00065735C53544D33324C3178785F5374647C
:1020E0005065726970685F4472697665725C73727C
:1020F000635C73746D33326C3178785F6C63642E1B
:10210000630000003648017821B901210170417057
:10211000002070474FF0FF3070473148017829B9EF
:102120000121017002214170002070474FF0FF3003
:10213000704710B52A4C2078C8B101466288904299
:1021400008D2012804BF274800F0B4FB2078401CC7
:10215000207010BD0021234800F0ACFB6078401EC9
:102160006070C1B2491E8941C943C90F217010BDB9
:102170001D48017881F001010170704710B584B0ED
:102180000121202000F00BF9184800684FF47A6113
:10219000B0FBF1F0401EADF8080000200190ADF852
:1021A0000A00104C01A9204600F01AFB012120462C
:1021B00000F04BFC01220121204600F0C5FB2C2041
:1021C0008DF800000A208DF8010001208DF8020032
:1021D0008DF8030000A800F0B1FC04B010BD0000B1
:1021E0004400002000140040B002404200000020E3
:1021F00010B504001CBF012C052C05D040F2BD1108
:102200000FF28420FEF702FEDFF848020021017081
:10221000047010BDDFF84002006800F00C00704749
:1022200010B4DFF82C124A6802F00C020C2A23D8F2
:10223000DFE802F022222222072222220A22222280
:102240000D00DFF8182220E0DFF814221DE04A68B4
:102250004B68C2F38342DFF80C42125DC3F3815333
:102260005B1C4C68E40354BFDFF8F041DFF8F04139
:102270006243B2FBF3F208E00A680123520B02F05A
:102280000702521C03FA02F2D20302604B68DFF825
:10229000D4210468C3F303139B181B7B24FA03F3B4
:1022A00043604B684468C3F302239B181B7B24FAEA
:1022B00003F3836049684368C1F3C2218918097B2D
:1022C00023FA01F1C16010BC704710B50446B4F5A3
:1022D000803F18BFB4F5003F14D0B4F5403F1CBF99
:1022E000DFF8840184420DD0DFF8800184421CBFF6
:1022F000DFF87C01844205D040F2E1310FF2881012
:10230000FEF784FDDFF8440104F44031B1F5403FAD
:1023100006D1016821F0C04104F0C04211430160C0
:10232000416B21F440314163416B04F4403211436D
:10233000416310BD10B5040018BF012C05D040F258
:1023400003410FF24410FEF761FDDFF8280104603D
:1023500010BD30B581B004460D46DFF81C010442C3
:1023600000D12CB940F22F410FF21C10FEF74EFDA8
:1023700075B1012D05D04FF486610FF20C10FEF7F8
:1023800045FDDFF8F80001682143016001B030BD70
:10239000DFF8E8000168A143016001B030BD30B54D
:1023A00081B004460D46DFF8D800044200D12CB9B4
:1023B00040F27C410FF2D000FEF728FD6DB1012DF7
:1023C00005D040F27D410FF2C000FEF71FFD2D4801
:1023D00001682143016001B030BD2A480168A14372
:1023E000016001B030BD30B581B004460025212C1C
:1023F00018BF312C1AD0292C18BF392C16D0492CD3
:1024000018BF412C12D05A2C18BF5B2C0ED05C2C5C
:1024100018BF5D2C0AD05E2C1CBF5F2C592C05D038
:1024200040F2B6510FF26000FEF7F0FC0748610978
:1024300001290CBF0068406B012104F01F0291408C
:10244000084218BF0125284601B030BD00380240BF
:102450000438024035380240083802400024F400B5
:1024600000127A0028000020000003200000034032
:1024700000000360D8064742C06FFFFE1C380240D0
:10248000C8B5194F24380240433A5C30304669726F
:102490006D77617265576F726B696E6741436861F2
:1024A000755C576F726B696E675C475453565F5229
:1024B000616E6765486F6F645C4C696272617269D6
:1024C00065735C53544D33324C3178785F53746488
:1024D0005065726970685F4472697665725C737288
:1024E000635C73746D33326C3178785F7263632E22
:1024F000630000002DE9F04381B004460D4600263C
:10250000DFF8580284421CBFDFF85402844214D022
:10251000DFF8500284421CBFDFF84C0284420CD02A
:10252000DFF8480284421CBFDFF84402844204D032
:10253000C1210FF24020FEF769FC286820B9C221B2
:102540000FF23020FEF762FC2879002818BF01281E
:1025500008D0022818BF032804D0C3210FF214208A
:10256000FEF754FCE87940B1012818BF022804D0D6
:10257000C4210FF20020FEF749FC012000FA06F802
:10258000286808EA0000404545D177000320B8409C
:102590006FEA0009206809EA0000206020682979B4
:1025A000B940084320602879012818BF022829D1A2
:1025B0006879002818BF012808D0022818BF03280E
:1025C00004D0D8210FF2AC10FEF720FCA06809EA75
:1025D0000000A060A0686979B9400843A060A879AC
:1025E000002818BF012804D0DF210FF28810FEF761
:1025F0000DFCA08820EA0800A080A088A979B1403D
:102600000843A080E06809EA0000E060E068E9793A
:10261000B9400843E060761C102EAED301B0BDE88F
:10262000F0834FF6FF7101600021017141718171EA
:10263000C171704730B581B004460D4647488442A9
:102640001CBF4748844211D0464884421CBF4648BC
:1026500084420BD0454884421CBF4548844205D083
:1026600040F29B110FF20C10FEF7D0FB2DB94FF486
:10267000CE710FF20010FEF7C9FB658301B030BDCB
:1026800070B506460D461446344886421CBF344891
:10269000864211D0334886421CBF334886420BD055
:1026A000324886421CBF3248864205D040F209219A
:1026B0000FF2C000FEF7AAFB002D18BF012D21D09C
:1026C000022D18BF032D1DD0042D18BF052D19D0C4
:1026D000062D18BF072D15D0082D18BF092D11D0B4
:1026E0000A2D18BF0B2D0DD00C2D18BF0D2D09D0A4
:1026F0000E2D18BF0F2D05D040F20A210FF27400E5
:10270000FEF784FB002C18BF012C16D0022C18BF3A
:10271000032C12D0042C18BF052C0ED0072C18BF88
:102720000A2C0AD00B2C1CBF0E2C0F2C05D040F20B
:102730000B210FF24000FEF769FBE81006EB80006A
:1027400005F007018900026A0F238B409A43026259
:10275000026A04FA01F11143016270BD00000240F7
:102760000004024000080240000C02400010024039
:1027700000140240433A5C30304669726D776172F2
:1027800065576F726B696E6741436861755C576F1F
:10279000726B696E675C475453565F52616E676532
:1027A000486F6F645C4C69627261726965735C53F7
:1027B000544D33324C3178785F537464506572698C
:1027C00070685F4472697665725C7372635C73747F
:1027D0006D33326C3178785F6770696F2E630000FB
:1027E00030B581B004460D46B4F1804F1CBFDFF810
:1027F000380184421CD0DFF8340184421CBFDFF86A
:102800003001844214D0DFF82C0184421CBFDFF871
:10281000280184420CD0DFF8240184421CBFDFF879
:102820002001844204D0FA21DFF81801FEF7EEFA05
:102830006888002818BF102809D020281CBF40280D
:10284000602804D0FB21DFF8FC00FEF7DFFAE888FF
:1028500000281CBFB0F5807FB0F5007F04D0FC21BC
:10286000DFF8E000FEF7D2FA2088B4F1804F1FBFF6
:10287000DFF8B4108C42DFF8B4108C4204D14FF66C
:102880008F71084069880843DFF8A4108C421CBF90
:10289000DFF8A0108C4204D04FF6FF410840E988D1
:1028A00008432080A888A085288820850120A08250
:1028B00001B030BD30B581B004460D46B4F1804F53
:1028C0001CBF1948844218D0184884421CBF1848BD
:1028D000844212D0174884421CBF174884420CD04F
:1028E000164884421CBFDFF85800844205D040F2ED
:1028F0001A21DFF85000FEF789FA6DB1012D05D0DD
:1029000040F21B21DFF83C00FEF780FA208840F0FF
:102910000100208001B030BD20884FF6FE710840D4
:10292000208001B030BD00000004004000080040DD
:10293000001000400014004000080140000C01405D
:1029400000100140D02A000870B504460D46164616
:10295000B4F1804F1CBF564884421AD05548844277
:102960001CBFDFF86001844213D0DFF85C018442B1
:102970001CBF514884420CD0504884421CBFDFF831
:102980004001844205D040F26A71DFF84001FEF751
:102990003DFA4FF6A070054200D12DB940F26B719F
:1029A000DFF82801FEF732FA5EB1012E05D040F2C1
:1029B0006C71DFF81801FEF729FAA0892843A0817D
:1029C00070BDA089A843A08170BD70B506460C46B5
:1029D0000025B6F1804F1CBF354886421AD03548D5
:1029E00086421CBFDFF8DC00864213D0DFF8D80037
:1029F00086421CBF304886420CD0304886421CBFFD
:102A0000DFF8BC00864205D04FF4FF61DFF8BC0060
:102A1000FEF7FCF9012C18BF022C0DD0042C18BFB6
:102A2000082C09D0102C18BF402C05D040F2F971A9
:102A3000DFF89800FEF7EAF9308AB1892140204298
:102A40001CBF00290125284670BD30B581B0044661
:102A50000D46B4F1804F1CBF1548844219D015486B
:102A600084421CBFDFF85C00844212D0DFF85800BB
:102A700084421CBF104884420BD0104884421CBFC3
:102A80000F48844205D040F61F01DFF84000FEF7F2
:102A9000BDF94FF6A070054200D12DB94FF4026187
:102AA000DFF82800FEF7B2F9E843208201B030BD1C
:102AB000000400400008004000080140000C0140F4
:102AC000001001400010004000140040D02A00080F
:102AD000433A5C30304669726D77617265576F7248
:102AE0006B696E6741436861755C576F726B696EA5
:102AF000675C475453565F52616E6765486F6F64F9
:102B00005C4C69627261726965735C53544D333217
:102B10004C3178785F5374645065726970685F44B3
:102B200072697665725C7372635C73746D33326C58
:102B30003178785F74696D2E6300000070B50446CB
:102B4000E078002818BF012804D08C210FF28800FB
:102B5000FEF75CF96078102804D38D210FF278001D
:102B6000FEF754F9A078102804D38E210FF26800E4
:102B7000FEF74CF9227811460120E378E3B1124ABE
:102B8000126802F4E062C2F5E062120A6378C2F1F0
:102B90000405AB40A5780F2626FA02F22A401A4314
:102BA00012010A4BCA5421784A11094B01F01F0146
:102BB000884043F8220070BD4911064B02F01F0205
:102BC000904043F8210070BD0CED00E000E400E00F
:102BD00000E100E080E100E0433A5C303046697299
:102BE0006D77617265576F726B696E67414368619B
:102BF000755C576F726B696E675C475453565F52D2
:102C0000616E6765486F6F645C4C6962726172697E
:102C100065735C53544D33324C3178785F53746430
:102C20005065726970685F4472697665725C737230
:102C3000635C6D6973632E630000000030B581B082
:102C400004462079002818BF042804D081210FF2FF
:102C5000D400FEF7DBF8607908281CBF0C28102888
:102C600004D082210FF2BC00FEF7D0F82068C10D1D
:102C7000C90500D120B983210FF2A800FEF7C6F8DC
:102C8000A07980B3012806D084210FF29800FEF7C6
:102C9000BDF8A07938B321480168226891430160EA
:102CA000416822689143416022798218136825683F
:102CB0002B431360826823689A438260C26823684A
:102CC0009A43C26062792368102A08D18168194347
:102CD0008160C16822681143C16001B030BD8218B3
:102CE0001068184307E0207900F1804202F5823233
:102CF000106821688843106001B030BD10B50446EB
:102D0000E00DC00500D12CB94FF492710FF2140000
:102D1000FEF77CF80248046010BD0000000401408A
:102D200014040140433A5C30304669726D77617239
:102D300065576F726B696E6741436861755C576F69
:102D4000726B696E675C475453565F52616E67657C
:102D5000486F6F645C4C69627261726965735C5341
:102D6000544D33324C3178785F53746450657269D6
:102D700070685F4472697665725C7372635C7374C9
:102D80006D33326C3178785F657874692E6300003A
:102D9000002200F0EFBF50F8041B61B150F8042B83
:102DA000D30744BFA9F101039A18002342F8043B5A
:102DB000091FFAD1EFE77047DFF8B807016841F063
:102DC00001010160DFF8B0178A6842F0C0028A6032
:102DD000026842F0020202608A6842F440328A606D
:102DE000026842F004020260CA6842F4F872CA60E3
:102DF000826842F000428260086840004008086033
:102E0000DFF878070188018081688160B0F80014DC
:102E1000A0F80014D0F80814C0F80814B0F800188E
:102E2000A0F80018D0F80818C0F808180188018028
:102E300081688160B0F80014A0F80014D0F808147C
:102E4000C0F80814B0F80018A0F80018D0F8081856
:102E5000C0F80818FFE730B581B0DFF82447DFF885
:102E600018572868204028606868800880006860DB
:102E7000012080F31088DFF80C07818A4FF67F72FB
:102E800011408182016821F4404141F48041016098
:102E9000B0F814144FF6FD721140A0F81414D0F8D5
:102EA000001421F00C0141F00401C0F80014B0F846
:102EB00014184FF65F721140A0F81418D0F80018DB
:102EC00021F44C4141F48841C0F80018818A4FF642
:102ED000BF7211408182016821F4405141F4805158
:102EE0000160B0F814144FF6FE721140A0F81414EB
:102EF000D0F800148908890041F00101C0F80014DD
:102F0000B0F814184FF6AF721140A0F81418D0F8AA
:102F1000001821F44C5141F48851C0F80018818AFE
:102F2000818201680160B0F81414A0F81414D0F87C
:102F30000014C0F80014B0F814184FF6FF621140E6
:102F4000A0F81418D0F8001821F4403141F4803171
:102F5000C0F80018002080F31088642000F01AFBED
:102F6000286820402860686880088000686001B098
:102F700030BD2DE9F04F81B00024DFF80C562C60F5
:102F80006C60AC60EC602C616C61DFF8F485DFF89C
:102F9000E875386808EA00003860786880088000C2
:102FA0007860012080F31088DFF8D865B08A4FF68A
:102FB0007F710840B082306820F4404040F4804087
:102FC0003060B6F814044FF6FD710840A6F81404FA
:102FD000D6F8000420F00C0040F00400C6F800040D
:102FE000B6F814084FF65F710840A6F81408D6F832
:102FF000000820F44C4040F48840C6F80008B08A2D
:103000004FF6BF710840B082306820F4405040F461
:1030100080503060B6F814044FF6FE710840A6F8F0
:103020001404D6F800048008800040F00100C6F8BF
:103030000004B6F814084FF6AF710840A6F814085B
:10304000D6F8000820F44C5040F48850C6F8000828
:1030500084F31088322000F09DFA012080F310885C
:10306000306820F440503060D6F8000480088000BA
:10307000C6F80004D6F8000820F44C50C6F8000842
:1030800084F310884FF6FC7944F2401A48F2802B02
:1030900038684BEA00003860786840F002007860D9
:1030A000012080F31088B08A40F04000B082306880
:1030B00020F4405040F480503060B6F8140440F0E2
:1030C0000100A6F81404D6F800048008800040F03F
:1030D0000100C6F80004B6F8140840F05000A6F845
:1030E0001408D6F8000820F44C5040F48850C6F874
:1030F0000008002080F3108800F056FE287DC007ED
:1031000007D4308A800704D52C80686940F001001C
:103110006861287D400608D4B6F81004800404D500
:10312000AC81686940F040006861287D000608D4E1
:10313000B6F81008800704D5EC81686940F080007B
:1031400068616869800508D4B6F81008000604D5DF
:103150006C82686940F400706861287D000707D4BC
:10316000308A800504D5EC80686940F00800686109
:10317000287DC00607D4308A400404D52C816869B4
:1031800040F010006861287D800707D4308A00066F
:1031900004D56C80686940F002006861287D4007B2
:1031A00008D4B6F81004800704D5AC80686940F0F4
:1031B00004006861287D800608D4B6F810048006F3
:1031C00004D56C81686940F0200068616869C005B9
:1031D00008D4B6F81008800604D52C82686940F43B
:1031E00080706861641C012080F31088306820F4CE
:1031F00040503060D6F8000480088000C6F8000413
:10320000D6F8000820F44C50C6F80008002080F3DF
:10321000108838684AEA00003860786840F0010099
:10322000786000F0C3FD012080F31088306820F43E
:1032300040403060D6F8000420F00C00C6F80004CE
:10324000D6F8000820F44C40C6F80008002080F3AF
:103250001088386808EA00003860786809EA0000D9
:10326000786041F2A940A4B2844203D300BF01B008
:10327000BDE8F08F288B6969014081427FF408AF77
:1032800001B0BDE8F08F2DE9F04F81B00024BF4DB3
:103290002C606C60AC60EC602C616C61DFF8F092CB
:1032A000B54F386809EA000038604FF6F978786859
:1032B00008EA00007860012080F31088B14EB08ADF
:1032C0004FF67F710840B082306820F4404040F4EF
:1032D00080403060B6F814044FF6FD710840A6F83F
:1032E0001404D6F8000420F00C0040F00400C6F8E6
:1032F0000004B6F814084FF65F710840A6F81408E9
:10330000D6F8000820F44C4040F48840C6F8000885
:10331000B08AB08230683060B6F81404A6F814049D
:10332000D6F80004C6F80004B6F814084FF6FF619A
:103330000840A6F81408D6F8000820F4403040F4FD
:103340008030C6F8000884F31088322000F022F99B
:10335000012080F3108830683060D6F80004C6F889
:103360000004D6F8000820F44030C6F8000884F3C2
:103370001088012080F31088306820F440403060CD
:10338000D6F8000420F00C00C6F80004D6F80008B7
:1033900020F44C40C6F8000884F3108841F2A94A92
:1033A00048F2802B38684BEA00003860786840F0BB
:1033B00002007860012080F31088B08AB082306803
:1033C0003060B6F81404A6F81404D6F80004C6F861
:1033D0000004B6F8140840F48070A6F81408D6F873
:1033E000000820F4403040F48030C6F80008002087
:1033F00080F3108800F0D8FC287DC00707D4308AFD
:10340000800704D52C80686940F001006861287D40
:10341000400608D4B6F81004800404D5AC8168696D
:1034200040F040006861287D000608D4B6F8100816
:10343000800704D5EC81686940F0800068616869A4
:10344000800508D4B6F81008000604D56C826869B7
:1034500040F400706861287D000707D4308A800539
:1034600004D5EC80686940F008006861287DC006DA
:1034700007D4308A400404D52C81686940F01000DC
:103480006861287D800707D4308A000604D56C80E7
:10349000686940F002006861287D400708D4B6F8EA
:1034A0001004800704D5AC80686940F004006861AE
:1034B000287D800608D4B6F81004800604D56C81F7
:1034C000686940F0200068616869C00508D4B6F8F2
:1034D0001008800604D52C82686940F48070686109
:1034E000012080F3108830683060D6F80004C6F8F8
:1034F0000004D6F8000820F44030C6F80008002088
:1035000080F31088641C38683860786840F00400E4
:10351000786000F04BFC012080F31088306820F4C4
:1035200040403060D6F8000420F00C00C6F80004DB
:10353000D6F8000820F44C40C6F80008002080F3BC
:103540001088386809EA00003860786808EA0000E6
:103550007860544503D300BF01B0BDE8F08F288BDD
:103560006969014081427FF41DAF01B0BDE8F08F71
:10357000000000001C380240087C004004000240AB
:103580003F3CFFFF000002401C02002038020020E8
:103590007F7DFFFF00E0401E80B20028FBD1704716
:1035A00010B5354C0020A06160612061E06184F8B5
:1035B00028002046FEF734FE60684FF4FA61B0FB45
:1035C000F1F0B0F1807F0CD22C490002000A401EBD
:1035D0004860F02081F8130D002088600720086003
:1035E00010BDFEE72448416982690369142B10D39A
:1035F000143B0361491CC3695B1CC3610A2922BFD8
:103600000A39521C0A2A04D30A3A836A43F0010396
:10361000836282614161704710B5174C2069401C7C
:103620002061E06A10B1E06A401EE062FFF7DAFF55
:10363000A06A810704D520F00600A062C82020629D
:10364000A06A010704D520F01800A062C8206062BB
:10365000206A30B1401E206203D1A06A40F004000D
:10366000A062606A30B1401E606203D1A06A40F07F
:103670001000A06210BD0000AC01002010E000E0CE
:1036800070B5DFF82C4300202083DFF82853DFF8E3
:10369000286330788821084203D1DFF820030088AE
:1036A0002083307D084205D1208BDFF81013498834
:1036B0000843208396F828008821084205D1208BF2
:1036C000DFF8F81289880843208396F83C008821A7
:1036D000084205D1208BDFF8E412C9880843208313
:1036E00004202870208BB0B1FFF743FCDFF8D00234
:1036F000017834F811107181417834F81110F18398
:10370000817834F811107186C07834F81000A6F86A
:1037100046000420287070BD70B5DFF8A842002074
:103720002083DFF89052DFF8906296F850008821ED
:10373000084203D1DFF88402008920830520287025
:10374000208B50B1FFF79FFDDFF87C02007834F842
:103750001000A6F85A000520287070BD70B5954C71
:10376000002020706FF01105DFF8606200F03AF978
:1037700030688021017030684521017430684174DF
:10378000306885742078401C2070C0B20528EDD3C5
:1037900070BD10B500F026F900F02EF98B4C2068B2
:1037A0000178012973D002290CD0042940D00829BE
:1037B00012D011295AD0142923D0242942D080298B
:1037C00072D076E04089323841F2774180B2884247
:1037D00067D200F06FF820680079800758BF00F0CA
:1037E00094F920687A490A8883881A430A807949BB
:1037F0000A7803781A430A70416821F00801416091
:1038000010BD7549B1F9001090F9100081420CDB30
:1038100000F08EF92068817B491E81732068807BCF
:103820000028DED100F01FF9DBE700F003F9D8E74C
:103830004089323841F2774180B2884231D200F07B
:1038400072F8C8E790F91110634AB2F9002091426A
:1038500009DB817B491E81732068807B0028C0D1F1
:1038600000F0D4F8BDE700F017F9BAE790F91210AC
:10387000594AB2F900209142D7DB817B491E8173FE
:103880002068807B0028ACD100F014F9A9E74089BA
:10389000323841F2774180B2884202D200F075F8A6
:1038A00099E700F01FF99CE7007900F00300032876
:1038B000E9E7FEE730B581B0474DB5F90000434C6C
:1038C000216891F91220824204DB01B0BDE830404A
:1038D00000F0E7B891F91010884222DB00F0BAF846
:1038E0003E480078E8B92068817B491C8173B5F9AE
:1038F0000000216891F9101088420DDB00F018F9E2
:103900002068817B491E81732068807B48B901B0A3
:10391000BDE8304000F0A7B801B0BDE8304000F08D
:1039200089B801B030BD30B581B02B4C274D286827
:1039300090F91100B4F9001088421FDB00F0A3F8E1
:1039400027480078F8B92868817B491C817328686A
:1039500090F91110B4F9002091420ADB817B491ED5
:1039600081732868807B70B901B0BDE8304000F0F9
:103970004DB801B0BDE8304000F08EB801B0BDE8F0
:10398000304000F019B901B030BD104801688A8993
:103990004B899A188A810A7A521E0A720068017A43
:1039A00021B98189C908818100F030B870470000D1
:1039B0001C020020DD0100204801002024410008F5
:1039C0001C4100083802002020410008B8020020F5
:1039D000F8010020FC010020C8020020DF010020C7
:1039E000E0010020D148007800EB8001D04800EBD6
:1039F0008100D04908607047CE480068B0F90C10CB
:103A0000B0F90A00081ACC4908807047C948016813
:103A10004A6842F008024A6002220A70006841685F
:103A200021F00401416021F08001416021F020017A
:103A300041607047BF48016802220A70006841680F
:103A400021F00401416021F08001416021F020015A
:103A500041607047B748016814220A700068B7498E
:103A6000097881737047B348016804220A700068BE
:103A7000416841F00401416041F008014160B049F2
:103A8000097801727047AB48016824220A70006807
:103A9000AC49097881737047A64800680421017019
:103AA0007047A448016811220A700068A649097885
:103AB000817370479F48016801220A7001684A6853
:103AC00022F004024A6042F008024A6022F08002BA
:103AD0004A6022F020024A6008220A72006800212F
:103AE000818170479348016808220A700068416824
:103AF00021F00401416041F00801416021F08001A2
:103B0000416041F02001416070478A48016880228D
:103B10000A700068416821F00401416041F0080129
:103B2000416021F08001416021F020014160704737
:103B30008048006841680A0600D5704770B4427A30
:103B40007A4B1B787A4C6BB1657A1646354207D0B2
:103B500025792D0604D5817B491C817370BC704783
:103B6000012B08D0657F1646354202D0257E2D06F2
:103B7000F1D4022B09D094F83150354203D094F897
:103B80002C502D06E7D4032B09D094F8455035422C
:103B900003D094F840502D06DDD4042B07D094F8C0
:103BA0005930134203D094F854201206D3D441F074
:103BB0008001416070BC704764480078C0070DD533
:103BC0005F48007850B15B4801680A7A521E0A7259
:103BD0000068007A002808BFFFF76CBF70472DE926
:103BE000F04F012080F3108859485A490A68026052
:103BF00000220A6082F310884FF0FF314E4A4D4B8D
:103C0000DFF82C81494DDFF85091DFF850A10468AE
:103C1000002C00F08880641E04609AF80040002C9C
:103C20001CBF641E8AF800404D4C2478641E5FFA65
:103C300084FCBCF1000F08D14FF00A0C99F8004049
:103C4000002C1CBF641E89F80040454C84F800C05D
:103C5000444C94F800C04FF0010E00242C704646EE
:103C60001E603778142F18BF042F18BF242F04D1DB
:103C70003D4C247889F800401DE0022F14D1B6F99C
:103C80000CB0B6F90A70ABEB070717803FB2002FF4
:103C900006D003D5012C03DA0C4605E0002C02D532
:103CA0004FF0000E00E001242F787F1C2F70143697
:103CB000FFB2052FD4D39AF8004099F8006034433E
:103CC000A5D12A4C24788AF80040BEF1000F1CBF11
:103CD000274C94F800C08CF0FF04641C5FFA84FE4B
:103CE000BCF1000F93D000242C702C7804EB8406D8
:103CF00008EB86041C602678022E0DD1A689E77B8E
:103D000007EB062667893F0207FB0CF706FB0E76DA
:103D1000370CA781360AE6732C78641C2C70E4B249
:103D2000052CE2D373E70160BDE8F08FDD010020D0
:103D300048010020B8020020C8020020DF01002056
:103D4000DE010020E0010020E1010020F40100205C
:103D5000BC020020C8010020E7010020E60100208D
:103D6000E8010020E5010020E3010020E20100203D
:103D7000E401002000B500BF1300964694461039B8
:103D800028BFA0E80C50FAD85FEA417C28BF0CC0DD
:103D900048BF40F8042BC90728BF20F8022B48BFB2
:103DA00000F8012B00BD000000BF704700BF704746
:103DB0007047FEE7FEE7FEE7FEE7FEE7FEE7FEE709
:103DC00030B581B0FFF728FC764CA078401CA0707D
:103DD000C0B2192805D10020A070206840F08000F2
:103DE0002060714D2888401C288080B20A2190FBF9
:103DF000F1F101EB8102B0EB420138D1216841F0D1
:103E000001012160322290FBF2F302FB130070BB30
:103E100041F002002060FEF78CF92888642190FBB5
:103E2000F1F201FB120111BB216841F00401216094
:103E3000C82290FBF2F302FB130212B941F0100109
:103E400021604FF4967190FBF1F201FB120119B958
:103E5000216841F0400121604FF4FA7190FBF1F2CA
:103E600001FB120018B9206840F02000206001B06A
:103E700030BD000010B54D4C01212046FEF7A5FDD8
:103E800088B101212046FEF7E0FD49480168097824
:103E9000C288521CC28090F8D030582B04D3032221
:103EA000027101B9C18010BD0479032CFBD8DFE891
:103EB00004F0041C2B02F4E7F5E771B992B2B2F5F5
:103EC000FA7FEFD380F8D0100281012180F8D01062
:103ED0000021C1800121017110BD4FF6FE7192B227
:103EE0008A42E0D14FF6FD71DCE70129DBD100EB1E
:103EF00043010A8190F8D010491C80F8D0100021AD
:103F0000C1800221017110BD31B900EB43010A816A
:103F100090F8D010491CD9E740F2F51192B28A42CC
:103F2000C1D30321017110BD00B581B0FEF720F9A6
:103F30000121204801B05DF804EBFEF786BD0120A9
:103F4000FEF7DCBE10B51748016841F008010160BA
:103F5000194A13785B1CDBB2082B0ED1002354885E
:103F6000641C5480447A052C07D1448A002C07BF76
:103F700041F400510160611E41821370FDF7F5FAB2
:103F8000FDF78DF90120FCF759FF4FF48040FDF754
:103F900083FE4FF48010FEF7B1FE0020BDE8104014
:103FA000FCF74CBF00020020C602002000100040B9
:103FB0004800002000140040C002002082B03248B7
:103FC000016841F4807101608168304A114081606C
:103FD00001682F4A11400160016821F480210160CD
:103FE000816821F47D0181600021C160019100910F
:103FF000016841F001010160016801F002010091D6
:104000000199491C0191009919B90199B1F5A06F65
:10401000F2D10168490801F00101009100990129DC
:104020002FD1D0F8001441F00401C0F80014D0F8EA
:10403000001441F00201C0F80014D0F8001441F05F
:104040000101C0F80014416A41F0805141621149F8
:104050004FF400620A604A68D206FCD4816881602D
:1040600081688160816881608168890889008160D8
:10407000816841F001018160816801F00C0104292F
:10408000FAD102B070470000003802400CC0FF882F
:10409000FEFFFEEE0070004010B50749794418316C
:1040A000064C7C44163404E0081D0A685118884701
:1040B0000146A142F8D110BD080000002800000010
:1040C000D7ECFFFF84020000480000200000000041
:1040D0003FCDFFFF480000004C0100000000002021
:1040E0000000000000F009F8002801D0FFF7D4FF1D
:1040F0000020FBF7FFFF00F002F80120704700F0FE
:1041000001B800000746384600F002F8FBE700005F
:1041100001491820ABBEFBE7260002000102090896
:10412000090000000200040000020001000200007B
:104130000148804701480047BD3F00084141000851
:10414000C046C046C046C046FFF7CCFFFFF730BEB2
:10415000FFF72FBEFFF72EBEFFF72DBEFFF72CBED9
:10416000FFF72BBEFFF72ABEFFF729BEFFF728BED9
:10417000FFF7FEBFFFF7FEBFFFF7FEBFFFF7E2BE90
:10418000FFF7FEBFFFF7FEBFFFF7D9BEFFF7FEBF89
:10419000FFF7FEBFFFF7FEBFFFF7FEBFFFF7FEBF53
:1041A000FFF7FEBFFFF7FEBFFFF7FEBFFFF7FEBF43
:1041B000FFF7FEBFFFF7FEBFFFF7FEBFFFF7FEBF33
:1041C000FFF7FEBFFFF7FEBFFFF7FEBFFFF7FEBF23
:1041D000FFF7FEBFFFF7FEBFFFF7FEBFFFF7FEBF13
:1041E000FFF7FEBFFFF7FEBFFFF7FEBFFFF7FEBF03
:1041F000FFF7FEBFFFF7FEBFFFF7FEBFFFF7FEBFF3
:10420000FFF7FEBFFFF7FEBFFFF7FEBFFFF7FEBFE2
:10421000FFF7FEBFFFF7FEBFFFF7FEBFFFF72ABEA7
:10422000FFF782BE0024F400030406080C101820D7
:104230003000000000000000010204000000000047
:104240000000000001020304060708090304060831
:104250000C101820300000000000000001020304D0
:0C42600001020304060708090000050025
:04000005080041416D
:00000001FF
