:020000040800F2
:1000000010060020651F0008311E0008331E00087E
:10001000351E0008371E0008391E000800000000C9
:100020000000000000000000000000003B1E00086F
:100030003D1E0008000000003F1E0008411E000891
:10004000A51F0008A91F0008AD1F0008D71E000843
:10005000B51F0008B91F0008D51E0008C11F000801
:10006000C51F0008C91F0008CD1F0008D11F0008C8
:10007000D51F0008D91F0008DD1F0008E11F000878
:10008000E51F0008E91F0008ED1F0008F11F000828
:10009000F51F0008F91F0008FD1F000801200008D7
:1000A00005200008092000080D2000081120000884
:1000B00015200008192000081D2000082120000834
:1000C00025200008292000082D20000831200008E4
:1000D00035200008392000083D2000084120000894
:1000E00045200008492000084D2000085120000844
:1000F0005520000870B50FF2E47252F8212002F08A
:100100000703012450F82350C2F3C40204FA02F298
:100110002A4340F8232001F00F035D0004FA05F2A2
:10012000032606FA05F504FA03F30909052935D86B
:10013000DFE801F0030D1734212B8168294381602A
:10014000C1681143C16001691943016170BD416912
:1001500029434161816911438161C1691943C161C9
:1001600070BD016A29430162416A11434162816A9B
:100170001943816270BDC16A2943C162016B114399
:100180000163416B1943416370BD816B29438163F6
:10019000C16B1143C163016C1943016470BD2DE94A
:1001A000F043DFF86C064568DFF86806816841F0C7
:1001B0000041816003210122DFF85C362C68AD89A3
:1001C0000026E2E0076894F801C000F0EBF8076849
:1001D00094F802C000F0E6F867784FEA271C03EBBA
:1001E0008C0CDCF818C0BCF800E007F00F0702FA2E
:1001F00007F747EA0E07ACF8007094F801E0DFF863
:100200001C764FEA2E1C07EB8C0CDCF850C0BCF8B7
:1002100004800EF00F0E02FA0EFE6FEA0E0E0EEACA
:10022000080EACF804E094F802E04FEA2E1C07EB4D
:100230008C0CDCF850C0BCF804800EF00F0E02FAF3
:100240000EFE6FEA0E0E0EEA080EACF804E094F80B
:1002500001E04FEA2E1C07EB8C0CDCF850C0DCF8F8
:1002600008800EF00F0E4FEA4E0E01FA0EFE28EA3D
:100270000E0ECCF808E094F802E04FEA2E1C07EBD3
:100280008C0CDCF850C0DCF808800EF00F0E4FEA42
:100290004E0E01FA0EFE28EA0E0ECCF808E094F895
:1002A00001E04FEA2E1C07EB8C0CDCF850C0DCF8A8
:1002B0000C800EF00F0E4FEA4E0E01FA0EFE28EAE9
:1002C0000E0ECCF80CE094F802E04FEA2E1C07EB7F
:1002D0008C0CDCF850C0DCF80C800EF00F0E4FEAEE
:1002E0004E0E01FA0EFE28EA0E0ECCF80CE094F841
:1002F00001C04FEA2C1E07EB8E0EDEF850E00CF02A
:100300000F0C02FA0CFCAEF81AC094F802C04FEAC7
:100310002C1E07EB8E0EDEF850E00CF00F0C02FAEC
:100320000CFCAEF81AC094F801E04FEA2E1C07EB63
:100330008C0CDCF850C00EF00F0E4FEA4E0EDCF8BD
:10034000008001FA0EF928EA090802FA0EFE4EEAC8
:10035000080ECCF800E094F802C04FEA2C1E07EB20
:100360008E073F6D0CF00F0C4FEA4C0CD7F800E0F5
:1003700001FA0CF82EEA080E02FA0CFC4CEA0E0CFC
:10038000C7F800C004F20304761CF6B2AE42FFF6D2
:1003900019AFDFF88C0401684900490801600020AA
:1003A000BDE8F0834FEA2C1C53F82CC04CEA070739
:1003B000076070472DE9F041040005D04FF4B87193
:1003C0000FF2B04000F01CFCDFF84404406800EB82
:1003D0000410DFF84844E0640021DFF8488400237B
:1003E00004EB8102936048F82130491C1129F7DBA6
:1003F000818961802370A38046680768002520E01A
:1004000030780C21E26C926801FB00200068C0F398
:10041000C10090B1797804F10800FFF76BFEB9785C
:100420004046FFF767FEA088012197F90020914020
:100430000843A0802078401C207007F20307761C38
:100440006D1CE8B261888842DAD3A069A066606A50
:10045000E066206B20670020BDE8F08110B5002128
:10046000DFF8C42301238B4003EA00049C4206D03A
:10047000DFF8B03303EB81035488641C5C64491CCF
:100480000B29EFDB10BD2DE9F04F83B00024A2460D
:10049000ADF8004072B6DE48416808688A890021DC
:1004A0004FF0030C18E043781E1105EB8606366DFD
:1004B000376800F091F927EA0303336083781E114F
:1004C00005EB86052D6D2E6800F086F926EA0303FC
:1004D0002B6000F20300491CD04DC9B29142E2DB0F
:1004E00062B6D04ECE4F3868A9683268114388434F
:1004F00038607868E968726811438843786072B63A
:1005000000F070F98843C949888208682969B2688F
:10051000114388436969084300F053F9DFF810B3C9
:1005200000F049F98843ABF81400DBF80000E969F2
:10053000726911438843296A0843B1690843CBF8BB
:100540000000DFF8F08200F030F98843A8F81400CA
:10055000D8F80000A96A326A11438843E96A08435F
:1005600000F01DF9322000F075F900F047F9296913
:10057000B268114300F03CF9E9697269114300F077
:1005800025F9A96A326A11438843C8F8000000F0CF
:1005900029F90843A549888200F00DF90843ABF812
:1005A000140000F002F90843A8F8140062B6386895
:1005B000A968084338607868E968084378604FF0B4
:1005C000010900F01BF900F0FCF8DBF80000B1694C
:1005D0000843CBF80000D8F8000000F0E0F8012054
:1005E00000F038F99148008AADF80600A96E08427B
:1005F00003D0CA4621EA0000A866BBF81000ADF897
:100600000400E96E084204D04FF0020A21EA00001B
:10061000E866B8F81000ADF80200296F084205D06E
:100620004FF0040A21EA0000286703E05FFA8AF02D
:10063000002842D0E86C006800211CE0BDF802E010
:10064000ADF800E0BDF800E00CEA0E0EE6450FD173
:1006500006EB8202546490F9002009FA02F2D243B8
:100660001A40AA804278120909FA02F22AEA020A1A
:1006700000F20300491CCAB26B889A421DD202786C
:1006800009FA02F31FFA83FCAB880CEA030EE64575
:10069000EED190F801E00EF00F0C09FA0CFC5FEAC5
:1006A0001E1E04D0BEF1020FC8D003D3CAE7BDF8A6
:1006B00006E0C5E7BDF804E0C2E7641CA4B200F0A0
:1006C0009DF8B16800F094F8716900F07FF8316A24
:1006D0008843C8F8000062B638683168084338605B
:1006E0007868716808437860012000F0B3F83868D2
:1006F0003168884338607868716888437860A88872
:1007000049494988A14203DAFFF7A8FE00BF02E089
:1007100000287FF456AF72B63D4841680868898961
:10072000002236E043781C1105EB8404246D03F0AD
:100730000F0309FA03F3638383781C1105EB840428
:10074000246D03F00F0309FA03F363834478231144
:1007500005EB83031B6D04F00F0464001E68032780
:10076000A740BE4309FA04F434431C608478231183
:1007700005EB83031B6D04F00F0464001E68032760
:10078000A740BE4309FA04F434431C6000F203009E
:10079000521CD2B28A42C5DB62B6BDE8F78F716ADD
:1007A0000843C8F8000062B67047B8F81400296B17
:1007B000B26A11437047BBF81400696AF2691143C9
:1007C0007047F16808431949086070478843CBF8BF
:1007D0000000D8F80000704703F00F035B000CFA2C
:1007E00003F370471148808AA96932691143704741
:1007F00088430E490860DBF80000704772B60B486A
:1008000000687047074901EB8000406C80B2704778
:10081000D80100201C380240740000200000002095
:10082000087C004014010020040100200000024068
:100830000004024000080240002070470120704779
:10084000401A00B27047401A80B2704700207047CB
:100850000120704781B0ADF8000004E0BDF8000051
:10086000401EADF80000BDF800000028F6D101B030
:1008700070470000433A5C30304669726D776172B0
:1008800065576F726B696E6741436861755C576F3E
:10089000726B696E675C475453565F52616E676551
:1008A000486F6F645C4C69627261726965735C5316
:1008B000544D546F7563685F4472697665725C73FA
:1008C00072635C74736C5F6163715F73746D3332F8
:1008D0006C3178785F73772E6300000000000000B1
:1008E00008000000100000001800000000000000D8
:1008F0000000000030000000380000004900000047
:1009000051000000590000007900000000000000C4
:1009100031000000390000004100000040000000EC
:1009200048000000810000000000000021000000DD
:1009300029000000D9000000E100000000000000D4
:100940000000000000000000000000009000000017
:1009500098000000A0000000A80000005000000067
:1009600058000000600000006800000070000000F7
:1009700078000000010000000900000011000000E4
:1009800019000000E9000000000000000000000065
:100990000000000000000000000000000000000057
:1009A0000000000000000000000000000000000047
:1009B0000000000000000000000000000000000037
:1009C0000000000000000000000000000000000027
:1009D0000000000000000000000000000000000017
:1009E0000000000000000000000000000000000007
:1009F00000000000000000000000000000000000F7
:100A000000000000000000000000000000000000E6
:100A100000000000000000000000000000000000D6
:100A200000000000000000000000000000000000C6
:100A300000000000D8000000E0000000E800000016
:100A4000F00000008000000089000000910000001C
:100A500099000000A1000000A9000000B100000002
:100A6000B9000000C1000000C9000000D100000072
:100A7000022000F0E1F800F01EF800F034F800F079
:100A800045F800F02BF900F001F8FCE7524C534D0B
:100A90002868C10606D520F010002860208880F064
:100AA0008000208000F024F90028F1D1208880F017
:100AB00040002080ECE74A4800684FF47A71B0FBB0
:100AC000F1F0B0F1807F0DD246490002000A401ECD
:100AD00048604548F022027000228A6007220A60BE
:100AE000F0210170704780B50121072000F099F9CD
:100AF0003E49C0200860012008710020C880012004
:100B000048713B48BDE8044000F022BA10B5394CAA
:100B100000F034F92070201D00F036F9212000F09B
:100B2000A1F9616960F300016161292000F09AF97F
:100B3000616960F341016161312000F093F96169FD
:100B400060F382016161392000F08CF9616960F322
:100B5000C3016161492000F085F9616960F3041106
:100B60006161412000F07EF9616960F345116161C6
:100B7000592000F077F9616960F3861161615A20AC
:100B800000F070F9616960F3C71161615B2000F0EA
:100B900069F9616960F3082161615C2000F062F924
:100BA000616960F3492161615D2000F05BF9616971
:100BB00060F38A2161615E2000F054F9616960F39D
:100BC000CB2161615F2000F04DF9616960F30C3168
:100BD000616110BD0000000014040240000200200A
:100BE000C800002010E000E023ED00E0F801002044
:100BF00000040240A801002000F0EAFAFEE7704776
:100C0000FEE710B450F8041B81B102681218001DF1
:100C100050F8043BDC0744BFA9F10104E31852F883
:100C2000044B43F8044B091FF9D1EBE710BC7047A4
:100C30000FF23C00FFF7E4BF38B504460025012C55
:100C400018BF022C0BD0042C18BF082C07D0102C76
:100C500018BF202C03D040F20F31FFF7E9FF034803
:100C60000068204218BF0125284632BD04700040AC
:100C7000433A5C30304669726D77617265576F72C6
:100C80006B696E6741436861755C576F726B696E23
:100C9000675C475453565F52616E6765486F6F6477
:100CA0005C4C69627261726965735C53544D333296
:100CB0004C3178785F5374645065726970685F4432
:100CC00072697665725C7372635C73746D33326CD7
:100CD0003178785F7077722E6300000080B51F480E
:100CE00000F0BAFC0FF27C00BDE8024000F014BD39
:100CF00010B51B4CA06848B96068C0B2FFF75AFB3A
:100D0000FFF7C1FB0120A06000202060206850B1E7
:100D1000002200216068C0B200F00CFD6068401C39
:100D200060600020A0606068B0B100206060A060DA
:100D300004F1100000F0B9FC04F1100000F0B6FD61
:100D400004F10C01642000F0D8FD18B904F1100082
:100D500000F0C7FE002010BD012010BDF8000020EB
:100D6000E8000020241D0008301D00088401002038
:100D7000030036060FF26C10FFF742BFDFF84C019C
:100D8000006800F00C007047F0B5DFF83C114E68C9
:100D90000125DFF83C31DFF83C41DFF83C2116F05B
:100DA0000C0619D0042E04D0082E1DD00C2E02D013
:100DB00012E0234618E04D684E68C5F38345AD5CEC
:100DC000C6F38156761C4F68FF0354BF04FB05F33E
:100DD0006B43B3FBF6F307E00B685B0B03F0070311
:100DE0005B1C05FA03F3DB0303604B680468C3F381
:100DF00003139B181B7B24FA03F343604B6844687E
:100E0000C3F302239B181B7B24FA03F38360496816
:100E10004368C1F3C2218918097B23FA01F1C1603B
:100E2000F0BDF8B504460D460FF2B806DFF8AC0089
:100E3000044200D11CB940F22F4100F010F8DFF855
:100E4000A07045B1012D03D04FF4866100F007F882
:100E50003868204301E03868A0433860F1BD30466F
:100E6000FFF7CEBE38B504460025212C18BF312C23
:100E700018D0292C18BF392C14D0492C18BF412C5C
:100E800010D05A2C18BF5B2C0CD05C2C18BF5D2CDA
:100E900008D05E2C1CBF5F2C592C03D040F2B651F9
:100EA000FFF768FF0748610901290CBF0068406B24
:100EB000012104F01F029140084218BF0125284675
:100EC00032BD0000003802400438024008380240B9
:100ED00000127A000024F400CC000020C06FFFFE56
:100EE0001C380240433A5C30304669726D7761725B
:100EF00065576F726B696E6741436861755C576FC8
:100F0000726B696E675C475453565F52616E6765DA
:100F1000486F6F645C4C69627261726965735C539F
:100F2000544D33324C3178785F5374645065726934
:100F300070685F4472697665725C7372635C737427
:100F40006D33326C3178785F7263632E630000001A
:100F50002DE9F04704460D4600260FF22819DFF868
:100F60000C0184421CBFDFF80801844212D0DFF874
:100F7000040184421CBFDFF8000184420AD0DFF87C
:100F8000FC0084421CBFDFF8F800844202D0C1217B
:100F900000F069F8286810B9C22100F064F82879D7
:100FA000002818BF012806D0022818BF032802D045
:100FB000C32100F058F8E87930B1012818BF0228A1
:100FC00002D0C42100F04FF8012000FA06F828688A
:100FD00008EA0000404541D177000320B8406FEA9D
:100FE000000A20680AEA0000206020682979B940D8
:100FF000084320602879012818BF022825D1687984
:10100000002818BF012806D0022818BF032802D0E4
:10101000D82100F028F8A0680AEA0000A060A068C3
:101020006979B9400843A060A879002818BF012851
:1010300002D0DF2100F017F8A08820EA0800A08085
:10104000A088A979B1400843A080E0680AEA0000BE
:10105000E060E068E979B9400843E060761C102E52
:10106000B2D3BDE8F0874846FFF7CABD0000024092
:101070000004024000080240000C02400010024040
:1010800000140240433A5C30304669726D776172F9
:1010900065576F726B696E6741436861755C576F26
:1010A000726B696E675C475453565F52616E676539
:1010B000486F6F645C4C69627261726965735C53FE
:1010C000544D33324C3178785F5374645065726993
:1010D00070685F4472697665725C7372635C737486
:1010E0006D33326C3178785F6770696F2E63000002
:1010F000DFF854050169496814220A7001694968DA
:101100000F224A700169496814228A70016949688E
:101110000822CA70016949680A71016949684A71FF
:10112000006940688271002026E038B5DFF8184574
:10113000206981680A68D30703D403681B78132BDE
:1011400019D1520852000A60016809780D46E26818
:101150001278102A04D1C06800EBC10040688047B3
:101160002069006801680278AA420CBF21F480411E
:1011700041F48041016031BD30B5DFF8CC140A691B
:10118000116800230B700B6843F480430B60926876
:10119000136843F018031360DFF8B0349C88042C04
:1011A00002D0102C02D003E0022404E0042402E068
:1011B00008249C800324DFF898542C809B881818FE
:1011C000C0B20B6860F30D230B600020908030BD2F
:1011D000DFF874040069016813220A700A6842F497
:1011E00080420A608068016821F018010160704740
:1011F0000020DFF85414CA681278102A05D1086953
:1012000001680978C06810F831007047DFF83804C9
:10121000006981680A685208920708D4B1F9081079
:101220004268527812018A4204DA002918D4006810
:101230000A2114E0006801680A0A12F03F020DD08A
:1012400021F47C5201F47C51A1F5807101F47C51B0
:1012500011430160090A11F03F0101D1022101701F
:101260007047DFF8E403006981680A685208920752
:1012700008D4B1F908104268527812018A4204DA9F
:10128000002918D400680C2114E0006801680A0ADB
:1012900012F03F020DD021F47C5201F47C51A1F5F3
:1012A000807101F47C5111430160090A11F03F0182
:1012B00001D1022101707047DFF88C030069416899
:1012C000826813685B089B070DD5897900680268FE
:1012D00061F30D2202600168090A11F03F0114BF99
:1012E0000F210D2128E0B2F908200B78B2EB031F83
:1012F0000FDB002A21D409790068026861F30D220E
:1013000002600168090A11F03F0100D1C2E00B211F
:1013100012E08B785B4293420FDBC9780068026869
:1013200061F30D2202600168090A11F03F0104BF58
:101330000020FFF721BF012101707047C2480069FA
:1013400081680A68520892071CD442689278524217
:10135000B1F908108A4215DB006801680A0A12F028
:101360003F020DD021F47C5201F47C51A1F5807133
:1013700001F47C5111430160080A10F03F0004D1D0
:101380000020F9E6006802210170704738B5AE4CC4
:1013900022699068116803685B089B070CD5506848
:1013A00080790A6860F30D220A600868000A10F06C
:1013B0003F0043D00E2042E045890A68120A02F03D
:1013C0003F02A24B9B88DBB29A422FD12946FFF7FE
:1013D0003FFA00282069806825D08580206901684F
:1013E0000A68130A13F03F030DD022F47C5302F471
:1013F0007C52A2F5807202F47C521A430A60110AF0
:1014000011F03F010ED180688188914A1288D14045
:101410008180002181712069816800220A81006831
:101420000221017031BD0021818031BD8288AA185E
:10143000828092B2AA42D1D2002282800D2008700E
:1014400031BD8148006981680A68520892071DD43D
:10145000B1F9081042681278B1EB021F16DB0029BF
:1014600017D4006801680A0A12F03F020DD021F477
:101470007C5201F47C51A1F5807101F47C5111433F
:101480000160090A11F03F0103D103E00068022165
:10149000017070470A210170C3E080B56A48006995
:1014A0004168826813685B089B070DD589790068DD
:1014B000026861F30D2202600168090A11F03F0120
:1014C00014BF11210D211EE0B2F908204B781B0139
:1014D00093420BDA002A17D45C4A9179891EC9B26B
:1014E0003E2911D200F049F870B951E049790068FD
:1014F000026861F30D2202600168090A11F03F01E0
:101500000CBF02210421017001BD80B54E48006965
:101510004168826813685B089B070DD5897900686C
:10152000026861F30D2202600168090A11F03F01AF
:1015300014BF12210D211EE0B2F908204B781B01C7
:1015400093420BDA002A17D4404A9179891EC9B216
:101550003E2911D200F011F870B919E049790068FC
:10156000026861F30D2202600168090A11F03F016F
:101570000CBF02210521017001BD00680068000A4E
:1015800000F03F008DF8000000A9907900F0C8B984
:10159000FFF7F2FD01BD10B582B02B480469A068C9
:1015A00000684008800715D5206801680A0A12F013
:1015B0003F020DD021F47C5201F47C51A1F58071E1
:1015C00001F47C5111430160090A11F03F0127D158
:1015D0000D211FE0FFF70CFE8DF800009DF80000C4
:1015E00000F05F008DF800009DF80000012806D093
:1015F000022807D0042808D0082809D00CE0206869
:10160000022107E02068062104E020680A2101E0A9
:1016100020680C21017013BD0020BDE81640ABE529
:1016200013BD0C48016821F00201016006490A69F6
:1016300012688978136861F30D231360016841F023
:101640000201016070470000D80100200401002061
:101650000C02002010E000E02DE9F04104460025D6
:10166000266825720027DFF8AC8019E0304600F0CC
:1016700047F83078102811D1D8F8100000690068B8
:101680008047D8F8100001680A68520444BF01225C
:1016900022720978C06810F83100054308367F1CB3
:1016A000F8B2A1888842E1D327E02DE9F041044651
:1016B0000025266825720027DFF8588019E030469B
:1016C00000F01EF83078102811D1D8F81000006909
:1016D00040688047D8F8100001680A68520444BF87
:1016E000012222720978C06810F8310005430836DB
:1016F0007F1CF8B2A1888842E1D3E580BDE8F08183
:101700000449C8600278103A012A9CBF4068086109
:1017100070470000D801002080B50549486000F0FE
:1017200051FA002804BFBDE80140FEF738BD02BDF4
:10173000D80100202DE9F74F4FF0000942494968D0
:1017400001EB00156E68D5F800A010B13C2100F047
:1017500076F8C84610E000F06CF8A96861180881B6
:10176000FFF76AF8A968625860F342026250761C7B
:101770000AF2030A08F101085FFA88F0A989884291
:1017800054D230780C2101FB00F4A8682158C1F331
:10179000C102032AEBD141F0010121509AF8000067
:1017A000FFF730F80746A9686018B0F80AB047811B
:1017B000264A1288974208D20222635862F34203F3
:1017C0006350002101819146D1E7204A5288BA42F4
:1017D00008D2625842F006026250002101814FF0A7
:1017E0000209C4E7FFF72AF80028B4D0019838B1FD
:1017F00039465846019A90470746A86820184781FD
:1018000000F017F80746FFF717F8A968625860F369
:1018100042026250029830B1384602998847A9685E
:1018200061180881A3E760180781A0E74846BDE872
:10183000FE8F3946A86820188088FFF701B80FF29C
:101840001000FFF7DDB90000D801002004010020DE
:10185000433A5C30304669726D77617265576F72DA
:101860006B696E6741436861755C576F726B696E37
:10187000675C475453565F52616E6765486F6F648B
:101880005C4C69627261726965735C53544D546F4C
:101890007563685F4472697665725C7372635C74C9
:1018A000736C5F6163712E6300000000704750F835
:1018B000041B61B150F8042BD30744BFA9F1010305
:1018C0009A18002342F8043B091FFAD1EFE770474A
:1018D0001F480188491C01801E490A88521C8378D0
:1018E00092B2B2F57A7F05D35B1CDBB2402B28BFE6
:1018F0000023002283700A80704710B5164A1368CF
:1019000023F002031360124B1B8800B926E00C88F9
:101910000C881C1BA4B2844201D30B8024E029E074
:1019200010B50D4A136823F002031360084B9B782F
:1019300000B913E00C78A3420C78AEBF1C1B1C1B33
:101940004034E4B2844201D30B700DE012E0000099
:10195000D80100200A02002010E000E0106840F0EA
:1019600002001060022010BD106840F002001060FC
:10197000002010BD106840F002001060012010BD72
:101980002DE9F14F82B0144601250026ADF8001074
:1019900000270FF2D41939B1481E80B2FF2803D3B3
:1019A00047214846FFF72CF93CB1601E80B2FF2862
:1019B00003D348214846FFF723F90298D0F800A046
:1019C000B346DFF8948105E001260C370AF1080AD6
:1019D0000BF1010B5FFA8BF002998988884224D2BF
:1019E0005046FFF78DFED8F80C000078102818BF7D
:1019F000112806D1D8F81000016809780229E7D12A
:101A000087681FB96F214846FFF7FAF8B7F9080051
:101A1000002801D10025D8E704D5012EFADA4FF0CD
:101A2000FF36D2E7002ECFD5F4E70DB1ADF8004078
:101A3000BDF80000BDE8FE8F2DE9F84F82460D4647
:101A40000026B3460FF220183DB1681E80B2FF2871
:101A500003D3BB214046FFF7D3F8DAF8009085F0B6
:101A6000FF00401C80B2009000243B4F32E048460B
:101A7000FFF746FEF8680078102818BF112807D134
:101A8000386901680978022923D18668DFF8CCB06B
:101A90001EB9E7214046FFF7B3F8B6F90810B08841
:101AA000FEF7D1FEB188B27902EB0121009A000263
:101AB000684302FB0100010AB171000CB08030469E
:101AC000FEF7C4FE012804BF0020D8470C3609F1F8
:101AD0000809641CE0B2BAF804108842C7D3BDE814
:101AE000F18F38B504461E4DA07900F03F00012863
:101AF00011D1687890B91B48016821F0020101609A
:101B0000154909886980016841F0020101600120DE
:101B10006870002001E000206870287068782978DB
:101B200081F00101084208D0A91C4FF4FA70FFF7B8
:101B3000E4FE10B90120287001E0287850B1142289
:101B40000A212046FFF71CFF01462046FFF774FFDD
:101B5000002032BD012032BDD801002079110008DB
:101B60000402002010E000E0433A5C303046697225
:101B70006D77617265576F726B696E67414368611B
:101B8000755C576F726B696E675C475453565F5252
:101B9000616E6765486F6F645C4C696272617269FF
:101BA00065735C53544D546F7563685F4472697616
:101BB00065725C7372635C74736C5F6563732E63D0
:101BC000000000000C4800684FF47A71B0FBF1F09F
:101BD000B0F1807F01D30220704708490002000A5B
:101BE000401E48600648F0220270002088600720EE
:101BF00008600020704700BFC800002010E000E02F
:101C000023ED00E01FB54148016841F48071016097
:101C100081683F4A1140816001683E4A114001607D
:101C2000016821F480210160816821F47D018160D7
:101C30000021C16003910291016841F0010101603E
:101C4000016801F0020102910399491C0391029974
:101C500019B90399B1F5A06FF2D10168490801F0F3
:101C600001010291029901292AD12B490A6842F007
:101C700004020A600A6842F002020A600A6842F03E
:101C800001020A60416A41F08051416223494FF4E8
:101C900000620A604A68D206FCD48168816081686B
:101CA00081608168816081688908890081608168BC
:101CB00041F001018160816801F00C010429FAD131
:101CC00001210120FFF7ADF81020009003208DF8CE
:101CD000050000208DF8070003208DF80400104C4B
:101CE00000A92046FFF734F92020009001208DF84C
:101CF00004000020ADF8060003208DF8050000A9BF
:101D00002046FFF725F9202020831FBD0038024020
:101D10000CC0FF88FEFFFEEE003C02400070004059
:101D20000000024001060208240002100400000026
:101D300000010200100000008D13000830000000B8
:101D40003D13000801000000B91200082300000044
:101D500000000000250000000D120008290000000E
:101D600063120008020000000000000022000000D2
:101D70000000000026000000000000002A00000013
:101D800000000000040000009B1400082400000074
:101D900043140008080000000B1500088000000034
:101DA000F90B0008B000000097150008A100000022
:101DB00097150008A200000097150008A400000075
:101DC00097150008A80000009715000840000000C3
:101DD000FF0B0008F11000082B110008EC01002097
:101DE000C001002084010020341D0008D41D00081B
:101DF000F0010020C701002090010020341D0008E0
:101E0000D41D0008F4010020CE0100209C01002018
:101E1000341D0008D41D000810000000DC1D00085F
:101E200010000000F01D000810000000041E000853
:101E30007047FEE7FEE7FEE7FEE7FEE7FEE7FEE7A8
:101E400010B5FFF745FD21490888401C088080B285
:101E50000A2190FBF1F201FB1201002935D11C4946
:101E60000A6842F001020A60322390FBF3F403FB9C
:101E7000140353BB42F002020A60642390FBF3F4A4
:101E800003FB14030BBB42F004020A60C82390FB5F
:101E9000F3F403FB140313B942F008020A604FF491
:101EA000967290FBF2F302FB13021AB90A6842F031
:101EB00020020A604FF4FA7290FBF2F302FB130067
:101EC00018B9086840F01000086010BD0802002032
:101ED000000200207047704710B507497944183157
:101EE000064C7C44163404E0081D0A6851188847E3
:101EF0000146A142F8D110BD0800000028000000F2
:101F0000AFF9FFFFFC0000001401002000000000FA
:101F1000F3ECFFFF1401000040010000000000206E
:101F20000000000000F009F8002801D0FFF7D4FFFE
:101F30000020FEF79DFD00F002F80120704700F040
:101F400001B800000746384600F002F8FBE7000041
:101F5000C046C046024A11001820ABBEFBE700BFD6
:101F6000260002000148804701480047051C000880
:101F7000751F0008C046C046C046C046FFF7D2FFE6
:101F8000FFF756BFFFF755BFFFF754BFFFF753BF2B
:101F9000FFF752BFFFF751BFFFF750BFFFF74FBF2B
:101FA000FFF74EBFFFF7FEBFFFF7FEBFFFF7FEBF15
:101FB000FFF791BFFFF7FEBFFFF7FEBFFFF78ABF36
:101FC000FFF7FEBFFFF7FEBFFFF7FEBFFFF7FEBF45
:101FD000FFF7FEBFFFF7FEBFFFF7FEBFFFF7FEBF35
:101FE000FFF7FEBFFFF7FEBFFFF7FEBFFFF7FEBF25
:101FF000FFF7FEBFFFF7FEBFFFF7FEBFFFF7FEBF15
:10200000FFF7FEBFFFF7FEBFFFF7FEBFFFF7FEBF04
:10201000FFF7FEBFFFF7FEBFFFF7FEBFFFF7FEBFF4
:10202000FFF7FEBFFFF7FEBFFFF7FEBFFFF7FEBFE4
:10203000FFF7FEBFFFF7FEBFFFF7FEBFFFF7FEBFD4
:10204000FFF7FEBFFFF7FEBFFFF7FEBFFFF7FEBFC4
:10205000FFF7FEBFFFF7FEBF00000000000000001A
:102060000000000000000000000000000000000070
:102070000000000000000000000000000000000060
:102080000000000000000000000000000000000050
:102090000000000000000000000000000000000040
:1020A00000000000000000000000024000040240A8
:1020B00000080240000C02400010024000140240E0
:1020C000000000000000000000000000010000000F
:1020D00002000000040000000800000010000000E2
:1020E00020000000107C0040127C0040147C004066
:1020F000167C0040187C00401A7C0040030406084F
:102100000C10182030000000000000000102040044
:102110000000000000000000010203040607080997
:102120000024F400030406080C10182030000000FE
:10213000000000000102030401020304060708096D
:10214000000000000000000000000000000000008F
:10215000181E000803000000000000000A00EC1137
:0C21600008000100341D0008D41D000818
:0400000508001F755B
:00000001FF
