:020000040800F2
:10000000080600205D5000081D4D00081F4D000827
:10001000214D0008234D0008254D00080000000078
:10002000000000000000000000000000274D000854
:10003000294D0008000000002B4D00082D4D000840
:10004000A5500008A9500008AD5000088B4E0008CC
:10005000B5500008B9500008594E0008C1500008BA
:10006000C5500008C9500008CD500008D150000804
:10007000D5500008D9500008DD500008E1500008B4
:10008000E5500008E9500008ED500008F150000864
:10009000F5500008F9500008FD5000080151000813
:1000A00005510008095100080D51000811510008C0
:1000B00015510008195100081D5100082151000870
:1000C00025510008295100082D5100083151000820
:1000D00035510008395100083D51000841510008D0
:1000E00045510008495100084D5100085151000880
:1000F0005551000810B584B02020ADF80000ADF8CF
:10010000020000ACA080DFF8F4060078DFF8F016FB
:100110000A68130704D5012804BF22F008020A6008
:10012000DFF8E02613795B070CD501280AD100A976
:10013000507F42F210725043FF22B0FBF2F000F009
:1001400025FA04E00978090709D4012807D1B0206D
:10015000E0802F2020812520608100F0A4F81FBDC1
:100160001CB520208DF8000000A83021417081705E
:10017000C170017120218DF80510DFF88016097813
:10018000DFF87C2613681C0704D5012904BF23F07F
:1001900008031360DFF86C361C79640716D5012953
:1001A00014D1597FFF221A2938BF4270A1F11A03D6
:1001B000DBB2552B38BF8270A1F16F03DBB25A2B33
:1001C00038BFC270C92907D3027105E01078000753
:1001D00004D4012902D100A800F0C6FD13BD3EB52C
:1001E0000FF29C6000F0C0FD00F09AF800F03DFABC
:1001F000054600F097F8A5F66830B52812D300F050
:10020000C1F90FF2846000F0F3FD00F08BF800A953
:10021000284600F0BBF900F038FA00F083F800F04F
:1002200081F8ECE70FF26C6029E03EB50FF26C60EC
:1002300000F09AFD00F074F800F057FA00F064FE48
:1002400085B200F06FF8DFF8C005401941F289313E
:10025000884212D300F093F90FF2486000F0C8FD15
:1002600000F060F800A9284600F090F900F00CF8C2
:1002700000F058F800F056F8ECE70FF2346000F0A8
:1002800073FD00F04FF837BD4120ADF80A006D2036
:10029000ADF808002020ADF80600BDF8000040F4DD
:1002A0000040ADF8000000A800F070BD70B50FF27E
:1002B000086000F059FD00F033F800F0C0F9054681
:1002C000DFF84865307800F041FE294600F064FE12
:1002D00000F064FA00F05FFA00F0CAFE054600F094
:1002E000E5F900F01FF830781F2800D278B900F047
:1002F00046F90FF2CC5000F07BFD00F013F82846D1
:1003000000F0D4F900F00EF800F00CF8EFE70FF26F
:10031000BC5000F029FD2046BDE8704001F06EB9E8
:1003200040F2DC54204601F069B938B50FF2A45010
:1003300000F01AFDFFF7F4FF00F086FA00F0E4FD8C
:1003400085B2FFF7EFFFA5F1FA0040F227218842BE
:100350000FD300F014F90FF2845000F049FDFFF7BD
:10036000E1FF284600F0A2F9FFF7DCFFFFF7DAFF14
:10037000EFE70FF2785000F0F7FC2046BDE832407E
:1003800001F03CB980B50FF26C5000F0EDFC40F28A
:10039000DC5001F033F90620BDE8024001F034BB27
:1003A00084B000A80FF254511CC91CC001F0BEFC5F
:1003B0000121DFF85C0401F0DFFC01F0C3FCDFF891
:1003C00054048021018040210180DFF84C044178F1
:1003D00001F0F7014170027802F0F702027001F0BB
:1003E000FD01417002F0FD0101700FF21C5000F0A0
:1003F000BBFCFFF795FF5620ADF8020048F2320033
:10040000ADF8040048F23000ADF806003020ADF839
:100410000800FFF748FFFFF785FFFFF783FFFFF7AF
:10042000DEFEFFF702FFFFF741FFFFF77EFFFFF75A
:10043000A9FFDFF8E8430FF2D84500F0A3F82846FB
:1004400000F0D6FC00202070F7E7DFF8C00300784A
:10045000DFF8CC43218888423CBF081A208000F096
:10046000EEF80546208800F071FD294600F094FD65
:1004700000F094F900F08FF9044600F0F9FD05460C
:1004800000F014F940F2DC5600F02CF8E34F20465F
:10049000E44901F04BFD03D9E34901F059FD11D2C4
:1004A0000020387000F06EF80FF2704000F0A0FCF1
:1004B00000F018F8284600F0F9F800F013F800F002
:1004C00011F8EDE70FF2644000F04EFC00F00AF87E
:1004D0000FF23C4400F056F8204600F089FC002062
:1004E0003870F7E7304601F089B800F04BF80FF2AA
:1004F000444000F07DFC052001F086FA044600F03F
:100500009EF80546C94E4FF06657204600F01EFD86
:100510000146284600F040FD0146384600F03CFD0B
:100520000146304600F038FD00F0A2FD00F0BEF8B4
:1005300001F0FCFBE1B2B54801F01EFC01F002FC49
:10054000052001F061FA044600F079F805462046DE
:1005500000F0FCFC0146284600F01EFD014638462E
:1005600000F01AFD0146304600F016FD00F080FD57
:1005700000F09CF84FF4487001F040F8E0E7A7481D
:10058000002101704FF4967201217047F0B542F2DC
:100590001072B0FBF2F302FB13044FF47A73B4FB56
:1005A000F3F503FB15446426B4FBF6F506FB15458D
:1005B0000A24B5FBF4F704FB1755ADB2471BB7FB94
:1005C000F4F7B7FBF3FC03FB1C77B7FBF6FC06FB69
:1005D0001C77B7FBF4FC04FB1C77BFB2A0EB070C45
:1005E000ACEB050CBCFBF6FCBCFBF6FE06FB1EC62A
:1005F000B6FBF4FC04FB1C66B6B2A0EB060CACEB3D
:10060000070CACEB050CBCFBF3F3B3FBF4FC04FBF5
:100610001C3305F130040C8107F13004CC8006F165
:1006200030048C8003F130044C809BB2C01A801BD4
:10063000C01B401BB0FBF2F030300880F0BD80B52D
:1006400001F08BF901F096FC02460B467848794997
:1006500001F09EFC0022784B01F0BEFD01F08EFE01
:100660007649BDE8044000F097BC10B584B0FFF7B0
:10067000E6FF00F049FC00A984B22046FFF786FFA0
:1006800000F003F8204604B010BD5620ADF80A0073
:100690002020ADF8080000A8418841F400414180C5
:1006A0002020ADF8000000A800F070BBE0B500A964
:1006B000FFF76CFF4120ADF80A00B520ADF8080047
:1006C00000A8418841F40041BDF80020302A18BF3D
:1006D000418007D1ADF8001081884180C1888180B8
:1006E0002021C18000F052FB07BD3EB5002001E093
:1006F0003EB5012001F088F900F028FC0446FFF720
:100700009EFF214600F048FC00F048F84C4900F0FC
:1007100043FC044600AD00F0ABFC2946FFF736FF72
:10072000FFF7B2FD20463EBD10B5022001F06CF986
:1007300000F02DF8BCBF401A80B28EE010B5032047
:1007400001F062F900F023F8BCBF401A80B200F05B
:10075000FDFB0446FFF773FF214600F01DFC00F08F
:100760001DF800F018F8044600F0CEFB3549884229
:1007700005DA204600F07CFCFFF798FF05E000F06A
:1007800029FB0FF2D41000F0EFFA204610BD1F49EC
:10079000097881427047254900F0FEBB4FF0665151
:1007A00000F0FABB38B5042001F02EF9174C21787F
:1007B0008142BCBF401A80B200F0C8FB0546FFF77B
:1007C0003EFF294600F0E8FBFFF7E8FFFFF7E3FFF5
:1007D000054600F099FB1B49884205DA284600F0DF
:1007E00047FCFFF763FF07E0607828B900F0F2FAF2
:1007F0000FF2641000F0B8FA284632BD74010020F0
:100800008C0100209801002090E8FFFF00000808FC
:10081000010008081A04024000020020050200201E
:10082000EE0100200100E143000016430000A0415A
:100830002FDD24068195F33F0000B04000007A448C
:100840000000C8429F86010010B5052001F0DCF8C9
:10085000FFF79DFFBCBF401A80B200F077FB044653
:10086000FFF7EDFE214600F097FBFFF797FFFFF73C
:1008700092FF044600F0FCFBFFF718FF204610BD76
:100880002056444420000000564444204552524F14
:1008900052200000564444204F4B000052554E2039
:1008A0002020000052554E204552524F5220000049
:1008B00052554E204F4B000042494153202020000A
:1008C00042494153204552524F5220004249415320
:1008D0004F4B000053544F50202000004943432009
:1008E00053544F50204552524F52200053544F50B2
:1008F0004F4B00005354425920200000200020009C
:1009000020002000200020002054455354200000E7
:1009100054455354204F4B200000000049434320CE
:1009200053544259204552524F5220005354425979
:100930004F4B00002020202020202A2A204249411D
:10094000532043555252454E54202A2A204A5031B2
:10095000204F4646202A2A004572726F720000001E
:1009600000B585B0002000904FF4701001900C206D
:100970000290402003900020049000A801F046FD62
:10098000012001F0FEFD4FF4805001F07DFE0020BB
:1009900001F01DFE402001F000FE01F0EDFD012000
:1009A00001F0D7FD012001F09BFE0028FAD01020B5
:1009B00001F096FE0028FAD04FF48041002001F0AB
:1009C0002AFE00F007FA05B000BDDFF8CC0401688C
:1009D00021F420410160816821F420418160DFF829
:1009E000BC1402680B7842EA0332026082684978DC
:1009F00042EA01318160704738B500240078B0F1D7
:100A000020054CD06D1F27D06D1F11D0ED1E1BD0BF
:100A1000AD1E1CD06D1E092D24D93D3D0ED06D1E7E
:100A20000FD0423D15D06D1F05D04A3D17D020E0B4
:100A30004AF2DD0433E046F2840430E04BF2102445
:100A40002DE042F210242AE04FF4204427E0C02495
:100A500025E04FF46C4422E04FF433441FE04FF69E
:100A6000DD741CE00FF28C4404EB400030F8604C65
:100A700015E0A0F14105EDB21A2D05D20FF2404468
:100A800004EB400434F8824CA0F16105EDB21A2D5C
:100A900005D20FF22C4404EB400030F8C24C09B1EF
:100AA00044F002040AB144F020040C20002144FA6E
:100AB00000F202F00F02CA54001FC0B2491C042900
:100AC000F5D331BD2DE9F04F85B01C4603ABFFF7E0
:100AD00093FF042001F004FE0028FAD19DF80F00D6
:100AE00000F003019DF80E20029202F0030200F0D4
:100AF0000C03029D05F00C089DF80D50019505F0C2
:100B00000C0A00F0010B029D05F0010E019E06F09B
:100B100003059DF80C60009606F00C0906F003062C
:100B2000DF4F641E052C00F20A81DFE814F0060096
:100B30001B0058007F009800C200DA4800F006F958
:100B400046EA896420433860B86845EA8A642043ED
:100B5000B860386942EA886210433861B86941EA8E
:100B60008361A4E0D0493A680A403A60BA680A4012
:100B7000BA603A690A403A61BA691140B9613968A4
:100B8000009A02F00202920142EA0962009C04F01B
:100B9000010442EA840211433960B968019A02F003
:100BA0000202920142EA0A62019C04F0010442EA54
:100BB00084021143B9603969029A02F0020292017B
:100BC00042EA086242EA8E0211433961B96900F0D3
:100BD0000200800140EA036040EA8B00ADE0386823
:100BE00020F003203860B86820F00320B86038692E
:100BF00020F003203861B86920F00320B86138681C
:100C0000340244EA895420433860B8682C0244EA2C
:100C10008A542043B8603869120242EA885210436D
:100C20003861B869090241EA835140E09F4800F009
:100C30008DF8B40244EA894420433860B868AC02B5
:100C400044EA8A442043B8603869920242EA884202
:100C500010433861B869890241EA834127E0386866
:100C600020F443203860B86820F44320B860386925
:100C700020F441203861B86920F44120B861386817
:100C8000310341EA094108433860B868290341EA61
:100C90000A410843B86038694FEA0E3141EA084119
:100CA00008433861B8694FEA0B3141EA0341084310
:100CB00044E0396821F470313960B96821F4703149
:100CC000B960396921F470313961B96921F4703141
:100CD000B9613968009A02F00402009B03F008032E
:100CE0005B0343EAC23242EA863211433960B96893
:100CF000019A02F00402019B03F008035B0343EA3C
:100D0000C23242EA85321143B9603969029A02F06F
:100D10000402029B03F008035B0343EAC23242EA87
:100D20008E3211433961B96900F0040200F0080005
:100D3000400340EAC23040EA8B300843B861FFF715
:100D400044FE01F0C6FC05B0BDE8F08F3C680440ED
:100D50003C60BC680440BC603C6904403C61BC69C8
:100D60002040B8613868704738B50446012507E06F
:100D70002B46002200212046FFF7A4FE641C6D1CB8
:100D8000207810B1EDB2082DF2D331BD38B504464C
:100D9000012504E000A8FFF795FEA41C6D1C208827
:100DA000B8B1EDB2082D14D28DF80000208800F4FF
:100DB0007040B0F5804F08D0B0F5004F2B4607BF0C
:100DC0000022012100220021E4E72B46012200211C
:100DD000E0E731BD80B5042001F082FC0028FAD1A3
:100DE00040212F4801F0F2FCBDE8014001F071BC48
:100DF0002DE9F04F83B004468946934600A80721A9
:100E000001F0E4FC002C44D02046002601E0761CD2
:100E1000F6B210F8011B0029F9D12046FFF7A4FF14
:100E2000584600F0EBFB4FF0000ADFF8848000AD7D
:100E300007E0584600F0E2FB7F1CB74207DB0AF1EF
:100E4000010A5FFA8AF0484523D20027F5E7781CAB
:100E500000F030F88DF80000B81C00F02BF8687036
:100E6000F81C00F027F8A870381D00F023F8E8708F
:100E7000781D00F01FF82871B81D00F01BF868718C
:100E8000FFF7A8FF00A8FFF76FFF98F80000002801
:100E9000CFD0BDE8F78F00002424004000020020DE
:100EA00014240040FCFFFFCF03FFFFF3FFF3CFFF4D
:100EB0000502002090FBF6F106FB1100005D704773
:100EC00000FE1467001D1447009D009C003F00FABF
:100ED0001400005341980019485A095A005F00FC59
:100EE000015F01FC00AF1404005BC018815AC90007
:100EF0005800C005005F004200F5006700EA00AF3F
:100F000000BF004600FF00EF4100090E7F3915D4F5
:100F1000D1F11F0114D4400007D2C00140F00040BD
:100F2000C84048BF6FF000407047C00140F000402B
:100F3000C8404CBF4FF0004040427047002070470F
:100F400000424FF0004058BFC0437047002800BF28
:100F50000AD0B0FA80F18840D1F19D01C90502069E
:100F600072F1004241EB1020704710B450F8041B9E
:100F700081B102681218001D50F8043BDC0744BF21
:100F8000A9F10104E31852F8044B43F8044B091F7C
:100F9000F9D1EBE710BC7047FF2212EAD05C1DBF0D
:100FA00012EAD153944593422BE09C44D30780EA44
:100FB00001021A4043EA002043EA0121A1FB00306C
:100FC000410038BF40007CF17F010BDBFE294ADA8B
:100FD0005B0842EAC15153EA006373F1004C51EBE4
:100FE00010207047D1F1080CDCF120012FDB5B08E9
:100FF00010FA01F10B4373F1004120FA0CF050415B
:10100000704794451CBF02EAD153934280EA010223
:1010100002F000421DD0400019D0490017D05BB942
:10102000634514D00902B1FA81F39940BCEB030C7B
:10103000C00140F00040C1E70002B0FA80FC10FAA5
:101040000CF0B3EB0C0CC90141F00041B6E7100005
:10105000704740000AD0490008D010F1807F94BF4B
:1010600011F1807F02E042F0FF407047D0437047AB
:1010700040000DD2010E7F390AD4D1F11F0104D4F2
:10108000C00140F00040C84070477FF0000070474A
:1010900000207047DFF8804500F09EFC6080022051
:1010A00001F078FC50B101214FF0805001F0AFFE0B
:1010B000022001F089FC4FF0010801E04FF0000828
:1010C00000F072F94FF4006001F0D3FB102001F042
:1010D00061FC0028FAD100F0A5F900F003FC002023
:1010E00080F3108801F07CFFDFF83005416841F0A3
:1010F0000301416000214172FFF732FCDFF8205507
:1011000000202870DFF81C0501210170DFF81805A8
:101110000088C00748BFFFF7E8F940F2DC56DFF867
:101120000C75B8F1000F31D100F000FE00213846F7
:1011300000F022FE00F006FE4FF4967201210FF23D
:101140001850FFF755FE287800284BD14FF4404146
:101150004FF4403001F05FFA0FF21C50FFF704FE2D
:10116000287808B900F01EF9287808B900F01AF9B3
:10117000287808B900F016F9287808B900F012F9B3
:101180004FF48041002001F046FA2BE0387810B18E
:10119000FFF75BF926E04FF4967201210FF2E04071
:1011A000FFF726FE6088DFF88814097881423CBF8B
:1011B000401A6080FFF743FA80466088FFF7C6FE5A
:1011C0004146FFF7E9FE4FF06651FFF7E5FEDFF815
:1011D0006414FFF7E1FEFFF74BFFFFF767FA28788B
:1011E0000028FCD000202870DFF84C04417801F082
:1011F000F7014170027802F0F702027001F0FD0180
:10120000417002F0FD010170DFF830848020A8F801
:1012100004004020A8F80600002020700FF29C492E
:101220000FF2904A0FF29C4B07E0FFF7D3FD0FF24D
:101230009C40FFF799FD00202870387808B1FFF72F
:10124000AFF820780628F0D8DFE800F005191E2353
:10125000557A9D00E9E7B8F8000080F04000A8F852
:101260000000B8F8000080F08000A8F80000FFF748
:10127000FCF928780028DED100F094F8DBE701F0D3
:10128000D3FEFEF737FFD6E701F0CEFEFEF768FF8C
:10129000D1E70FF20040FFF767FD287808B900F0AA
:1012A00081F8FFF722FA287808B900F07BF828784F
:1012B00008B900F077F8287808B900F073F82878B2
:1012C00008B900F06FF80FF2D430FFF74DFD287821
:1012D00008B900F067F8FFF70BFA287808B900F0B2
:1012E00061F8287808B900F05DF828780028C0D1A6
:1012F00000F058F8BDE70FF2AC30FFF735FD287865
:1013000008B900F04FF8FFF70FFA287808B900F095
:1013100049F8287808B900F045F8287808B900F0AD
:1013200041F8287808B900F03DF80FF28030FFF757
:101330001BFD287808B900F035F8FFF7FFF9CCE776
:101340005046FFF711FD287808B900F02BF8FFF799
:1013500029FA287808B900F025F8287808B900F0AB
:1013600021F8287808B900F01DF8287808B900F0AD
:1013700019F84846FFF7F8FC287808B900F012F889
:10138000FFF762FAA9E75846FFF7EEFC287808B99C
:1013900000F008F8287808B900F004F8062000F0FA
:1013A00033FB48E7304629E180B5012001F0C1FB5D
:1013B000212001F067FD0028FAD0012001F0E3FBB5
:1013C0004FF4404001F097FB01213F2001F0E5FC84
:1013D00001219B4801F01BFD012140F2012001F099
:1013E000FAFC012001F0F6F9012001F0C9FC00200F
:1013F00001F0C6FC012001F0A9FB492001F042FDEB
:101400000028FAD04FF4803001F07AFC012001F07E
:10141000AAFC002001F063FB312001F033FD00B194
:10142000FEE701BDF0B585B00120009000208DF8E9
:1014300004008DF8070003208DF80500814C00F0B2
:10144000CAF80021002001F037FE0120039000209F
:101450008DF8100008208DF8110001208DF8120081
:1014600003A801F0C7FE06208DF808000F208DF8B4
:1014700009008DF80A0001208DF80B0002A801F088
:1014800077FFC020009001208DF804000020ADF807
:10149000060001208DF805006B4E00A9304602F0D1
:1014A00001F880207083402070834FF4005700972C
:1014B000664D00A9284601F0F5FF2F8348F20E7013
:1014C00000F096F800F088F80B22012100F087F870
:1014D0000B22022100F083F80B22032100F07FF899
:1014E0000B22082100F07BF80B22092100F077F88D
:1014F0000B220A2100F073F80B220F2100F06FF885
:101500004FF6387000F074F8304601F0CBFF0B2234
:10151000032100F06AF80B22042100F066F80B2288
:10152000052100F062F80B22082100F05EF80B2282
:10153000092100F05AF80B220A2100F056F80B227C
:10154000114600F052F80B220C2100F04EF80B224D
:101550000D2100F04AF80B220E2100F046F80B2274
:101560000F2100F042F840F6CF7000F041F8284615
:1015700001F098FF0B22002100F034F80B2201212A
:1015800000F030F80B22022100F02CF80B2203218E
:1015900000F028F80B22062100F024F80B22072186
:1015A00000F020F80B22082100F01CF80B22092182
:1015B00000F018F80B220A2100F014F80B22114653
:1015C00000F010F81020009003208DF8040000F0C7
:1015D00002F805B0F0BD00A9204601F063BF204627
:1015E00001F0F1BF284601F0EEBF304601F0EBBF3D
:1015F000009002208DF8040000A97047144908608B
:1016000008680028FCD170471148016811B10168D1
:10161000491E016070470000EC0100209801002085
:10162000050200200202002010000240010008080C
:10163000000008080000A04100020020140402403D
:101640000002009000000240000402400008024036
:10165000E8010020FEE700002020202020202A2A88
:101660002053544D33324C2D444953434F56455229
:1016700059202A2A000000004A5031204F4E000015
:1016800020202020205354414E4442592057414BA2
:10169000455550002052554E2020000020534C4507
:1016A000455020004C502052554E00004C502053C5
:1016B0004C5000002053544F5020000053502D4EEA
:1016C0005254430053544259202000004552524F77
:1016D00052000000DFF800F045000020DFF800F0C5
:1016E0008B000020F0B583B0DFF80C65DFF80C0547
:1016F00001683160DFF8084521687160DFF8045542
:101700002968B160DFF800150A68F260DFF8FC2490
:1017100013683361DFF8F8341F687761C768B76111
:10172000E768F761EF683762CF687762D768B762BA
:10173000DF68F7624FF6FF76009600268DF80560A9
:1017400003268DF804600026ADF806604FF0FF36E2
:101750000E6016601E604FF6EE71009100A901F058
:10176000A1FE4DF6FF70009000A9284601F09AFEF8
:101770004FF63F70009000A9204601F093FE4020F4
:10178000608380206083F7BDF0B5DFF87014DFF868
:10179000680402680A60DFF8682443681360DFF8B1
:1017A000643484681C60DFF86044C5682560DFF835
:1017B0005C5406692E60DFF85864476937608769B2
:1017C000CF60C169D160016AD960416AE160816A14
:1017D000E960C06AF060F0BD00B585B000A801F016
:1017E00042FA01984FF4FA61B0FBF1F006E000B55F
:1017F00085B000A801F037FA01984008B0F1807F69
:101800000DD2DFF810140002000A401E4860DFF815
:101810000804F0220270002088600720086005B0EC
:1018200000BD70B504460D46164601F03DF9002096
:1018300000F036FA002000F043FA002000F052FADF
:10184000012000F061FA01214FF0805001F0DFFA31
:101850004FF4C05001F00DF8102001F09BF8002863
:10186000FAD1204601F047F9002001F08CF901F08F
:10187000A3F90028FBD115B1802001F0A3F90020C5
:1018800001F057F9002001F02AF916B9002001F003
:101890005DF90020BDE8704001F068B980B5012015
:1018A00001F047F9212001F0EDFA0028FAD00120DB
:1018B00000F018FA012000F003FA012000F0F0F91E
:1018C000012001F060F901F077F90428FBD1002034
:1018D00001F078F9002001F0ABF90020BDE80240EA
:1018E00001F08EB910B586B001214FF4007001F0FF
:1018F00072FACA4C204601F02DFF00A801F0D2FF79
:101900000020009001208DF8040000208DF80500D3
:101910000290049001208DF8140000A9204601F0E7
:101920002DFF062301220421204602F046F8102153
:10193000204602F00AF801224FF44031204601F01F
:10194000DBFF0121204601F0BAFF4021204602F0D2
:1019500037F90028F9D006B010BD70B5FFF7C2FF07
:10196000012002F017F8AD4C062301221121204678
:1019700002F023F800250426204602F0F8F80221A0
:10198000204602F01DF90028F9D0204602F002F9A5
:101990004519ADB2761EEFD1002001F0FBFF00210A
:1019A0004FF4007001F017FAA80870BD9C490A684E
:1019B000C2618A6842624A680262CA6882624A698F
:1019C00002630A69C26205200860C8604FF0805057
:1019D000886000204860704770B5FFF783FF0024DF
:1019E00004258E4E304602F0C2F80221304602F045
:1019F000E7F80028F9D0304602F0CCF80419A4B278
:101A00006D1EEFD1A00870BD2DE9F04391B0814665
:101A1000DFF81082002088F800007A4D4FF400565D
:101A20002E8300214FF4804002F095F9002000F051
:101A300090FD012000F054FE0128FAD07A480021E0
:101A40000170FFF74FFE002000F0F7FE744F714C5D
:101A50004846062814D8DFE800F004142242535305
:101A60006A0000F0FAF800F0FDF800202060B8608D
:101A70004FF6FF7000F0DAF800F0D8F8401EF9D108
:101A800080E000F0EAF800F0EDF8FFF7B0FE01208A
:101A9000FFF7B4FD0121002000F01CFF72E000F010
:101AA000E6F800F0E1F800F0DDF800F0E3F80120DE
:101AB00000F0F6FE202000F06DFF0028FAD0012093
:101AC00080F31088FFF706FE002080F3108800F0F6
:101AD000E7FE202000F05EFF0028FAD152E000F07F
:101AE000C6F800F0C1F800F0BDF800F0C3F801201E
:101AF00080F31088FFF7F2FD002080F3108841E0AA
:101B000000F0B5F800F0B0F800F0ACF8002020606C
:101B1000B9F1050F07BF0022012101220121FFF7C2
:101B200080FE6E830121012000F0FCFE2AE000F01F
:101B30009EF800F099F84FF4802002F0F8F80021A8
:101B40004FF4C00002F0BEF800960020ADF8060089
:101B50008DF8050002208DF8040000A9284601F048
:101B6000A1FC00220D21284601F02DFD00F07AF89D
:101B700000F080F80121002000F042FE00F074F82F
:101B800000F0F8FEFFF78AFEFFF726FE099838609E
:101B90004FF4006000F06DFE102000F0FBFE002806
:101BA000FAD1FFF719FF04462E83012088F80000C0
:101BB0000B98B8600A9878600C98F8600E98786175
:101BC0000D983861FFF7F0FB002000F069FE00205F
:101BD00000F03FFE002000F097F8FFF7D5FD012050
:101BE00000F0F2FE012000F000FEFEF7B9FE2046F4
:101BF00011B0BDE8F0830000140100200000024095
:101C00000004024000080240000C024000100240A4
:101C10000014024010E000E023ED00E00024014049
:101C20001C380240020200200302002000BF00BF57
:101C300000BF00BF00BF00BF00BF00BF00BF00BFAC
:101C400000BF00BF00BF00BF00BF00BF00BF00BF9C
:101C500000BF00BF00BF00BF7047002200214FF44B
:101C60004040DEE502A8A1E6012000F0F2BD002020
:101C700000F0BBBD0020206000220121D1E550F81A
:101C8000041B61B150F8042BD30744BFA9F1010331
:101C90009A18002342F8043B091FFAD1EFE7704776
:101CA00010B5040018BF012C02D0B52100F08EF849
:101CB000DFF8A4010168490854EA4101016010BD40
:101CC00010B5DFF8944140B1012802D0CB2100F0DB
:101CD0007DF8206840F0020002E0206820F0020059
:101CE000206010BD10B5DFF8704140B1012802D06E
:101CF000E62100F06BF8206840F0040002E0206864
:101D000020F00400206010BD10B5DFF84C4140B158
:101D1000012802D0FC2100F059F8206840F00800AA
:101D200002E0206820F00800206010BDDFF82C01E0
:101D30000168C90705D5DFF828118160DFF8241193
:101D400081607047DFF81401016841F00101016012
:101D5000704710B50446DFF810010019B0F5805F38
:101D600003D340F2FD1100F031F800F057F80428D9
:101D700004BF0021216010BD70B500F046F803D308
:101D800040F21F2100F022F800F048F804280BD19F
:101D900000F00BF805B144E000F032F8FF2000F04D
:101DA0000DF8BDE8704015E070BDDFF8B0000168C7
:101DB00021F48071016070474FF6FF7004F0030159
:101DC000C900884026EA0001284670470FF2BC008F
:101DD000FFF740BC38B500F018F803D34FF4237177
:101DE000FFF7F4FF00F01AF8042802D1FFF7DDFF37
:101DF00000E032BD25604FF40040BDE8324037E0DE
:101E0000A508AD002E682846A3E704460D461648EF
:101E10000019B0F5805F704740EA01044FF40040BC
:101E200026E025704FF40040BDE8704020E004201B
:101E30000E490A68D20701D5012070470A68D20509
:101E400001D50220704709684FF6F062114218BFB1
:101E50000320704700000000003C0240043C0240A8
:101E6000EFCDAB89050403020000F8F7183C0240EF
:101E700010B50446FFF7DBFF03E02CB1FFF7D7FFF7
:101E8000641E0128F9D004B9052010BD433A5C3026
:101E9000304669726D77617265576F726B696E67F4
:101EA00041436861755C446F776E6C6F6164204478
:101EB0006F63735C53544D33324C31353220446977
:101EC00073636F766572795C46575C53544D333259
:101ED0004C5F446973636F766572795F4669726DB2
:101EE000776172655F5061636B5F56312E302E32C1
:101EF0005C4C69627261726965735C53544D333234
:101F00004C3178785F5374645065726970685F44CF
:101F100072697665725C7372635C73746D33326C74
:101F20003178785F666C6173682E63004FF0807C57
:101F30001CEB400F94BF1CEB410F05E040EA010C85
:101F40005FEA4C0C01D28142704718BF884270474B
:101F50004FF0807C1CEB400F94BF1CEB410F05E061
:101F600040EA010C5FEA4C0C01D28842704718BF6E
:101F700081427047010000BF09D0B0FA80F188406B
:101F8000C91CC1F58461090501EBD02140057047EA
:101F9000F0B540F2FF7581EA030C0CF0004C15EA35
:101FA00011541DBF15EA1357AC42AF42E5E0BC41E6
:101FB000C1F31301C3F31303801A994143F480134F
:101FC00004D2641E4000494180185941C90241EAC7
:101FD0005051B1FBF3F603FB1611A2FB0675D7EBCC
:101FE000C020A94102D2761E80185941C90241EA97
:101FF0005051B1FBF3FE03FB1E11A2FB0E75D7EB94
:10200000C020A94103D2AEF1010E801859418902C6
:1020100041EA9051760546EA8E2EB1FBF3F603FBBA
:102020001611A2FB0675D7EB8020A94102D2761EBD
:1020300080185941C90241EA50514EEA060EB1FBDF
:10204000F3F603FB1611A2FB0675D7EBC020A941DE
:1020500002D2761E80185941C90241EA5051B1FBA3
:10206000F3F703FB1711A2FB0735D3EBC020A941FF
:1020700067F100070CBF004247F0010766F3D52760
:102080004FEA1E31B80814F5806412DDBD0775F102
:10209000004250EB0E5051EB045111F5801F5CBF14
:1020A00041EA0C01F0BD4CF07F6141F0E0410020BD
:1020B000F0BDBD076D0840EA0E5041F48011D4F127
:1020C0000104B4F120060ADAC4F120060200E0405F
:1020D00001FA06F3E1401843B24015430EE0342CF8
:1020E00013DCC6F1200445EA40056D0820FA06F22B
:1020F000154321FA06F0A1400D43002175F100427D
:1021000050F1000051EB0C01F0BD00205FEA0C0122
:10211000F0BDCFB992185B41B3FA83F704BFB2FAAE
:1021200082F6BF190B3FB7F120062FBF02FA06F364
:10213000BB40C7F1200622FA06F638BF3343BA4047
:102140001CB1E419641E33E77F4231F00041B1FA5B
:1021500081F404BFB0FA80F6A4190B3CB4F1200658
:102160002FBF00FA06F1A140C4F1200620FA06F6BE
:1021700038BF3143A0403C1B1AE7AC421ABF05EA06
:102180001357AF4212E050EA41061CBF52EA430621
:10219000BFE750EA4107304661461CBF41EA05519E
:1021A000F0BD52EA430C08BFC143F0BD00204FF41C
:1021B000001616EB410F98BF16EB430F08BF16EB46
:1021C000410F24BFC14305E016EB430F0CBF61462E
:1021D0004CEA0551F0BD0000B0B581EA030C0CF0EB
:1021E000004C40F2FF7515EA11541DBF15EA135754
:1021F000AC42AF4239E0E41923EA455343F480137B
:10220000C90241F0004141EA505EC7021100A7FB3C
:10221000020200284FF00000EEFB01204FF0000109
:10222000E3FB072118BF42F0010240180021494199
:10223000E3FB0E01A4F580640F0302D2520040417B
:10224000494154F101046CDD470872F1004250F13C
:10225000000051EB0451A1F580115CBF41EA0C0173
:10226000B0BD4CEA05510020B0BD05EA1357AC42A1
:1022700014BFAF4241E050EA410E1CBF52EA430E88
:1022800002E061460020B0BD24423C441BD15FEA1D
:10229000070EF6D0090302BF01460020AEF1140E6E
:1022A000B1FA81F7AEEB070401FA07FE0C37C7F16C
:1022B000200100FA07F7C8404EEA000E23EA455312
:1022C00043F48013A2E733F00043B3FA83F704BF6B
:1022D000B2FA82FE77440B3FE41BB7F1200E2FBF0A
:1022E00002FA0EF3BB40C7F1200E22FA0EFE38BFF1
:1022F00043EA0E03BA40641C82E750EA410E14BF61
:1023000052EA430E6FF000014FF4001717EB430F32
:102310008ABF194617EB410FB5E74CEA055100207B
:10232000B0BDD4F10104B4F120070FDAC4F12007E5
:10233000520828BF42F0010210FA07F501FA07F728
:10234000E1BF2A43E0403843E1400FE0352C98DC00
:10235000C7F1200452EA400220FA07F218BF42F007
:10236000010231FA07F0A1400A43002172F1004254
:1023700050F1000051EB0C01B0BD00004FEAF17CC0
:10238000BCF1E04C2CBFBCF5001F11E05FEA4C0C27
:1023900034BFBCF17F5F2EE05FEA9C0C4FEA0C1C5F
:1023A0004FEA3C0CC10071F100414CEB507070479A
:1023B000C90241EA5051C00218BF41F0010141F089
:1023C00000414FEA6C50C0F10900212810D240EAC8
:1023D000CC7CCCF1200C11FA0CF070F10040CCF167
:1023E000200C21FA0CF00CF0004C40EB0C00704774
:1023F0004FEACC707047490011F5001F04D84FEA2E
:10240000CC10FF30C0057047C817704738B5044678
:1024100020680FF21835002818BFB0F5800F2CD0B7
:10242000B0F5000F18BFB0F5400F26D0B0F1807F97
:1024300018BFB0F1A07F20D0B0F1C07F18BFB0F1BD
:10244000E07F1AD0B0F1007F18BFB0F1107F14D038
:10245000B0F1207F18BFB0F1307F0ED0B0F1407FD7
:1024600018BFB0F1507F08D0B0F1607F18BFB0F155
:10247000707F02D0B52100F07CF86068002818BF9A
:10248000B0F5802F2CD0B0F5002F18BFB0F5402F3D
:1024900026D0B0F5801F18BFB0F5A01F20D0B0F532
:1024A000C01F18BFB0F5E01F1AD0B0F5001F18BF4D
:1024B000B0F5101F14D0B0F5201F18BFB0F5301FB5
:1024C0000ED0B0F5401F18BFB0F5501F08D0B0F5C2
:1024D000601F18BFB0F5701F02D0B62100F049F898
:1024E000A068002818BF042807D008281CBF0C28A3
:1024F000102802D0B72100F03CF8E06800281CBF8B
:102500002028402802D0B82100F033F820690028A4
:1025100018BF022802D0B92100F02BF87D4841688D
:1025200021F07F7141604168226863681A4311435A
:10253000416081688906FCD5016821F07E01016057
:102540000168A268E3681A4323691A4311430160D2
:1025500031BD38B5040018BF012C07D00FF2CC15DF
:10256000E22100F006F8E52100F003F86A48046073
:1025700031BD2846FFF76EB8684800688006FBD575
:10258000704710B5040018BF012C03D040F215119C
:1025900000F09BF86248046010BD10B5040018BF3D
:1025A000102C0FD0202C18BF302C0BD0402C18BF73
:1025B000502C07D0602C18BF702C03D04FF49671AC
:1025C00000F083F85748016821F070011EE010B553
:1025D000040018BF802C15D0B4F5807F18BFB4F567
:1025E000C07F0FD0B4F5007F18BFB4F5207F09D0AD
:1025F000B4F5407F18BFB4F5607F03D040F24311BB
:1026000000F063F84748016821F4607101600168D7
:102610002143016010BD70B504000D460FF20C1689
:1026200018BFB4F5803F09D0B4F5003F18BFB4F52A
:10263000403F03D04FF4B17100F04FF8002D18BFA8
:10264000B5F5005F15D0B5F5804F18BFB5F5C04F93
:102650000FD0B5F5004F18BFB5F5204F09D0B5F52F
:10266000404F18BFB5F5604F03D040F2631100F042
:1026700034F82C48016821F478310160016845EA9A
:1026800004021143016070BD10B5040018BFB4F519
:10269000806F15D0B4F5006F18BFB4F5406F0FD040
:1026A000B4F5805F18BFB4F5A05F09D0B4F5C05F82
:1026B00018BFB4F5E05F03D04FF4BD7100F005F82A
:1026C0001848016821F4E051A0E70FF26000FEF71E
:1026D000C1BF15480121016070473046FEF7BABFFF
:1026E00038B504460025012C18BF022C0BD0042C51
:1026F00018BF082C07D0102C18BF202C03D04FF483
:102700000671FFF7E2FF05480068204218BF012567
:10271000284632BD002400400080044208240040C6
:102720001C8004420424004008810442433A5C3087
:10273000304669726D77617265576F726B696E674B
:1027400041436861755C446F776E6C6F61642044CF
:102750006F63735C53544D33324C313532204469CE
:1027600073636F766572795C46575C53544D3332B0
:102770004C5F446973636F766572795F4669726D09
:10278000776172655F5061636B5F56312E302E3218
:102790005C4C69627261726965735C53544D33328B
:1027A0004C3178785F5374645065726970685F4427
:1027B00072697665725C7372635C73746D33326CCC
:1027C0003178785F6C63642E63000000002201F0B2
:1027D00063BB000010B5040018BF012C02D0862195
:1027E00000F043F88048046010BD10B5040018BF25
:1027F000012C02D0CF2100F038F87D48046010BDD4
:1028000070B582B005460C46002000900FF2F81615
:10281000002D1CBF042D082D02D0F62100F07FF8FA
:10282000002C18BF012C02D0F82100F078F8714874
:10283000401900900098046073BD10B5040018BFE3
:10284000012C03D040F2231100F00FF86A48046015
:1028500010BD10B5040018BF012C03D040F2311197
:1028600000F003F86548046010BD0FF29C10FEF7FD
:10287000F1BE10B50446B4F5006F1CBFB4F5805F1F
:10288000B4F5C05F03D04FF4CA71FFF7EEFF5748AD
:10289000016821F4C051214321F00C01016010BDF9
:1028A00010B5524C68B1012803D040F24921FFF71E
:1028B000DCFF206840F001002060206840F4804088
:1028C00006E0206820F48040206020684008400036
:1028D000206010BD70B505000C460FF22C1618BF15
:1028E000012D03D040F26D2100F019F8012C18BF22
:1028F000022C03D040F26F2100F011F83B48016830
:10290000890855EA810101603D48016821F0040110
:102910000160012C01D130BF70BD20BF70BD3046B9
:10292000FEF798BE70B505000C460FF2DC0618BF26
:10293000012D03D040F2A521FFF7F1FF012C18BFB4
:10294000022C03D040F2A621FFF7E9FF27480168D7
:10295000890855EA810101602948016841F00401B4
:102960000160012C0CBF30BF20BF016821F00401C1
:10297000016070BD1D48016841F0040101600168FB
:1029800041F0020101601E48016841F0040101604C
:1029900030BF704738B504460025012C18BF022C03
:1029A0000BD0042C18BF082C07D0102C18BF202CDB
:1029B00003D040F20F31FFF758FF12480068204261
:1029C00018BF0125284632BD10B50446012C18BF9A
:1029D000022C03D04FF44A71FFF747FF0348016808
:1029E00041EA8401016010BD20000E4200700040E9
:1029F00010000E42A0000E4228000E4224000E429B
:102A000010ED00E004700040433A5C3030466972DB
:102A10006D77617265576F726B696E67414368616C
:102A2000755C446F776E6C6F616420446F63735C98
:102A300053544D33324C31353220446973636F76D1
:102A40006572795C46575C53544D33324C5F446930
:102A500073636F766572795F4669726D77617265CF
:102A60005F5061636B5F56312E302E325C4C696271
:102A70007261726965735C53544D33324C317878AE
:102A80005F5374645065726970685F4472697665FB
:102A9000725C7372635C73746D33326C3178785F1F
:102AA0007077722E63000000DFF83404016841F48F
:102AB000807101608168DFF82C2411408160016819
:102AC000DFF8242411400160016821F480210160B5
:102AD000816821F47D0181600021C160704710B5DB
:102AE00004001CBF012C052C02D0F42100F060F87A
:102AF000DFF8F80336E010B5040018BFB4F5005F46
:102B000011D0B4F5804F18BFB4F5C04F0BD0B4F559
:102B1000004F1CBFB4F5204FB4F5404F03D04FF425
:102B2000A67100F045F8DFF8C803016821F46041A0
:102B300063E010B5040018BF012C03D04FF4D2712C
:102B400000F036F8DFF8AC03046010BD10B50400E7
:102B50001CBF012C052C03D040F2BD1100F028F859
:102B6000DFF8940300210170047010BD10B504005B
:102B700018BF012C03D040F2D51100F019F8DFF88E
:102B80007C03046010BD10B5040018BF012C07D0F1
:102B9000022C18BF032C03D040F2B72100F008F834
:102BA000DFF85C030168890854EA8101016010BD07
:102BB0000FF28C30FEF74EBDDFF84403006800F0E2
:102BC0000C00704710B5040018BF802C10D0902C5A
:102BD00018BFA02C0CD0B02C18BFC02C08D0D02C03
:102BE0001CBFE02CF02C03D040F2ED21FFF7E0FFFA
:102BF000DFF80C03016821F0F0012143016010BDF2
:102C000010B5040018BFB4F5806F0BD0B4F5A06FF9
:102C10001CBFB4F5C06FB4F5E06F03D04FF443713F
:102C2000FFF7C6FFDFF8D802016821F4E061E4E7AE
:102C300010B5040018BFB4F5806F0BD0B4F5A06FC9
:102C40001CBFB4F5C06FB4F5E06F03D040F22B3178
:102C5000FFF7AEFFDFF8A802016821F4605141EAF6
:102C6000C401016010BDF0B5DFF884124E68012583
:102C7000DFF89032DFF89042DFF8902216F00C0671
:102C800019D0042E04D0082E1DD00C2E02D012E034
:102C9000234618E04D684E68C5F38345AD5CC6F326
:102CA0008156761C4F68FF0354BF04FB05F36B434A
:102CB000B3FBF6F307E00B685B0B03F007035B1C49
:102CC00005FA03F3DB0303604B680468C3F30313E3
:102CD0009B181B7B24FA03F343604B684468C3F3DF
:102CE00002239B181B7B24FA03F383604968436823
:102CF000C1F3C2218918097B23FA01F1C160F0BD3B
:102D000010B50446B4F5803F18BFB4F5003F12D0AB
:102D1000B4F5403F1CBFDFF8F80184420BD0DFF868
:102D2000F40184421CBFDFF8F001844203D040F27A
:102D3000E131FFF73DFFDFF8A80104F44031B1F5C0
:102D4000403F06D1016821F0C04104F0C042114368
:102D50000160416B21F440314163416B04F4403226
:102D60001143416310BD10B5040018BF012C03D0FE
:102D700040F20341FFF71CFFDFF8A001046010BD23
:102D800010B5040018BF012C03D040F21341FFF727
:102D90000FFFDFF88C01046010BDF8B504460D4646
:102DA0000FF29C16DFF87C01044200D11CB940F2FE
:102DB0002F4100F064F8DFF8707145B1012D03D0A8
:102DC0004FF4866100F05BF83868204301E0386812
:102DD000A0433860F1BDF8B504460D460FF2601609
:102DE0005248044200D11CB940F2514100F047F86A
:102DF0004F4F45B1012D03D040F2524100F03FF852
:102E00003868204301E03868A0433860F1BDF8B568
:102E100004460D460FF228164648044200D11CB95C
:102E200040F27C4100F02BF8434F45B1012D03D017
:102E300040F27D4100F023F83868204301E0386813
:102E4000A0433860F1BDF8B504460D460FF2F00618
:102E50003648044200D11CB940F2BC4100F00FF8E2
:102E6000364F45B1012D03D040F2BD4100F007F8C7
:102E70003868204301E03868A0433860F1BD30462F
:102E8000FEF7E8BB38B504460025212C18BF312CCD
:102E900017D0292C18BF392C13D0492C18BF412C1E
:102EA0000FD05A2C18BF5B2C0BD05C2C18BF5D2C9C
:102EB00007D05E2C18BF5F2C03D040F2B651FFF74D
:102EC00077FE0748610901290CBF0068406B0121AA
:102ED00004F01F029140084218BF0125284632BD68
:102EE000003802400CC0FF88FEFFFEEE02380240B0
:102EF000043802400000474235380240800647420D
:102F00000838024000127A000024F400F400002087
:102F1000000003200000034000000360D806474281
:102F2000DC064742C06FFFFE1C380240E2ADFFFFE7
:102F300020380240C8B5194F2438024014380240E6
:102F4000433A5C30304669726D77617265576F72D3
:102F50006B696E6741436861755C446F776E6C6F37
:102F6000616420446F63735C53544D33324C31358C
:102F70003220446973636F766572795C46575C539F
:102F8000544D33324C5F446973636F766572795F79
:102F90004669726D776172655F5061636B5F563130
:102FA0002E302E325C4C69627261726965735C53BB
:102FB000544D33324C3178785F5374645065726984
:102FC00070685F4472697665725C7372635C737477
:102FD0006D33326C3178785F7263632E630000006A
:102FE00010B5012080F31088314C0220E070207170
:102FF0001420A071E0710A2060710020A0701420DC
:1030000020720A2060721420A0720020E0722073E7
:1030100000F05CFF01F050F901F076F9002080F338
:1030200010880120207010BD10B5214C2078012897
:103030000AD0022819D003281BD008281BD00A2840
:103040001DD00B2827D032E080F310881948016882
:10305000226A61F3000222624908490001600020EF
:1030600080F310880220207010BD01F0A3FC032023
:10307000F9E70820F7E701F077F90A20F3E70020E5
:10308000607001F0B4F96078401C6070C0B2002834
:10309000F7D00B20E7E701F0A3FCA08B20830020F2
:1030A000A083207D2074002020750120DBE7FEE74F
:1030B000740100204401002070B504000D460FF299
:1030C000900618BF012C0AD0022C18BF032C06D082
:1030D000042C18BF052C02D0BB2100F034F8002DC1
:1030E00018BF012D1ED0022D18BF032D1AD0042D9C
:1030F00018BF052D16D0062D18BF072D12D0082D8C
:1031000018BF092D0ED00A2D18BF0B2D0AD00C2D7B
:1031100018BF0D2D06D00E2D18BF0F2D02D0BC21CB
:1031200000F011F805F00300800025F00301074AC4
:103130008B580F258540AB438B508B5804FA00F019
:103140001843885070BD3046FEF784BA080001402D
:10315000433A5C30304669726D77617265576F72C1
:103160006B696E6741436861755C446F776E6C6F25
:10317000616420446F63735C53544D33324C31357A
:103180003220446973636F766572795C46575C538D
:10319000544D33324C5F446973636F766572795F67
:1031A0004669726D776172655F5061636B5F56311E
:1031B0002E302E325C4C69627261726965735C53A9
:1031C000544D33324C3178785F5374645065726972
:1031D00070685F4472697665725C7372635C737465
:1031E0006D33326C3178785F7379736366672E6301
:1031F0000000000070B5044620790FF2D4060028C4
:1032000018BF042802D0812100F048F8607908280E
:103210001CBF0C28102802D0822100F03FF8206843
:10322000C10DC90500D110B9832100F037F8A0798C
:10323000254D60B3012804D0842100F02FF8A07937
:1032400028B32968226891432960696822689143FC
:103250006960217969180A6823681A430A60A968B5
:1032600022689143A960E96822689143E960617925
:103270002268102907D1A9681143A960E96822686A
:103280001143E96070BD69180868104304E02079B3
:103290002918086822689043086070BD3046FEF720
:1032A000D9B90FF22C00FEF7D5B910B50446E00DE0
:1032B000C00500D11CB94FF49271FFF7F2FF03482B
:1032C000046010BD0000000000040140140401402F
:1032D000433A5C30304669726D77617265576F7240
:1032E0006B696E6741436861755C446F776E6C6FA4
:1032F000616420446F63735C53544D33324C3135F9
:103300003220446973636F766572795C46575C530B
:10331000544D33324C5F446973636F766572795FE5
:103320004669726D776172655F5061636B5F56319C
:103330002E302E325C4C69627261726965735C5327
:10334000544D33324C3178785F53746450657269F0
:1033500070685F4472697665725C7372635C7374E3
:103360006D33326C3178785F657874692E63000054
:1033700070B50446E0780FF29405002818BF0128C4
:1033800003D08C212846FEF765F96078102803D316
:103390008D212846FEF75EF9A078102803D38E21F0
:1033A0002846FEF757F9227811460120E378E3B169
:1033B000124A126802F4E062C2F5E062120A63780F
:1033C000C2F10405AB40A5780F2626FA02F22A4086
:1033D0001A4312010A4BCA5421784A11094B01F0D1
:1033E0001F01884043F8220070BD4911064B02F0CE
:1033F0001F02904043F8210070BD00000CED00E07A
:1034000000E400E000E100E080E100E0433A5C30ED
:10341000304669726D77617265576F726B696E675E
:1034200041436861755C446F776E6C6F61642044E2
:103430006F63735C53544D33324C313532204469E1
:1034400073636F766572795C46575C53544D3332C3
:103450004C5F446973636F766572795F4669726D1C
:10346000776172655F5061636B5F56312E302E322B
:103470005C4C69627261726965735C53544D33329E
:103480004C3178785F5374645065726970685F443A
:1034900072697665725C7372635C6D6973632E63C7
:1034A000000000002DE9F04704460D4600260FF20B
:1034B0000429DFF8E80184421CBFDFF8E4018442FC
:1034C00012D0DFF8E00184421CBFDFF8DC01844247
:1034D0000AD0DFF8D80184421CBFDFF8D40184424F
:1034E00002D0C12100F069F8286810B9C22100F0AB
:1034F00064F82879002818BF012806D0022818BFD0
:10350000032802D0C32100F058F8E87930B101282F
:1035100018BF022802D0C42100F04FF8012000FAA1
:1035200006F8286808EA0000404541D177000320EA
:10353000B8406FEA000A20680AEA000020602068AC
:103540002979B940084320602879012818BF02284A
:1035500025D16879002818BF012806D0022818BF95
:10356000032802D0D82100F028F8A0680AEA000059
:10357000A060A0686979B9400843A060A8790028D4
:1035800018BF012802D0DF2100F017F8A08820EA38
:103590000800A080A088A979B1400843A080E06815
:1035A0000AEA0000E060E068E979B9400843E060B9
:1035B000761C102EB2D3BDE8F0874846FEF74AB815
:1035C0003846FEF747B8F8B506460D4614460FF2E2
:1035D000E407324886421CBF314886420FD031484A
:1035E00086421CBF3048864209D0304886421CBF04
:1035F0002F48864203D040F20921FFF7E1FF002D5A
:1036000018BF012D1FD0022D18BF032D1BD0042D74
:1036100018BF052D17D0062D18BF072D13D0082D64
:1036200018BF092D0FD00A2D18BF0B2D0BD00C2D54
:1036300018BF0D2D07D00E2D18BF0F2D03D040F24F
:103640000A21FFF7BDFF002C18BF012C14D0022C5B
:1036500018BF032C10D0042C18BF052C0CD0072C3D
:1036600018BF0A2C08D00B2C1CBF0E2C0F2C03D01B
:1036700040F20B21FFF7A4FFE81006EB800005F0F5
:1036800007018900026A0F238B409A430262026A93
:1036900004FA01F111430162F1BD00000000024093
:1036A0000004024000080240000C024000100240EA
:1036B00000140240433A5C30304669726D776172A3
:1036C00065576F726B696E6741436861755C446FE3
:1036D000776E6C6F616420446F63735C53544D3339
:1036E000324C31353220446973636F766572795C90
:1036F00046575C53544D33324C5F446973636F7665
:103700006572795F4669726D776172655F5061635A
:103710006B5F56312E302E325C4C69627261726979
:1037200065735C53544D33324C3178785F53746415
:103730005065726970685F4472697665725C737215
:10374000635C73746D33326C3178785F6770696F66
:103750002E63000080B5DFF8BC14884202D0B5218A
:1037600000F014FA01214FF40070FFF76CFB002108
:103770004FF40070BDE80440FFF765BB70B5044628
:103780000D460FF2A046DFF88C04844202D0D0210F
:1037900000F00DFA2868002818BFB0F1807F08D02B
:1037A000B0F1007F18BFB0F1407F02D0D12100F00E
:1037B000FEF92879002818BF012802D0D22100F094
:1037C000F6F96879002818BF012802D0D32100F04B
:1037D000EEF9A868002818BFB0F1805F08D0B0F1FA
:1037E000005F18BFB0F1405F02D0D42100F0DFF9D4
:1037F000E868002818BFB0F1807F20D0B0F1007FCA
:1038000018BFB0F1407F1AD0B0F1806F18BFB0F18F
:10381000A06F14D0B0F1C06F18BFB0F1E06F0ED040
:10382000B0F1006F18BFB0F1106F08D0B0F1206F89
:1038300018BFB0F1706F02D0D52100F0B8F9286937
:10384000002818BFB0F5006F02D0D62100F0AFF904
:10385000287D401EC0B21B2802D3D72100F0A7F953
:103860006068DFF8B4130840297940EA012029682C
:1038700008436060A068DFF8A41308402969084382
:10388000E9680843A9680843697940EA4100A060F3
:10389000206B20F0F870297D491EC9B240EA015022
:1038A000206370BD002101600171417181604FF0A2
:1038B0004071C1600021016101210175704770B53F
:1038C00004460D460FF25C36DFF84803844203D00D
:1038D00040F2591100F06BF94DB1012D03D04FF4B6
:1038E000AD7100F064F9A06840F0010002E0A0684A
:1038F00040084000A06070BDF8B504460D4616466D
:103900000FF22037DFF80C03844203D04FF4CE715E
:1039100000F053F9002E18BF012E03D040F29D1184
:1039200000F04BF9B5F5803F1CBFB5F5003FB5F58C
:10393000403F03D04FF4CF7100F03FF9002E606894
:1039400014BF2843A8436060F1BD70B504460D461E
:103950000FF2D026DFF8BC02844203D040F2D1112E
:1039600000F025F9002D18BF102D0FD0202D18BF05
:10397000302D0BD0402D18BF502D07D0602D18BF13
:10398000702D03D04FF4E97100F011F9A06820F018
:10399000F0000FE110B5DFF8884248B1012803D0EC
:1039A0004FF4247100F0F2F8206840F4000002E0C7
:1039B000206820F40000206010BD2DE9F843044683
:1039C0000D4616461F460FF25C29DFF84802844276
:1039D00003D04FF43F7100F0C7F8002D18BF012D40
:1039E00033D0022D18BF032D2FD0042D18BF052D65
:1039F0002BD0062D18BF072D27D0082D18BF092D55
:103A000023D00A2D18BF0B2D1FD00C2D18BF0D2D44
:103A10001BD00E2D18BF0F2D17D0102D18BF112D34
:103A200013D0122D18BF132D0FD0142D18BF152D24
:103A30000BD0162D18BF172D07D0182D18BF192D14
:103A400003D040F2FD2100F08FF8701E5FFA80F87D
:103A5000B8F11B0F03D340F2FE2100F085F8002FD0
:103A600018BF012F0FD0022F18BF032F0BD0042F28
:103A700018BF052F07D0062F18BF072F03D040F21D
:103A8000FF2100F071F80720142D0CD3A5F11401CB
:103A900001EB4101E268884022EA000007FA01F1E7
:103AA0000843E06018E00A2D0CD3A5F10A0101EBF0
:103AB00041012269884022EA000007FA01F1084327
:103AC000206109E005EB45016269884022EA0000B7
:103AD00007FA01F1084360611F20072E0AD208EBA4
:103AE0008801226C884022EA000005FA01F10843AF
:103AF000206437E00D2E0BD2F11F01EB8101E26B48
:103B0000884022EA000005FA01F10843E06329E059
:103B1000132E0CD2A6F10D0101EB8101A26B88409E
:103B200022EA000005FA01F10843A0631AE0192E09
:103B30000CD2A6F1130101EB8101626B884022EAED
:103B4000000005FA01F1084360630BE0A6F11901DA
:103B500001EB8101226B884022EA000005FA01F1A5
:103B600008432063BDE8F1834846FDF773BD10B5F7
:103B70000446DFF8A000844203D040F28E3100F00A
:103B800005F8A06840F08040A06010BD0FF29400DE
:103B9000FDF760BD10B50446DFF87800844203D01D
:103BA0004FF48461FFF7F2FFA06D80B210BD304684
:103BB000FDF750BD2843A06070BD3846FDF74ABDF3
:103BC000F8B504460D4600260FF258071148844206
:103BD00003D040F28F61FFF7F0FF012D18BF022DD7
:103BE00012D0042D18BF082D0ED0102D18BF202D77
:103BF0000AD0402D1CBFB5F5807FB5F5007F03D0FE
:103C00004FF4D261FFF7D9FF2068284218BF012680
:103C10003046F2BD00240140FFFEFFFCFDF7FFC06F
:103C200004270140433A5C30304669726D77617217
:103C300065576F726B696E6741436861755C446F6D
:103C4000776E6C6F616420446F63735C53544D33C3
:103C5000324C31353220446973636F766572795C1A
:103C600046575C53544D33324C5F446973636F76EF
:103C70006572795F4669726D776172655F506163E5
:103C80006B5F56312E302E325C4C69627261726904
:103C900065735C53544D33324C3178785F537464A0
:103CA0005065726970685F4472697665725C7372A0
:103CB000635C73746D33326C3178785F6164632E4A
:103CC0006300000070B504000D460FF2EC0618BF4B
:103CD000B4F5001F09D0B4F5800F18BFB4F5C00FBC
:103CE00003D040F29B5100F01FF8002D18BFB5F52E
:103CF000801F03D040F29C5100F016F8DFF8B400AA
:103D0000CA21C1615321C161016821F4E001016050
:103D1000016845EA040211430160FF21C16170BDE1
:103D20000FF29400FDF796BC3046FDF793BC10B53A
:103D3000040018BFB4F5802F03D040F24C71FFF798
:103D4000EFFF4648016821F48021016001682143AA
:103D5000016010BD000070B505000C460FF258065A
:103D600002D03F48054203D040F29371FFF7DCFFD9
:103D7000002C18BF012C03D040F29471FFF7D4FF40
:103D80003548CA21C1615321C16105F0040125F004
:103D90000402002C036804D01A430260826B1143B2
:103DA00005E023EA02020260826B22EA01018163DC
:103DB000B3E7000008280040433A5C30304669729F
:103DC0006D77617265576F726B696E6741436861A9
:103DD000755C446F776E6C6F616420446F63735CD5
:103DE00053544D33324C31353220446973636F760E
:103DF0006572795C46575C53544D33324C5F44696D
:103E000073636F766572795F4669726D776172650B
:103E10005F5061636B5F56312E302E325C4C6962AD
:103E20007261726965735C53544D33324C317878EA
:103E30005F5374645065726970685F447269766537
:103E4000725C7372635C73746D33326C3178785F5B
:103E50007274632E63000000082800404028004070
:103E6000FB0FFFFF10B5040002D034F43C3003D048
:103E700040F62301FFF754FF004801E00C28004002
:103E80002103090C41F08001026802F0800262EA1D
:103E90000101016010BD000000B500BF130096468F
:103EA0009446103928BFA0E80C50FAD85FEA417C4C
:103EB00028BF0CC048BF40F8042BC90728BF20F812
:103EC000022B48BF00F8012B00BD0000D548016857
:103ED00041F001010160D4498A6842F0C0028A6061
:103EE000026842F0020202608A6842F440328A604C
:103EF000026842F004020260CA6842F03002CA60FE
:103F0000826842F000428260086840004008086011
:103F1000C6480188018081688160C54801880180A8
:103F200081688160C348018801808168816070B5C3
:103F3000C14CBD4D286820402860012080F31088C6
:103F4000BE48818A4FF67F7211408182016821F458
:103F5000404141F480410160B9498A8A4FF6FD73BE
:103F60001A408A820A6822F00C0242F004020A60B7
:103F7000B44A938A4FF6DF7633409382136823F472
:103F8000406343F480631360838A4FF6BF76334007
:103F90008382036823F4405343F480530360888A88
:103FA0004FF6FE731840888208688008800040F051
:103FB00001000860908A4FF6EF7108409082106807
:103FC00020F4407040F480701060002080F310886E
:103FD000642000F06BF928682040286070BD2DE94E
:103FE000F0474FF00008984DC5F80080C5F80480F0
:103FF000C5F80880C5F80C80C5F81080C5F8148095
:10400000DFF83492DFF820A2DAF8000009EA0000B5
:1040100000F01CF9894CA08A4FF67F710840A082FD
:10402000206820F4404040F480402060844EB08AF4
:104030004FF6FD710840B082306820F00C0040F06F
:10404000040030607F4FB88A4FF6DF710840B882B5
:10405000386820F4406040F480603860A08A4FF6F1
:10406000BF71084000F009F94FF6FE71084000F0FA
:10407000FBF84FF6EF71084000F0EEF888F3108877
:10408000322000F013F900F001F988F31088DAF813
:10409000000040F4024040F0800000F0D7F8A08A11
:1040A00040F0400000F0E9F840F0010000F0DCF8DA
:1040B00040F0100000F0D0F8002080F3108800F0ED
:1040C00029FE287DC00708D4208A800705D5A5F8D9
:1040D0000080686940F001006861287D400608D4CE
:1040E000308A800405D5A5F80C80686940F040004E
:1040F0006861287D000608D4388A800705D5A5F8B0
:104100000E80686940F0800068616869800508D4A5
:10411000388A000605D5A5F81280686940F4007059
:104120006861287D000708D4208A800505D5A5F898
:104130000680686940F008006861287DC00608D4E0
:10414000208A400405D5A5F80880686940F0100071
:104150006861287D800708D4208A000605D5A5F867
:104160000280686940F002006861287D400708D439
:10417000308A800705D5A5F80480686940F00400FE
:104180006861287D800608D4308A800605D5A5F8A8
:104190000A80686940F0200068616869C00508D439
:1041A000388A800605D5A5F81080686940F48070CB
:1041B000686108F1010800F069F8002080F31088B8
:1041C000DAF8000040F4824040F04000CAF80000F5
:1041D00000F0A2FD012080F31088206820F4404008
:1041E0002060306820F00C003060386820F44060B7
:1041F0003860002080F31088DAF8000009EA000037
:10420000CAF8000040F6B9301FFA88F8804501D39B
:1042100000BF05E0288B6969014081427FF437AF18
:10422000BDE8F0871C380240087C004004000240D2
:1042300004040240040802403F3CFFFF000002402B
:104240000004024000080240BC010020CAF800003F
:10425000012080F310887047B882386820F44070DD
:1042600040F4807038607047B08230688008800009
:1042700040F001003060B88A7047A082206820F4C6
:10428000405040F480502060B08A7047012080F395
:104290001088206820F4405020603068800880003A
:1042A0003060386820F440703860704700E0401E8D
:1042B00080B20028FBD1704710B5104C0020E0619F
:1042C000A061606120622070201DFEF7CCFCA06818
:1042D0004FF4FA61B0FBF1F0B0F1807F0CD20849E5
:1042E0000002000A401E48600648F02202700020CA
:1042F00088600720086010BDFEE700004401002030
:1043000010E000E023ED00E038B5DFF8484600207B
:104310002070DFF8445600F020FC286880210170EE
:1043200028684621817728682821C17728686FF09E
:10433000450180F820102868042180F821102868A1
:10434000012180F8221028680A2180F823102078A3
:10435000401C2070C0B20028DDD0DFF800064168A4
:1043600041F40071416031BDF8B5DFF8E805002186
:10437000017000F0F2FBDFF8E00500680078082823
:1043800018BF802832D0DFF8D805002101700FF265
:104390000861DFF8D025DFF8D035DFF8D045DFF849
:1043A000D055067835F81670276033F816702771E7
:1043B0000627DFF8A8C507FB06C707F20A0CC4F8F2
:1043C00008C04FF0010C84F80CC001EB460C9CF8BF
:1043D00001C011F816E052F82EE03EF81CC0A7F814
:1043E0000AC0761C0670F6B2032EDAD3F1BD10B502
:1043F00000F0B3FBDFF860452068007801283DD06D
:1044000002280CD004282CD0082824D0112832D01F
:10441000142823D024282BD0802836D038E000F070
:104420007FFAB0B100F00AFC2068DFF848150A886E
:1044300083881A430A80DFF840150A7803781A4304
:104440000A70416821F00801416021F010014160CB
:1044500010BD00F01EF800F051FAE5E700F051F849
:10446000E2E700F05DFA0028DCD100F074F8F2E732
:1044700000F096F8D8E700F0C5F8D5E700F050FA5C
:104480000028CFD100F0E3F8E5E700F03FFACBE7F2
:10449000FEE770B5DFF8C84400202070DFF8DC5478
:1044A000DFF8B46400F0A4F8306890F92000B5F9A2
:1044B00000108842A4BFBDE8704000F09CBB00F033
:1044C00091F8EFD30020207000F092F8B5F90000C9
:1044D000316891F91E1088420CDB00F063FBDFF8B5
:1044E000A004007860B93068817B491C8173BDE805
:1044F000704006E02078401C2070C0B20328E3D34F
:1045000070BD70B5DFF8585400202870DFF84844BB
:10451000DFF86864287800F029FBB6F9000021680C
:1045200091F91E1088420FDB00F0ABFB2068817B05
:10453000491E81732068807B28B900F0B2F8BDE87D
:10454000704000F036BB70BD00F07BF8E2D3BDE8F0
:10455000704000F01EBB70B500F04DF800F048F858
:10456000286890F91F00B6F90010884208DA00F0B8
:1045700098F8002804BFBDE8704000F08BBB70BD08
:1045800000F030F8EAD300F028FBDFF8F8030078F9
:104590000028F4D12868817B491C8173BDE87040F4
:1045A00070B500F028F800F023F8286890F91F1083
:1045B000B6F900209142BCBFBDE8704000F016BBC8
:1045C0002178491C2170C9B20329ECD3817B491E93
:1045D00081732868807B002804BFBDE8704000F02C
:1045E000D2BA70BD2078401C2070C0B2032870473A
:1045F000207800F0BBBADA4C00202070DFF87C6332
:10460000D54D704770B5D64D00202870DB4ED24C8A
:10461000287800F0ABFA206890F92010B6F9002055
:10462000914209DB817B491E81732068807B38B908
:10463000BDE8704000F0E6BA00F003F8E8D386E782
:1046400070BD2878401C2870C0B203287047F8B5A8
:10465000C34800210170C04A13680621047801FB99
:104660000435AE896F89BE19AE81641C0470E4B252
:10467000032CF3D31C7A641E1C721268137A7BB964
:104680000370037801FB0324A589ED08A5815B1C59
:104690000370DBB2032BF4D3BDE8F14000F073BA32
:1046A000F1BD2DE9F84F00208DF80000B64C2080B8
:1046B000B64D2880B64E308082468046A84880F8A5
:1046C00000A04FF00609A44FDFF8B0B2A44800786C
:1046D00000F04CFABBF90000002844BF0020ABF802
:1046E00000003968081D9E4A1278BBF90030B0F806
:1046F00008C00CFB03F309FB021CBCF80CC0B3FBA5
:10470000FCF3ABF80030A34B33F81230B3F5807FE5
:1047100006D0BBF900C003FB0CF31B0AABF800305A
:10472000BBF90030B4F900C09C4509DAB5F800E0E7
:10473000A6F800E0A5F800C02380D04692460DE020
:10474000B5F900C09C4504DAA6F800C02B8090465D
:1047500004E0B6F900C09C45B8BF3380521C804BC2
:104760001A70D2B2032AB1D3B5F9002090F91B30E8
:10477000DB051B0E5B1E9A425CDBB6F90030B4F918
:104780000040E41AA4B20FF2182509FB0A5535F9C6
:104790001850E601B6B2D21A92B2121996FBF2F292
:1047A00092B2012DAEBF02EB45026B42C2EB430257
:1047B00012B24C68FF21A3050CD5012AACBF803A88
:1047C000803212B2130448BF002212F4FE4F02D00E
:1047D000FF2200E0D2B2D3B2E405447ED5B23AD58E
:1047E000AC4215D21D1BFF2D12DAC57F2C19A4B2C5
:1047F000A24239DB047C641E04743868047DCCB9A1
:1048000090F8224004753868446824F48074446049
:10481000386800F11404657A02F1FF06AE4254DAFA
:1048200002F5807694F80FA05544ADB2AE4203DA9B
:10483000A17B017500205FE0047D641E047538686B
:10484000047D002CF6D190F8224004753868446845
:1048500024F4807438E0A54218D2E51AFF2D15DA49
:10486000C57FAD18AC4202DA817F0174E2E7047CB7
:10487000641E04743868047D002CDBD190F822405B
:1048800004753868446844F480744460386800F102
:104890001404657A05F1FF06B6B2964215DA05F5FD
:1048A0008075ADB2E67BB618B542C1DB047D641EEF
:1048B00004753868047D002CBCD190F82240047542
:1048C0003868446844F480744460386842773868D3
:1048D00090F82120C2F1080243FA02F2037FD2B21B
:1048E000934207D002773868426842F01002426073
:1048F0008DF800109DF80000BDE8F28F16480068A2
:104900000079800758BF00F0ACB9704712480068C2
:10491000007900F00300032808BF00F073B9704766
:104920000F4800210170017806220B4B1B6802FB27
:1049300001325289963A41F2F32392B29A4201D35C
:10494000FF207047491C0170C9B20329EBD3002036
:104950007047000075010020F00100209801002040
:10496000040200201001002054500008D80100204B
:104970004C5000089001002088010020F801002020
:104980007701002078010020FA010020FC010020BE
:10499000FE0100207850000800010008000200001D
:1049A0000000A0FFA0002000000060FF20FF6000CA
:1049B0000000000010B5094C00202083012000F009
:1049C000AEF810B1218B08432083208B00281CBF38
:1049D000BDE81040FFF703BB10BD00BFBC010020C5
:1049E0002DE9F84F012080F31088B448B4490268DB
:1049F0000A600021016081F31088B24CDFF8C882A0
:104A0000B24EB34FB34DAE480068411EAC4A116080
:104A1000002800F08280287808B1401E2870AE4837
:104A20000078401EC0B220B90A20397809B1491E69
:104A30003970A9490870A94890F800904FF0010A10
:104A40000020307000F089F8D8F8000000781428B1
:104A50001CBF0428242803D1A148007838701BE02B
:104A6000022817D10020207094F800B0584600F0BA
:104A70007DF89C4800889C49098808189949088055
:104A80000BF101012170C9B20329EDD300B208B9BD
:104A90004FF0000A01203070287839780843B2D1ED
:104AA000924800782870BAF1000F1CBF904890F827
:104AB000009089F0FF00401C5FFA80FAB9F1000F06
:104AC000A1D00020307000F048F8D8F8000000783D
:104AD00002281BD10020207020780621D8F8002061
:104AE00001FB00208189C27B02EB01214289120275
:104AF00002FB09F201FB0A210A0C8281090AC17337
:104B00002078401C2070C0B20328E5D33078401CC8
:104B10003070C0B20028C2D1D5E7BDE8F18FF0B542
:104B200001460020674A1378724C734D734E3678F5
:104B300088273E420BD100231E4635F816708F425F
:104B400004BF34F8166030435B1C032BF4D313709E
:104B50005E4901220A7080B2F0BD5C4800782421D1
:104B6000664A01FB00205849086070470621564AF2
:104B7000126801FB0020B0F90C10B0F90A00081A05
:104B800059490880704750480068416841F0080161
:104B900041604D48016802220A700068416821F0B6
:104BA000040169E04848016814220A700068544909
:104BB00019E04548016804220A7001684A6842F019
:104BC00004024A6042F008024A604E4A12780A72B1
:104BD000006890F82210017570473B480168242254
:104BE0000A70006848490978817370473648006840
:104BF0000421017070473448016811220A7000686E
:104C00004249F0E73048016801220A7001684A68A9
:104C100022F004024A6042F008024A6022F0800258
:104C20004A6008220A7200210622036802FB013250
:104C300000239381491C0329F6D370472248016859
:104C400008220A700068416821F00401416041F0C7
:104C50000801416021F08001416041F02001416084
:104C600070471948016880220A700068416821F085
:104C70000401416041F00801416021F08001416080
:104C800070471148006841680A065CBF41F0800126
:104C9000416070471E480078C0070DD5194800785C
:104CA00050B1094801680A7A521E0A720068007AF7
:104CB000002808BFFFF7A6BF70470000640100206E
:104CC000F401002004020020F00100207501002002
:104CD0007F0100207E010020800100207D01002056
:104CE0007B010020FA010020F80100207A01002059
:104CF0007C010020545000084C500008980100200E
:104D00007701002076010020780100207901002041
:104D10009401002000BF704700BF70477047FEE756
:104D2000FEE7FEE7FEE7FEE7FEE7FEE780B50120CF
:104D300080F31088FCF768FCA3E0000010B50020A9
:104D40003F4901220A703F490988C9070DD5401C17
:104D5000B0F5801FF7D1FCF7E9FF01213A48FDF7D4
:104D60000BF8BDE81040FCF7EDBF3748007800288D
:104D700065D1364B1878401CC0B2072808BF002008
:104D800018703348447844F0080232491B78062BE7
:104D900055D8DFE803F00415191E2A364500802295
:104DA0000A8040224A8004F0F7014170027802F044
:104DB000F702027001F0FD01417002F0FD013DE0DB
:104DC00040204880802002E08020488040200880E9
:104DD00010BD80234B8040234B804270017801F04E
:104DE000F701017002F0FD0216E080234B804023A2
:104DF0004B804270017841F00801017002F0FD0221
:104E00000AE080234B8040234B804270017841F0C0
:104E10000801017042F00202427001F0FD010DE054
:104E200080234B8040234B804270017841F0080181
:104E3000017042F00202427041F00201017010BDA7
:104E4000050200201000024001000808EC010020CB
:104E5000000200201804024080B5012080F3108871
:104E60000248007820B1FFF769FF07E00202002046
:104E7000004801E003020020012101700120FEF73B
:104E800014FA002080F3108801BD80B54FF48040F3
:104E9000FEF7E8FF4FF48010BDE80240FEF705BAC8
:104EA0001FB54148016841F48071016081683F4A43
:104EB0001140816001683E4A11400160016821F49F
:104EC00080210160816821F47D0181600021C16041
:104ED00003910291016841F001010160016801F054
:104EE000020102910399491C0391029919B903998E
:104EF000B1F5A06FF2D10168490801F001010291FA
:104F0000029901292AD12B490A6842F004020A6059
:104F10000A6842F002020A600A6842F001020A606E
:104F2000416A41F08051416223494FF400620A60B6
:104F30004A68D206FCD4816881608168816081689A
:104F400081608168890889008160816841F0010180
:104F50008160816801F00C010429FAD1012101204E
:104F6000FDF71BFF1020009003208DF805000020A6
:104F70008DF8070003208DF80400104C00A920468E
:104F8000FEF790FA2020009001208DF80400002008
:104F9000ADF8060003208DF8050000A92046FEF7B5
:104FA00081FA202020831FBD003802400CC0FF88FA
:104FB000FEFFFEEE003C0240007000400000024098
:104FC00010B5074979441831064C7C44163404E086
:104FD000081D0A68511888470146A142F8D110BD42
:104FE000080000002800000097CCFFFFF40000003C
:104FF000140100200000000073BFFFFF1401000037
:1050000058010000000000200000000000F009F836
:10501000002801D0FFF7D4FF0020FCF73BF800F098
:1050200002F80120704700F001B80000074638463A
:1050300000F002F8FBE70000C046C046024A11003B
:105040001820ABBEFBE700BF2600020001000100F4
:105050000100000002000001040000000148804738
:1050600001480047A14E00086D500008C046C046E8
:10507000C046C046FFF7CAFF000100010001000062
:10508000FFF74CBEFFF74BBEFFF74ABEFFF749BE26
:10509000FFF748BEFFF747BEFFF746BEFFF745BE26
:1050A000FFF744BEFFF7FEBFFFF7FEBFFFF7FEBFEF
:1050B000FFF7EBBEFFF7FEBFFFF7FEBFFFF7CCBE6B
:1050C000FFF7FEBFFFF7FEBFFFF7FEBFFFF7FEBF14
:1050D000FFF7FEBFFFF7FEBFFFF7FEBFFFF7FEBF04
:1050E000FFF7FEBFFFF7FEBFFFF7FEBFFFF7FEBFF4
:1050F000FFF7FEBFFFF7FEBFFFF7FEBFFFF7FEBFE4
:10510000FFF7FEBFFFF7FEBFFFF7FEBFFFF7FEBFD3
:10511000FFF7FEBFFFF7FEBFFFF7FEBFFFF7FEBFC3
:10512000FFF7FEBFFFF7FEBFFFF7FEBFFFF7FEBFB3
:10513000FFF7FEBFFFF7FEBFFFF7FEBFFFF7FEBFA3
:10514000FFF7FEBFFFF7FEBFFFF7FEBFFFF7FEBF93
:10515000FFF7FEBFFFF7FEBF294938B12948886035
:1051600029488860086840F0100002E0086820F0D4
:1051700010000860704725490028086806D040F0F4
:1051800001000860086840F4804005E020F4804099
:1051900008600868400840000860704780B501203A
:1051A000FFF7DAFF0120FFF7E6FF00F024F800F038
:1051B00007F800F005F816480088C007F7D53EE06C
:1051C00000BF00BF00BF00BF00BF00BF00BF00BFE7
:1051D00000BF00BF00BF00BF00BF00BF00BF00BFD7
:1051E000704780B50120FFF7B7FF0120FFF7C3FF2D
:1051F00000F001F810E007484FF4005101807047BB
:10520000003C024037261504FDFCFBFA007000400C
:10521000100002401A080240044801688908890009
:1052200041F001010160024804E000BF007000404D
:1052300010ED00E0016821F00401016020BF0020B2
:10524000FFF78AFF0020BDE8024094E70304060848
:105250000C101820300000000000000001020304C0
:0C5260000102030406070809BC0100203D
:040000050800506D32
:00000001FF
