:020000040800F2
:1000000058050020ED1F0008391C00083B1C0008A3
:100010003D1C00083F1C0008411C000800000000B7
:10002000000000000000000000000000431C000869
:10003000451C000800000000471C0008491C00087F
:1000400035200008392000083D200008271D000841
:100050004520000849200008211D00085120000803
:1000600055200008592000085D2000086120000884
:1000700065200008692000086D2000087120000834
:1000800075200008792000087D20000881200008E4
:1000900085200008892000088D2000089120000894
:1000A00095200008992000089D200008A120000844
:1000B000A5200008A9200008AD200008B1200008F4
:1000C000B5200008B9200008BD200008C1200008A4
:1000D000C5200008C9200008CD200008D120000854
:1000E000D5200008D9200008DD200008DD1C00080C
:1000F000F91C000830B581B004460D46B4F1804FBC
:100100001CBFDFF8380184421CD0DFF83401844280
:100110001CBFDFF83001844214D0DFF82C01844288
:100120001CBFDFF8280184420CD0DFF82401844290
:100130001CBFDFF82001844204D0FA21DFF8180147
:1001400000F0B2FA6888002818BF102809D02028CB
:100150001CBF4028602804D0FB21DFF8FC0000F021
:10016000A3FAE88800281CBFB0F5807FB0F5007FB7
:1001700004D0FC21DFF8E00000F096FA2088B4F10A
:10018000804F1FBFDFF8B4108C42DFF8B4108C42F0
:1001900004D14FF68F71084069880843DFF8A41036
:1001A0008C421CBFDFF8A0108C4204D04FF6FF41F8
:1001B0000840E98808432080A888A08528882085F1
:1001C0000120A08201B030BD30B581B004460D469B
:1001D000B4F1804F1CBF1948844218D0184884429B
:1001E0001CBF1848844212D0174884421CBF1748CD
:1001F00084420CD0164884421CBFDFF85800844269
:1002000005D040F21A21DFF8500000F04DFA6DB130
:10021000012D05D040F21B21DFF83C0000F044FA2C
:10022000208840F00100208001B030BD20884FF6CA
:10023000FE710840208001B030BD00000004004085
:100240000008004000100040001400400008014079
:10025000000C014000100140E403000870B50446A2
:100260000D461646B4F1804F1CBF564884421AD042
:10027000554884421CBFDFF86001844213D0DFF888
:100280005C0184421CBF514884420CD050488442D7
:100290001CBFDFF84001844205D040F26A71DFF8EC
:1002A000400100F001FA4FF6A070054200D12DB9CF
:1002B00040F26B71DFF8280100F0F6F95EB1012E13
:1002C00005D040F26C71DFF8180100F0EDF9A0895B
:1002D0002843A08170BDA089A843A08170BD70B5DE
:1002E00006460C460025B6F1804F1CBF35488642B5
:1002F0001AD0354886421CBFDFF8DC00864213D096
:10030000DFF8D80086421CBF304886420CD0304807
:1003100086421CBFDFF8BC00864205D04FF4FF6167
:10032000DFF8BC0000F0C0F9012C18BF022C0DD082
:10033000042C18BF082C09D0102C18BF402C05D055
:1003400040F2F971DFF8980000F0AEF9308AB18917
:10035000214020421CBF00290125284670BD30B530
:1003600081B004460D46B4F1804F1CBF154884424D
:1003700019D0154884421CBFDFF85C00844212D0BB
:10038000DFF8580084421CBF104884420BD010484C
:1003900084421CBF0F48844205D040F61F01DFF89D
:1003A000400000F081F94FF6A070054200D12DB950
:1003B0004FF40261DFF8280000F076F9E84320826C
:1003C00001B030BD000400400008004000080140BA
:1003D000000C0140001001400010004000140040DB
:1003E000E4030008433A5C30304669726D7761720D
:1003F00065576F726B696E6741436861755C576FD3
:10040000726B696E675C475453565F52616E6765E5
:10041000486F6F645C4C69627261726965735C53AA
:10042000544D33324C3178785F537464506572693F
:1004300070685F4472697665725C7372635C737432
:100440006D33326C3178785F74696D2E6300000013
:1004500000F0B3F88B4800684FF47A71B0FBF1F00C
:10046000B0F1807F0ED288490002000A401E486029
:10047000F02081F8130D0020886007200860E0203C
:1004800081F8130D00F048F800F043F900F07CF912
:100490007E48012101707E4C7E4D0BE0022000F071
:1004A00024FA002000F021FA00F0A3FA00F02AFA62
:1004B00000F0C0FA00F0E8FA2868410704D520F0FF
:1004C0000400286000F063FA2868C10612D520F005
:1004D000100028602146002000F030FB2178002029
:1004E00000F0B2F96178012000F0AEF9A1780220A5
:1004F00000F0AAF90221082000F05CF9012000F0C8
:10050000ECF900F073FA0028C8D0022000F0E5F9F9
:10051000002000F0E2F9C7E730B581B001210120E9
:1005200000F0F9FB5C4C4FF48050206001202071FA
:100530000020E08001206071584D2146284600F0DF
:10054000B1FC4FF48051284600F043FD01210846DC
:1005500000F0E1FB4FF40060206001202071A071E9
:10056000E07160712146284600F09CFC01210720C3
:1005700000F0D1FB50202060012020710020A071EC
:100580000120E07160710F2020602146444800F096
:1005900089FC0121022000F0BEFB02202060012026
:1005A00020710020A0710120E07160712146284671
:1005B00001B0BDE8304000F075BC10B5394C00F01A
:1005C0004FFB2070201D00F051FB212000F0EDFBBF
:1005D000616960F300016161292000F0E6FB616957
:1005E00060F341016161312000F0DFFB616960F37C
:1005F00082016161392000F0D8FB616960F3C301B9
:100600006161492000F0D1FB616960F3041161610F
:10061000412000F0CAFB616960F345116161592016
:1006200000F0C3FB616960F3861161615A2000F03C
:10063000BCFB616960F3C71161615B2000F0B5FB31
:10064000616960F3082161615C2000F0AEFB6169C3
:1006500060F3492161615D2000F0A7FB616960F3EF
:100660008A2161615E2000F0A0FB616960F3CB210B
:1006700061615F2000F099FB616960F30C31616199
:1006800010BD00000000002010E000E0AC0240427D
:100690003001002010010020340100200000024041
:1006A00000080240F8000020FEE710B450F8041BD8
:1006B00081B102681218001D50F8043BDC0744BFEA
:1006C000A9F10104E31852F8044B43F8044B091F45
:1006D000F9D1EBE710BC70472748018891B1012997
:1006E00005D10221018001212448FFF76DBD428818
:1006F000914202D2491C01807047002101801F48AD
:10070000FFF762BD70471E48017881F0010101705A
:10071000704710B584B00121202000F022FB194859
:1007200000684FF47A61B0FBF1F0401EADF80800AC
:1007300000200190ADF80A00104C01A92046FFF7F7
:10074000D9FC01212046FFF70AFE012201212046A3
:10075000FFF784FD2C208DF800000E208DF801009D
:1007600001208DF802008DF8030000A800F09AFC2B
:1007700004B010BD00000000420100200014004041
:10078000B00240420000002000B581B000F058F9EE
:100790000748416841F003014160012141728169CC
:1007A00041F0030181610121417701B000BD0000EA
:1007B000740000202DE9F04F0FF26C228D5C0FF2D7
:1007C000542202EB4001497812F810B06A1102F08D
:1007D0000102AB1103F001032C1104F00104EE102F
:1007E00006F00108AE1006F001066F1007F00109CF
:1007F00005F0010CDFF800E2DFF80052DFF80072CC
:10080000DFF800A204280FD288000AF800C007F819
:1008100000902E540EF800804FEA8B002C543B546D
:100820000AF80020BDE8F08F4FEA8B000EF800C0F8
:1008300005F800903E540AF8008088003C542B5480
:100840000EF80020BDE8F08F70B50C46642C38BF60
:10085000042822D241004D1C0A2194FBF1F64200EB
:1008600002280DD2F1B2D0B2FFF7A4FF06EB86004A
:10087000A4EB4001C9B2E8B2BDE87040FFF79ABFEF
:1008800006EB8600A4EB4001C9B2D0B2FFF792FF9D
:10089000F1B2E8B2BDE870408CE770BD5A480088FC
:1008A0005A4900F0010281F82420C0F3400281F887
:1008B0000823C0F3800281F85C20C0F3C00281F8F5
:1008C0004423C0F3001281F85420C0F340120A7090
:1008D000C0F3801081F8E80270474B490A88012371
:1008E00003FA00F010430880D8E74749072808BFFB
:1008F000002005D00A88012303FA00F022EA000054
:100900000880CBE710B518B1022812D005D327E034
:100910003D4C208840F0100027E03B4C20884FF6EB
:10092000EF7108402080FFF7B9FF208840F02000D9
:1009300022E0354C20884FF6EF7108402080FFF709
:10094000ADFF20884FF6DF7108402080FFF7A6FF3B
:10095000208840F040002080BDE81040FFF79EBF97
:10096000294C20884FF6EF7108402080FFF796FF52
:1009700020884FF6DF7108402080FFF78FFF208826
:100980004FF6BF7108402080BDE8104086E7204840
:100990000178491C0170C9B2142904BF00210170FB
:1009A00001780A299241D20FC2704178491C4170E6
:1009B000C9B2032909D1002141704179491C417113
:1009C000C9B2032904BF002141718178491C81709B
:1009D000C9B2062909D1002181700179491C017130
:1009E000C9B2032904BF0021017170470848C078CB
:1009F0007047074800797047808204428083044230
:100A0000808404428085044246010020A082044282
:100A10003C010020111C1D1E1F070809101B1A197C
:100A2000180F0B0A010200003F065B4F666D7D0741
:100A30007F6F710001480121016070470881044205
:100A400010B5012080F310883A4C0020E07020712E
:100A50001420A071E0710A2060710020A0701420A1
:100A600020720A2060721420A0720020E0722073AD
:100A700000F098FB00F03CFD00F0EAFD002080F360
:100A800010880120207010BD10B52A4C2078401E1F
:100A90000A284DD8DFE800F006181D2B304C4C4CCE
:100AA0004C4C3D00012080F3108823480168A26966
:100AB00061F30002A261490849000160002080F34F
:100AC00010880220207010BD00F082FD03202070ED
:100AD00010BD002084F8010000F0D6FD6078401CB5
:100AE0006070C0B20028F7D00420207010BD00F064
:100AF0008FFD0520207010BD0120607000F0C4FD46
:100B00006078401C6070C0B20228F7D30B202070C0
:100B100010BD00F0C1FFA08B20820020A08394F8BC
:100B200020002075002084F820000120207010BDD6
:100B3000FEE700009C0000206C00002030B581B072
:100B400005000C4618BF012D05D040F2F521DFF855
:100B50006800FFF7A9FDDFF85C000068DFF85C10B3
:100B60000840010C01F03F022270020A6270A0707E
:100B700001F04000E070D5B92078010901EB810255
:100B800000F00F0000EB420020706078010901EBDB
:100B9000810200F00F0000EB42006070A0780109B4
:100BA00001EB810200F00F0000EB4200A07001B0E9
:100BB00030BD000000280040F40B00087F7F7F005C
:100BC00010B5040002D034F43C3005D040F62301C7
:100BD0000FF22000FFF768FD05482103090C41F0E2
:100BE0008001026802F0800262EA0101016010BD2A
:100BF0000C280040433A5C30304669726D77617270
:100C000065576F726B696E6741436861755C576FBA
:100C1000726B696E675C475453565F52616E6765CD
:100C2000486F6F645C4C69627261726965735C5392
:100C3000544D33324C3178785F5374645065726927
:100C400070685F4472697665725C7372635C73741A
:100C50006D33326C3178785F7274632E63000000FC
:100C6000DFF8B401006800F00C00704710B4DFF842
:100C7000A4114A6802F00C020C2A23D8DFE802F023
:100C800022222222072222220A2222220D00DFF81B
:100C90008C2120E0DFF888211DE04A684B68C2F310
:100CA0008342DFF88041125DC3F381535B1C4C68C3
:100CB000E40354BFDFF86441DFF864416243B2FBF0
:100CC000F3F208E00A680123520B02F00702521CFB
:100CD00003FA02F2D20302604B68DFF8482104688D
:100CE000C3F303139B181B7B24FA03F343604B6885
:100CF0004468C3F302239B181B7B24FA03F383602D
:100D000049684368C1F3C2218918097B23FA01F1BC
:100D1000C16010BC704730B581B004460D46DFF8A5
:100D20000801044200D12CB940F22F410FF2081003
:100D3000FFF7BAFC75B1012D05D04FF486610FF2B3
:100D4000F800FFF7B1FCDFF8E4000168214301601F
:100D500001B030BDDFF8D4000168A143016001B0EB
:100D600030BD30B581B004460D46DFF8C400044202
:100D700000D12CB940F27C410FF2BC00FFF794FC8B
:100D80006DB1012D05D040F27D410FF2AC00FFF7AF
:100D90008BFC284801682143016001B030BD254823
:100DA0000168A143016001B030BD30B581B0044697
:100DB0000025212C18BF312C1AD0292C18BF392C12
:100DC00016D0492C18BF412C12D05A2C18BF5B2CBE
:100DD0000ED05C2C18BF5D2C0AD05E2C1CBF5F2C83
:100DE000592C05D040F2B6510FF24C00FFF75CFCD5
:100DF0000748610901290CBF0068406B012104F01C
:100E00001F029140084218BF0125284601B030BD9D
:100E10000038024004380240083802400024F40040
:100E200000127A0028000020C06FFFFE1C3802402C
:100E3000C8B5194F24380240433A5C3030466972D5
:100E40006D77617265576F726B696E674143686158
:100E5000755C576F726B696E675C475453565F528F
:100E6000616E6765486F6F645C4C6962726172693C
:100E700065735C53544D33324C3178785F537464EE
:100E80005065726970685F4472697665725C7372EE
:100E9000635C73746D33326C3178785F7263632E88
:100EA000630000002DE9F04381B004460D460026A2
:100EB000DFF86C0184421CBFDFF86801844214D063
:100EC000DFF8640184421CBFDFF8600184420CD06B
:100ED000DFF85C0184421CBFDFF85801844204D073
:100EE000C1210FF25410FFF7DFFB286820B9C2219F
:100EF0000FF24410FFF7D8FB2879002818BF01280B
:100F000008D0022818BF032804D0C3210FF22810EC
:100F1000FFF7CAFBE87940B1012818BF022804D0C6
:100F2000C4210FF21410FFF7BFFB012000FA06F8EE
:100F3000286808EA0000404545D177000320B84002
:100F40006FEA0009206809EA00002060206829791A
:100F5000B940084320602879012818BF022829D108
:100F60006879002818BF012808D0022818BF032874
:100F700004D0D8210FF2C000FFF796FBA06809EA61
:100F80000000A060A0686979B9400843A060A87912
:100F9000002818BF012804D0DF210FF29C00FFF7C2
:100FA00083FBA08820EA0800A080A088A979B1402E
:100FB0000843A080E06809EA0000E060E068E979A1
:100FC000B9400843E060761C102EAED301B0BDE8F6
:100FD000F08330B581B004460D46114884421CBFF1
:100FE0001048844211D0104884421CBF0F488442EC
:100FF0000BD00F4884421CBF0E48844205D040F2FB
:101000009B110FF23400FFF74FFB2DB94FF4CE7157
:101010000FF22400FFF748FB658301B030BD0000EC
:10102000000002400004024000080240000C0240A0
:101030000010024000140240433A5C3030466972AE
:101040006D77617265576F726B696E674143686156
:10105000755C576F726B696E675C475453565F528D
:10106000616E6765486F6F645C4C6962726172693A
:1010700065735C53544D33324C3178785F537464EC
:101080005065726970685F4472697665725C7372EC
:10109000635C73746D33326C3178785F6770696F3D
:1010A0002E63000070B50446E078002818BF0128C0
:1010B00004D08C210FF28800FFF7F6FA6078102830
:1010C00004D38D210FF27800FFF7EEFAA0781028F4
:1010D00004D38E210FF26800FFF7E6FA227811465A
:1010E0000120E378E3B1124A126802F4E062C2F52B
:1010F000E062120A6378C2F10405AB40A5780F26BE
:1011000026FA02F22A401A4312010A4BCA542178E5
:101110004A11094B01F01F01884043F8220070BDBD
:101120004911064B02F01F02904043F8210070BDA8
:101130000CED00E000E400E000E100E080E100E010
:10114000433A5C30304669726D77617265576F72F1
:101150006B696E6741436861755C576F726B696E4E
:10116000675C475453565F52616E6765486F6F64A2
:101170005C4C69627261726965735C53544D3332C1
:101180004C3178785F5374645065726970685F445D
:1011900072697665725C7372635C6D6973632E63EA
:1011A00000000000C948016841F002010160C8491F
:1011B0008A6842F0E0428A60826842F000428260BF
:1011C0000868400040080860C248018801808168C2
:1011D00081600188018081688160FFE710B5BC4CA7
:1011E000206820F440202060012080F31088BA4855
:1011F000818A4EF6FF7211408182016821F04071B0
:1012000041F080710160818A4DF6FF721140818248
:10121000016821F0406141F080610160818A4BF6F4
:10122000FF7211408182016821F0405141F08051EC
:101230000160002080F31088642000F053F92068DA
:1012400020F44020206010BD2DE9F0410024A34D82
:101250002C606C60AC60EC602C616C619C4E306802
:1012600020F440203060012080F310889A4FB88A23
:101270004EF6FF710840B882386820F0407040F0A8
:1012800080703860B88A4DF6FF710840B8823868BF
:1012900020F0406040F08060386084F31088322095
:1012A00000F020F9012080F31088386820F04060B9
:1012B000386084F310884EF20968306840F480206A
:1012C0003060012080F31088B88A40F40050B88262
:1012D000386820F0406040F080603860002080F383
:1012E000108800F0A5FC287D400607D4388AC00489
:1012F00004D5AC81686940F040006861287D4007F2
:1013000007D4388AC00704D5AC80686940F004006F
:101310006861287D800607D4388AC00604D56C81B0
:10132000686940F020006861641C012080F3108827
:10133000386820F040603860002080F31088306802
:1013400040F40020306000F075FC012080F310882C
:10135000386820F040703860002080F310883068D2
:1013600020F440203060A4B2444502D300BFBDE861
:10137000F081288B6969014081429ED1BDE8F081EE
:101380002DE9F0410024564D2C606C60AC60EC609F
:101390002C616C614E4E306820F4A010306001204A
:1013A00080F310884C4FB88A4EF6FF710840B8821F
:1013B000386820F0407040F080703860B88A4BF692
:1013C000FF710840B882386820F0405040F08050EB
:1013D000386084F31088322000F084F8012080F314
:1013E0001088386820F04050386084F3108801205D
:1013F00080F31088386820F04070386084F31088DB
:101400004EF20968306840F480203060012080F39B
:101410001088B88A40F48040B882386820F0405084
:1014200040F080503860002080F3108800F000FC0D
:10143000287D400607D4388AC00404D5AC81686989
:1014400040F040006861287D400707D4388AC00713
:1014500004D5AC80686940F004006861287D80068E
:1014600007D4388AC00604D56C81686940F0200032
:101470006861012080F31088386820F0405038609F
:10148000002080F31088641C306840F480103060C5
:1014900000F0D0FB012080F31088386820F0407005
:1014A0003860002080F31088306820F4A01030608D
:1014B000444502D300BFBDE8F081288B6969014033
:1014C00081429FD1BDE8F081000000001C3802403D
:1014D000087C00400404024000040240C0000020D8
:1014E000DC00002000E0401E80B20028FBD17047E5
:1014F00010B5354C0020A06160612061E06184F886
:1015000028002046FFF7B2FB60684FF4FA61B0FB99
:10151000F1F0B0F1807F0CD22C490002000A401E8D
:101520004860F02081F8130D0020886007200860D3
:1015300010BDFEE72448416982690369142B10D36A
:10154000143B0361491CC3695B1CC3610A2922BFA8
:101550000A39521C0A2A04D30A3A836A43F0010367
:10156000836282614161704710B5174C2069401C4D
:101570002061E06A10B1E06A401EE062FFF7DAFF26
:10158000A06A810704D520F00600A062C82020626E
:10159000A06A010704D520F01800A062C82060628C
:1015A000206A30B1401E206203D1A06A40F00400DE
:1015B000A062606A30B1401E606203D1A06A40F050
:1015C0001000A06210BD00004400002010E000E008
:1015D00070B5DFF8D04200202083DFF8CC52DFF86E
:1015E000CC6230788821084203D1DFF8C402008839
:1015F000208301202870208B48B1FFF725FEDFF8FB
:10160000B402007834F8100070810120287070BD99
:1016100070B5DFF8A44200202083DFF88C52DFF899
:101620008C62307D8821084203D1DFF88402408833
:10163000208302202870208B48B1FFF7A1FEDFF83D
:101640007C02007834F81000F0830220287070BD0E
:1016500070B5954C002020706FF00905DFF86062CE
:1016600000F03AF93068802101703068442101743B
:10167000306843214174306885742078401C2070A4
:10168000C0B20228ECD370BD10B500F025F900F00F
:101690002DF98B4C20680178012973D002290CD0D8
:1016A000042940D0082912D011295AD0142923D056
:1016B000242942D0802972D076E0408908384EF241
:1016C000016180B2884267D200F06FF8206800792B
:1016D000800758BF00F093F920687A490A88838808
:1016E0001A430A8078490A7803781A430A704168D5
:1016F00021F00801416010BD7449B1F9001090F962
:10170000100081420CDB00F08DF92068817B491EBE
:1017100081732068807B0028DED100F01EF9DBE7B2
:1017200000F002F9D8E7408908384EF2016180B232
:10173000884231D200F072F8C8E790F91110634A7C
:10174000B2F90020914209DB817B491E8173206838
:10175000807B0028C0D100F0D3F8BDE700F016F977
:10176000BAE790F91210594AB2F900209142D7DB3A
:10177000817B491E81732068807B0028ACD100F0FA
:1017800013F9A9E7408908384EF2016180B2884216
:1017900002D200F075F899E700F01EF99CE7007995
:1017A00000F003000328E9E7FEE730B581B0474DBC
:1017B000B5F90000424C216891F91220824204DB05
:1017C00001B0BDE8304000F0E6B891F91010884251
:1017D00022DB00F0B9F83E480078E8B92068817B48
:1017E000491C8173B5F90000216891F910108842F5
:1017F0000DDB00F017F92068817B491E817320689A
:10180000807B48B901B0BDE8304000F0A6B801B017
:10181000BDE8304000F088B801B030BD30B581B0CF
:101820002A4C274D286890F91100B4F9001088421D
:101830001FDB00F0A2F827480078F8B92868817B00
:10184000491C8173286890F91110B4F90020914265
:101850000ADB817B491E81732868807B70B901B0E7
:10186000BDE8304000F04CB801B0BDE8304000F0B9
:101870008DB801B0BDE8304000F0FBB801B030BD1C
:101880000F4801688A894B899A188A810A7A521E00
:101890000A720068017A21B98189C908818100F042
:1018A0002FB87047C00000209D0000207400002069
:1018B0000C20000808200008DC0000200920000897
:1018C00048010020B8000020BC0000205201002088
:1018D0009F000020A0000020C348007800EB80019A
:1018E000C24800EB8100C24908607047C0480068E8
:1018F000B0F90C10B0F90A00081ABE490880704708
:10190000BB4801684A6842F008024A6002220A7035
:101910000068416821F00401416021F080014160CC
:1019200021F0200141607047B148016802220A702D
:101930000068416821F00401416021F080014160AC
:1019400021F0200141607047A948016814220A7003
:101950000068A949097881737047A5480168042285
:101960000A700068416841F00401416041F00801DB
:101970004160A2490978017270479D48016824229C
:101980000A7000689E49097881737047984800681A
:101990000421017070479648016811220A7000689E
:1019A00098490978817370479148016801220A704B
:1019B00001684A6822F004024A6042F008024A6064
:1019C00022F080024A6022F020024A6008220A7255
:1019D00000680021818170478548016808220A70EB
:1019E0000068416821F00401416041F00801416054
:1019F00021F08001416041F02001416070477C4846
:101A0000016880220A700068416821F00401416089
:101A100041F00801416021F08001416021F0200186
:101A2000416070477248006841680A0600D57047F7
:101A300030B481B0427A6C4B1B786C4C6BB1657AD8
:101A4000154208D025792D0605D5817B491C817367
:101A500001B030BC7047012B05D0637F134202D028
:101A6000227E1206F1D441F08001416001B030BC09
:101A7000704765480078C0070DD56048007850B1C0
:101A80005B4801680A7A521E0A720068007A0028D0
:101A900008BFFFF789BF70472DE9F04F012080F3A1
:101AA00010885A485A490A68026000220A6082F384
:101AB00010884FF0FF314F4A4D4BDFF830814A4DCF
:101AC000DFF85091DFF850A10468002C00F0888006
:101AD000641E04609AF80040002C1CBF641E8AF843
:101AE00000404E4C2478641E5FFA84FCBCF1000F69
:101AF00008D14FF00A0C99F80040002C1CBF641E5E
:101B000089F80040454C84F800C0454C94F800C06A
:101B10004FF0010E00242C7046461E603778142FBB
:101B200018BF042F18BF242F04D13E4C247889F805
:101B300000401DE0022F14D1B6F90CB0B6F90A70BE
:101B4000ABEB070717803FB2002F06D003D5012C5F
:101B500003DA0C4605E0002C02D54FF0000E00E041
:101B600001242F787F1C2F701436FFB2022FD4D39C
:101B70009AF8004099F800603443A5D12A4C2478A3
:101B80008AF80040BEF1000F1CBF284C94F800C03A
:101B90008CF0FF04641C5FFA84FEBCF1000F93D04C
:101BA00000242C702C7804EB840608EB86041C605F
:101BB0002678022E0DD1A689E77B07EB06266789DA
:101BC0003F0207FB0CF706FB0E76370CA781360A9F
:101BD000E6732C78641C2C70E4B2022CE2D373E719
:101BE0000160BDE8F08F00009D000020740000201F
:101BF00048010020520100209F0000209E0000208C
:101C0000A0000020A1000020B40000204C01002012
:101C100060000020A7000020A6000020A8000020EF
:101C2000A5000020A3000020A2000020A4000020A6
:101C300000BF704700BF70477047FEE7FEE7FEE752
:101C4000FEE7FEE7FEE7FEE710B5FFF78DFC304943
:101C50000888401C088080B20A2190FBF1F101EB5A
:101C60008102B0EB420135D12A490A6842F00102F3
:101C70000A60322390FBF3F403FB140353BB42F0DE
:101C800002020A60642390FBF3F403FB14030BBB12
:101C900042F004020A60C82390FBF3F403FB140330
:101CA00013B942F008020A604FF4967290FBF2F307
:101CB00002FB13021AB90A6842F020020A604FF4CC
:101CC000FA7290FBF2F302FB130018B9086840F0B7
:101CD00010000860BDE81040FEF7FEBC10B50E4CC9
:101CE00001212046FEF7FBFA28B101212046BDE87C
:101CF0001040FEF734BB10BD00B581B0FEF703FD08
:101D00000121064801B05DF804EBFEF728BB000096
:101D1000500100201001002000100040001400407D
:101D2000012000F013B800B581B0012000F056F892
:101D30004FF48040FEF744FF002000F04FF84FF4CE
:101D4000801001B05DF804EB00F000B810B5044657
:101D5000E00DC00500D12CB94FF492710FF21000C4
:101D6000FEF7A2FC0148046010BD0000140401400D
:101D7000433A5C30304669726D77617265576F72B5
:101D80006B696E6741436861755C576F726B696E12
:101D9000675C475453565F52616E6765486F6F6466
:101DA0005C4C69627261726965735C53544D333285
:101DB0004C3178785F5374645065726970685F4421
:101DC00072697665725C7372635C73746D33326CC6
:101DD0003178785F657874692E63000010B504006F
:101DE00018BF012C04D086210FF21000FEF75CFC16
:101DF0000148046010BD000020000E42433A5C30F0
:101E0000304669726D77617265576F726B696E6784
:101E100041436861755C576F726B696E675C4754CC
:101E200053565F52616E6765486F6F645C4C6962C0
:101E30007261726965735C53544D33324C317878FA
:101E40005F5374645065726970685F447269766547
:101E5000725C7372635C73746D33326C3178785F6B
:101E60007077722E6300000082B03248016841F43E
:101E7000807101608168304A1140816001682F4A99
:101E800011400160016821F480210160816821F422
:101E90007D0181600021C16001910091016841F0E4
:101EA00001010160016801F0020100910199491CE2
:101EB0000191009919B90199B1F5A06FF2D10168AA
:101EC000490801F001010091009901292FD1D0F8B2
:101ED000001441F00401C0F80014D0F8001441F0DF
:101EE0000201C0F80014D0F8001441F00101C0F85C
:101EF0000014416A41F08051416211494FF400627F
:101F00000A604A68D206FCD4816881608168816079
:101F1000816881608168890889008160816841F0F9
:101F200001018160816801F00C010429FAD102B03D
:101F300070470000003802400CC0FF88FEFFFEEE34
:101F40000070004010B5074979441831064C7C44B4
:101F5000163404E0081D0A68511888470146A1425A
:101F6000F8D110BD2C0000004C00000050F8041BFC
:101F700061B150F8042BD30744BFA9F101039A18AB
:101F8000002342F8043B091FFAD1EFE77047000035
:101F9000DDFFFFFF100100004400002000000000F2
:101FA0000BE7FFFF4400000040010000000000209C
:101FB0000000000000F009F8002801D0FFF7C2FF80
:101FC0000020FEF745FA00F002F80120704700F00B
:101FD00001B800000746384600F002F8FBE70000B1
:101FE00001491820ABBEFBE72600020001488047EC
:101FF00001480047691E0008FD1F0008C046C04692
:10200000C046C046FFF7D6FF06060000400040006D
:10201000FFF712BEFFF711BEFFF710BEFFF70FBEAE
:10202000FFF70EBEFFF70DBEFFF70CBEFFF70BBEAE
:10203000FFF70ABEFFF7FEBFFFF7FEBFFFF7FEBFC9
:10204000FFF771BEFFF7FEBFFFF7FEBFFFF768BEE9
:10205000FFF7FEBFFFF7FEBFFFF7FEBFFFF7FEBFB4
:10206000FFF7FEBFFFF7FEBFFFF7FEBFFFF7FEBFA4
:10207000FFF7FEBFFFF7FEBFFFF7FEBFFFF7FEBF94
:10208000FFF7FEBFFFF7FEBFFFF7FEBFFFF7FEBF84
:10209000FFF7FEBFFFF7FEBFFFF7FEBFFFF7FEBF74
:1020A000FFF7FEBFFFF7FEBFFFF7FEBFFFF7FEBF64
:1020B000FFF7FEBFFFF7FEBFFFF7FEBFFFF7FEBF54
:1020C000FFF7FEBFFFF7FEBFFFF7FEBFFFF7FEBF44
:1020D000FFF7FEBFFFF7FEBFFFF7FEBFFFF7FEBF34
:1020E000FFF7FCBDFFF708BE0024F4000304060858
:1020F0000C10182030000000000000000102040055
:1021000000000000000000000102030406070809A7
:10211000030406080C101820300000000000000026
:0C21200001020304010203040607080981
:0400000508001FFDD3
:00000001FF
