:020000040800F2
:1000000098050020A1220008ED1E0008EF1E000840
:10001000F11E0008F31E0008F51E00080000000095
:10002000000000000000000000000000F71E0008B3
:10003000F91E000800000000FB1E0008FD1E00085D
:10004000ED220008F1220008F5220008DB1F00085D
:10005000FD22000801230008D51F0008092300081D
:100060000D23000811230008152300081923000898
:100070001D23000821230008252300082923000848
:100080002D230008312300083523000839230008F8
:100090003D230008412300084523000849230008A8
:1000A0004D23000851230008552300085923000858
:1000B0005D23000861230008652300086923000808
:1000C0006D230008712300087523000879230008B8
:1000D0007D23000881230008852300088923000868
:1000E0008D2300089123000895230008911F000824
:1000F000AD1F0008DFF8E804016841F0020101606B
:10010000DFF8E0148A68DFF8E0341A438A60826816
:1001100042F0004282600868400040080860DFF852
:10012000CC04018801808168816001880180816838
:1001300081600188018081688160FFE730B581B00E
:10014000DFF8AC44DFF89C54286820402860012088
:1001500080F31088DFF89C04818A4EF6FE7211400D
:1001600081820168DFF89024114041F0807141F0F4
:1001700001010160818A4DF6FD72114081820168A2
:10018000DFF87824114041F0806141F00401016002
:10019000818A4BF6FF7211408182016821F0405143
:1001A00041F080510160818A4904490C81820168D3
:1001B0008900890841F080410160002080F31088A7
:1001C000642000F02BFA28682040286001B030BD80
:1001D0002DE9F04F81B00024DFF824542C606C60CE
:1001E000AC60EC602C616C61DFF80484DFF8F473C0
:1001F000386808EA00003860012080F31088DFF8D2
:10020000F463B08A4EF6FE710840B082DFF8E893DE
:10021000306809EA000040F0807040F00100306072
:10022000B08A4DF6FD710840B082DFF8D8A3DFF840
:10023000CCB330680BEA00004AEA0000306084F377
:100240001088322000F0EAF9012080F3108830682D
:100250000BEA0000306084F31088386840F4802096
:1002600040F480703860012080F31088B08A40F438
:10027000005040F00200B08230680BEA00004AEA09
:1002800000003060002080F3108800F0CDF9287D58
:10029000400607D4308AC00404D5AC81686940F0B8
:1002A00040006861287D400707D4308AC00704D524
:1002B000AC80686940F004006861287D800607D43E
:1002C000308AC00604D56C81686940F020006861FE
:1002D000641C012080F3108830680BEA0000306055
:1002E000002080F31088386840F4002040F400704B
:1002F000386000F09BF9012080F31088306809EA2B
:1003000000003060002080F31088386808EA0000A0
:1003100038604EF20960A4B2844203D300BF01B03A
:10032000BDE8F08F288B69690140814295D101B009
:10033000BDE8F08F2DE9F04F81B00024B24D2C6064
:100340006C60AC60EC602C616C61DFF8C082A54F22
:10035000386808EA00003860012080F31088A54E54
:10036000B08A4EF6FE710840B082DFF88C92306899
:1003700009EA000040F0807040F001003060B08A6F
:100380004BF6FF710840B082306820F0405040F0DA
:100390008050306084F31088322000F03FF9012053
:1003A00080F31088306820F04050306084F310886B
:1003B000012080F31088306809EA0000306084F37F
:1003C00010884EF2096ADFF848B238684BEA00003C
:1003D0003860012080F31088B08A40F48040B082F9
:1003E000306820F0405040F080503060002080F3B2
:1003F000108800F019F9287D400607D4308AC0041F
:1004000004D5AC81686940F040006861287D4007F0
:1004100007D4308AC00704D5AC80686940F0040076
:100420006861287D800607D4308AC00604D56C81B7
:10043000686940F020006861012080F3108830680E
:1004400020F040503060002080F31088641C386831
:1004500040F48010386000F0E9F8012080F3108843
:10046000306809EA00003060002080F310883868A6
:1004700008EA00003860544503D300BF01B0BDE86E
:10048000F08F288B6969014081429ED101B0BDE89F
:10049000F08F2DE9F04F81B000245E4D2C606C6030
:1004A000AC60EC602C616C61DFF86C814D4F38689A
:1004B00008EA00003860012080F310884D4EB08AB1
:1004C0004EF6FE710840B082DFF82C91306809EAE0
:1004D000000040F0807040F001003060B08A4004BD
:1004E000400CB08230688000800840F0804030606E
:1004F00084F31088322000F091F8012080F31088F6
:10050000306880008008306084F310884EF2096AF9
:10051000DFF8FCB038684BEA00003860012080F357
:100520001088B08A40F40040B082306880008008B3
:1005300040F080403060002080F3108800F074F8B4
:10054000287D400607D4308AC00404D5AC81686990
:1005500040F040006861287D400707D4308AC0071A
:1005600004D5AC80686940F004006861287D80068D
:1005700007D4308AC00604D56C81686940F0200039
:100580006861012080F31088306880008008306046
:10059000002080F31088641C386840F40010386034
:1005A00000F044F8012080F31088306809EA000068
:1005B0003060002080F31088386808EA0000386056
:1005C000544503D300BF01B0BDE8F08F288B6969A3
:1005D000014081429ED101B0BDE8F08F00000000D3
:1005E0001C380240087C0040000003F00404024074
:1005F000FFFCF3FF00040240FCFFFFFCF3FFFFF3EE
:10060000E80000200400000404010020FFFEEBFFCE
:100610000001040020010020FFFEDBFF00E0401E7F
:1006200080B20028FBD1704700BF704700BF704701
:10063000CC48007800EB8001CB4800EB8100CB492F
:1006400008607047C9480068B0F90C10B0F90A009A
:10065000081AC74908807047C44801684A6842F0D0
:1006600008024A6002220A700068416821F0040111
:10067000416021F08001416021F02001416070471C
:10068000BA48016802220A700068416821F004013A
:10069000416021F08001416021F0200141607047FC
:1006A000B248016814220A700068B249097881735F
:1006B0007047AE48016804220A700068416841F042
:1006C0000401416041F008014160AB4909780172C1
:1006D0007047A648016824220A700068A749097873
:1006E00081737047A14800680421017070479F48DA
:1006F000016811220A700068A14909788173704766
:100700009A48016801220A7001684A6822F00402CE
:100710004A6042F008024A6022F080024A6022F0F9
:1007200020024A6008220A72006800218181704715
:100730008E48016808220A700068416821F00401AF
:10074000416041F00801416021F08001416041F0C9
:100750002001416070478548016880220A70006866
:10076000416821F00401416041F00801416021F03D
:100770008001416021F02001416070477B480068A2
:1007800041680A0600D5704770B4427A754B1B78F1
:10079000754C6BB1657A1646354207D025792D0622
:1007A00004D5817B491C817370BC7047012B08D034
:1007B000657F1646354202D0257E2D06F1D4022BE8
:1007C00009D094F83150354203D094F82C502D06BE
:1007D000E7D4032B07D094F84530134203D094F8A4
:1007E00040201206DDD441F08001416070BC7047AA
:1007F00064480078C0070DD55F48007850B15B4869
:1008000001680A7A521E0A720068007A002808BF3E
:10081000FFF776BF70472DE9F04F012080F3108875
:1008200059485A490A68026000220A6082F3108817
:100830004FF0FF314E4A4D4BDFF82C81494DDFF828
:100840005091DFF850A10468002C00F08880641EED
:1008500004609AF80040002C1CBF641E8AF8004017
:100860004D4C2478641E5FFA84FCBCF1000F08D163
:100870004FF00A0C99F80040002C1CBF641E89F848
:100880000040454C84F800C0444C94F800C04FF040
:10089000010E00242C7046461E603778142F18BFB6
:1008A000042F18BF242F04D13D4C247889F8004030
:1008B0001DE0022F14D1B6F90CB0B6F90A70ABEBFB
:1008C000070717803FB2002F06D003D5012C03DAAB
:1008D0000C4605E0002C02D54FF0000E00E001248C
:1008E0002F787F1C2F701436FFB2042FD4D39AF8C0
:1008F000004099F800603443A5D12A4C24788AF846
:100900000040BEF1000F1CBF274C94F800C08CF0D3
:10091000FF04641C5FFA84FEBCF1000F93D0002436
:100920002C702C7804EB840608EB86041C60267877
:10093000022E0DD1A689E77B07EB062667893F02C9
:1009400007FB0CF706FB0E76370CA781360AE67319
:100950002C78641C2C70E4B2042CE2D373E70160A1
:10096000BDE8F08FC5000020440000208C0100206D
:1009700096010020C7000020C6000020C80000200B
:10098000C9000020DC00002090010020B000002001
:10099000CF000020CE000020D0000020CD0000209D
:1009A000CB000020CA000020CC00002070B5DFF88A
:1009B000304300202083DFF82C53DFF82C6330789D
:1009C0008821084203D1DFF8240300882083307D8A
:1009D000084205D1208BDFF814134988084320838F
:1009E00002202870208B68B1FFF7F2FBDFF80003CC
:1009F000017834F811107181407834F81000F083D8
:100A00000220287070BD70B5DFF8E8420020208316
:100A1000DFF8D052DFF8D06296F82800882108422B
:100A200003D1DFF8C8028088208303202870208B40
:100A300048B1FFF77FFCDFF8C002007834F81000FF
:100A400070860320287070BD70B5DFF8B0420020BA
:100A50002083DFF89052DFF8906296F83C008821FE
:100A6000084203D1DFF88402C08820830420287064
:100A7000208B50B1FFF70DFDDFF88402007834F8C9
:100A80001000A6F846000420287070BD70B5954C83
:100A9000002020706FF00905DFF86862FFF7C8FDDD
:100AA000306880210170306844210174306843212E
:100AB0004174306885742078401C2070C0B20428CE
:100AC000ECD370BD10B5FFF7B3FDFFF7BBFD8D4C48
:100AD00020680178012973D002290CD0042940D064
:100AE000082912D011295AD0142923D0242942D000
:100AF000802972D076E0408908384EF2016180B2D8
:100B0000884267D200F06FF820680079800758BFEC
:100B1000FFF721FE20687C490A8883881A430A80EF
:100B20007A490A7803781A430A70416821F008016B
:100B3000416010BD7649B1F9001090F91000814272
:100B40000CDBFFF71BFE2068817B491E8173206848
:100B5000807B0028DED1FFF7ACFDDBE7FFF790FDDF
:100B6000D8E7408908384EF2016180B2884231D21C
:100B700000F072F8C8E790F91110654AB2F9002048
:100B8000914209DB817B491E81732068807B0028AC
:100B9000C0D1FFF761FDBDE7FFF7A4FDBAE790F90B
:100BA00012105B4AB2F900209142D7DB817B491ECB
:100BB00081732068807B0028ACD1FFF7A1FDA9E7F5
:100BC000408908384EF2016180B2884202D200F0BA
:100BD00075F899E7FFF7ACFD9CE7007900F003009A
:100BE0000328E9E7FEE730B581B0494DB5F90000CB
:100BF000444C216891F91220824204DB01B0BDE827
:100C00003040FFF774BD91F91010884222DBFFF7E6
:100C100047FD40480078E8B92068817B491C817312
:100C2000B5F90000216891F9101088420DDBFFF73B
:100C3000A5FD2068817B491E81732068807B48B9AF
:100C400001B0BDE83040FFF734BD01B0BDE8304031
:100C5000FFF716BD01B030BD30B581B02C4C294D29
:100C6000286890F91100B4F9001088421FDBFFF7E3
:100C700030FD29480078F8B92868817B491C8173C8
:100C8000286890F91110B4F9002091420ADB817BA9
:100C9000491E81732868807B70B901B0BDE830407F
:100CA000FFF7DABC01B0BDE83040FFF71BBD01B073
:100CB000BDE83040FFF79CBD01B030BD1148016870
:100CC0008A894B899A188A810A7A521E0A720068A8
:100CD000017A21B98189C9088181FFF7BDBC7047BC
:100CE000E8000020C500002044000020B4220008D5
:100CF000B022000804010020B222000820010020D8
:100D0000B32200088C010020E0000020E400002055
:100D100096010020C7000020C800002030B581B037
:100D200004460D46B4F1804F1CBFDFF83801844201
:100D30001CD0DFF8340184421CBFDFF8300184424C
:100D400014D0DFF82C0184421CBFDFF82801844254
:100D50000CD0DFF8240184421CBFDFF8200184425C
:100D600004D0FA21DFF8180100F0B2FA68880028F0
:100D700018BF102809D020281CBF4028602804D0A4
:100D8000FB21DFF8FC0000F0A3FAE88800281CBF74
:100D9000B0F5807FB0F5007F04D0FC21DFF8E000E3
:100DA00000F096FA2088B4F1804F1FBFDFF8B4102E
:100DB0008C42DFF8B4108C4204D14FF68F7108409A
:100DC00069880843DFF8A4108C421CBFDFF8A0102C
:100DD0008C4204D04FF6FF410840E9880843208048
:100DE000A888A085288820850120A08201B030BD78
:100DF00030B581B004460D46B4F1804F1CBF194890
:100E0000844218D0184884421CBF1848844212D02B
:100E1000174884421CBF174884420CD016488442AD
:100E20001CBFDFF85800844205D040F21A21DFF8D9
:100E3000500000F04DFA6DB1012D05D040F21B219C
:100E4000DFF83C0000F044FA208840F001002080E8
:100E500001B030BD20884FF6FE710840208001B0FF
:100E600030BD0000000400400008004000100040B9
:100E70000014004000080140000C01400010014037
:100E80000C10000870B504460D461646B4F1804FAC
:100E90001CBF564884421AD0554884421CBFDFF814
:100EA0006001844213D0DFF85C0184421CBF5148CA
:100EB00084420CD0504884421CBFDFF84001844279
:100EC00005D040F26A71DFF8400100F001FA4FF6F8
:100ED000A070054200D12DB940F26B71DFF82801F6
:100EE00000F0F6F95EB1012E05D040F26C71DFF82A
:100EF000180100F0EDF9A0892843A08170BDA089F8
:100F0000A843A08170BD70B506460C460025B6F119
:100F1000804F1CBF354886421AD0354886421CBFD8
:100F2000DFF8DC00864213D0DFF8D80086421CBF11
:100F3000304886420CD0304886421CBFDFF8BC00E7
:100F4000864205D04FF4FF61DFF8BC0000F0C0F925
:100F5000012C18BF022C0DD0042C18BF082C09D06E
:100F6000102C18BF402C05D040F2F971DFF8980022
:100F700000F0AEF9308AB189214020421CBF00291F
:100F80000125284670BD30B581B004460D46B4F148
:100F9000804F1CBF1548844219D0154884421CBF9D
:100FA000DFF85C00844212D0DFF8580084421CBF96
:100FB000104884420BD0104884421CBF0F48844222
:100FC00005D040F61F01DFF8400000F081F94FF630
:100FD000A070054200D12DB94FF40261DFF828005E
:100FE00000F076F9E843208201B030BD00040040F3
:100FF0000008004000080140000C014000100140C2
:1010000000100040001400400C100008433A5C300F
:10101000304669726D77617265576F726B696E6782
:1010200041436861755C576F726B696E675C4754CA
:1010300053565F52616E6765486F6F645C4C6962BE
:101040007261726965735C53544D33324C317878F8
:101050005F5374645065726970685F447269766545
:10106000725C7372635C73746D33326C3178785F69
:1010700074696D2E6300000000F0B3F88B480068BF
:101080004FF47A71B0FBF1F0B0F1807F0ED2884955
:101090000002000A401E4860F02081F8130D002075
:1010A000886007200860E02081F8130D00F048F800
:1010B00000F043F900F07CF97E48012101707E4C7C
:1010C0007E4D0BE0022000F032FA002000F02FFAF3
:1010D00000F0B1FA00F038FA00F0CEFA00F0F6FABB
:1010E0002868410704D520F00400286000F071FA58
:1010F0002868C10612D520F0100028602146002083
:1011000000F050FB2178002000F0C0F96178012048
:1011100000F0BCF9A178022000F0B8F90221082003
:1011200000F06AF9012000F0FAF900F081FA0028D5
:10113000C8D0022000F0F3F9002000F0F0F9C7E772
:1011400030B581B00121012000F019FC5C4C4FF456
:1011500080502060012020710020E080012060711B
:10116000584D2146284600F0D1FC4FF480512846C6
:1011700000F063FD0121084600F001FC4FF400601F
:10118000206001202071A071E07160712146284625
:1011900000F0BCFC0121072000F0F1FB5020206092
:1011A000012020710020A0710120E07160710F20EA
:1011B00020602146444800F0A9FC0121022000F0F3
:1011C000DEFB02202060012020710020A0710120A0
:1011D000E07160712146284601B0BDE8304000F062
:1011E00095BC10B5394C00F06FFB2070201D00F04D
:1011F00071FB212000F00DFC616960F30001616169
:10120000292000F006FC616960F341016161312031
:1012100000F0FFFB616960F382016161392000F039
:10122000F8FB616960F3C3016161492000F0F1FBE3
:10123000616960F304116161412000F0EAFB6169BA
:1012400060F345116161592000F0E3FB616960F3CF
:10125000861161615A2000F0DCFB616960F3C711FF
:1012600061615B2000F0D5FB616960F30821616179
:101270005C2000F0CEFB616960F3492161615D2073
:1012800000F0C7FB616960F38A2161615E2000F0B4
:10129000C0FB616960F3CB2161615F2000F0B9FBA5
:1012A000616960F30C31616110BD00000000002035
:1012B00010E000E0AC024042740100205401002024
:1012C0007801002000000240000802403C0100209C
:1012D000FEE710B450F8041B81B102681218001D1B
:1012E00050F8043BDC0744BFA9F10104E31852F8AD
:1012F000044B43F8044B091FF9D1EBE710BC7047CE
:101300002748018891B1012905D1022101800121DD
:101310002448FFF76DBD4288914202D2491C0180EA
:101320007047002101801F48FFF762BD70471E48CB
:10133000017881F001010170704710B584B001217E
:10134000202000F042FB194800684FF47A61B0FB9E
:10135000F1F0401EADF8080000200190ADF80A0041
:10136000104C01A92046FFF7D9FC01212046FFF7C8
:101370000AFE012201212046FFF784FD2C208DF872
:1013800000000E208DF8010001208DF802008DF87C
:10139000030000A800F0BAFC04B010BD000000007B
:1013A0008601002000140040B002404200000020EE
:1013B00000B581B000F066F90E48416841F00301C4
:1013C000416001214172816941F003018161012184
:1013D0004177C16A41F00301C162012180F83110F7
:1013E000016C41F003010164012180F8451001B056
:1013F00000BD0000440000202DE9F04F0FF26C22E8
:101400008D5C0FF2542202EB4001497812F810B0C3
:101410006A1102F00102AB1103F001032C1104F078
:101420000104EE1006F00108AE1006F001066F1080
:1014300007F0010905F0010CDFF800E2DFF80052C7
:10144000DFF80072DFF800A204280FD288000AF843
:1014500000C007F800902E540EF800804FEA8B0071
:101460002C543B540AF80020BDE8F08F4FEA8B0063
:101470000EF800C005F800903E540AF8008088007D
:101480003C542B540EF80020BDE8F08F70B50C468C
:10149000642C38BF042822D241004D1C0A2194FB41
:1014A000F1F6420002280DD2F1B2D0B2FFF7A4FF4C
:1014B00006EB8600A4EB4001C9B2E8B2BDE870407B
:1014C000FFF79ABF06EB8600A4EB4001C9B2D0B289
:1014D000FFF792FFF1B2E8B2BDE870408CE770BD53
:1014E0005A4800885A4900F0010281F82420C0F3CC
:1014F000400281F80823C0F3800281F85C20C0F329
:10150000C00281F84423C0F3001281F85420C0F3D4
:1015100040120A70C0F3801081F8E80270474B490E
:101520000A88012303FA00F010430880D8E74749EE
:10153000072808BF002005D00A88012303FA00F01D
:1015400022EA00000880CBE710B518B1022812D0BB
:1015500005D327E03D4C208840F0100027E03B4CAD
:1015600020884FF6EF7108402080FFF7B9FF2088F0
:1015700040F0200022E0354C20884FF6EF71084003
:101580002080FFF7ADFF20884FF6DF7108402080F4
:10159000FFF7A6FF208840F040002080BDE8104003
:1015A000FFF79EBF294C20884FF6EF71084020803E
:1015B000FFF796FF20884FF6DF7108402080FFF785
:1015C0008FFF20884FF6BF7108402080BDE8104093
:1015D00086E720480178491C0170C9B2142904BF6C
:1015E0000021017001780A299241D20FC27041781E
:1015F000491C4170C9B2032909D1002141704179C8
:10160000491C4171C9B2032904BF0021417181788D
:10161000491C8170C9B2062909D100218170017964
:10162000491C0171C9B2032904BF0021017170472F
:101630000848C078704707480079704780820442A4
:101640008083044280840442808504428A01002011
:10165000A082044280010020111C1D1E1F070809E2
:10166000101B1A19180F0B0A010200003F065B4FEE
:10167000666D7D077F6F7100014801210160704731
:101680000881044210B5012080F31088434C0020EB
:10169000E07020711420A071E0710A2060710020B8
:1016A000A070142020720A2060721420A072002002
:1016B000E0722073FEF71EFD00F0A8FBFFF7E6F9CD
:1016C000002080F310880120207010BD10B5334C2D
:1016D0002078401E0A285FD8DFE800F006181D2B8E
:1016E000303D425E5E5E4F00012080F310882C4842
:1016F0000168A26961F30002A26149084900016022
:10170000002080F310880220207010BDFFF74EF9F2
:101710000320207010BD002084F80100FFF7D2F9EB
:101720006078401C6070C0B20228F7D3042020709B
:1017300010BDFFF768F90520207010BD0220607011
:10174000FFF7C0F96078401C6070C0B20328F7D37F
:101750000620207010BDFFF777F90720207010BD1C
:1017600003206070FFF7AEF96078401C6070C0B273
:101770000428F7D30B20207010BDFFF74CF8A08B86
:1017800020820020A08394F820002075002084F897
:1017900020000120207010BDFEE70000C4000020E2
:1017A000BC00002030B581B005000C4618BF012DEB
:1017B00005D040F2F521DFF86800FFF789FDDFF87A
:1017C0005C000068DFF85C100840010C01F03F028B
:1017D0002270020A6270A07001F04000E070D5B97A
:1017E0002078010901EB810200F00F0000EB4200BC
:1017F00020706078010901EB810200F00F0000EB1E
:1018000042006070A078010901EB810200F00F0036
:1018100000EB4200A07001B030BD00000028004085
:101820005C1800087F7F7F0010B5040002D034F4FC
:101830003C3005D040F623010FF22000FFF748FDB1
:1018400005482103090C41F08001026802F0800282
:1018500062EA0101016010BD0C280040433A5C308F
:10186000304669726D77617265576F726B696E672A
:1018700041436861755C576F726B696E675C475472
:1018800053565F52616E6765486F6F645C4C696266
:101890007261726965735C53544D33324C317878A0
:1018A0005F5374645065726970685F4472697665ED
:1018B000725C7372635C73746D33326C3178785F11
:1018C0007274632E63000000DFF8B401006800F05A
:1018D0000C00704710B4DFF8A4114A6802F00C0243
:1018E0000C2A23D8DFE802F0222222220722222219
:1018F0000A2222220D00DFF88C2120E0DFF8882167
:101900001DE04A684B68C2F38342DFF88041125DF4
:10191000C3F381535B1C4C68E40354BFDFF864419C
:10192000DFF864416243B2FBF3F208E00A68012386
:10193000520B02F00702521C03FA02F2D2030260B9
:101940004B68DFF848210468C3F303139B181B7B23
:1019500024FA03F343604B684468C3F302239B18E3
:101960001B7B24FA03F3836049684368C1F3C221F7
:101970008918097B23FA01F1C16010BC704730B5AA
:1019800081B004460D46DFF80801044200D12CB9AD
:1019900040F22F410FF20810FFF79AFC75B1012DAC
:1019A00005D04FF486610FF2F800FFF791FCDFF8E5
:1019B000E40001682143016001B030BDDFF8D400CC
:1019C0000168A143016001B030BD30B581B004466B
:1019D0000D46DFF8C400044200D12CB940F27C412E
:1019E0000FF2BC00FFF774FC6DB1012D05D040F281
:1019F0007D410FF2AC00FFF76BFC284801682143E2
:101A0000016001B030BD25480168A143016001B00B
:101A100030BD30B581B004460025212C18BF312CD3
:101A20001AD0292C18BF392C16D0492C18BF412C9C
:101A300012D05A2C18BF5B2C0ED05C2C18BF5D2C1A
:101A40000AD05E2C1CBF5F2C592C05D040F2B65139
:101A50000FF24C00FFF73CFC0748610901290CBF5D
:101A60000068406B012104F01F029140084218BF3A
:101A70000125284601B030BD00380240043802403C
:101A8000083802400024F40000127A0028000020E8
:101A9000C06FFFFE1C380240C8B5194F2438024001
:101AA000433A5C30304669726D77617265576F7288
:101AB0006B696E6741436861755C576F726B696EE5
:101AC000675C475453565F52616E6765486F6F6439
:101AD0005C4C69627261726965735C53544D333258
:101AE0004C3178785F5374645065726970685F44F4
:101AF00072697665725C7372635C73746D33326C99
:101B00003178785F7263632E630000002DE9F04343
:101B100081B004460D460026DFF86C0184421CBFEC
:101B2000DFF86801844214D0DFF8640184421CBFEE
:101B3000DFF8600184420CD0DFF85C0184421CBFF6
:101B4000DFF85801844204D0C1210FF25410FFF78E
:101B5000BFFB286820B9C2210FF24410FFF7B8FB81
:101B60002879002818BF012808D0022818BF0328A8
:101B700004D0C3210FF22810FFF7AAFBE87940B187
:101B8000012818BF022804D0C4210FF21410FFF757
:101B90009FFB012000FA06F8286808EA000040458B
:101BA00045D177000320B8406FEA0009206809EAB0
:101BB0000000206020682979B94008432060287916
:101BC000012818BF022829D16879002818BF0128E8
:101BD00008D0022818BF032804D0D8210FF2C00073
:101BE000FFF776FBA06809EA0000A060A0686979A9
:101BF000B9400843A060A879002818BF012804D084
:101C0000DF210FF29C00FFF763FBA08820EA0800A9
:101C1000A080A088A979B1400843A080E06809EAC3
:101C20000000E060E068E979B9400843E060761CB4
:101C3000102EAED301B0BDE8F08330B581B00446BC
:101C40000D46114884421CBF1048844211D01048F0
:101C500084421CBF0F4884420BD00F4884421CBFF3
:101C60000E48844205D040F29B110FF23400FFF77A
:101C70002FFB2DB94FF4CE710FF22400FFF728FB94
:101C8000658301B030BD0000000002400004024046
:101C900000080240000C0240001002400014024004
:101CA000433A5C30304669726D77617265576F7286
:101CB0006B696E6741436861755C576F726B696EE3
:101CC000675C475453565F52616E6765486F6F6437
:101CD0005C4C69627261726965735C53544D333256
:101CE0004C3178785F5374645065726970685F44F2
:101CF00072697665725C7372635C73746D33326C97
:101D00003178785F6770696F2E63000070B50446A4
:101D1000E078002818BF012804D08C210FF2880039
:101D2000FFF7D6FA6078102804D38D210FF27800DF
:101D3000FFF7CEFAA078102804D38E210FF26800A6
:101D4000FFF7C6FA227811460120E378E3B1124A80
:101D5000126802F4E062C2F5E062120A6378C2F12E
:101D60000405AB40A5780F2626FA02F22A401A4352
:101D700012010A4BCA5421784A11094B01F01F0184
:101D8000884043F8220070BD4911064B02F01F0243
:101D9000904043F8210070BD0CED00E000E400E04D
:101DA00000E100E080E100E0433A5C3030466972D7
:101DB0006D77617265576F726B696E6741436861D9
:101DC000755C576F726B696E675C475453565F5210
:101DD000616E6765486F6F645C4C696272617269BD
:101DE00065735C53544D33324C3178785F5374646F
:101DF0005065726970685F4472697665725C73726F
:101E0000635C6D6973632E630000000010B5354C90
:101E10000020A06160612061E06184F82800204614
:101E2000FFF758FD60684FF4FA61B0FBF1F0B0F1D4
:101E3000807F0CD22C490002000A401E4860F0202E
:101E400081F8130D002088600720086010BDFEE7B0
:101E50002448416982690369142B10D3143B036140
:101E6000491CC3695B1CC3610A2922BF0A39521C81
:101E70000A2A04D30A3A836A43F001038362826127
:101E80004161704710B5174C2069401C2061E06A21
:101E900010B1E06A401EE062FFF7DAFFA06A810736
:101EA00004D520F00600A062C8202062A06A0107C5
:101EB00004D520F01800A062C8206062206A30B10A
:101EC000401E206203D1A06A40F00400A062606A54
:101ED00030B1401E606203D1A06A40F01000A062E1
:101EE00010BD00009400002010E000E07047FEE705
:101EF000FEE7FEE7FEE7FEE7FEE7FEE710B5FFF7C9
:101F0000C1FF30490888401C088080B20A2190FB3C
:101F1000F1F101EB8102B0EB420135D12A490A68A7
:101F200042F001020A60322390FBF3F403FB140336
:101F300053BB42F002020A60642390FBF3F403FBFC
:101F400014030BBB42F004020A60C82390FBF3F4B5
:101F500003FB140313B942F008020A604FF49672AF
:101F600090FBF2F302FB13021AB90A6842F0200256
:101F70000A604FF4FA7290FBF2F302FB130018B9F7
:101F8000086840F010000860BDE81040FFF7B8B9DD
:101F900010B50E4C01212046FEF7B5FF28B10121F6
:101FA0002046BDE81040FEF7EEBF10BD00B581B081
:101FB000FFF7BDF90121064801B05DF804EBFEF71B
:101FC000E2BF0000940100205401002000100040F6
:101FD00000140040012000F013B800B581B00120CA
:101FE00000F056F84FF48040FFF71EFC002000F090
:101FF0004FF84FF4801001B05DF804EB00F000B82A
:1020000010B50446E00DC00500D12CB94FF4927113
:102010000FF21000FFF75CF90148046010BD0000EA
:1020200014040140433A5C30304669726D77617246
:1020300065576F726B696E6741436861755C576F76
:10204000726B696E675C475453565F52616E676589
:10205000486F6F645C4C69627261726965735C534E
:10206000544D33324C3178785F53746450657269E3
:1020700070685F4472697665725C7372635C7374D6
:102080006D33326C3178785F657874692E63000047
:1020900010B5040018BF012C04D086210FF21000E7
:1020A000FFF716F90148046010BD000020000E4241
:1020B000433A5C30304669726D77617265576F7272
:1020C0006B696E6741436861755C576F726B696ECF
:1020D000675C475453565F52616E6765486F6F6423
:1020E0005C4C69627261726965735C53544D333242
:1020F0004C3178785F5374645065726970685F44DE
:1021000072697665725C7372635C73746D33326C82
:102110003178785F7077722E6300000082B03248A9
:10212000016841F4807101608168304A114081602A
:1021300001682F4A11400160016821F4802101608B
:10214000816821F47D0181600021C16001910091CD
:10215000016841F001010160016801F00201009194
:102160000199491C0191009919B90199B1F5A06F24
:10217000F2D10168490801F001010091009901299B
:102180002FD1D0F8001441F00401C0F80014D0F8A9
:10219000001441F00201C0F80014D0F8001441F01E
:1021A0000101C0F80014416A41F0805141621149B7
:1021B0004FF400620A604A68D206FCD481688160EC
:1021C0008168816081688160816889088900816097
:1021D000816841F001018160816801F00C010429EE
:1021E000FAD102B070470000003802400CC0FF88EE
:1021F000FEFFFEEE0070004010B50749794418312B
:10220000064C7C44163404E0081D0A6851188847BF
:102210000146A142F8D110BD2C0000004C00000086
:1022200050F8041B61B150F8042BD30744BFA9F147
:1022300001039A18002342F8043B091FFAD1EFE783
:1022400070470000DDFFFFFF540100004400002044
:10225000000000007FF0FFFF440000004401000088
:10226000000000200000000000F009F8002801D064
:10227000FFF7C2FF0020FEF7FFFE00F002F801208A
:10228000704700F001B800000746384600F002F839
:10229000FBE7000001491820ABBEFBE72600020067
:1022A00001488047014800471D210008BD22000861
:1022B000020606060400400040004000C046C0463A
:1022C000C046C046FFF7D0FFFFF710BEFFF70FBEB6
:1022D000FFF70EBEFFF70DBEFFF70CBEFFF70BBEFC
:1022E000FFF70ABEFFF709BEFFF708BEFFF7FEBF04
:1022F000FFF7FEBFFFF7FEBFFFF76FBEFFF7FEBFA2
:10230000FFF7FEBFFFF766BEFFF7FEBFFFF7FEBF9A
:10231000FFF7FEBFFFF7FEBFFFF7FEBFFFF7FEBFF1
:10232000FFF7FEBFFFF7FEBFFFF7FEBFFFF7FEBFE1
:10233000FFF7FEBFFFF7FEBFFFF7FEBFFFF7FEBFD1
:10234000FFF7FEBFFFF7FEBFFFF7FEBFFFF7FEBFC1
:10235000FFF7FEBFFFF7FEBFFFF7FEBFFFF7FEBFB1
:10236000FFF7FEBFFFF7FEBFFFF7FEBFFFF7FEBFA1
:10237000FFF7FEBFFFF7FEBFFFF7FEBFFFF7FEBF91
:10238000FFF7FEBFFFF7FEBFFFF7FEBFFFF7FEBF81
:10239000FFF7FEBFFFF7FEBFFFF7FABDFFF706BE70
:1023A0000024F400030406080C101820300000007C
:1023B0000000000001020400000000000000000016
:1023C0000102030406070809030406080C1018207C
:1023D00030000000000000000102030401020304B9
:0423E00006070809DB
:04000005080022BD10
:00000001FF
