:020000040800F2
:1000000088090020594A0008E9460008EB46000824
:10001000ED460008EF460008F14600080000000029
:10002000000000000000000000000000F34600088F
:10003000F546000800000000F7460008F9460008F1
:10004000A54A0008A94A0008AD4A0008D14700089F
:10005000B54A0008B94A0008CB470008C14A000861
:10006000C54A0008C94A0008CD4A0008D14A00081C
:10007000D54A0008D94A0008DD4A0008E14A0008CC
:10008000E54A0008E94A0008ED4A0008F14A00087C
:10009000F54A0008F94A0008FD4A0008014B00082B
:1000A000054B0008094B00080D4B0008114B0008D8
:1000B000154B0008194B00081D4B0008214B000888
:1000C000254B0008294B00082D4B0008314B000838
:1000D000354B0008394B00083D4B00088D4800089F
:1000E000454B0008494B00084D4B00089947000854
:1000F000B547000800F058FFDFF8E80C00684FF43F
:100100007A71B0FBF1F0B0F1807F0FD2DFF8D81C2C
:100110000002000A401E4860F02081F8130D002004
:10012000886007200860E02081F8130D01F02AF8AC
:1001300000F060FE01F093F81C20DFF8B04C21685D
:100140004A0744BF21F004012160401EF7D101F0AD
:100150008CF901F025FC01F035FFDFF8940C214605
:100160005FF0030210F8013B4B7410F8013B8B74F5
:1001700010F8013BCB7410F8013B0B75091D521EA2
:10018000F0D1002084F8090001F086FF00F001F8AA
:10019000FAE730B581B001F09DF801F077FE00F08C
:1001A0007BF8DFF8484C012001F04AF900281CBF19
:1001B000607A062807D001F029F8206880F48010C2
:1001C00040F0007020602068810518D520F4007090
:1001D000206001F097FC94F82C00032803D2401C07
:1001E00084F82C000BE02068C0015CBF0120207166
:1001F000002084F82C00206820F080702060DFF858
:10020000185D2068C00206D5012001F0D5FA012052
:1002100085F8580005E0012001F01CFB012085F85D
:100220009800607A01280BD12068C00208D404200D
:1002300001F014F920B92870DFF8E00C002104E087
:1002400001202870DFF8D40C01210170207908B951
:1002500000F035FE2079012808BF00F061FEDFF8CC
:100260001C0D21680140814205D101F0CFFD2068BD
:1002700020F0400020602068010607D520F08000B3
:100280002060DFF8001D002002F0EBF801B0BDE8AF
:10029000304001F03ABA0000F0B581B0DFF84C4BC5
:1002A000607A401E052800F25585DFE810F036011F
:1002B000530575028503A80406000020A073DFF82B
:1002C000C05C287528722870DFF8BC0C0021017012
:1002D000052001F00BFB606820F480706060022054
:1002E00001F06AFA2068400200F18080207A01F073
:1002F000CAF901F04CFB50B901F0A9F838B9032054
:1003000001F0A5F818B9032001F094F818B1E079CC
:1003100001F094F901E001F0BCF92068C10505D5B0
:1003200020F480702060A079401CA071042001F0AE
:100330008EF810B10020A0710AE0A079092807D337
:10034000206880F4800020600020A07100F05EFF33
:10035000012001F06FF858B1206880F4800020601F
:100360000020A07100F052FF206840F00070206073
:10037000002001F05FF828B901F070F8A0B12078F2
:10038000800611D5206820F0200020600020A07198
:10039000E07917280CBF0020401CE07100F036FF08
:1003A000206840F000702060032001F043F848B955
:1003B000032001F053F8002800F0CE842078800656
:1003C00040F1CA84206820F0200020600020A07145
:1003D000E07900280CBF1720401EE07100F016FFE6
:1003E000206840F00070206001B0F0BDE07901F0BD
:1003F00025F901F0CCFA50B901F029F838B90320F9
:1004000001F025F818B9032001F014F818B1207A8A
:1004100001F039F901E001F047F92068C10505D57F
:1004200020F480702060A079401CA071042001F0AD
:100430000EF810B10020A0710FE0A07909280CD3AC
:100440000022217AE07900F0C4FE0120607200F001
:10045000DDFE206840F000702060012000F0EAFF1F
:10046000E8B10022217AE07900F0B3FE0120607249
:10047000012000F0ECFF0028FAD1012000F0E0FF9D
:100480000028FAD1012000F0DBFF0028FAD1206813
:1004900080F4801040F00070206000F0B7FE002073
:1004A00000F0C8FF28B900F0D9FFA0B1207880067D
:1004B00011D5206820F0200020600020A071207A53
:1004C0003B280CBF0020401C207200F09FFE2068DB
:1004D00040F000702060032000F0ACFF48B903201A
:1004E00000F0BCFF002800F037842078800640F13F
:1004F0003384206820F0200020600020A071207A42
:1005000000280CBF3B20401E207200F07FFE2068B8
:1005100040F00070206001B0F0BD0020A073DFF853
:10052000605A287528722870DFF85C6A30700520E0
:1005300001F0DCF9606820F48070606001F0D2F8AE
:100540000B21082000F0D2FF032001F0CFF9032097
:1005500001F080F9002001F07DF9DFF8287A387881
:1005600001F06CF8787801F08EF801F010FA18B10B
:10057000022001F021F902E0022001F06BF90120D4
:1005800000F06CFF88B100F041FE3878E0717878B7
:100590002072206820F48000206006206072002015
:1005A000A071206840F000702060022000F056FF2B
:1005B00048B100F02BFE052060720020A071206879
:1005C00040F000702060032000F048FF68B100F0A8
:1005D0001DFE206840F4005020600520607200205D
:1005E000A071206840F000702060002000F036FF0D
:1005F000002842D000F00AFE00202074E07303209F
:100600006072606840F480706060607B401E032808
:1006100026D8DFE800F01D150B020420A07300208F
:100620002875287228700120307022E00320A07302
:10063000002028752872012028700020307018E0F2
:100640000220A0730020287501202872002004E0F9
:100650000120A0732875002028722870307008E0EF
:100660000020A0732875287228703070052001F0D2
:100670003DF9206840F000702060022000F0E0FEAC
:10068000002842D0206840043FD400F0BFFD032082
:100690006072606840F480706060607B401E032878
:1006A00026D8DFE800F01D150B020420A0730020FF
:1006B0002875287228700120307022E00320A07372
:1006C000002028752872012028700020307018E062
:1006D0000220A0730020287501202872002004E069
:1006E0000120A0732875002028722870307008E05F
:1006F0000020A0732875287228703070052001F042
:10070000F5F8206840F000702060032000F098FEAB
:1007100010B900F095FE98B32068C00230D500F003
:1007200075FD03206072606840F480706060002096
:1007300000F086FE002814BF012004206073607B57
:10074000012809D004280ED1A07300202875287232
:100750002870012030700FE0A073287500202872E7
:100760002870307008E00020A07328752872287067
:100770003070052001F0BAF8206840F00070206069
:10078000022000F064FE002840F0E682206820F499
:100790008040206001B0F0BD002001F05BF801F066
:1007A000F6F830B1022001F007F8032001F004F858
:1007B00005E0022001F04EF8032001F04BF8E07B49
:1007C00000F03CFF207C00F05EFFDFF8B87738785F
:1007D00000F037FF787800F059FFA07B032802D3A0
:1007E00001F0DBF801E001F0D5F801F07FF8A17B22
:1007F000082000F07BFE002000F01CFE00284ED0F8
:1008000000F004FD607B04282CBF0120401C6073B5
:10081000607B401E032830D8DFE800F022180F026A
:100820000420A073DFF8585700202875287228701C
:10083000DFF85407012101702DE00320A073DFF8D9
:100840004057002028752872012010E00220A07374
:10085000DFF82C570020287501202872002006E0C0
:100860000120A073DFF8185728750020287228701F
:10087000DFF81407002101700DE00020A073DFF8FD
:100880000057287528722870DFF8FC0600210170D7
:10089000052001F02BF8206840F000702060032054
:1008A00000F0C8FD00284ED000F0B0FC607B0128AD
:1008B0000CBF0420401E6073607B401E032830D8AC
:1008C000DFE800F022180F020420A073DFF8B05612
:1008D0000020287528722870DFF8AC06012101700D
:1008E0002DE00320A073DFF89856002028752872A9
:1008F000012010E00220A073DFF884560020287544
:1009000001202872002006E00120A073DFF8705655
:100910002875002028722870DFF86C06002101700D
:100920000DE00020A073DFF8585628752872287053
:10093000DFF8540600210170052000F0D7FF206881
:1009400040F000702060022000F07AFDE8B1022043
:1009500000F084FDC8B900F059FC0120607200204D
:10096000A073DFF81C56287528722870DFF8180667
:1009700000210170052000F0B9FF606820F480704C
:100980006060206840F000702060022000F066FD8A
:10099000002800F0E18100F039FC04206072207B27
:1009A000C0EB001188006081206820F4000040F056
:1009B0000070206001B0F0BD002000F0FDFEE07B83
:1009C00000F03CFE207C00F05EFE3C25608990FB40
:1009D000F5F0C0B200F035FE608990FBF5F1C1EB97
:1009E0000112A0EB8200C0B200F050FE00F0CFFF79
:1009F00030B1022000F0E0FE032000F0DDFE05E053
:100A0000022000F027FF032000F024FFA07B032832
:100A100002D300F0C2FF01E000F0BCFF00F066FF6F
:100A2000A17B082000F062FD2068000217D500209D
:100A3000A073DFF84C55287528722870DFF8480538
:100A400000210170052000F051FF0120607200F0CC
:100A50008AFE00F0DBFB606820F48070606000209C
:100A600000F0E8FC00284ED000F0D0FB607B0428AA
:100A70002CBF0120401C6073607B401E032830D8CF
:100A8000DFE800F022180F020420A073DFF8F05412
:100A90000020287528722870DFF8EC04012101700D
:100AA0002DE00320A073DFF8D854002028752872A9
:100AB000012010E00220A073DFF8C4540020287544
:100AC00001202872002006E00120A073DFF8B05456
:100AD0002875002028722870DFF8AC04002101700E
:100AE0000DE00020A073DFF8985428752872287054
:100AF000DFF8940400210170052000F0F7FE206863
:100B000040F000702060032000F094FC00284ED0DC
:100B100000F07CFB607B01280CBF0420401E60734A
:100B2000607B401E032830D8DFE800F022180F0257
:100B30000420A073DFF8485400202875287228701C
:100B4000DFF84404012101702DE00320A073DFF8D9
:100B50003054002028752872012010E00220A07374
:100B6000DFF81C540020287501202872002006E0C0
:100B70000120A073DFF8085428750020287228701F
:100B8000DFF80404002101700DE00020A073DFF8FD
:100B9000F053287528722870DFF8EC0300210170EB
:100BA000052000F0A3FE206840F0007020600220C5
:100BB00000F046FC002800F0CF80022000F04EFC40
:100BC000002840F0C98000F021FB01206072002065
:100BD000A073DFF8AC53287528722870DFF8A803DB
:100BE00000210170052000F081FE606820F4807013
:100BF0006060206840F00070206001B0F0BD00200F
:100C0000A073DFF87C53287528722870DFF878030A
:100C100000210170052000F069FE032000F01AFE9B
:100C2000052000F063FE00F05DFD002000F0C4FD33
:100C3000022000F0C1FD00F0AAFE50B900F007FC50
:100C400038B9032000F003FC18B9032000F0F2FBD0
:100C500030B1207B00F0F2FC002000F014FD01E038
:100C600000F02DFD2068C10505D520F480702060BE
:100C7000A079401CA071042000F0E9FB10B1002015
:100C8000A07104E0A079092824BF0120607202202D
:100C900000F0D0FB58B100F0B9FA206840F4804071
:100CA000206001206072206840F000702060002009
:100CB00000F0C0FB28B900F0D1FB90B1207880068D
:100CC0000FD5206820F02000206000F09FFA207BE4
:100CD0000F282CBF0120401C2073206840F00070BA
:100CE00020602068800409D5032000F0A9FB28B10A
:100CF000207B0F282CBF0120401C2073032000F014
:100D000099FB50B9032000F0A9FBC8B1206842F25A
:100D100020010840202813D102E0206880040FD46D
:100D2000206820F02000206000F070FA207B01286D
:100D30000CBF0F20401E2073206840F00070206020
:100D4000032000F084FB38B9206820F400502060B4
:100D500001B0F0BD0120607201B0F0BD401E03285B
:100D600034D8DFE800F0020D1A27204801218173F2
:100D7000834801750021017201708348017070473A
:100D80001A48022181737E480021017501210172F8
:100D9000002101707C480170704714480321817361
:100DA0007748002101750172012101707648002108
:100DB000017070470D48042181737148002101754D
:100DC00001720170704801210170704707480021CD
:100DD00081736B480175017201706B4801700520C9
:100DE00000F084BD3000002010E000E00000002092
:100DF0005000F81FF0B581B00121022001F023FD61
:100E00009C4C0220207160710020A0710120E071D3
:100E10004FF480602060984E2146304601F058FE25
:100E20000220207160710120A071E0714FF4006513
:100E300025602146304601F04BFE07220A2130464C
:100E400001F003FF07220B21304601F0FEFE0121D5
:100E5000012001F0F8FC4FF480562660012020713B
:100E60000020E08001206071844F2146384601F067
:100E70002FFE0121084601F0E6FC256001202071CB
:100E8000A071E07160712146384601F021FE012118
:100E9000042001F0D8FC266001202071A071E071CF
:100EA0006071774D2146284601F012FE31462846F2
:100EB00001F0A5FE00F0CAFD01B0BDE8F04010B59C
:100EC0000121062001F0BFFC6A4C4FF494702060B1
:100ED000002020710120A071E071607121466648F8
:100EE00001F0F6FD4FF4806020602146644801F077
:100EF000EFFD0121012001F0A6FC0220206000206E
:100F000020710120A071E071607121465B48BDE84D
:100F1000104001F0DDBD0000AC024042B002414291
:100F200010B50121062001F08EFC524C4FF4947054
:100F30002060012020710020A0710120E07160710B
:100F400021464D4801F0C4FD4FF4806020602146E9
:100F50004B4801F0BDFD0121012001F074FC02208D
:100F60002060012020710020A0710120E0716071DB
:100F700021464248BDE8104001F0AABD40000002F1
:100F80008C82404224050020A80241423D4841682D
:100F9000C90508D5017C491C0174C9B23C2902D19C
:100FA000C17B491CC173704710B5374C01F0ACFBD5
:100FB0002070201D01F0AEFB212001F0FAFC6169D8
:100FC00060F300016161292001F0F3FC616960F3C5
:100FD00041016161312001F0ECFC616960F3820143
:100FE0006161392001F0E5FC616960F3C301616171
:100FF000492001F0DEFC616960F304116161412068
:1010000001F0D7FC616960F345116161592001F07D
:10101000D0FC616960F3861161615A2001F0C9FC5E
:10102000616960F3C71161615B2001F0C2FC616915
:1010300060F3082161615C2001F0BBFC616960F331
:10104000492161615D2001F0B4FC616960F38A218E
:1010500061615E2001F0ADFC616960F3CB216161EB
:101060005F2001F0A6FC616960F30C31616110BD85
:10107000000000005C050020000402400000024067
:101080000008024000000020EC040020FEE710B43D
:1010900050F8041B81B102681218001D50F8043B7F
:1010A000DC0744BFA9F10104E31852F8044B43F8EC
:1010B000044B091FF9D1EBE710BC704700B583B0B2
:1010C00001214FF0805001F00AFC0121012001F0C4
:1010D000E0FB012001F006FB492001F06AFC00283A
:1010E000FAD04FF4803001F06AFB012001F09CFB44
:1010F00001F093F842487F214160FF218160002187
:10110000016001F035F8002001F01EFA4FF4801064
:1011100001F0ACFE4FF48010019000208DF8080023
:1011200008208DF8090001208DF80A0001A801F0BF
:101130003DFE03208DF8000000208DF801008DF8A1
:10114000020001208DF8030000A801F0D9FE2D480F
:10115000E0210170002001F0BFF9FF2001F0DFF96C
:101160004FF4804001F068FA4FF4801001F07EFEE9
:1011700001214FF4804001F027FA012001F0E4F949
:1011800003B000BD00B581B001214FF0805001F0E7
:10119000A6FB012001F034FFFFF790FF1A4805215C
:1011A0004160012101720D21417203210160002182
:1011B000C1730C21017300214173817300F10C0193
:1011C000002001F049F8002001B05DF804EB01F0C7
:1011D00017BF70B504460D461646012001F010FFFA
:1011E00009480021C17304734573867300F10C0133
:1011F000002001F031F80020BDE8704001F000BF90
:101200003805002003E400E0180500202D4801887F
:1012100029B9C821418001210180002070474FF089
:10122000FF3070472748018891B1012905D102217B
:1012300001800121244801F093BF4288914202D2EB
:10124000491C01807047002101801F4801F088BFC0
:1012500070471E48017881F001010170704710B598
:1012600084B00121202001F03AFB194800684FF4B6
:101270007A61B0FBF1F0401EADF80800002001904B
:10128000ADF80A00104C01A9204601F0FFFE012133
:10129000204602F030F801220121204601F0AAFF89
:1012A0002C208DF800000E208DF8010001208DF813
:1012B00002008DF8030000A801F022FE04B010BD6A
:1012C000000000006A05002000140040B002404207
:1012D0003000002070B482480169C908C90001616A
:1012E0000146804A04230C682546E40703D56C08B0
:1012F000640044F00405AC0748BF25F006051478E7
:10130000640704D56C0706D445F0010503E06C07BB
:1013100048BF45F002050D60046965080E68344356
:1013200004F0010454EA4504046124F004050E6845
:10133000344304F004042C43046124F0020551F802
:10134000046B344304F002042C43046114325B1E2A
:10135000C9D170BC70476248016921F00801016180
:1013600001684A0708D54278062A28BF41F00801DB
:1013700007D2511C417005E000214170016821F045
:1013800008010160016921F008020368194301F0B6
:101390000801114301614268530708D54379062BC0
:1013A00028BF42F0080207D25A1C427105E0002211
:1013B0004271426822F00802426021F0080243684C
:1013C000194301F00801114301618268530708D5F0
:1013D000437A062B28BF42F0080207D25A1C4272F9
:1013E00005E000224272826822F00802826021F049
:1013F00008028368194301F0080111430161C268C2
:10140000530708D5437B062B28BF42F0080207D2BA
:101410005A1C427305E000224273C26822F008029F
:10142000C26021F00802C368194301F008011143AA
:10143000016170472A4911F8200000F0010070474F
:10144000274951F82000400800F001007047244966
:1014500051F82000800800F001007047204951F841
:101460002000C00800F00100704700B581B000F016
:10147000EFFD1D48416841F00301416001214172C7
:10148000816941F00301816101214177C16A41F025
:101490000301C162012180F83110016C41F00301A8
:1014A0000164012180F84510452180F8241080F85E
:1014B00025106FF0090180F82610632280F84C2077
:1014C00080F84D2080F84E1002744274817480F8C8
:1014D000382080F8392080F83A1001B000BD0000B3
:1014E00004050020F8030020F403002010B40A29AA
:1014F00028BF0B2108282CD8DFE800F005050505DA
:1015000011111E1E11000FF2F052805CDFF8AC25A5
:101510000FF2C053C95C835C03F0100317E00FF2B5
:10152000D852805CDFF89425835C03F080030FF2CF
:10153000BC54095D19430BE00FF2BC52805CDFF82C
:101540007C250FF29C53C95C835C03F008031943AC
:10155000815410BC70470000F0B40A2291FBF2F2F3
:10156000D5B20A2D28BF0B2508282CD8DFE800F0BB
:101570001E1E1E1E1111050511000FF27C53C45CC6
:10158000DFF838350FF25856AD5DE65C06F0080618
:1015900017E00FF26453C45CDFF82035E65C06F018
:1015A00080060FF24857ED5D35430BE00FF24853CC
:1015B000C45CDFF808350FF21C56AD5DE65C06F042
:1015C00010063543E55402EB8203A1EB4301401CB6
:1015D000C9B20A2928BF0B21C0B208282CD8DFE8DD
:1015E00000F01E1E1E1E1111050511000FF20853FA
:1015F000C05CDFF8C8340FF2E842895CC25C02F0DC
:10160000080217E00FF2F043C05CDFF8B034C25CB0
:1016100002F080020FF2D444095D11430BE00FF297
:10162000D843C05CDFF894340FF2A842895CC25CF6
:1016300002F010021143C154F0BC70470146002073
:101640008AE730B40A2190FBF1F2D3B20A2B28BF0B
:101650000B23DFF868140FF294440D7B05F080052E
:101660001B5D2B430B7302EB8203A0EB4300C0B264
:101670000A2828BF0B20CA7A02F08002005D1043BE
:10168000C87230BC70470146022065E7014606205B
:1016900062E7DFF82804817A01F010018172417A53
:1016A00001F0100141727047DFF81004417901F038
:1016B00010014171017901F0100101717047DFF8EB
:1016C000FC03817A01F010018172417A01F010016E
:1016D0004172417901F010014171017901F010016D
:1016E00001717047DFF8D403017B01F080010173C1
:1016F000C17A01F08001C172817801F00801817026
:10170000C17801F00801C1707047F0B581B0DFF811
:10171000B04300202070DFF8AC534020A881802126
:10172000284601F03FFF0028F9D101202070002059
:101730002070C220A8818021284601F033FF0028B4
:10174000F9D1DFF884630D273078A88180212846FD
:1017500001F028FF0028F9D1761C7F1EF4D101206A
:10176000207001B0F0BD70B5DFF854430020207048
:10177000DFF850534020A8818021284601F012FF55
:101780000028F9D10120207000202070C020A881FD
:101790008021284601F006FF0028F9D11026A881F3
:1017A0008021284601F0FEFE0028F9D1761EF6D1F0
:1017B0000120207070BD000007284AD8DFE800F043
:1017C0000424121E0B182A2CDFF8F002817A41F053
:1017D000100181727047DFF8E402417A41F0100194
:1017E00041727047B548417941F01001417170472D
:1017F000B248017941F0100101717047AF4881781A
:1018000041F0080181707047AC48017B41F08001D4
:1018100001737047A94818E0A848817A41F0100187
:101820008172417A41F010014172417941F0100119
:101830004171017941F010010171817841F0080195
:101840008170017B41F080010173817B41F0800157
:1018500081737047072848D8DFE800F00422101C85
:101860000A16282A9548817A01F0EF0181727047A3
:101870009248417A01F0EF01417270478F484179F7
:1018800001F0EF01417170478C48017901F0EF01DF
:10189000017170478948817801F0F70181707047C4
:1018A0008648017B01F07F0101737047834818E08F
:1018B0008248817A01F0EF018172417A01F0EF01F3
:1018C0004172417901F0EF014171017901F0EF01BD
:1018D0000171817801F0F7018170017B01F07F01D6
:1018E0000173817B01F07F018173704700B581B086
:1018F00018B1022811D004D31AE00420FFF75CFFCE
:1019000019E00420FFF7A6FF0520FFF755FF06208A
:1019100001B05DF804EBFFF79DBF0420FFF79AFFCD
:101920000520FFF797FF062001B05DF804EB43E7C1
:101930000420FFF78FFF0520FFF78CFF062001B082
:101940005DF804EB86E76148C178491CC9B20829F3
:1019500008BF0021C170C17804299241D20F0270E2
:101960008178491C8170C9B2032904BF00218170AC
:101970000179491CC9B2032907D100214278521CC0
:101980004270D2B2032A08BF4170017170474F48BC
:10199000007870474D48407870474C4880787047D1
:1019A00030B585B001214FF4805000F072FF454CF6
:1019B000204601F019FD4FF44040ADF80000002032
:1019C000ADF804000220ADF806000120ADF80800D3
:1019D0004FF40070ADF80A001820ADF80C0080201C
:1019E000ADF80E000720ADF810004FF48270ADF88E
:1019F000020000A9204601F023FD0121204601F04C
:101A0000ABFD8021204601F0CDFD0028F9D12C4D01
:101A10002870A0818021204601F0C4FD0028F9D162
:101A20000120287028702870002028709720A0813D
:101A30008021204601F0B6FD0028F9D10120287050
:101A400028702870FFF78FFE05B030BD10B582B04A
:101A50000121012000F0F7FE1020009001208DF8F8
:101A600004000020ADF8060001208DF80500184C98
:101A700000A9204601F02CF81021204601F0BFF803
:101A800000208DF8060002208DF80700A0200090AD
:101A900002208DF8040001208DF8050000A92046E1
:101AA00001F016F805221146204601F0CEF8052275
:101AB0000721204601F0C9F802B010BD280500201A
:101AC00090024042003001402A05002064050020B9
:101AD00000000240AF066D4FC6CBEB0EEFCF00000B
:101AE000F560B6F263D3D770F7F300005F066B2F93
:101AF000363D7D077F3F00000A0905040C0B0203F9
:101B00000E000000DFF82405052101700C21417052
:101B1000DFF81C1541601AE0DFF81815C869C00528
:101B200014D48A69DFF81005137883800B7F23B102
:101B3000501C8861581E08777047CA6942F4807249
:101B4000CA61002240F2277101F060BE7047F0B414
:101B500082B0DFF8E0143A220A7002784A704278C4
:101B60008A70427822B3002253184468145DDC70F6
:101B7000521CD2B243789A421ADA53184468145D60
:101B8000DC70521CD2B243789A4211DA531844687E
:101B9000145DDC70521CD2B243789A4208DA5318B2
:101BA0004468145DDC70521CD2B243789A42DBDB8D
:101BB000027802F13A04A4B243782BB31C19A4B200
:101BC000002513F00306426806D0EDB2AF5C3C1965
:101BD000A4B26D1C761EF8D19B0815D0EDB2AE5C98
:101BE0003419A4B26D1CEDB2AE5C3419A4B26D1CF4
:101BF000EDB2AE5C3419A4B26D1CEDB2AE5C34191A
:101C0000A4B26D1C5B1EE9D10472220A42724278B2
:101C10005218037AD37042785218437A137142787B
:101C200052180D235371427852180A239371407849
:101C3000801D89610877C86920F48070C86101221D
:101C400040F22771DFF8F00302B0F0BC01F0DEBD16
:101C5000DFF8E803D0F85C23262190F8483390F8A9
:101C600046C301FB0C0C63445B1CC0F85C33DFF81B
:101C7000D0C3BCF800C083F800C090F800C0BCF12D
:101C8000000F03D0BCF1010F16D041E019783A29BA
:101C900010D10121017090F84813491C80F84813B5
:101CA0000021A0F84A13D0F8541321F48071C0F831
:101CB0005413704700212DE01B780A2B04BF1278C3
:101CC0000D2A1CD190F8462301FB0201C97880F847
:101CD000541390F848339B1F99420DD1152A34BFF5
:101CE000511C002180F8461390F84513491C80F8D8
:101CF00045130021017005E00021017002E090F819
:101D00004813491C80F84813D0F85413C90503D56B
:101D10000021017080F848137047DFF82003B0F805
:101D20004A130B2906D3D0F8541341F48071C0F83C
:101D300054137047491CA0F84A137047014600200D
:101D4000BE4A92F8453303B9704770B4262392F81F
:101D5000474303FB0424A4780C7092F8475303FB19
:101D60000525ED780D7292F8476303FB06231B1DD2
:101D70004B602B193A33A2F85A330C7A4B68E55C66
:101D8000E418647805EB0424A2F85843002491F881
:101D900008502DB3B2F85A53E65C7519A2F85A539D
:101DA000641C0E7AE4B2B4421AD2E65C7519A2F849
:101DB0005A53641C0E7AE4B2B44211D2E65C75192F
:101DC000A2F85A53641C0E7AE4B2B44208D2E65C1C
:101DD0007519A2F85A53641C0D7AE4B2AC42D9D3F7
:101DE000B2F85A13B2F85833994208BF012092F85A
:101DF0004513491E82F8451392F84713152934BF3D
:101E0000491C002182F8471370BC704710B582B09E
:101E100086480721017000A941608A494A7A8DF8F5
:101E200000200B6800AA1C0D04F0010454704C7AC9
:101E3000641E052C28D8DFE804F0032713211B05B6
:101E400002211EE09B0D03F001039370CB79D37048
:101E5000097A1171012151718DF80610072110E0E6
:101E60004B7B9370CB7BD370097C1171052108E00B
:101E7000097B91700121D170042102E0497B9170AE
:101E800003214170FFF763FE02B010BD10B56E4C28
:101E90002046FFF753FF002800F0938020780728A2
:101EA00000F28A80DFE800F08D8D888888588804E9
:101EB000644A106820F00070106060684178136810
:101EC00061F3145313600178491E052900F27980EB
:101ED000DFE801F00377192C25060120507210BDB0
:101EE000062151728178136861F396531360C078AC
:101EF000D071616809791172002393710022BDE8E5
:101F00001040FFF766B9517A012904D1C078D07327
:101F100060680079107403205072606815E0052134
:101F20005172807810730020907110BD517A03298E
:101F300009D1117BC1EB01139900491C5181116832
:101F400021F4000111600421517280785073C0B3F4
:101F5000BDE81040FEF702BF00203A4A1146636810
:101F6000C35C4B77401C491C0C28F8DB106840F020
:101F7000807010600020517C537F994214D1401C26
:101F8000C0B281184B7C497F8B420DD1401CC0B23E
:101F900081184B7C497F8B4206D1401CC0B281180E
:101FA0004B7C497F8B42EAD08018417F407C814244
:101FB0009B41DB0F137110BD24480168490849009B
:101FC000016010BD10B586B001214FF4802000F0F3
:101FD00086FC4FF41650019000200290ADF80C00E2
:101FE000ADF810000C20ADF80E00134C01A92046EE
:101FF00001F03AFB012240F22551204601F006FC97
:1020000027208DF800000E208DF8010000208DF8AB
:10201000020001208DF8030000A800F071FF0121EB
:10202000204601F0C8FB06B010BD0000500500209E
:1020300011000020580000200048004094000020BB
:1020400004480040000000204405002070050020E6
:1020500010B5012080F31088434C0020E0702071FF
:102060001420A071E0710A2060710020A07014207B
:1020700020720A2060721420A0720020E072207387
:1020800001F0AEFC01F046FF02F024F8002080F3DE
:1020900010880120207010BD10B5334C2078401EF0
:1020A0000A285FD8DFE800F006181D2B303D425E9D
:1020B0005E5E4F00012080F310882C480168A26901
:1020C00061F30002A261490849000160002080F329
:1020D00010880220207010BD01F08CFF03202070BA
:1020E00010BD002084F8010002F00FF86078401C59
:1020F0006070C0B20228F7D30420207010BD01F038
:10210000A6FF0520207010BD0220607001F0FDFFC9
:102110006078401C6070C0B20328F7D3062020709E
:1021200010BD01F0B5FF0720207010BD03206070C6
:1021300001F0EBFF6078401C6070C0B20428F7D358
:102140000B20207010BD02F000FAA08B208200202E
:10215000A08394F820002075002084F8200001203E
:10216000207010BDFEE70000740400206C04002005
:1021700030B581B0044600252068402818BF0028EB
:1021800005D04FF4B771DFF83004FEF77FFF6068C9
:10219000802805D340F26F11DFF81C04FEF776FFAC
:1021A000A068B0F5005F05D34FF4B871DFF80804FC
:1021B000FEF76CFFDFF80404CA21C1615321C1613D
:1021C0000095416849060FD44FF0FF3141604168E6
:1021D000009A521C0092009AB2F5005F01D04906A5
:1021E000F5D54168490613D5016821F04001016029
:1021F0000168226811430160A1688160816862689A
:1022000041EA02418160416821F08001416001257D
:10221000FF21C161284601B030BD81B0002000908F
:10222000DFF89C03CA21816153218161016821F09B
:10223000A00101600168009A521C0092009AB2F558
:10224000805F01D08906F5D50168FF2282614809C7
:1022500000F0010001B07047F0B581B00E460025D6
:10226000DFF8504330B3DFF85073012804D040F258
:1022700083213846FEF70AFF3078A168490640F10D
:10228000B980010901EB810200F00F0000EB420070
:10229000C0B208B10D2804D340F299213846FEF7A8
:1022A000F5FEF078002818BF402800F0B38040F217
:1022B0009A21ACE03078A168490611D5401EC0B221
:1022C0000C2805D340F28921DFF8EC02FEF7DEFE90
:1022D000F078002818BF40280BD040F28A2104E093
:1022E000F570182805D340F28F21DFF8CC02FEF7F5
:1022F000CDFE70783C2805D340F29121DFF8B8027A
:10230000FEF7C4FEB0783C2805D340F29221DFF8F6
:10231000A802FEF7BBFE3078014600220A2805D34A
:102320000A22B0FBF2F2F62000FB021141EA021091
:1023300071780B4600220A2905D30A22B1FBF2F27A
:10234000F62101FB023343EA0211B3781F46002253
:102350000A2B05D30A22B3FBF2F2F62303FB027722
:10236000C0B20906090C41EA004047EA0211C9B2AD
:102370000843F17840EA0140CA2161625321616259
:102380000095E16849060FD44FF0FF31E160E16844
:10239000009A521C0092009AB2F5005F01D04906E3
:1023A000F5D5E168490620D5DFF81812084020600D
:1023B000E06820F08000E0600095CA206062532051
:1023C0006062E06820F0A000E060E0680099491CCD
:1023D00000910099B1F5805F01D08006F5D5E068E5
:1023E000FF216162400900F00105FF20606228467C
:1023F00001B0F0BDF570010901EB810200F00F00A2
:1024000000EB4200C0B2182804D340F29F213846A6
:10241000FEF73CFE7078010901EB810200F00F002D
:1024200000EB4200C0B23C2804D340F2A121384660
:10243000FEF72CFEB078010901EB810200F00F00DD
:1024400000EB4200C0B23C2804D340F2A22138463F
:10245000FEF71CFE30787178090241EA0040B1783D
:1024600086E730B581B005000C4618BF012D05D0B8
:1024700040F2F521DFF84001FEF708FEDFF83401F5
:102480000068DFF840110840010C01F03F022270A3
:10249000020A6270A07001F04000E070D5B92078A7
:1024A000010901EB810200F00F0000EB42002070F7
:1024B0006078010901EB810200F00F0000EB42009F
:1024C0006070A078010901EB810200F00F0000EBC1
:1024D0004200A07001B030BD10B5040018BF012C3F
:1024E0000DD0022C18BF032C09D0042C18BF062CC9
:1024F00005D04FF49A610FF28010FEF7C7FDDFF8A8
:102500006801CA21C1615321C1610168C908C900BC
:102510000160016821430160FF21C16110BD10B558
:102520000446B4F5803F05D340F2EB410FF248106A
:10253000FEF7ACFDDFF83401CA21016153210161CE
:102540000460FF21016110BD10B582B00446002077
:102550000090002C18BF012C05D04FF4A2610FF29F
:102560001810FEF793FDDFF80011CA20C861532050
:10257000C861002C086807D040F480600860012022
:10258000FF22CA6102B010BD20F480600860486874
:10259000009A521C0092009AB2F5005F01D04007E9
:1025A000F5D54868800800F00100FF22CA6102B03A
:1025B00010BD0000002800407826000808280040D0
:1025C0000C2800407F7F7F0030B581B004000D46AD
:1025D00002D02748044205D040F293710FF29800D0
:1025E000FEF754FD002D18BF012D05D040F2947167
:1025F0000FF28400FEF74AFD1B48CA21C161532136
:10260000C16104F0040124F00402002D036808D025
:102610001A430260826B11438163FF21C16101B0E3
:1026200030BD23EA02020260826B22EA010181636B
:10263000FF21C16101B030BD10B5040002D034F4F7
:102640003C3005D040F623010FF22C00FEF71EFDB2
:1026500008482103090C41F08001026802F0800261
:1026600062EA0101016010BD082800401428004002
:10267000FB0FFFFF0C280040433A5C303046697284
:102680006D77617265576F726B696E674143686100
:10269000755C576F726B696E675C475453565F5237
:1026A000616E6765486F6F645C4C696272617269E4
:1026B00065735C53544D33324C3178785F53746496
:1026C0005065726970685F4472697665725C737296
:1026D000635C73746D33326C3178785F7274632E1F
:1026E0006300000010B504001CBF012C052C05D0B0
:1026F00040F2BD110FF26C30FEF7C8FCDFF820038A
:1027000000210170047010BDDFF81803006800F0AC
:102710000C00704710B4DFF804134A6802F00C0292
:102720000C2A23D8DFE802F02222222207222222CA
:102730000A2222220D00DFF8F02220E0DFF8EC224E
:102740001DE04A684B68C2F38342DFF8E442125D41
:10275000C3F381535B1C4C68E40354BFDFF8C842E9
:10276000DFF8C8426243B2FBF3F208E00A680123D3
:10277000520B02F00702521C03FA02F2D20302606B
:102780004B68DFF8AC220468C3F303139B181B7B70
:1027900024FA03F343604B684468C3F302239B1895
:1027A0001B7B24FA03F3836049684368C1F3C221A9
:1027B0008918097B23FA01F1C16010BC704710B57C
:1027C0000446B4F5803F18BFB4F5003F14D0B4F50B
:1027D000403F1CBFDFF85C0284420DD0DFF8580296
:1027E00084421CBFDFF85402844205D040F2E1313C
:1027F0000FF27020FEF74AFCDFF81C0204F44031AF
:10280000B1F5403F06D1016821F0C04104F0C0425B
:1028100011430160416B21F440314163416B04F489
:1028200040321143416310BD10B5040018BF012CA4
:1028300005D040F203410FF22C20FEF727FCDFF811
:102840000002046010BD30B581B004460D46DFF8CB
:10285000F401044200D12CB940F22F410FF20420C0
:10286000FEF714FC75B1012D05D04FF486610FF20F
:10287000F410FEF70BFCDFF8D00101682143016082
:1028800001B030BDDFF8C0010168A143016001B0B3
:1028900030BD30B581B004460D46DFF8B0010442CA
:1028A00000D12CB940F251410FF2B810FEF7EEFB07
:1028B00075B1012D05D040F252410FF2A810FEF77C
:1028C000E5FBDFF88C0101682143016001B030BDF8
:1028D000DFF87C010168A143016001B030BD30B573
:1028E00081B004460D46DFF86C01044200D12CB9DA
:1028F00040F27C410FF26C10FEF7C8FB6DB1012D68
:1029000005D040F27D410FF25C10FEF7BFFB52484C
:1029100001682143016001B030BD4F480168A14307
:10292000016001B030BD30B581B004460D46474866
:10293000044200D12CB940F2BC410FF22810FEF73E
:10294000A5FB6DB1012D05D040F2BD410FF2141071
:10295000FEF79CFB414801682143016001B030BD96
:102960003E480168A143016001B030BD30B581B07F
:1029700004460D463748044200D12CB940F2E441E8
:102980000FF2E000FEF782FB6DB1012D05D040F2A1
:10299000E5410FF2D000FEF779FB31480168214391
:1029A000016001B030BD2E480168A143016001B053
:1029B00030BD30B581B004460025212C18BF312C24
:1029C0001AD0292C18BF392C16D0492C18BF412CED
:1029D00012D05A2C18BF5B2C0ED05C2C18BF5D2C6B
:1029E0000AD05E2C1CBF5F2C592C05D040F2B6518A
:1029F0000FF27000FEF74AFB0748610901290CBF7E
:102A00000068406B012104F01F029140084218BF8A
:102A10000125284601B030BD00380240043802408C
:102A200035380240083802400024F40000127A00D1
:102A30007800002000000320000003400000036035
:102A4000D8064742C06FFFFE1C380240E2ADFFFFD0
:102A500020380240C8B5194F2438024014380240CB
:102A600018380240433A5C30304669726D776172C3
:102A700065576F726B696E6741436861755C576F2C
:102A8000726B696E675C475453565F52616E67653F
:102A9000486F6F645C4C69627261726965735C5304
:102AA000544D33324C3178785F5374645065726999
:102AB00070685F4472697665725C7372635C73748C
:102AC0006D33326C3178785F7263632E630000007F
:102AD0002DE9F04381B004460D460026DFF8480298
:102AE00084421CBFDFF84402844214D0DFF8400265
:102AF00084421CBFDFF83C0284420CD0DFF838026D
:102B000084421CBFDFF83402844204D0C1210FF29A
:102B10003020FEF7BBFA286820B9C2210FF220202E
:102B2000FEF7B4FA2879002818BF012808D0022837
:102B300018BF032804D0C3210FF20420FEF7A6FA21
:102B4000E87940B1012818BF022804D0C4210FF24F
:102B5000F010FEF79BFA012000FA06F8286808EA50
:102B60000000404545D177000320B8406FEA0009D6
:102B7000206809EA0000206020682979B9400843EC
:102B800020602879012818BF022829D168790028F7
:102B900018BF012808D0022818BF032804D0D82164
:102BA0000FF29C10FEF772FAA06809EA0000A0601C
:102BB000A0686979B9400843A060A879002818BFC7
:102BC000012804D0DF210FF27810FEF75FFAA08809
:102BD00020EA0800A080A088A979B1400843A0801D
:102BE000E06809EA0000E060E068E979B94008437C
:102BF000E060761C102EAED301B0BDE8F08330B596
:102C000081B004460D46484884421CBF4748844270
:102C100011D0474884421CBF464884420BD04648E6
:102C200084421CBF4548844205D04FF4C4710FF262
:102C30001010FEF72BFA2DB940F289110FF2001097
:102C4000FEF724FA258301B030BD70B506460D4667
:102C50001446354886421CBF3448864211D0344859
:102C600086421CBF334886420BD0334886421CBF85
:102C70003248864205D040F209210FF2C400FEF727
:102C800005FA002D18BF012D21D0022D18BF032DEC
:102C90001DD0042D18BF052D19D0062D18BF072DE6
:102CA00015D0082D18BF092D11D00A2D18BF0B2DD6
:102CB0000DD00C2D18BF0D2D09D00E2D18BF0F2DC6
:102CC00005D040F20A210FF27800FEF7DFF9002C60
:102CD00018BF012C16D0022C18BF032C12D0042CC4
:102CE00018BF052C0ED0072C18BF0A2C0AD00B2CAD
:102CF0001CBF0E2C0F2C05D040F20B210FF2400010
:102D0000FEF7C4F9E81006EB800005F00701890022
:102D1000026A0F238B409A430262026A04FA01F1AD
:102D20001143016270BD0000000002400004024037
:102D300000080240000C0240001002400014024053
:102D4000433A5C30304669726D77617265576F72D5
:102D50006B696E6741436861755C576F726B696E32
:102D6000675C475453565F52616E6765486F6F6486
:102D70005C4C69627261726965735C53544D3332A5
:102D80004C3178785F5374645065726970685F4441
:102D900072697665725C7372635C73746D33326CE6
:102DA0003178785F6770696F2E63000030B581B04D
:102DB00004462079002818BF042804D081210FF28E
:102DC000D400FEF763F9607908281CBF0C2810288E
:102DD00004D082210FF2BC00FEF758F92068C10D23
:102DE000C90500D120B983210FF2A800FEF74EF9E2
:102DF000A07980B3012806D084210FF29800FEF755
:102E000045F9A07938B321480168226891430160EF
:102E100041682268914341602279821813682568CD
:102E20002B431360826823689A438260C2682368D8
:102E30009A43C26062792368102A08D181681943D5
:102E40008160C16822681143C16001B030BD821841
:102E50001068184307E0207900F1804202F58232C1
:102E6000106821688843106001B030BD10B5044679
:102E7000E00DC00500D12CB94FF492710FF214008F
:102E8000FEF704F90248046010BD00000004014090
:102E900014040140433A5C30304669726D776172C8
:102EA00065576F726B696E6741436861755C576FF8
:102EB000726B696E675C475453565F52616E67650B
:102EC000486F6F645C4C69627261726965735C53D0
:102ED000544D33324C3178785F5374645065726965
:102EE00070685F4472697665725C7372635C737458
:102EF0006D33326C3178785F657874692E630000C9
:102F000070B50446E078002818BF012804D08C2151
:102F10000FF28800FEF7BAF86078102804D38D21EC
:102F20000FF27800FEF7B2F8A078102804D38E21B3
:102F30000FF26800FEF7AAF8227811460120E37824
:102F4000E3B1124A126802F4E062C2F5E062120ACA
:102F50006378C2F10405AB40A5780F2626FA02F289
:102F60002A401A4312010A4BCA5421784A11094BCC
:102F700001F01F01884043F8220070BD4911064B43
:102F800002F01F02904043F8210070BD0CED00E0FC
:102F900000E400E000E100E080E100E0433A5C3062
:102FA000304669726D77617265576F726B696E67D3
:102FB00041436861755C576F726B696E675C47541B
:102FC00053565F52616E6765486F6F645C4C69620F
:102FD0007261726965735C53544D33324C31787849
:102FE0005F5374645065726970685F447269766596
:102FF000725C7372635C6D6973632E630000000022
:1030000010B5040018BF012C04D086210FF2100067
:10301000FEF73CF80148046010BD000020000E429D
:10302000433A5C30304669726D77617265576F72F2
:103030006B696E6741436861755C576F726B696E4F
:10304000675C475453565F52616E6765486F6F64A3
:103050005C4C69627261726965735C53544D3332C2
:103060004C3178785F5374645065726970685F445E
:1030700072697665725C7372635C73746D33326C03
:103080003178785F7077722E6300000030B581B0C0
:1030900004460D46B4F1804F1CBFDFF8380184426E
:1030A0001CD0DFF8340184421CBFDFF830018442B9
:1030B00014D0DFF82C0184421CBFDFF828018442C1
:1030C0000CD0DFF8240184421CBFDFF820018442C9
:1030D00004D0FA21DFF81801FDF7D8FF688800282E
:1030E00018BF102809D020281CBF4028602804D011
:1030F000FB21DFF8FC00FDF7C9FFE88800281CBFB2
:10310000B0F5807FB0F5007F04D0FC21DFF8E0004F
:10311000FDF7BCFF2088B4F1804F1FBFDFF8B4106B
:103120008C42DFF8B4108C4204D14FF68F71084006
:1031300069880843DFF8A4108C421CBFDFF8A01098
:103140008C4204D04FF6FF410840E98808432080B4
:10315000A888A085288820850120A08201B030BDE4
:1031600030B581B004460D46B4F1804F1CBF1948FC
:10317000844218D0184884421CBF1848844212D098
:10318000174884421CBF174884420CD0164884421A
:103190001CBFDFF85800844205D040F21A21DFF846
:1031A0005000FDF773FF6DB1012D05D040F21B21DA
:1031B000DFF83C00FDF76AFF208840F00100208026
:1031C00001B030BD20884FF6FE710840208001B06C
:1031D00030BD000000040040000800400010004026
:1031E0000014004000080140000C014000100140A4
:1031F0007C33000870B504460D461646B4F1804F86
:103200001CBF564884421AD0554884421CBFDFF880
:103210006001844213D0DFF85C0184421CBF514836
:1032200084420CD0504884421CBFDFF840018442E5
:1032300005D040F26A71DFF84001FDF727FF4FF635
:10324000A070054200D12DB940F26B71DFF8280162
:10325000FDF71CFF5EB1012E05D040F26C71DFF866
:103260001801FDF713FFA0892843A08170BDA08934
:10327000A843A08170BD70B506460C460025B6F186
:10328000804F1CBF354886421AD0354886421CBF45
:10329000DFF8DC00864213D0DFF8D80086421CBF7E
:1032A000304886420CD0304886421CBFDFF8BC0054
:1032B000864205D04FF4FF61DFF8BC00FDF7E6FE63
:1032C000012C18BF022C0DD0042C18BF082C09D0DB
:1032D000102C18BF402C05D040F2F971DFF898008F
:1032E000FDF7D4FE308AB189214020421CBF00295D
:1032F0000125284670BD30B581B004460D46B4F1B5
:10330000804F1CBF1548844219D0154884421CBF09
:10331000DFF85C00844212D0DFF8580084421CBF02
:10332000104884420BD0104884421CBF0F4884428E
:1033300005D040F61F01DFF84000FDF7A7FE4FF66D
:10334000A070054200D12DB94FF40261DFF82800CA
:10335000FDF79CFEE843208201B030BD0004004030
:103360000008004000080140000C0140001001402E
:1033700000100040001400407C330008433A5C30E9
:10338000304669726D77617265576F726B696E67EF
:1033900041436861755C576F726B696E675C475437
:1033A00053565F52616E6765486F6F645C4C69622B
:1033B0007261726965735C53544D33324C31787865
:1033C0005F5374645065726970685F4472697665B2
:1033D000725C7372635C73746D33326C3178785FD6
:1033E00074696D2E6300000000B581B0DFF804122F
:1033F00088420BD0DFF80012884214D08D210FF2E2
:10340000FC1001B05DF804EBFDF740BE01214FF464
:103410008050FFF788FA00214FF4805001B05DF82A
:1034200004EBFFF780BA01214FF48040FFF79EFACA
:1034300000214FF4804001B05DF804EBFFF796BA2D
:1034400070B504460D460FF2B416DFF8A8018442A9
:103450001CBFDFF8A401844203D0AF213046FDF742
:1034600015FE2888002818BFB0F5806F09D0B0F588
:10347000004F18BFB0F5404F03D0B2213046FDF7E2
:1034800005FE6888B0F5827F18BF002803D0B321FD
:103490003046FDF7FBFDA888B0F5006F18BF002887
:1034A00003D0B4213046FDF7F1FDE888002818BFAD
:1034B000022803D0B5213046FDF7E8FD2889002811
:1034C00018BF012803D0B6213046FDF7DFFD68891B
:1034D000B0F5007F18BF002803D0B7213046FDF7B4
:1034E000D5FDA889002818BF08280FD0102818BFBC
:1034F00018280BD0202818BF282807D0302818BF3C
:10350000382803D0B8213046FDF7C0FDE8890028EF
:1035100018BF802803D0B9213046FDF7B7FD288AAF
:1035200018B9BA213046FDF7B1FD208800F44150AA
:103530002988084369880843A9880843E98808431B
:103540002989084369890843A9890843E989084307
:103550002080288A208270BD30B581B004460D4697
:10356000DFF8900084421CBFDFF88C00844204D056
:10357000FB210FF28800FDF789FD65B1012D04D014
:10358000FC210FF27800FDF781FD208840F040001B
:10359000208001B030BD20884FF6BF7108402080E8
:1035A00001B030BD70B504460D4600261148844276
:1035B0001CBF1148844205D040F2EB210FF23C00C1
:1035C000FDF764FD802D18BF402D0DD0202D18BFB4
:1035D000102D09D0022D18BF012D05D04FF43B71DD
:1035E0000FF21800FDF752FD2089284218BF01266E
:1035F000304670BD0030014000380040433A5C3036
:10360000304669726D77617265576F726B696E676C
:1036100041436861755C576F726B696E675C4754B4
:1036200053565F52616E6765486F6F645C4C6962A8
:103630007261726965735C53544D33324C317878E2
:103640005F5374645065726970685F44726976652F
:10365000725C7372635C73746D33326C3178785F53
:103660007370692E63000000F0B585B004460D4606
:103670000FF20036DFF8EC72BC421FBFDFF8E80241
:103680008442DFF8E802844203D0D8213046FDF7B7
:10369000FDFC286818B1DFF8D812884203D3D9217D
:1036A0003046FDF7F3FCA888002818BFB0F5805F0E
:1036B00003D0DA213046FDF7E9FCE888002818BF7E
:1036C000B0F5805F09D0B0F5005F18BFB0F5405F7E
:1036D00003D0DB213046FDF7D9FC288900281CBF28
:1036E000B0F5806FB0F5C06F03D0DC213046FDF738
:1036F000CDFC68894FF6F371084200D118B9DD217D
:103700003046FDF7C3FCA889002818BFB0F5807FBC
:1037100009D0B0F5007F18BFB0F5407F03D0DE219F
:103720003046FDF7B3FC208A4CF6FF710840E9886B
:1037300008432082A0894EF6F3110840A988084367
:103740002989084369890843A081A08A4FF6FF416F
:103750000840A9890843A08200A8FEF7DBFFBC420D
:103760000CBF03980298296819225043A2891204B9
:103770004CBF49008900B0FBF1F16422B1FBF2F0CB
:103780000001030902FB1311A3891B0409D5C90019
:103790003231B1FBF2F101F007010843208105B09D
:1037A000F0BD09013231B1FBF2F101F00F01084324
:1037B000208105B0F0BD30B581B004460D46DFF87C
:1037C000A40184421FBFDFF8A0018442DFF89C01FE
:1037D000844205D040F27F110FF29810FDF756FC9D
:1037E0006DB1012D05D04FF4C0710FF28810FDF7B7
:1037F0004DFCA08940F40050A08101B030BDA089EB
:103800004DF6FF710840A08101B030BD70B505468E
:103810000E461446534885421FBF534885425348BD
:10382000854205D040F2B9410FF24810FDF72EFC59
:10383000282E1CBF40F2277086421BD040F2266023
:1038400086421CBF40F22550864213D040F22440ED
:1038500086421CBF40F6460086420BD040F66A10F6
:10386000864218BF602E05D040F2BA410FF2041014
:10387000FDF70CFC002C18BF012C05D040F2BB4119
:103880000FF2F000FDF702FC3006400F012106F0B8
:103890001F029140012808BF05F10C0005D0022845
:1038A0000CBF05F1100005F11400002C026814BFD4
:1038B000114322EA0101016070BD70B505460E4654
:1038C0000024284885421FBF274885422748854253
:1038D00005D040F23C510FF29C00FDF7D7FB282E9B
:1038E0001CBF40F22770864222D040F226608642FA
:1038F0001CBF40F2255086421AD040F22440864236
:103900001CBF40F64600864212D040F66A1086423E
:1039100018BFB6F5587F0BD0B6F5187F18BFB6F5AF
:10392000B07F05D040F23D510FF24800FDF7AEFBED
:103930003006400F012106F01F0201FA02F20128B1
:1039400008BFA88903D002280CBF288AA88A104083
:10395000320A91402A88114000281CBF0029012406
:10396000204670BD0038014000440040004800403F
:1039700001093D00433A5C30304669726D776172EF
:1039800065576F726B696E6741436861755C576F0D
:10399000726B696E675C475453565F52616E676520
:1039A000486F6F645C4C69627261726965735C53E5
:1039B000544D33324C3178785F537464506572697A
:1039C00070685F4472697665725C7372635C73746D
:1039D0006D33326C3178785F75736172742E630069
:1039E000DFF8E804016841F002010160DFF8E0144B
:1039F0008A68DFF8E0341A438A60826842F0004245
:103A000082600868400040080860DFF8CC04018844
:103A100001808168816001880180816881600188FE
:103A2000018081688160FFE730B581B0DFF8AC4488
:103A3000DFF89C54286820402860012080F310881B
:103A4000DFF89C04818A4EF6FE7211408182016883
:103A5000DFF89024114041F0807141F001010160D4
:103A6000818A4DF6FD72114081820168DFF8782469
:103A7000114041F0806141F004010160818A4BF600
:103A8000FF7211408182016821F0405141F0805164
:103A90000160818A4904490C818201688900890892
:103AA00041F080410160002080F31088642000F024
:103AB0002BFA28682040286001B030BD2DE9F04F76
:103AC00081B00024DFF824542C606C60AC60EC60A2
:103AD0002C616C61DFF80484DFF8F473386808EA5D
:103AE00000003860012080F31088DFF8F463B08AAA
:103AF0004EF6FE710840B082DFF8E893306809EABC
:103B0000000040F0807040F001003060B08A4DF657
:103B1000FD710840B082DFF8D8A3DFF8CCB330687D
:103B20000BEA00004AEA0000306084F3108832207B
:103B300000F0EAF9012080F3108830680BEA0000F9
:103B4000306084F31088386840F4802040F480703E
:103B50003860012080F31088B08A40F4005040F0B3
:103B60000200B08230680BEA00004AEA00003060D0
:103B7000002080F3108800F0B3FD287D400607D4B4
:103B8000308AC00404D5AC81686940F040006861A7
:103B9000287D400707D4308AC00704D5AC80686907
:103BA00040F004006861287D800607D4308AC00692
:103BB00004D56C81686940F020006861641C0120B4
:103BC00080F3108830680BEA00003060002080F33A
:103BD0001088386840F4002040F40070386000F02D
:103BE00081FD012080F31088306809EA0000306010
:103BF000002080F31088386808EA000038604EF230
:103C00000960A4B2844203D300BF01B0BDE8F08FC5
:103C1000288B69690140814295D101B0BDE8F08FE0
:103C20002DE9F04F81B00024B24D2C606C60AC6087
:103C3000EC602C616C61DFF8C082A54F386808EA3F
:103C400000003860012080F31088A54EB08A4EF63F
:103C5000FE710840B082DFF88C92306809EA0000FB
:103C600040F0807040F001003060B08A4BF6FF7188
:103C70000840B082306820F0405040F08050306002
:103C800084F31088322000F03FF9012080F310887F
:103C9000306820F04050306084F31088012080F3B9
:103CA0001088306809EA0000306084F310884EF212
:103CB000096ADFF848B238684BEA00003860012032
:103CC00080F31088B08A40F48040B082306820F0E1
:103CD000405040F080503060002080F3108800F0A9
:103CE000FFFC287D400607D4308AC00404D5AC818F
:103CF000686940F040006861287D400707D4308A39
:103D0000C00704D5AC80686940F004006861287D74
:103D1000800607D4308AC00604D56C81686940F0FB
:103D200020006861012080F31088306820F0405046
:103D30003060002080F31088641C386840F48010E4
:103D4000386000F0CFFC012080F31088306809EA69
:103D500000003060002080F31088386808EA000016
:103D60003860544503D300BF01B0BDE8F08F288B05
:103D70006969014081429ED101B0BDE8F08F2DE913
:103D8000F04F81B000245E4D2C606C60AC60EC6044
:103D90002C616C61DFF86C814D4F386808EA0000D7
:103DA0003860012080F310884D4EB08A4EF6FE71C7
:103DB0000840B082DFF82C91306809EA000040F03A
:103DC000807040F001003060B08A4004400CB08246
:103DD00030688000800840F08040306084F31088B4
:103DE000322000F091F8012080F3108830688000C4
:103DF0008008306084F310884EF2096ADFF8FCB066
:103E000038684BEA00003860012080F31088B08ADF
:103E100040F40040B08230688000800840F080406C
:103E20003060002080F3108800F05AFC287D4006A6
:103E300007D4308AC00404D5AC81686940F04000E2
:103E40006861287D400707D4308AC00704D5AC805C
:103E5000686940F004006861287D800607D4308AD4
:103E6000C00604D56C81686940F0200068610120BB
:103E700080F310883068800080083060002080F374
:103E80001088641C386840F40010386000F02AFC88
:103E9000012080F31088306809EA000030600020BB
:103EA00080F31088386808EA00003860544503D36E
:103EB00000BF01B0BDE8F08F288B696901408142E5
:103EC0009ED101B0BDE8F08F000000001C38024018
:103ED000087C0040000003F004040240FFFCF3FFF4
:103EE00000040240FCFFFFFCF3FFFFF398040020F6
:103EF00004000004B4040020FFFEEBFF00010400F6
:103F0000D0040020FFFEDBFF00E0401E80B200284E
:103F1000FBD1704710B5354C0020A0616061206175
:103F2000E06184F828002046FEF7F4FB60684FF457
:103F3000FA61B0FBF1F0B0F1807F0CD22C490002A5
:103F4000000A401E4860F02081F8130D00208860B0
:103F50000720086010BDFEE72448416982690369B3
:103F6000142B10D3143B0361491CC3695B1CC36150
:103F70000A2922BF0A39521C0A2A04D30A3A836A40
:103F800043F00103836282614161704710B5174CB1
:103F90002069401C2061E06A10B1E06A401EE062C6
:103FA000FFF7DAFFA06A810704D520F00600A062BF
:103FB000C8202062A06A010704D520F01800A06282
:103FC000C8206062206A30B1401E206203D1A06A1E
:103FD00040F00400A062606A30B1401E606203D10C
:103FE000A06A40F01000A06210BD00004404002050
:103FF00010E000E070B5DFF8304300202083DFF8E8
:104000002C53DFF82C6330788821084203D1DFF885
:10401000240300882083307D084205D1208BDFF8FF
:10402000141349880843208302202870208B68B12C
:10403000FFF744FDDFF80003017834F811107181B7
:10404000407834F81000F0830220287070BD70B5FD
:10405000DFF8E84200202083DFF8D052DFF8D0629A
:1040600096F828008821084203D1DFF8C80280882A
:10407000208303202870208B48B1FFF7D1FDDFF8A3
:10408000C002007834F8100070860320287070BDDC
:1040900070B5DFF8B04200202083DFF89052DFF8DF
:1040A000906296F83C008821084203D1DFF8840230
:1040B000C088208304202870208B50B1FFF75FFE5A
:1040C000DFF88402007834F81000A6F846000420D7
:1040D000287070BD70B5954C002020706FF01505EC
:1040E000DFF8686200F03EF93068802101703068C6
:1040F0004521017430684174306885742078401C13
:104100002070C0B20428EDD370BD10B500F02AF9BC
:1041100000F032F98D4C20680178012973D0022912
:104120000CD0042940D0082912D011295AD01429C2
:1041300023D0242942D0802972D076E040890838E3
:104140004EF2016180B2884267D200F06FF82068B9
:104150000079800758BF00F098F920687C490A88E8
:1041600083881A430A807B490A7803781A430A70C5
:10417000416821F00801416010BD7749B1F9001094
:1041800090F9100081420CDB00F092F92068817BED
:10419000491E81732068807B0028DED100F023F95E
:1041A000DBE700F007F9D8E7408908384EF20161F3
:1041B00080B2884231D200F072F8C8E790F911104D
:1041C000654AB2F90020914209DB817B491E817367
:1041D0002068807B0028C0D100F0D8F8BDE700F04F
:1041E0001BF9BAE790F912105B4AB2F9002091422C
:1041F000D7DB817B491E81732068807B0028ACD18E
:1042000000F018F9A9E7408908384EF2016180B240
:10421000884202D200F075F899E700F023F99CE794
:10422000007900F003000328E9E7FEE730B581B02C
:10423000494DB5F90000454C216891F912208242A0
:1042400004DB01B0BDE8304000F0EBB891F910108C
:10425000884222DB00F0BEF840480078E8B92068C8
:10426000817B491C8173B5F90000216891F9101018
:1042700088420DDB00F01CF92068817B491E8173A8
:104280002068807B48B901B0BDE8304000F0ABB891
:1042900001B0BDE8304000F08DB801B030BD30B5A0
:1042A00081B02D4C294D286890F91100B4F9001007
:1042B00088421FDB00F0A7F829480078F8B9286881
:1042C000817B491C8173286890F91110B4F9002092
:1042D00091420ADB817B491E81732868807B70B91B
:1042E00001B0BDE8304000F051B801B0BDE8304049
:1042F00000F092B801B0BDE8304000F013B901B051
:1043000030BD124801688A894B899A188A810A7AD5
:10431000521E0A720068017A21B98189C908818117
:1043200000F034B8704700009804002075040020A5
:10433000F40300206C4A0008684A0008B404002016
:104340006A4A0008D00400206B4A00087405002067
:1043500090040020940400208005002077040020B1
:1043600078040020CC48007800EB8001CB4800EBBB
:104370008100CB4908607047C9480068B0F90C104B
:10438000B0F90A00081AC74908807047C448016894
:104390004A6842F008024A6002220A7000684168D6
:1043A00021F00401416021F08001416021F02001F1
:1043B00041607047BA48016802220A70006841688B
:1043C00021F00401416021F08001416021F02001D1
:1043D00041607047B248016814220A700068B2490F
:1043E000097881737047AE48016804220A7000683A
:1043F000416841F00401416041F008014160AB496E
:10440000097801727047A648016824220A70006882
:10441000A749097881737047A14800680421017099
:1044200070479F48016811220A700068A149097805
:10443000817370479A48016801220A7001684A68CE
:1044400022F004024A6042F008024A6022F0800230
:104450004A6022F020024A6008220A7200680021A5
:10446000818170478E48016808220A70006841689F
:1044700021F00401416041F00801416021F0800118
:10448000416041F020014160704785480168802209
:104490000A700068416821F00401416041F00801A0
:1044A000416021F08001416021F0200141607047AE
:1044B0007B48006841680A0600D5704770B4427AAC
:1044C000754B1B78754C6BB1657A1646354207D033
:1044D00025792D0604D5817B491C817370BC7047FA
:1044E000012B08D0657F1646354202D0257E2D0669
:1044F000F1D4022B09D094F83150354203D094F80E
:104500002C502D06E7D4032B07D094F845301342E6
:1045100003D094F840201206DDD441F080014160C0
:1045200070BC704764480078C0070DD55F480078BC
:1045300050B15B4801680A7A521E0A720068007A1C
:10454000002808BFFFF776BF70472DE9F04F012024
:1045500080F3108859485A490A68026000220A60AC
:1045600082F310884FF0FF314E4A4D4BDFF82C811B
:10457000494DDFF85091DFF850A10468002C00F09D
:104580008880641E04609AF80040002C1CBF641EE2
:104590008AF800404D4C2478641E5FFA84FCBCF11C
:1045A000000F08D14FF00A0C99F80040002C1CBFF6
:1045B000641E89F80040454C84F800C0444C94F8CF
:1045C00000C04FF0010E00242C7046461E60377864
:1045D000142F18BF042F18BF242F04D13D4C24786A
:1045E00089F800401DE0022F14D1B6F90CB0B6F9DD
:1045F0000A70ABEB070717803FB2002F06D003D538
:10460000012C03DA0C4605E0002C02D54FF0000E19
:1046100000E001242F787F1C2F701436FFB2042F86
:10462000D4D39AF8004099F800603443A5D12A4CBD
:1046300024788AF80040BEF1000F1CBF274C94F884
:1046400000C08CF0FF04641C5FFA84FEBCF1000F14
:1046500093D000242C702C7804EB840608EB86049D
:104660001C602678022E0DD1A689E77B07EB062673
:1046700067893F0207FB0CF706FB0E76370CA78114
:10468000360AE6732C78641C2C70E4B2042CE2D356
:1046900073E70160BDE8F08F75040020F40300208B
:1046A0007405002080050020770400207604002097
:1046B00078040020790400208C0400207805002074
:1046C000600400207F0400207E040020800400207D
:1046D0007D0400207B0400207A0400207C0400205C
:1046E00000BF704700BF70477047FEE7FEE7FEE778
:1046F000FEE7FEE7FEE7FEE730B581B0FFF746FCD8
:104700006E4D2888401C288080B20A2190FBF1F170
:1047100001EB8102B0EB420139D1694C216841F0D3
:1047200001012160322290FBF2F302FB130070BB07
:1047300041F002002060FDF7F0FA2888642190FB28
:10474000F1F201FB120111BB216841F084012160EB
:10475000C82290FBF2F302FB130212B941F00801E8
:1047600021604FF4967190FBF1F201FB120119B92F
:10477000216841F0600121604FF4FA7190FBF1F281
:1047800001FB120018B9206840F01000206001B051
:10479000BDE83040FCF746BD10B54A4C012120462B
:1047A000FEF769FD28B101212046BDE81040FEF763
:1047B000A2BD10BD00B581B0FCF74BFD0121424800
:1047C00001B05DF804EBFEF796BD0120FEF74EBB8D
:1047D00010B53B48016841F4003303603B490A7857
:1047E000521C0A70D2B2082A3CD100220A704A88B0
:1047F000521C4A8043F480730360447A042C07D12E
:104800004489002C07BF43F400030360631E438107
:10481000036843F440730360D40744BF43F48063E8
:10482000036092B2032392FBF3F303EB4303D31A27
:1048300003D0036843F400630360052392FBF3F3A2
:1048400003EB8303D21A03D0026842F48052026061
:104850004878401C4870C0B23C2803D10020487002
:10486000FCF794FBFCF777FDFDF76DF80120FEF7F0
:10487000C7FB4FF48040FDF7DFFE4FF48010FEF7DA
:10488000F5FA0020BDE81040FEF7BABB10B5104C99
:1048900040F225512046FFF710F8012808BFFDF728
:1048A000D7F940F227712046FFF707F8012804BF27
:1048B000BDE81040FDF730B910BD00006E050020C6
:1048C0000000002000100040001400407C05002083
:1048D0000048004082B03248016841F480710160B4
:1048E0008168304A1140816001682F4A114001609F
:1048F000016821F480210160816821F47D018160DB
:104900000021C16001910091016841F00101016045
:10491000016801F0020100910199491C019100997F
:1049200019B90199B1F5A06FF2D10168490801F0F8
:1049300001010091009901292FD1D0F8001441F014
:104940000401C0F80014D0F8001441F00201C0F8CE
:104950000014D0F8001441F00101C0F80014416ABD
:1049600041F08051416211494FF400620A604A6887
:10497000D206FCD481688160816881608168816031
:104980008168890889008160816841F00101816046
:10499000816801F00C010429FAD102B070470000CF
:1049A000003802400CC0FF88FEFFFEEE00700040A1
:1049B00010B5074979441831064C7C44163404E09C
:1049C000081D0A68511888470146A142F8D110BD58
:1049D0002C0000004C00000050F8041B61B150F89E
:1049E000042BD30744BFA9F101039A18002342F80E
:1049F000043B091FFAD1EFE770470000DDFFFFFF1E
:104A0000F0040000940000200000000083C6FFFFB7
:104A1000940000004401000000000020000000009D
:104A200000F009F8002801D0FFF7C2FF0020FBF7D3
:104A300061FB00F002F80120704700F001B80000AF
:104A40000746384600F002F8FBE70000014918204D
:104A5000ABBEFBE726000200014880470148004743
:104A6000D5480008754A0008020606060400400002
:104A700040004000C046C046C046C046FFF7D0FFD9
:104A8000FFF732BEFFF731BEFFF730BEFFF72FBE94
:104A9000FFF72EBEFFF72DBEFFF72CBEFFF72BBE94
:104AA000FFF72ABEFFF7FEBFFFF7FEBFFFF7FEBF0F
:104AB000FFF78EBEFFF7FEBFFFF7FEBFFFF785BE15
:104AC000FFF7FEBFFFF7FEBFFFF7FEBFFFF7FEBF1A
:104AD000FFF7FEBFFFF7FEBFFFF7FEBFFFF7FEBF0A
:104AE000FFF7FEBFFFF7FEBFFFF7FEBFFFF7FEBFFA
:104AF000FFF7FEBFFFF7FEBFFFF7FEBFFFF7FEBFEA
:104B0000FFF7FEBFFFF7FEBFFFF7FEBFFFF7FEBFD9
:104B1000FFF7FEBFFFF7FEBFFFF7FEBFFFF7FEBFC9
:104B2000FFF7FEBFFFF7FEBFFFF7FEBFFFF7FEBFB9
:104B3000FFF7FEBFFFF7FEBFFFF7FEBFFFF7FEBFA9
:104B4000FFF7A4BEFFF7FEBFFFF7FEBFFFF7FEBFF4
:104B5000FFF722BEFFF72EBE00000000000000009D
:104B60000000000001010000000000000000000043
:104B70000000000000000000000000000000000035
:104B800000000000000000000024F40003040608F8
:104B90000C1018203000000000000000010204008A
:104BA00000000000000000000102030406070809DD
:104BB00000000000000000000000000000000000F5
:104BC00000000000000000000000000000010000E4
:104BD000030406080C10182030000000000000003C
:0C4BE00001020304010203040607080997
:0400000508004A7530
:00000001FF
