:020000040800F2
:10000000A0050020014B0008E9430008EB4300086D
:10001000ED430008EF430008F14300080000000032
:10002000000000000000000000000000F343000892
:10003000F543000800000000F7430008F9430008FA
:10004000794B00087D4B0008814B0008F9440008FB
:10005000894B00088D4B0008EF440008954B0008C1
:10006000994B00089D4B0008A14B0008A54B0008C8
:10007000A94B0008AD4B0008B14B0008B54B000878
:10008000B94B0008BD4B0008C14B0008C54B000828
:10009000C94B0008CD4B0008D14B0008D54B0008D8
:1000A000D94B0008DD4B0008E14B0008E54B000888
:1000B000E94B0008ED4B0008F14B0008F54B000838
:1000C000F94B0008FD4B0008014C0008054C0008E6
:1000D000094C00080D4C0008114C0008154C000894
:1000E000194C00081D4C0008214C0008C7440008AA
:1000F000DF44000840B2002809D540B210F00F02DA
:10010000DFF8983AD2180B0102F8043C04E040B240
:10011000DFF88C2A0B018354704710B50400B4F14A
:10012000807F01D3012013E02002000A401EDFF887
:10013000741A08600F215FF0FF30FFF7DBFFDFF874
:10014000680A00210160DFF8640A072101600020CD
:1001500010BD00F098FC00F05BFC00F0DBFD00F04F
:10016000C8FB00F04FFE00F095FF01F088FADFF8C1
:10017000400A0121817101F070FB00F026F8DFF8E0
:10018000300A0068C0F38000C0070CD5DFF8200AF1
:10019000006830F00400DFF8181A0860DFF8141A5D
:1001A000002001F0AFFDDFF8080A0068C0F300107E
:1001B000C00707D5DFF8F809006830F01000DFF855
:1001C000F019086001F068F8D5E780B500F058FE36
:1001D000DFF8DC090068C0F34000C00707D5DFF88E
:1001E000D009006830F00200DFF8C419086000F0A0
:1001F00048F8012000F033FF002809D000F0CFFDBF
:10020000DFF8AC09006890F40050DFF8A41908602A
:10021000DFF89C090068C0F34030C00707D5012013
:1002200001F0B1F8DFF890090121017006E001202A
:1002300001F030F9DFF8840901210170DFF870095D
:100240008079012814D1DFF868090068C0F34030D4
:10025000C0070DD4042000F014FF002808D1DFF8F7
:10026000600900210170DFF85C090021017007E0DE
:10027000DFF84C0901210170DFF848090121017004
:1002800001BD80B5DFF82809807900280BD001284E
:100290000ED0032800F0A880042800F0448105282F
:1002A00000F0E381A8E2DFF8080901218171A7E2EB
:1002B000DFF8FC080068C0F3C020C00723D400F0BA
:1002C000D9FF0B21082000F025FF032001F065F97C
:1002D000032001F0DFF8002001F0DCF8DFF8D4089B
:1002E000007800F088FFDFF8CC08407800F0A0FF2D
:1002F00001F0BCF9002803D0022001F044F802E02C
:10030000022001F0C7F8022000F0A9FE002813D057
:10031000DFF89C080068C0F3C020C0070CD400F0D0
:100320003EFDDFF88C080321817100F082FBDFF8CD
:100330008008C07A00F065FADFF874080068C0F33E
:10034000C020C00713D5032000F089FE002804D187
:10035000022000F084FE002809D000F020FDDFF824
:10036000500805218171DFF848080021C170032081
:1003700000F087FE002804D1022000F082FE002851
:100380001DD0DFF82C08006850F40060DFF820185A
:100390000860022001F07EF8052001F0FEF800F070
:1003A00057FF002000F0EFFF032000F0ECFFDFF824
:1003B0000008807A00F027FF002000F041FF0020B5
:1003C00000F05FFE00280ED000F0E9FC00F03FFBDB
:1003D000DFF8DC070321817100F02BFBDFF8D00789
:1003E000C07A00F00EFA0BE2002001F053F801F0A1
:1003F0003DF9002806D0022000F0C5FF032000F0E0
:10040000C2FF05E0022001F045F8032001F042F8A8
:10041000DFF89C07407B00F0EEFEDFF89407807B5E
:1004200000F006FFDFF88C07007800F0ECFEDFF844
:100430008407407800F004FFDFF87407007B03288E
:1004400005D301F019F9C0B201F0A7F804E001F0FA
:1004500010F9C0B201F0A1F8DFF85407017B0820C1
:1004600000F058FE002000F0F2FD002812D000F04D
:1004700096FCDFF83C07C07A042806D2DFF8300784
:10048000C07A401CDFF82817C872DFF82407C07A4A
:1004900000F0B7F9032000F0DAFD002812D000F0D8
:1004A0007EFCDFF80C07C07A022806D3DFF80007CD
:1004B000C07A401EDFF8F816C872DFF8F406C07A7A
:1004C00000F09FF9022000F0CAFD00280FD00220A2
:1004D00000F0D7FD00280AD100F061FCDFF8D0065B
:1004E00001218171002000F08CF900F0A9FA0220AE
:1004F00000F0C7FD002815D000F051FCDFF8B00671
:1005000004218171DFF8A806807A3C214843DFF896
:10051000A0160881DFF89806006830F48060DFF8E4
:10052000901608606CE1002000F02DFFDFF88006D7
:10053000407B00F060FEDFF87806807B00F078FEFC
:10054000DFF86C0600893C2190FBF1F0C0B200F0AE
:100550005AFEDFF85C0600893C2190FBF1F201FBBA
:100560001200C0B200F06CFE01F080F8002806D046
:10057000022000F008FF032000F005FF05E0022044
:1005800000F088FF032000F085FFDFF82406007BE1
:10059000032805D301F070F8C0B200F0FEFF04E0BC
:1005A00001F067F8C0B200F0F8FFDFF80406017B45
:1005B000082000F0AFFDDFF8F8050068C0F38020E8
:1005C000C0070CD5002000F01CF9DFF8E40501217C
:1005D000817100F09EFE00F0E2FB00F031FA002095
:1005E00000F035FD002812D000F0D9FBDFF8C0057F
:1005F000C07A042806D2DFF8B805C07A401CDFF8BC
:10060000B015C872DFF8A805C07A00F0FAF8032028
:1006100000F01DFD002812D000F0C1FBDFF89005AE
:10062000C07A022806D3DFF88805C07A401EDFF8BA
:100630008015C872DFF87805C07A00F0E2F8022071
:1006400000F00DFD00280FD0022000F01AFD002858
:100650000AD100F0A4FBDFF85805012181710020C8
:1006600000F0CFF800F0ECF9CAE0022000F012FF31
:10067000052000F092FF00F0EBFD002000F083FE6B
:10068000032000F080FE00F0F1FF00280ED10020D2
:1006900000F0EEFC002809D1032000F0E9FC00285E
:1006A00004D1032000F0D3FC002808D0DFF80005B7
:1006B000807A00F0A8FD002000F0C2FD01E000F00B
:1006C000D9FDDFF8EC040068C0F38010C0070ED538
:1006D000DFF8DC04006830F04000DFF8D414086074
:1006E000DFF8CC04C078401CDFF8C414C8700420C4
:1006F00000F0BEFC002803D0DFF8B4040021C17074
:10070000DFF8AC04C078092803D3DFF8A404012182
:100710008171022000F0A3FC00280CD0DFF89004C7
:100720000068C0F3C020C00705D400F038FBDFF834
:10073000800401218171002000F089FC00280BD188
:10074000002000F09EFC002821D0DFF8640400683F
:10075000C0F34010C0071AD5DFF85404006830F029
:100760002000DFF84C14086000F019FBDFF84004AB
:10077000807A102804D3DFF838040121817206E062
:10078000DFF82C04807A401CDFF8241488720320E0
:1007900000F05DFC00280BD1032000F072FC002863
:1007A00021D0DFF80C040068C0F34010C0071AD550
:1007B000DFF8FC03006830F02000DFF8F413086075
:1007C00000F0EDFADFF8E803807A012804D1DFF8C1
:1007D000E0030F21817206E0DFF8D403807A401E27
:1007E000DFF8CC138872DFF8C803006830F40060CB
:1007F000DFF8BC13086003E0DFF8B4030121817166
:1008000001BD10B50400E4B2012C06D059D3032C6D
:100810002DD017D3042C3FD053E0DFF894030121EF
:100820000173DFF8A40301210170DFF8A0030021A8
:100830000170DFF89C0300210170DFF898030021AC
:10084000017055E0DFF8680302210173DFF87803D7
:1008500000210170DFF8740301210170DFF87003DB
:1008600000210170DFF86C030021017040E0DFF827
:10087000400303210173DFF8500300210170DFF80A
:100880004C0300210170DFF8480301210170DFF8FB
:100890004403002101702BE0DFF8140304210173ED
:1008A000DFF8240300210170DFF82003002101702C
:1008B000DFF81C0300210170DFF81803012101702B
:1008C00016E0DFF8EC0200210173DFF8FC020021E2
:1008D0000170DFF8F80200210170DFF8F402002156
:1008E0000170DFF8F00200210170052000F055FED4
:1008F00010BD80B50121012001F061FCDFF8D802B4
:100900004FF480510160DFF8D00201210171DFF85E
:10091000C80200218171DFF8C0020021C171DFF837
:10092000B80201214171DFF8B012DFF8B00201F026
:100930009DFD0121012001F042FCA7484FF4006118
:100940000160A54801210171A34801218171A248DC
:100950000121C171A048012141719F499F4801F0C7
:1009600085FD0121042001F02AFC9B484FF48051B1
:1009700001609948012101719748012181719648D0
:100980000121C1719448012141719349944801F0BA
:100990006DFD4FF48051924801F020FE01210620A8
:1009A00001F00DFC8C484FF4947101608A480121DC
:1009B000017189480021817187480121C1718648F0
:1009C000012141718449874801F050FD82484FF46C
:1009D000806101608049824801F048FD01210120C9
:1009E00001F0EDFB7C48022101607B48012101718F
:1009F00079480021817178480121C171764801212F
:100A000041717549754801F031FD00F09CFE01BD52
:100A100080B5754800684FF47A71B0FBF1F0FFF7CC
:100A20007CFB002804D10E215FF0FF30FFF762FB52
:100A300001BD5F48006850F480305D490860704730
:100A40005B48006830F48030594908607047584866
:100A50000021817356480021417370475448006853
:100A6000C0F30040C0070DD55148807B401C504961
:100A700088734F48807B3C2804D14D48407B401C04
:100A80004B494873704780B501F0A9FA574908707F
:100A9000574801F0AAFA212001F06EFCC0B2534978
:100AA000496960F3000151484161292001F064FC6B
:100AB000C0B24E49496960F341014C48416131205F
:100AC00001F05AFCC0B24949496960F382014748C4
:100AD0004161392001F050FCC0B24449496960F3DA
:100AE000C30142484161492001F046FCC0B23F4980
:100AF000496960F304113D484161412001F03CFC2B
:100B0000C0B23A49496960F34511384841615920FA
:100B100001F032FCC0B23549496960F386113348AF
:100B200041615A2001F028FCC0B23049496960F3A4
:100B3000C7112E4841615B2001F01EFCC0B22B4959
:100B4000496960F30821294841615C2001F014FCE7
:100B5000C0B22649496960F34921244841615D20BA
:100B600001F00AFCC0B22149496960F38A211F489B
:100B700041615E2001F000FCC0B21C49496960F38C
:100B8000CB211A4841615F2001F0F6FBC0B2174942
:100B9000496960F30C311548416101BD18ED00E071
:100BA00000E400E014E000E018E000E010E000E005
:100BB0000000002040010020040340424403404262
:100BC000AC024042B0024142A08240429482404284
:100BD0008C824042A80241423801002000000240BD
:100BE00000080240000402402C000020D400002035
:100BF000D8000020FEE710B450F8041B81B1026851
:100C00001218001D50F8043BDC0744BFA9F1010491
:100C1000E31852F8044B43F8044B091FF9D1EBE7F2
:100C200010BC704740B2002808D540B210F00F0247
:100C30004E4BD2180B0102F8043C03E040B24C4A80
:100C40000B0183547047E0B501215FF0805001F043
:100C500012FB0121012001F0E0FA012001F0A6F9C8
:100C6000492001F089FB0028FAD05FF4803001F0C0
:100C700052FA012001F090FA00F032FF3D487F2146
:100C800041603C48FF2181603A48002101603948B9
:100C900000F096FE002001F0AFF85FF4801001F044
:100CA00010FE5FF48010019000208DF808000820ED
:100CB0008DF8090001208DF80A0001A801F08EFDD1
:100CC00003208DF8000000208DF8010000208DF831
:100CD000020001208DF8030000A801F00FFE0E2194
:100CE0000320FFF79FFF002001F03FF8FF2001F0F5
:100CF00064F84FF4804001F019F95FF4801001F0BE
:100D0000E0FD01214FF4804001F0CEF8012001F018
:100D100073F807BD80B501215FF0805001F0ABFA98
:100D2000012001F041FEFFF78EFF134805214160CD
:100D300011480121017210480D2141720E48032112
:100D400001600E480021C1700C480C2101700B4855
:100D5000002141700948002181700849002000F0FD
:100D6000F4FE002001F020FE01BD000018ED00E0BF
:100D700000E400E0200100202C01002040010020C0
:100D800001003A480088002806D1394801803748D8
:100D900001220280002001E05FF0FF30704780B543
:100DA000C820FFF7EDFF02BD80B53048008800285D
:100DB00020D02E480088012809D12C480088401CEA
:100DC0002A49088001212B4801F075FE12E02748CE
:100DD000008827490988884205D224480088401C99
:100DE0002249088006E02148002101800021214895
:100DF00001F061FE01BD2048007890F001001E491D
:100E000008707047E0B50121202001F034FA1B483A
:100E100000684FF47A61B0FBF1F0401EADF80800B5
:100E20000020ADF804000020ADF80A000020ADF865
:100E3000060001A90F4801F0CBFD01210D4801F08A
:100E40002CFF012201210B4801F080FE2C208DF89F
:100E500000000E208DF8010001208DF80200012015
:100E60008DF8030000A801F049FD07BD80010020B6
:100E70008201002000140040B00240422C000020FB
:100E8000A249096949084900A04A11619F490969B5
:100E900031F004019D4A11619C49096931F0020158
:100EA0009A4A116100210800042880F2888097493D
:100EB00011F8201011F00101C9B200290FD0934997
:100EC00051F8201049084900904A42F820108F49F3
:100ED00051F8201051F004018C4A42F820108B493F
:100EE00051F82010C1F34001C9070FD5874951F8C7
:100EF000201031F00201854A42F82010834951F850
:100F0000201031F00401814A42F820101421804A57
:100F100001FB00214968C1F38001C9070ED57B4957
:100F200051F82010C1F38001C90707D4774951F85F
:100F3000201051F00101754A42F820101421744A22
:100F400001FB00214968C1F38001C9070ED46F4934
:100F500051F82010C1F38001C90707D56B4951F83A
:100F6000201051F00201694A42F8201067490969CE
:100F70004A085200654B53F82030194311F0010123
:100F80001143624A11616149096931F004025F4B02
:100F900053F82030194311F0040111435B4A1161E9
:100FA0005A49096931F00202584B53F8203019436D
:100FB00011F002011143554A1161401C74E770475A
:100FC0005249096931F00801504A116100210800B5
:100FD00004283BDA4D4951F82010C1F38001C907BC
:100FE00018D54A4911EB80014978062908D34749A9
:100FF00051F8201051F00801444A42F8201016E040
:10100000424911EB80014978491C404A12EB8002A9
:1010100051700CE03D4911EB800100224A703B49C0
:1010200051F8201031F00801384A42F820103749B1
:10103000096931F00802354B53F82030194311F09B
:1010400008011143314A1161401CC1E77047C0B229
:101050002E4911F8200010F00100C0B27047C0B254
:101060002A4951F82000C0F3400010F001007047F9
:10107000C0B2264951F82000C0F3800010F00100F2
:101080007047C0B2214951F82000C0F3C00010F0F1
:101090000100704710B500F0ADFB00200400E4B281
:1010A000042C24D2E4B21420194900FB0410406837
:1010B00050F00100E4B21421154A01FB04214860FC
:1010C000E4B21420124900FB0410406850F0020002
:1010D000E4B214210E4A01FB04214860E4B214205A
:1010E0000B4900FB041001214172641CD7E708483A
:1010F000592180F824100648592180F82510044809
:101100007FF0150180F8261010BD0000EC000020D3
:101110003000002030B4C9B20A2901D20A0001E02F
:101120000B231A00C0B20300002B032B08D91B1F8E
:10113000012B1BD99B1E012B2ED99B1E16D040E0E4
:10114000D2B2DFF87836D35CC0B2DFF87446045D03
:10115000DFF87056645D14F010042343C0B2DFF86A
:101160006046045DDFF85C5663552AE0C0B2DFF8E4
:101170005036C35CDFF84C461B5D13F08003D2B2DF
:10118000DFF84446145D2343C0B2DFF83446045D03
:10119000DFF83056635514E0D2B2DFF83036D35C56
:1011A000C0B2DFF81C46045DDFF81856645D14F029
:1011B00008042343C0B2DFF80846045DDFF8045694
:1011C000635530BC704738B504000D00EDB20A20FD
:1011D00095FBF0F1C9B22000C0B2FFF79BFFEDB262
:1011E0000A2095FBF0F100FB1151C9B2601CC0B29E
:1011F000FFF790FF31BD10B504002100C9B20020F7
:10120000FFF7E1FF10BD10B50400E4B20A2094FB23
:10121000F0F1C9B20420FFF77DFFE4B20A2094FB8D
:10122000F0F100FB1141C9B20520FFF773FF10BDBB
:1012300010B504002100C9B20220FFF7C4FF10BDA1
:1012400010B504002100C9B20620FFF7BCFF10BD95
:1012500080B50B210020FFF75DFF0B210120FFF778
:1012600059FF0B210220FFF755FF0B210320FFF749
:1012700051FF01BD80B50B210420FFF74BFF0B216F
:101280000520FFF747FF0B210620FFF743FF0B2147
:101290000720FFF73FFF01BD10B5DFF8340500213F
:1012A0000170DFF83005402101808021DFF828053A
:1012B00001F037FE0028F8D1DFF814050121017094
:1012C000DFF80C0500210170DFF80805C22101805C
:1012D0008021DFF8040501F024FE0028F8D1022067
:1012E0000400E4B20F2C0FD2E4B2DFF8D804205C83
:1012F000DFF8E01408808021DFF8DC0401F011FE43
:101300000028F8D1641CECE7DFF8C4040121017067
:1013100010BD10B5DFF8B80400210170DFF8B40487
:10132000402101808021DFF8B00401F0FAFD00289F
:10133000F8D1DFF89C0401210170DFF8940400214A
:101340000170DFF89004C02101808021DFF888045B
:1013500001F0E7FD0028F8D100200400E4B2102CD1
:101360000CD2DFF87004002101808021DFF86804CE
:1013700001F0D7FD0028F8D1641CEFE7DFF8500436
:101380000121017010BDC0B200280BD002281BD073
:1013900035D304280FD029D3062839D01DD30728E8
:1013A0003FD076E0DFF81C14897A51F01001DFF8A5
:1013B000142491726DE0DFF80C14497A51F0100199
:1013C000DFF80024517264E0DFF8F813497951F036
:1013D0001001DFF8F02351715BE0DFF8E8130979C1
:1013E00051F01001DFF8DC23117152E0DFF8D41363
:1013F000897851F00801DFF8CC23917049E0DFF8DB
:10140000C413097B51F08001DFF8B823117340E069
:10141000DFF8B013897B51F08001DFF8A8239173C6
:1014200037E0DFF8A013897A51F01001DFF8942338
:101430009172DFF89013497A51F01001DFF884239C
:101440005172DFF88013497951F01001DFF87423ED
:101450005171DFF87013097951F01001DFF864233E
:101460001171DFF86013897851F00801DFF8542317
:101470009170DFF85013097B51F08001DFF84423AD
:101480001173DFF84013897B51F08001DFF83423BA
:1014900091737047C0B200280BD002281BD035D3FF
:1014A00004280FD029D3062839D01DD307283FD0D0
:1014B00072E0DFF81013897A11F0EF01DFF80423EE
:1014C000917269E0DFF8FC12497A11F0EF01DFF860
:1014D000F422517260E0DFF8EC12497911F0EF016B
:1014E000DFF8E022517157E0DFF8D812097911F0E6
:1014F000EF01DFF8D02211714EE0DFF8C8128978D1
:1015000011F0F701DFF8BC22917045E0DFF8B4126A
:10151000097B11F07F01DFF8AC2211733CE0DFF8AA
:10152000A412897B11F07F01DFF89822917333E0D8
:10153000DFF89012897A11F0EF01DFF888229172BA
:10154000DFF88012497A11F0EF01DFF8782251724A
:10155000DFF87012497911F0EF01DFF8682251715C
:10156000DFF86012097911F0EF01DFF858221171EC
:10157000DFF85012897811F0F701DFF848229170F6
:101580009049097B11F07F018E4A11738D49897B47
:1015900011F07F018B4A9173704710B50400E4B2DB
:1015A000002C03D0022C15D00AD31DE00420FFF735
:1015B000EAFE0520FFF76EFF0620FFF76BFF1CE039
:1015C0000420FFF767FF0520FFF7DDFE0620FFF789
:1015D00061FF12E00420FFF75DFF0520FFF75AFFCF
:1015E0000620FFF7D0FE08E00420FFF753FF052098
:1015F000FFF750FF0620FFF74DFF10BD774800783A
:10160000401C76490870C0B2082802D173480021F6
:10161000017072480078042803D2714801210170DA
:1016200002E06F48002101706E480078401C6D494F
:101630000870C0B2032802D16A48002101706A48CC
:101640000078401C68490870C0B203280DD1664874
:101650000021017065480078401C64490870C0B2E0
:10166000032802D161480021017070475C4800786E
:1016700070475E48007870475A480078704700B558
:1016800085B001214FF4805000F0C7FD524801F0B1
:101690004BFB4FF44040ADF800000020ADF80400D3
:1016A0000220ADF806000120ADF808004FF40070EC
:1016B000ADF80A001820ADF80C008020ADF80E003F
:1016C0000720ADF810004FF48270ADF8020000A9B9
:1016D000414801F056FB01213F4801F0F9FB802110
:1016E0003D4801F01EFC0028F9D139480021017065
:1016F0003848002101808021374801F012FC002881
:10170000F9D133480121017031480121017030487D
:10171000012101702E48002101702E48972101807F
:1017200080212D4801F0FDFB0028F9D12848012136
:101730000170274801210170254801210170FFF740
:10174000E8FD05B000BD00B583B00121012000F027
:1017500036FD1020009001208DF8040000208DF847
:10176000060000208DF8070001208DF8050000A973
:101770001F4800F07BFE10211D4800F02FFF0020C5
:101780008DF8060002208DF80700A02000900220AE
:101790008DF8040001208DF8050000A9144800F020
:1017A00065FE05220521124800F044FF05220721AD
:1017B0000F4800F03FFF07BD00000000104B00087D
:1017C000344B000800010020284B00081C4B000887
:1017D000900240420C300140003001408D01002059
:1017E0008A0100208C0100208E0100208B01002046
:1017F0000000024080B5012080F310885D48002180
:1018000001705D48002101705C48142101705C4842
:10181000142101705B480A2101705B4800210170AE
:101820005A48142101705A480A21017059485349F5
:101830000978017058480021017058480021017052
:1018400001F0A6FB01F0ECFF02F0D4F9002080F3D8
:10185000108853480121017001BD80B550480078BF
:1018600001280ED0022824D0032828D0042839D0FB
:1018700005283DD006284ED0072852D00B2863D02B
:1018800076E0012080F310884648006846490968E0
:1018900060F300014448016042480068400840008D
:1018A00040490860002080F310883D480221017003
:1018B0005FE002F08BF83A480321017059E03B48A1
:1018C0000021017039480078022807D202F0B4F9EB
:1018D00036480078401C35490870F3E73048042149
:1018E000017046E002F0CEF82D480521017040E07D
:1018F0002E48022101702D480078032807D202F0FB
:101900009BF92A480078401C28490870F3E72448CE
:10191000062101702DE002F013F921480721017022
:1019200027E022480321017020480078042807D2CC
:1019300002F082F91D480078401C1C490870F3E74A
:1019400017480B21017014E002F051FC18481949A6
:101950000988018017480021018017481749097834
:1019600001701648002101700D480121017000E04E
:10197000FEE701BD920100209301002095010020A7
:101980009601002094010020910100209701002081
:1019900098010020990100209A0100209B0100205D
:1019A0008F010020780100205401002090010020C8
:1019B0004401002058010020480100205C01002063
:1019C00038B5040000252068402808D02068002889
:1019D00005D04FF4B771DFF8B804FFF70BF9606872
:1019E000802805D340F26F11DFF8A404FFF702F955
:1019F000A068B0F5005F05D34FF4B871DFF890042C
:101A0000FFF7F8F8DFF88C04CA210160DFF88404DE
:101A10005321016000F02DF8002802D100200500BC
:101A200020E0DFF8C803006830F04000DFF8BC13A6
:101A30000860DFF8B803006821680843DFF8AC13DA
:101A40000860A068DFF8AC130860DFF8A80300683E
:101A5000616850EA0140DFF89C13086000F037F835
:101A600001200500DFF82C04FF2101602800C0B22E
:101A700032BD81B00020009000200021DFF8182442
:101A8000126852061ED4DFF810245FF0FF33136093
:101A9000DFF80424126812F040021100009A521C70
:101AA0000092009AB2F5005F01D00029F0D0DFF873
:101AB000E8231268520602D50122100004E0002239
:101AC000100001E001221000C0B201B07047DFF841
:101AD000CC03006830F08000DFF8C0130860704766
:101AE00081B00020009000200021DFF8A823CA2345
:101AF0001360DFF8A02353231360DFF89C231268E0
:101B000032F0A002DFF890331A60DFF88C231268FD
:101B100012F020021100009A521C0092009AB2F5B5
:101B2000805F01D00029F0D0DFF86C2312689206A4
:101B300002D50122100001E000221000DFF854233A
:101B4000FF231360C0B201B070472DE9F0410400DB
:101B50000D0000260027002C07D0012C05D040F2F4
:101B60008321DFF82C03FFF745F8002C3BD1DFF889
:101B70007C020068400618D52878012802D328780E
:101B80000D2805D340F28921DFF80403FFF732F86E
:101B9000E878002814D0E878402811D040F28A2153
:101BA000DFF8EC02FFF726F80AE00020E87028785A
:101BB000182805D340F28F21DFF8D402FFF71AF876
:101BC00068783C2805D340F29121DFF8C402FFF782
:101BD00011F8A8783C2849D340F29221DFF8B002EE
:101BE000FFF708F842E0DFF80402006840061AD563
:101BF000287800F0D0F90600002E01D00D2E05D374
:101C000040F29921DFF88802FEF7F4FFE878002817
:101C100016D0E878402813D040F29A21DFF87002FD
:101C2000FEF7E8FF0CE00020E870287800F0B3F938
:101C3000182805D340F29F21DFF85402FEF7DAFF9F
:101C4000687800F0A8F93C2805D340F2A121DFF81C
:101C50004002FEF7CFFFA87800F09DF93C2805D39D
:101C600040F2A221DFF82802FEF7C4FF002C0BD0BF
:101C700028786978090251EA0040A9780843E97890
:101C800050EA0140060015E0287800F079F9804616
:101C9000687800F075F95FFA88F8C0B2000250EA7F
:101CA0000848A87800F06CF950EA0800E97850EA92
:101CB00001400600DFF8E801CA210160DFF8E00119
:101CC00053210160FFF7D5FE002802D10020070054
:101CD00010E0DFF8D0013040DFF80C110860FFF7AA
:101CE000F6FEFFF7FDFE002802D10020070001E00C
:101CF00001200700DFF8A801FF2101603800C0B211
:101D0000BDE8F08170B504000D000026002C07D05E
:101D1000012C05D040F2F521DFF87401FEF76AFFCF
:101D2000DFF8C4000068DFF87C1108400600300CC2
:101D300010F03F002870300A10F07F00687016F035
:101D40007F00A870300C10F04000E870002C0BD120
:101D5000287800F020F92870687800F01CF9687085
:101D6000A87800F018F9A87070BD10B50400002C18
:101D70000ED0012C0CD0022C0AD0032C08D0042C3D
:101D800006D0062C04D04FF49A614148FEF732FF8A
:101D90004348CA210160424853210160134800684A
:101DA000C008C000114908601048006820430F496E
:101DB00008603B48FF21016010BD10B50400B4F578
:101DC000803F04D340F2EB413148FEF713FF344823
:101DD000CA2101603248532101600548046030483F
:101DE000FF21016010BD00000028004008280040CD
:101DF000142800401028004070B582B00400002074
:101E0000009000250026E4B2002C07D0E4B2012C9B
:101E100004D04FF4A2611E48FEF7ECFE2048CA2110
:101E200001601F4853210160E4B2002C0AD0DFF8A2
:101E30003801006850F48060DFF82C110860012040
:101E400006001EE0DFF82001006830F48060DFF853
:101E5000181108601048006810F004000500009890
:101E6000401C00900098B0F5005F01D0002DF1D02B
:101E700009480068400702D40020060001E0012064
:101E800006000748FF2101603000C0B276BD0000A7
:101E9000B0480008242800400C2800400C280040CE
:101EA000242800407F7F7F0038B504000D00002CFF
:101EB00002D03148044204D040F293712B48FEF71F
:101EC00099FEEDB2002D07D0EDB2012D04D040F205
:101ED00094712648FEF78EFE2548CA2101602448E9
:101EE00053210160EDB2002D0ED01F48006834F080
:101EF000040108431C4908601E48006814F00401EE
:101F000008431C4908600DE01748006834F00401DC
:101F10008843154908601748006814F00401884395
:101F2000144908601248FF21016031BD38B5040032
:101F30000025002C03D034F43C30002804D040F6B7
:101F400023010A48FEF756FE20090500A8B250F00A
:101F500080000A49096811F0800171EA0000074910
:101F6000086031BD0000000008280040B0480008AB
:101F70002428004040280040FB0FFFFF0C280040B1
:101F80000021C0B20A2802D3491C0A38F9E750EAF6
:101F90000110C0B270470021C0B202090A235A439F
:101FA000110010F00F004018C0B2704710B50400C7
:101FB000E4B2002C0BD0E4B2012C08D0E4B2052C22
:101FC00005D040F2BD11DFF85404FEF713FEDFF830
:101FD000540400210170DFF84C04047010BDDFF8D8
:101FE0003804006810F00C007047F0B400210022A3
:101FF0000023002400250026DFF81C743F6817F03A
:102000000C0739000F00002F06D0042F15D0082F21
:1020100017D00C2F19D042E0DFF804743F68C7F3E3
:1020200042373E00012716F1010C17FA0CF74FF466
:10203000004C0CFB07F7076041E0DFF8EC7307602A
:102040003DE0DFF8E873076039E0DFF8CC733F6804
:1020500017F470173A00DFF8C0733F6817F44007B1
:102060003B00920CDFF8C873D25D9B0D5B1CDFF860
:10207000A8733F6817F480373C00002C07D1DFF8C5
:10208000A87307FB02F7B7FBF3F7076006E0DFF87A
:102090009C7307FB02F7B7FBF3F707600FE0DFF86D
:1020A00080733F68C7F342373E00012716F1010CE9
:1020B00017FA0CF74FF4004C0CFB07F70760DFF83A
:1020C00058733F6817F0F00739000909DFF86473A7
:1020D000CF5D3D000768EF404760DFF83C733F6825
:1020E00017F4E0673900090ADFF84873CF5D3D0057
:1020F0004768EF408760DFF820733F6817F4605748
:102100003900C90ADFF82C73CF5D3D004768EF4006
:10211000C760F0BC704738B504000025B4F5803FB7
:1021200017D0B4F5003F14D0B4F5403F11D0DFF81C
:10213000080384420DD0DFF80403844209D0DFF89D
:102140000003844205D040F2E131DFF8D002FEF70F
:1021500051FD14F44030B0F5403F0BD1DFF8B4022C
:102160000068050035F0C04514F0C0400543DFF8B5
:10217000A4020560DFF8CC02006830F44030DFF8DC
:10218000C4120860DFF8BC02006814F44031084350
:10219000DFF8B012086031BD10B50400E4B2002CC5
:1021A00008D0E4B2012C05D040F20341DFF86C0204
:1021B000FEF720FDDFF89002E4B2046010BD38B5F0
:1021C00004000D00DFF88402044201D1002C05D187
:1021D00040F22F41DFF84402FEF70CFDEDB2002D76
:1021E00008D0EDB2012D05D04FF48661DFF82C0246
:1021F000FEF700FDEDB2002D07D0DFF854020068B5
:102200002043DFF84C12086006E0DFF84402006863
:10221000A043DFF83C12086031BD38B504000D0062
:10222000DFF83002044201D1002C05D140F25141C7
:10223000DFF8E801FEF7DEFCEDB2002D08D0EDB2CC
:10224000012D05D040F25241DFF8D001FEF7D2FC5B
:10225000EDB2002D07D0DFF8000200682043DFF860
:10226000F811086006E0DFF8F0010068A043DFF82D
:10227000E811086031BD38B504000D00DFF8DC015D
:10228000044201D1002C05D140F27C41DFF88C01E1
:10229000FEF7B0FCEDB2002D08D0EDB2012D05D057
:1022A00040F27D41DFF87401FEF7A4FCEDB2002D91
:1022B00007D0DFF8AC0100682043DFF8A411086004
:1022C00006E0DFF89C010068A043DFF89411086085
:1022D00031BD38B504000D00DFF87801044201D1AA
:1022E000002C04D140F2BC414C48FEF783FCEDB217
:1022F000002D07D0EDB2012D04D040F2BD4147487A
:10230000FEF778FCEDB2002D07D0DFF85801006829
:102310002043DFF85011086006E0DFF8480100684C
:10232000A043DFF84011086031BD38B504000D004E
:102330004A48044201D1002C04D140F2E44137481C
:10234000FEF758FCEDB2002D07D0EDB2012D04D000
:1023500040F2E5413148FEF74DFCEDB2002D05D0CD
:102360004148006820434049086004E03E48006856
:10237000A0433D49086031BDF8B5040000250026A2
:102380000027E4B2212C28D0E4B2312C25D0E4B2CD
:10239000292C22D0E4B2392C1FD0E4B2492C1CD015
:1023A000E4B2412C19D0E4B25A2C16D0E4B25B2C22
:1023B00013D0E4B25C2C10D0E4B25D2C0DD0E4B2AA
:1023C0005E2C0AD0E4B25F2C07D0E4B2592C04D0C2
:1023D00040F2B6511148FEF70DFCE4B26009C0B2FC
:1023E0000500012D03D10B480068060002E01548E6
:1023F00000680600E4B214F01F0005000120A840A8
:10240000064202D00120070001E00020070038004A
:10241000C0B2F2BD0038024008380240444800080B
:1024200004380240353802400024F40000127A00DB
:1024300020000020100000200000032000000340C6
:102440000000036034380240D8064742C06FFFFEE8
:102450001C380240E2ADFFFF20380240C8B5194FDA
:102460002438024014380240183802402DE9F04167
:1024700004000D00002600275FF00008DFF840038D
:10248000844218D0DFF83C03844214D0DFF83803CC
:10249000844210D0DFF8340384420CD0DFF83003DC
:1024A000844208D0DFF82C03844204D0C121DFF835
:1024B0002803FEF79FFB2868002804D1C221DFF81B
:1024C0001803FEF797FB287900280DD028790128FA
:1024D0000AD02879022807D02879032804D0C321FC
:1024E000DFF8F402FEF786FBE87900280AD0E879E5
:1024F000012807D0E879022804D0C421DFF8D802E7
:10250000FEF778FB00200600102E65D20120B040B7
:102510000700286838408046B8455BD12068032111
:102520003200D2B25200914088432060206829795D
:102530003200D2B25200914008432060287901282D
:1025400002D02879022835D1687900280DD0687921
:1025500001280AD06879022807D06879032804D0B6
:10256000D821DFF87402FEF745FBA0680321320092
:10257000D2B2520091408843A060A06869793200CD
:10258000D2B2520091400843A060A879002807D039
:10259000A879012804D0DF21DFF83C02FEF72AFBEE
:1025A000A0880121B1408843A080A088A979B140CA
:1025B0000843A080E06803213200D2B2520091406B
:1025C0008843E060E068E9793200D2B2520091407D
:1025D0000843E060761C97E7BDE8F08138B5040059
:1025E0000D00DFF8DC01844219D0DFF8D801844205
:1025F00015D0DFF8D401844211D0DFF8D001844235
:102600000DD0DFF8CC01844209D0DFF8C801844244
:1026100005D04FF4C471DFF8C001FEF7EBFAADB29C
:10262000002D05D140F28911DFF8AC01FEF7E2FA86
:10263000258331BD2DE9F04104000D00160000276F
:102640005FF000085E48844213D05E48844210D098
:102650005D4884420DD05D4884420AD05C48844283
:1026600007D05C48844204D040F209215A48FEF762
:10267000C1FAADB2002D31D0ADB2012D2ED0ADB228
:10268000022D2BD0ADB2032D28D0ADB2042D25D014
:10269000ADB2052D22D0ADB2062D1FD0ADB2072DA3
:1026A0001CD0ADB2082D19D0ADB2092D16D0ADB2E7
:1026B0000A2D13D0ADB20B2D10D0ADB20C2D0DD014
:1026C000ADB20D2D0AD0ADB20E2D07D0ADB20F2D8B
:1026D00004D040F20A214048FEF78CFAF6B2002EF0
:1026E00046D0F6B2002E43D0F6B2002E40D0F6B25D
:1026F000002E3DD0F6B2002E3AD0F6B2002E37D0E2
:10270000F6B2012E34D0F6B2022E31D0F6B2022E3D
:102710002ED0F6B2032E2BD0F6B2032E28D0F6B26E
:10272000032E25D0F6B2042E22D0F6B2042E1FD0EE
:10273000F6B2052E1CD0F6B2052E19D0F6B2072E31
:1027400016D0F6B2072E13D0F6B2072E10D0F6B27E
:102750000A2E0DD0F6B20B2E0AD0F6B20E2E07D0EE
:10276000F6B20F2E04D040F20B211B48FEF742FABE
:10277000F6B215F00700C0B2800016FA00F00700AC
:10278000ADB2E81014EB8000ADB2E91014EB81019A
:10279000096A0F2215F00703DBB29B009A409143B0
:1027A0000162ADB2E81014EB8000006A3843804645
:1027B000ADB2E81014EB8000C0F82080BDE8F081D5
:1027C000000002400004024000080240000C0240E9
:1027D00000100240001402406C47000838B50400A5
:1027E00000252079002806D02079042803D08121F3
:1027F0004148FEF7FFF96079082809D060790C2874
:1028000006D06079102803D082213B48FEF7F2F908
:102810002068C00DC005002802D12068002803D11F
:1028200083213548FEF7E6F9A079002806D0A07983
:10283000012803D084213048FEF7DCF9294805003F
:10284000A079002836D027480068216888432549A8
:10285000086025480068216888432349086020797A
:1028600045192868216808432860204800682168C5
:1028700088431E4908601E480068216888431C4937
:102880000860607910280CD1184800682168084356
:102890001649086016480068216808431449086012
:1028A0000EE0104805006079451928682168084342
:1028B000286005E020794519286821688843286048
:1028C00031BD10B50400E00DC005002801D1002C79
:1028D00004D14FF492710848FEF78CF90548046062
:1028E00010BD000000040140040401400804014040
:1028F0000C0401401404014000470008F8B504002E
:10290000002500260F27E078002806D0E07801286F
:1029100003D08C211F48FEF76DF96078102803D38F
:102920008D211C48FEF766F9A078102803D38E216C
:102930001848FEF75FF9E078002820D016480068B4
:1029400010F4E060D0F5E060000A0500D5F1040065
:102950000600EF406078B0400500A078384005439D
:102960002D0120780D494554207840110C49012251
:10297000237813F01F039A4041F8202009E02078C3
:10298000401108490122237813F01F039A4041F8AF
:102990002020F1BDF44900080CED00E000E400E067
:1029A00000E100E080E100E010B50400E4B2002C9A
:1029B00006D0E4B2012C03D086210348FEF71AF9B1
:1029C0000248E4B2046010BDD847000820000E425F
:1029D00070B504000D000026B4F1804F20D0DFF860
:1029E0004C0184421CD0DFF84801844218D0DFF843
:1029F0004401844214D0DFF84001844210D0DFF853
:102A00003C0184420CD0DFF83801844208D0DFF862
:102A10003801844204D0FA21DFF82801FEF7EAF8F1
:102A20006888002810D0688810280DD06888202871
:102A30000AD06888402807D06888602804D0FB2125
:102A4000DFF80001FEF7D6F8E88800280CD0E88807
:102A5000B0F5807F08D0E888B0F5007F04D0FC2175
:102A6000DFF8E000FEF7C6F820880600B4F1804FDA
:102A700007D0DFF8B800844203D0DFF8B400844206
:102A800004D14FF68F70064068880643DFF8A40033
:102A9000844208D0DFF8A000844204D04FF6FF4003
:102AA0000640E88806432680A888A08528882085D7
:102AB0000120A08270BD38B504000D00B4F1804F34
:102AC0001AD01A48844217D01948844214D01948A1
:102AD000844211D0184884420ED0184884420BD04A
:102AE0001748844208D0DFF86000844204D040F2E6
:102AF0001A211448FEF77EF8EDB2002D07D0EDB292
:102B0000012D04D040F21B210E48FEF773F8EDB200
:102B1000002D04D0208850F00100208004E020889F
:102B20004FF6FE710840208031BD000000040040D7
:102B30000008004000100040001400400008014060
:102B4000000C0140884900080010014070B50400E5
:102B50000D001600B4F1804F21D0DFF8AC018442A3
:102B60001DD0DFF8A801844219D0DFF8B0018442FB
:102B700015D0DFF8AC01844211D0DFF89401844213
:102B80000DD0DFF89001844209D0DFF88C01844237
:102B900005D040F26A71DFF88C01FEF72BF84FF692
:102BA000A070054202D1ADB2002D05D140F26B718B
:102BB000DFF87001FEF71EF8F6B2002E08D0F6B26C
:102BC000012E05D040F26C71DFF85801FEF712F8C3
:102BD000F6B2002E03D0A0892843A08102E0A0898C
:102BE000A843A08170BD2DE9F04104000D0000262E
:102BF00000275FF00008B4F1804F1FD042488442A4
:102C00001CD04248844219D0DFF81001844215D00C
:102C1000DFF80C01844211D0DFF8F40084420DD0BB
:102C2000DFF8F000844209D0DFF8EC00844205D0E0
:102C30004FF4FF61DFF8EC00FDF7DCFFADB2012DD2
:102C400014D0ADB2022D11D0ADB2042D0ED0ADB264
:102C5000082D0BD0ADB2102D08D0ADB2402D05D04F
:102C600040F2F971DFF8BC00FDF7C4FF208A28406C
:102C70000700A08928408046BFB2002F07D01FFA66
:102C800088F8B8F1000F02D00120060001E0002012
:102C900006003000C0B2BDE8F08138B504000D0078
:102CA000B4F1804F1FD0184884421CD0174884428A
:102CB00019D0DFF86800844215D0DFF86400844240
:102CC00011D0DFF84C0084420DD0DFF84800844278
:102CD00009D0DFF84400844205D040F61F01DFF838
:102CE0004400FDF787FF4FF6A070054202D1ADB258
:102CF000002D05D14FF40261DFF82800FDF77AFFBF
:102D0000ADB2E843208231BD00040040000800401D
:102D100000080140000C014000100140001000407C
:102D2000001400408849000810B50400DFF8540280
:102D3000844208D0DFF85002844204D08D21DFF8AD
:102D40004C02FDF757FFDFF83C0284420AD1012113
:102D50004FF48050FFF7BDFA00214FF48050FFF789
:102D6000B8FA0DE0DFF82002844209D101214FF4C6
:102D70008040FFF7DAFA00214FF48040FFF7D5FAE0
:102D800010BD70B504000D000026DFF8F801844284
:102D900008D0DFF8F401844204D0AF21DFF8EC0161
:102DA000FDF728FF2888002810D02888B0F5806F0C
:102DB0000CD02888B0F5004F08D02888B0F5404FD7
:102DC00004D0B221DFF8C401FDF714FF6888B0F524
:102DD000827F07D06888002804D0B321DFF8AC01D7
:102DE000FDF708FFA888B0F5006F07D0A888002875
:102DF00004D0B421DFF89401FDF7FCFEE888002838
:102E000007D0E888022804D0B521DFF88001FDF75B
:102E1000F1FE2889002807D02889012804D0B6218E
:102E2000DFF86801FDF7E6FE6889B0F5007F07D09E
:102E30006889002804D0B721DFF85001FDF7DAFED9
:102E4000A889002819D0A889082816D0A889102890
:102E500013D0A889182810D0A88920280DD0A889B7
:102E600028280AD0A889302807D0A889382804D073
:102E7000B821DFF81801FDF7BDFEE889002807D06A
:102E8000E889802804D0B921DFF80001FDF7B2FEFF
:102E9000288A012804D2BA21DFF8F000FDF7AAFE43
:102EA0002088060016F44156288869880843A988B6
:102EB0000843E98808432989084369890843A9899F
:102EC0000843E989084306432680288A208270BD8A
:102ED00038B504000D00DFF8AC00844208D0DFF8FC
:102EE000A800844204D0FB21DFF8A000FDF782FE99
:102EF000EDB2002D07D0EDB2012D04D0FC21DFF89A
:102F00008C00FDF777FEEDB2002D04D0208850F044
:102F10004000208004E020884FF6BF7108402080E8
:102F200031BD70B504000D0000261648844207D05C
:102F30001548844204D040F2EB211448FDF75AFEB4
:102F4000ADB2802D13D0ADB2402D10D0ADB2202D3A
:102F50000DD0ADB2102D0AD0ADB2022D07D0ADB25A
:102F6000012D04D04FF43B710848FDF743FE208942
:102F7000284202D00120060001E0002006003000B7
:102F8000C0B270BD00300140003800401C4900084C
:102F900080B5DFF8E007006850F00200DFF8D417D2
:102FA0000860DFF8D4070068DFF8D0170843DFF8BF
:102FB000C8170860DFF8C807006850F00040DFF865
:102FC000C0170860DFF8BC07006840004008DFF861
:102FD000B4170860DFF8B007DFF8AC170988018084
:102FE000DFF8A807DFF8A41709680160DFF8980781
:102FF000DFF8941709880180DFF89007DFF88C1755
:1030000009680160DFF88007DFF87C170988018014
:10301000DFF87807DFF874170968016000F001F83D
:1030200001BD80B5DFF85C070068DFF86417084071
:10303000DFF850170860012080F31088DFF854078C
:1030400000884EF6FE710840DFF848170880DFF868
:1030500048070068DFF84417084040F0807050F0DF
:103060000100DFF834170860DFF8280700884DF604
:10307000FD710840DFF81C170880DFF81C070068A6
:10308000DFF81C17084040F0806050F00400DFF8C3
:1030900008170860DFF8FC0600884BF6FF7108404F
:1030A000DFF8F0160880DFF8F006006830F04050D6
:1030B00050F08050DFF8E0160860DFF8D80600888E
:1030C0004004400CDFF8CC160880DFF8CC0600681E
:1030D0008000800850F08040DFF8BC1608600020B7
:1030E00080F31088642000F069FBDFF89806006820
:1030F000DFF89C160840DFF88C16086001BD10B59B
:1031000000200400DFF89C0600210180DFF894060F
:1031100000214180DFF88C0600218180DFF88406E1
:103120000021C180DFF87C0600210181DFF87406F0
:1031300000214181DFF86C0600218181DFF86406FF
:103140000021C181DFF85C0600210182DFF854060E
:1031500000214182DFF84C0600214161DFF824069E
:103160000068DFF82C160840DFF818160860012008
:1031700080F31088DFF81C0600884EF6FE710840C8
:10318000DFF810160880DFF810060068DFF80C166C
:10319000084040F0807050F00100DFF8FC15086036
:1031A000DFF8F00500884DF6FD710840DFF8E41502
:1031B0000880DFF8E4050068DFF8E415084040F017
:1031C000806050F00400DFF8D0150860002080F324
:1031D0001088322000F0F2FA012080F31088DFF826
:1031E000B8050068DFF8B8150840DFF8AC150860CE
:1031F000002080F31088DFF88C05006840F4802000
:1032000050F48070DFF87C150860012080F310888E
:10321000DFF88005008840F4005050F00200DFF82D
:1032200074150880DFF870050068DFF87415084031
:1032300040F0806050F00400DFF85C15086000206A
:1032400080F3108801F0CCF8DFF858054069C0F32E
:103250008010C00710D4DFF85005008880B2C00489
:103260000AD5DFF840058481DFF83805406950F061
:103270004000DFF830154861DFF828054069C0F3E9
:103280008000C00710D4DFF82005008880B2C00796
:103290000AD5DFF810058480DFF80805406950F092
:1032A0000400DFF800154861DFF8F8044069C0F356
:1032B0004010C00710D4DFF8F004008880B2C006C8
:1032C0000AD5DFF8E0044481DFF8D804406950F003
:1032D0002000DFF8D0144861641C012080F31088BE
:1032E000DFF8B4040068DFF8B8140840DFF8A81469
:1032F0000860002080F31088DFF88804006840F43C
:10330000002050F40070DFF87C14086001F06AF8C7
:10331000012080F31088DFF880040068DFF87C1457
:103320000840DFF874140860002080F31088DFF88C
:1033300054040068DFF858140840DFF848140860A7
:103340004EF20960A4B2844201D300BF0CE0DFF862
:1033500054044069DFF84C14098B0840DFF844142A
:10336000098B88427FF447AF10BD10B500200400E0
:10337000DFF8380400210180DFF8300400214180AB
:10338000DFF8280400218180DFF820040021C180BB
:10339000DFF8180400210181DFF8100400214181C9
:1033A000DFF8080400218181DFF800040021C181D9
:1033B000DFF8F80300210182DFF8F00300214182E9
:1033C000DFF8E80300214161DFF8B8030068DFF8A7
:1033D000E0130840DFF8AC130860012080F3108888
:1033E000DFF8B00300884EF6FE710840DFF8A41342
:1033F0000880DFF8A4030068DFF8A013084040F05D
:10340000807050F00100DFF890130860DFF884034B
:1034100000884BF6FF710840DFF878130880DFF86A
:103420007803006830F0405050F08050DFF86813A7
:103430000860002080F31088322000F0BFF90120DE
:1034400080F31088DFF85003006830F04050DFF858
:1034500048130860002080F31088012080F3108852
:10346000DFF834030068DFF834130840DFF828136E
:103470000860002080F31088C248006840F4802073
:1034800050F48070BF490860012080F31088C14863
:10349000008850F48040BF490880BF48006830F081
:1034A000405050F08050BC490860002080F31088E4
:1034B00000F096FFBD484069C0F38010C0070CD4EF
:1034C000B948008880B2C00407D5B8488481B7489D
:1034D000406950F04000B5494861B4484069C0F3C4
:1034E0008000C0070CD4B048008880B2C00707D560
:1034F000AE488480AD48406950F00400AB49486153
:10350000AA484069C0F34010C0070CD4A648008800
:1035100080B2C00607D5A5484481A448406950F050
:103520002000A2494861012080F310889A48006871
:1035300030F0405098490860002080F31088641CE7
:103540009048006850F480108E49086000F04AFFEF
:10355000012080F3108890480068904908408E4907
:103560000860002080F31088864800689049084071
:10357000844908604EF20960844201D300BF09E02B
:103580008A4840698949098B08408849098B8842E3
:103590007FF472AF10BD10B50020040085480021F3
:1035A0000180844800214180824800218180814837
:1035B0000021C1807F48002101817E480021418196
:1035C0007C48002181817B480021C181794800210C
:1035D0000182784800214182764800214161694892
:1035E00000687549084067490860012080F3108829
:1035F000684800884EF6FE710840664908806648B3
:1036000000686649084040F0807050F0010062494F
:103610000860604800884004400C5E4908805E48AD
:1036200000688000800850F080405B4908600020FE
:1036300080F31088322000F0C1F8012080F3108858
:10364000554800688000800853490860002080F3D6
:1036500010884C48006840F4802050F4807049493C
:103660000860012080F310884A48008850F4004028
:1036700048490880484800688000800850F0804031
:1036800045490860002080F3108800F0A9FE4948F1
:103690004069C0F38010C0070CD44348008880B252
:1036A000C00407D5434884814248406950F0400037
:1036B000404948613F484069C0F38000C0070CD4CE
:1036C0003948008880B2C00707D53A488480394815
:1036D000406950F004003749486136484069C0F3FA
:1036E0004010C0070CD43048008880B2C00607D50F
:1036F000304844812F48406950F020002D494861EE
:10370000012080F310882448006880008008224946
:103710000860002080F31088641C1A48006850F488
:1037200000101849086000F05DFE012080F3108849
:10373000194800681949084017490860002080F3BB
:103740001088104800681C4908400E4908604EF275
:103750000960844201D300BF09E016484069154959
:10376000098B08401349098B88427FF472AF10BD62
:10377000000000001C380240107C0040000003F0F4
:1037800024380240087C0040040402400C0402403B
:10379000FFFCF3FF1404024000040240FCFFFFFCA6
:1037A000F3FFFFF380000020100402409C00002083
:1037B000FFFEEBFFB8000020FFFEDBFF0100010071
:1037C00089B2012901D3491EFAE7704740B20028A7
:1037D00008D540B210F00F026E4BD2180B0102F860
:1037E000043C03E040B26C4A0B018354704710B5AF
:1037F0000400B4F1807F01D3012010E02002000A10
:10380000401E664908600F215FF0FF30FFF7DEFFC2
:10381000634800210160634807210160002010BD5A
:1038200080B5614800210160604800210160604866
:10383000002101605F48002101605F4800210170A4
:103840005E48FEF7D2FB5D4840684FF4FA61B0FB7A
:10385000F1F0FFF7CCFF002800D0FEE701BD524891
:1038600000680A280AD3504800680A384E490860A0
:103870005148006850F001004F490860704780B51A
:103880004A4800680A280BD3484800680A38474964
:10389000086045480068401C43490860FFF7DFFFA7
:1038A00001BD80B542480068142810D34048006824
:1038B00014383F4908603D480068401C3B49086097
:1038C0003C480068401C3B490860FFF7D8FF01BD39
:1038D00080B537480068401C3549086038480068A2
:1038E000002804D036480068401E35490860FFF7BC
:1038F000D8FF31480068C0F34000C0070ED52E48FD
:10390000006830F002002C4908602B48006830F055
:103910000400294908602B48C82101602648006836
:10392000C0F3C000C0070ED52348006830F008007F
:10393000214908602048006830F010001E490860E6
:103940002148C82101601F48006800280ED01D488A
:103950000068401E1B4908601A480068002805D10D
:103960001548006850F004001349086016480068C4
:1039700000280ED014480068401E13490860124801
:103980000068002805D10C48006850F010000A4972
:10399000086001BD18ED00E000E400E014E000E084
:1039A00018E000E010E000E0680100206401002061
:1039B000600100206C01002078010020100100202F
:1039C0007C010020700100207401002080B5DFF828
:1039D000040500210183DFF8000500210170DFF8F4
:1039E000F8040078022821D2DFF8EC0400781421D2
:1039F000DFF8E82401FB00200078882108420DD17F
:103A0000DFF8D004008BDFF8D0140978DFF8D02479
:103A100032F811100843DFF8BC140883DFF8B8044B
:103A20000078401CDFF8B0140870D8E7DFF8A40471
:103A3000008B002825D0FFF762FBDFF89C040021F3
:103A40000170DFF89404007802281AD2DFF88804A5
:103A50000078DFF89014405CDFF8781431F810003B
:103A6000DFF8741409781422DFF8703402FB013196
:103A70004881DFF864040078401CDFF85C140870AB
:103A8000DFE701BD80B5DFF8600400210183DFF8C6
:103A9000480402210170DFF840040078032821D295
:103AA000DFF8340400781421DFF8302401FB002013
:103AB0000078882108420DD1DFF82C04008BDFF854
:103AC00018140978DFF8182432F811100843DFF8C9
:103AD00018140883DFF800040078401CDFF8F8139E
:103AE0000870D8E7DFF80004008B002827D0FFF724
:103AF0003CFCDFF8E40302210170DFF8DC0300780E
:103B000003281CD2DFF8D0030078DFF8E013401858
:103B100010F8020CDFF8D01331F81000DFF8B813FA
:103B200009781422DFF8B43302FB01314881DFF851
:103B3000A8030078401CDFF8A0130870DDE701BD82
:103B400080B5DFF8AC0300210183DFF88C0303218B
:103B50000170DFF884030078042821D2DFF87803AD
:103B600000781421DFF8742301FB002000788821FD
:103B700008420DD1DFF87803008BDFF85C13097879
:103B8000DFF85C2332F811100843DFF86413088370
:103B9000DFF844030078401CDFF83C130870D8E7D6
:103BA000DFF84C03008B002823D0FFF7F4FCDFF88C
:103BB000280303210170DFF820030078042818D2BD
:103BC000DFF814030078DFF82C13401810F8030C0A
:103BD000DFF81C1331F81000BF4909781422BF4BDD
:103BE00002FB01314881BC480078401CBA4908708A
:103BF000E1E701BD80B5B84800210170B648007802
:103C0000042818D200F084F9BB48006880210170B4
:103C1000B948006859210174B748006863214174AC
:103C2000B54800687FF015018174AB480078401CEE
:103C3000A9490870E2E701BD80B500F069F900F01C
:103C400073F9AD480068007801282FD002280CD005
:103C5000042819D0082835D0112824D0142810D0D1
:103C600024281DD0802830D032E000F022F900282E
:103C700002D000F01DFA2CE000F044F800F003F947
:103C800027E000F067F824E000F013F9002802D0E4
:103C900000F00EFA1DE000F07CF800F0F4F818E0F7
:103CA00000F095F815E000F0AFF812E000F001F92F
:103CB000002802D000F0FCF90BE000F0C2F800F0A0
:103CC000E2F806E000F0DFF803E000F0E7F800E0DB
:103CD000FEE78A4800888849096889880843874937
:103CE000088087480078844909680978084384492E
:103CF000087081480068406830F008007E49096813
:103D0000486001BD80B57C48006890F912007D498B
:103D1000B1F9001000B2884202DB00F087F918E028
:103D20007848B0F900007449096891F9101009B297
:103D300088420EDB00F039F973480078002808D17A
:103D40006D480068807B401C6B490968887300F0EF
:103D500001F801BD80B56B48B0F9000066490968FB
:103D600091F9101009B2884210DB00F0EBF96248BB
:103D70000068807B401E6049096888735E4800685F
:103D8000807B002801D100F01DF901E000F0E9F886
:103D900001BD80B55848006890F911005949B1F942
:103DA000001000B288420FDB00F02DF95748007870
:103DB000002808D150480068807B401C4E490968A3
:103DC000887300F004F801E000F0F6F901BD80B559
:103DD0004948006890F911004A49B1F9001000B251
:103DE00088420EDB44480068807B401E42490968D7
:103DF000887341480068807B002804D100F0A3F854
:103E000001E000F00DF901BD80B53B48006890F974
:103E100012003C49B1F9001000B288420EDB36486E
:103E20000068807B401E3449096888733248006806
:103E3000807B002804D100F006F901E000F091F841
:103E400001BD80B52C48006880892B4909684989E3
:103E5000081829490968888127480068007A401EA7
:103E600025490968087224480068007A002809D1A9
:103E700021480068808980B2C0081F49096888818C
:103E800000F061F801BD80B51B4800684068C0F3D0
:103E90004000C00701D400F030F901BD80B51648DC
:103EA0000068007910F00300032801D100F0CBF87E
:103EB00001BD114800684089082806D30E480068F3
:103EC00040894EF20961884201D3FF2000E00020C2
:103ED000704700008000002090010020300000208A
:103EE0004C4B0008A24A00089C000020E64A00084B
:103EF000B8000020E74A00084C01002058010020CB
:103F00005C01002086010020920100209301002026
:103F1000DFF8840400781421DFF8802401FB0020FE
:103F2000DFF87C1408607047DFF874040068B0F9AB
:103F30000C00DFF86C140968B1F90A10401ADFF8B8
:103F400064140880704780B5DFF854040068406846
:103F500050F00800DFF848140968486000F001F8E4
:103F600001BDDFF83C04006802210170DFF8300475
:103F70000068406830F00400DFF8241409684860E5
:103F8000DFF81C040068406830F08000DFF810148F
:103F900009684860DFF808040068406830F02000D5
:103FA000DFF8FC13096848607047DFF8F403006825
:103FB00014210170DFF8E8030068DFF8EC130978DA
:103FC00081737047DFF8D803006804210170DFF8BF
:103FD000D0030068406850F00400DFF8C41309689B
:103FE0004860DFF8BC030068406850F00800DFF864
:103FF000B01309684860DFF8A8030068DFF8AC1365
:10400000097801727047DFF8980300682421017075
:10401000DFF88C030068DFF8981309788173704724
:10402000DFF87C030068042101707047DFF870033B
:10403000006811210170DFF868030068DFF874136D
:10404000097881737047DFF8580300680121017017
:10405000DFF84C030068406830F00400DFF84013DC
:1040600009684860DFF838030068406850F00800CD
:10407000DFF82C1309684860DFF824030068406803
:1040800030F08000DFF8181309684860DFF810038B
:104090000068406830F02000C14909684860C048A5
:1040A000006808210172BE480068002181817047C4
:1040B000BB48006808210170B9480068406830F0CA
:1040C0000400B74909684860B5480068406850F086
:1040D0000800B34909684860B1480068406830F09A
:1040E0008000AF4909684860AD480068406850F0FA
:1040F0002000AB49096848607047A94800688021E2
:104100000170A7480068406830F00400A4490968BD
:104110004860A3480068406850F00800A04909685A
:1041200048609F480068406830F080009C490968FA
:1041300048609B480068406830F020009849096852
:1041400048607047964A12685268C2F3C012D2079C
:1041500031D4934A1268527A100000221100C9B279
:10416000042920D28C4A1278C9B2914219D0C9B21E
:1041700014228A4B02FB0132527A024211D0C9B298
:104180001422864B02FB01325268C2F3C012D207DE
:1041900007D5834A1268927B521C814B1B689A7325
:1041A00009E0491CDBE77E4A1268526852F080023F
:1041B0007B4B1B685A60704780B57F48007810F0D1
:1041C0000100C0B2002811D07848007800280DD036
:1041D00073480068007A401E714909680872704887
:1041E0000068007A002801D1FFF72DFF01BD2DE9FD
:1041F000F041012080F3108870487149096801601E
:104200006F4800210160002080F310886B4800682F
:10421000411E6A4A1160002800F0BB80694800789E
:10422000002804D067480078401E66490870664838
:104230000078401E644908706348007800280BD15C
:1042400061480A21017061480078002804D05F4865
:104250000078401E5D4908705D4800780400012028
:104260000700002006004C48002101704A480078F1
:10427000042841D2FFF74CFE494800680078142812
:1042800009D0474800680078042804D044480068F2
:104290000078242804D14D484E49097801702BE05C
:1042A0003F4800680078022820D1FFF73DFE3D48D6
:1042B000B0F90000002802D10020070016E03948BC
:1042C000B0F90000002809D536B2012E02DB00202B
:1042D00007000BE05FF0FF30060007E036B2002E6B
:1042E00002D50020070001E0012006002A480078DE
:1042F000401C29490870B9E73248007833490978E9
:104300000843C0B200287FF481AF2E4832490978B3
:1043100001703FB2002F02D030480078040094F0C2
:10432000FF00401C0500E4B2002C3FF46FAF1A48B8
:1043300000210170184800780428BFF467AFFFF728
:10434000E7FD17480068007802281CD1144800686F
:10435000808913490968C97B11EB00208046EDB2C2
:1043600005FB08F8E4B20E4800684089000200FB33
:1043700004880B4800685FEA18418181084800689A
:104380005FEA1821C17304480078401C0249087094
:10439000D0E7BDE8F081000090010020300000204F
:1043A0004C01002086010020920100209101002094
:1043B00093010020940100205401002050010020AE
:1043C0006C010020990100209B0100209A0100202F
:1043D00098010020960100209501002097010020FF
:1043E00000BF704700BF70477047FEE7FEE7FEE77B
:1043F000FEE7FEE7FEE7FEE780B5FFF769FA6848EB
:104400000088401C66490880654800880A2190FBA6
:10441000F1F201FB1200002852D16248006850F00E
:104420000100604908605E480088322190FBF1F28B
:1044300001FB1200002843D15A48006850F00200E6
:104440005849086056480088642190FBF1F201FB4E
:104450001200002834D15348006850F0040051493C
:1044600008604F480088C82190FBF1F201FB120060
:10447000002805D14B48006850F008004949086001
:10448000474800884FF4967190FBF1F201FB12004F
:10449000002805D14348006850F0200041490860D9
:1044A0003F4800884FF4FA7190FBF1F201FB1200D3
:1044B000002805D13B48006850F0100039490860D9
:1044C000FCF772FC01BD80B501213748FEF78BFB7C
:1044D000002803D001213448FEF7DFFB01BD80B581
:1044E000FCF789FC01213148FEF7D7FB01BD80B5FF
:1044F0000120FEF7E6F901BD80B52A48006850F4B6
:104500000070284908602A480078401C2849087033
:104510002748007808282FD1254800210170254818
:104520000088401C234908801E48006850F0400065
:104530001C4908601B48807904280FD1194800895C
:10454000002806D11748006850F4806015490860BB
:1045500004E014480089401E12490881164800787A
:10456000401C15490870144800783C2804D11248B2
:1045700000210170FCF772FAFCF722FDFDF73EF80E
:104580000120FEF711FA4FF48040FDF7CFFC5FF4F5
:104590008010FEF796F90020FEF706FA01BD000034
:1045A00084010020000000200010004000140040A2
:1045B0009C010020880100209D01002080B5474813
:1045C000006850F4807045490860454800684549D6
:1045D00008404349086041480068434908403F4952
:1045E00008603E48006830F480203C4908603C4840
:1045F000006830F47D003A4908603C4800210160C1
:1046000000F001F801BD80B500F001F801BD82B0F5
:1046100000200190002000903048006850F0010018
:104620002E4908602D48006810F0020000900198A3
:10463000401C01900098002803D10198B0F5A06FAC
:10464000F0D126480068800702D50120009001E0E3
:1046500000200090009801283DD12548006850F0C6
:104660000400234908602248006850F002002049F5
:1046700008601F48006850F001001D4908601D488F
:10468000006850F080501B4908601B484FF40061DF
:1046900001601A480068C006FBD411481049096837
:1046A00001600F480E49096801600D480C4909680E
:1046B00001600B48006880088000094908600848CC
:1046C000006850F00100064908600548006810F0D5
:1046D0000C000428F9D102B07047000000380240F5
:1046E000083802400CC0FF88FEFFFEEE0C38024086
:1046F000003C02402438024000700040047000403A
:10470000433A5C30304669726D77617265576F72FB
:104710006B696E6741436861755C576F726B696E58
:10472000675C475453565F52616E6765486F6F64AC
:104730005C4C69627261726965735C53544D3332CB
:104740004C3178785F5374645065726970685F4467
:1047500072697665725C7372635C73746D33326C0C
:104760003178785F657874692E630000433A5C3075
:10477000304669726D77617265576F726B696E67EB
:1047800041436861755C576F726B696E675C475433
:1047900053565F52616E6765486F6F645C4C696227
:1047A0007261726965735C53544D33324C31787861
:1047B0005F5374645065726970685F4472697665AE
:1047C000725C7372635C73746D33326C3178785FD2
:1047D0006770696F2E630000433A5C30304669723F
:1047E0006D77617265576F726B696E67414368617F
:1047F000755C576F726B696E675C475453565F52B6
:10480000616E6765486F6F645C4C69627261726962
:1048100065735C53544D33324C3178785F53746414
:104820005065726970685F4472697665725C737214
:10483000635C73746D33326C3178785F7077722E8D
:1048400063000000433A5C30304669726D776172F4
:1048500065576F726B696E6741436861755C576F2E
:10486000726B696E675C475453565F52616E676541
:10487000486F6F645C4C69627261726965735C5306
:10488000544D33324C3178785F537464506572699B
:1048900070685F4472697665725C7372635C73748E
:1048A0006D33326C3178785F7263632E6300000081
:1048B000433A5C30304669726D77617265576F724A
:1048C0006B696E6741436861755C576F726B696EA7
:1048D000675C475453565F52616E6765486F6F64FB
:1048E0005C4C69627261726965735C53544D33321A
:1048F0004C3178785F5374645065726970685F44B6
:1049000072697665725C7372635C73746D33326C5A
:104910003178785F7274632E63000000433A5C3034
:10492000304669726D77617265576F726B696E6739
:1049300041436861755C576F726B696E675C475481
:1049400053565F52616E6765486F6F645C4C696275
:104950007261726965735C53544D33324C317878AF
:104960005F5374645065726970685F4472697665FC
:10497000725C7372635C73746D33326C3178785F20
:104980007370692E63000000433A5C3030466972F0
:104990006D77617265576F726B696E6741436861CD
:1049A000755C576F726B696E675C475453565F5204
:1049B000616E6765486F6F645C4C696272617269B1
:1049C00065735C53544D33324C3178785F53746463
:1049D0005065726970685F4472697665725C737263
:1049E000635C73746D33326C3178785F74696D2EEB
:1049F00063000000433A5C30304669726D77617243
:104A000065576F726B696E6741436861755C576F7C
:104A1000726B696E675C475453565F52616E67658F
:104A2000486F6F645C4C69627261726965735C5354
:104A3000544D33324C3178785F53746450657269E9
:104A400070685F4472697665725C7372635C6D69ED
:104A500073632E630000000010B5074979441831D4
:104A6000064C7C44163404E0081D0A685118884737
:104A70000146A142F8D110BD2C0000004C000000FE
:104A800050F8041B61B150F8042BD30744BFA9F1BF
:104A900001039A18002342F8043B091FFAD1EFE7FB
:104AA00070470206DDFFFFFF7001000030000020AC
:104AB0000000000043C1FFFF300000007001000053
:104AC000000000200000000000F009F8002801D0DC
:104AD000FFF7C2FF0020FBF73CFB00F002F80120CB
:104AE000704700F001B806060746384600F002F8A5
:104AF000FBE7000001491820ABBEFBE726000200DF
:104B00000148804701480047BD450008414B000867
:104B1000AF066D4FC6CBEB0EEFCF0000F560B6F2DF
:104B200063D3D770F7F300005F066B2F363D7D0728
:104B30007F3F00000A0905040C0B02030E00000071
:104B4000C046C046C046C046FFF7BEFF0400400056
:104B500040004000FFF748BCFFF747BCFFF746BCEA
:104B6000FFF745BCFFF744BCFFF743BCFFF742BC6F
:104B7000FFF741BCFFF740BCFFF7FEBFFFF7FEBFEA
:104B8000FFF7FEBFFFF7B8BCFFF7FEBFFFF7FEBFA2
:104B9000FFF7ADBCFFF7FEBFFFF7FEBFFFF7FEBF9D
:104BA000FFF7FEBFFFF7FEBFFFF7FEBFFFF7FEBF39
:104BB000FFF7FEBFFFF7FEBFFFF7FEBFFFF7FEBF29
:104BC000FFF7FEBFFFF7FEBFFFF7FEBFFFF7FEBF19
:104BD000FFF7FEBFFFF7FEBFFFF7FEBFFFF7FEBF09
:104BE000FFF7FEBFFFF7FEBFFFF7FEBFFFF7FEBFF9
:104BF000FFF7FEBFFFF7FEBFFFF7FEBFFFF7FEBFE9
:104C0000FFF7FEBFFFF7FEBFFFF7FEBFFFF7FEBFD8
:104C1000FFF7FEBFFFF7FEBFFFF7FEBFFFF7FEBFC8
:104C2000FFF7FEBFFFF74FBCFFF759BC00000000C5
:104C30000000000000000101000000000000000072
:104C4000010203040102030406070809030406081D
:0C4C50000C101820300000000024F400BC
:0400000508004B4163
:00000001FF
