:020000040800F2
:10000000A005002001440008393D00083B3D0008E0
:100010003D3D00083F3D0008413D00080000000054
:10002000000000000000000000000000433D000848
:10003000453D000800000000473D0008493D00081C
:10004000794400087D44000881440008493E0008C6
:10005000894400088D4400083F3E0008954400088C
:10006000994400089D440008A1440008A5440008E4
:10007000A9440008AD440008B1440008B544000894
:10008000B9440008BD440008C1440008C544000844
:10009000C9440008CD440008D1440008D5440008F4
:1000A000D9440008DD440008E1440008E5440008A4
:1000B000E9440008ED440008F1440008F544000854
:1000C000F9440008FD440008014500080545000802
:1000D000094500080D4500081145000815450008B0
:1000E000194500081D45000821450008173E000875
:1000F0002F3E000880B5DFF8E007006850F00200EE
:10010000DFF8D4170860DFF8D4070068DFF8D017ED
:100110000843DFF8C8170860DFF8C807006850F028
:100120000040DFF8C0170860DFF8BC070068400037
:100130004008DFF8B4170860DFF8B007DFF8AC1745
:1001400009880180DFF8A807DFF8A41709680160B3
:10015000DFF89807DFF8941709880180DFF8900727
:10016000DFF88C1709680160DFF88007DFF87C177B
:1001700009880180DFF87807DFF8741709680160E3
:1001800000F001F801BD80B5DFF85C070068DFF81A
:1001900064170840DFF850170860012080F31088CA
:1001A000DFF8540700884EF6FE710840DFF8481764
:1001B0000880DFF848070068DFF84417084040F07F
:1001C000807050F00100DFF834170860DFF828076E
:1001D00000884DF6FD710840DFF81C170880DFF835
:1001E0001C070068DFF81C17084040F0806050F0E2
:1001F0000400DFF808170860DFF8FC0600884BF6FB
:10020000FF710840DFF8F0160880DFF8F00600689C
:1002100030F0405050F08050DFF8E0160860DFF812
:10022000D80600884004400CDFF8CC160880DFF8C0
:10023000CC0600688000800850F08040DFF8BC16D3
:100240000860002080F31088642000F069FBDFF86C
:1002500098060068DFF89C160840DFF88C160860E6
:1002600001BD10B500200400DFF89C0600210180CC
:10027000DFF8940600214180DFF88C0600218180A0
:10028000DFF884060021C180DFF87C0600210181AF
:10029000DFF8740600214181DFF86C0600218181BE
:1002A000DFF864060021C181DFF85C0600210182CD
:1002B000DFF8540600214182DFF84C06002141613D
:1002C000DFF824060068DFF82C160840DFF818165F
:1002D0000860012080F31088DFF81C0600884EF6C5
:1002E000FE710840DFF810160880DFF8100600687D
:1002F000DFF80C16084040F0807050F00100DFF885
:10030000FC150860DFF8F00500884DF6FD71084027
:10031000DFF8E4150880DFF8E4050068DFF8E4158D
:10032000084040F0806050F00400DFF8D01508600D
:10033000002080F31088322000F0F2FA012080F3D0
:100340001088DFF8B8050068DFF8B8150840DFF856
:10035000AC150860002080F31088DFF88C05006879
:1003600040F4802050F48070DFF87C150860012094
:1003700080F31088DFF88005008840F4005050F0CA
:100380000200DFF874150880DFF870050068DFF8F8
:100390007415084040F0806050F00400DFF85C15F0
:1003A0000860002080F3108800F0C2FADFF85805DA
:1003B0004069C0F38010C00710D4DFF850050088F2
:1003C00080B2C0040AD5DFF840058481DFF8380523
:1003D000406950F04000DFF830154861DFF828052B
:1003E0004069C0F38000C00710D4DFF82005008802
:1003F00080B2C0070AD5DFF810058480DFF8080551
:10040000406950F00400DFF800154861DFF8F80497
:100410004069C0F34010C00710D4DFF8F004008832
:1004200080B2C0060AD5DFF8E0044481DFF8D804C2
:10043000406950F02000DFF8D0144861641C0120AE
:1004400080F31088DFF8B4040068DFF8B8140840BF
:10045000DFF8A8140860002080F31088DFF8880413
:10046000006840F4002050F40070DFF87C1408604D
:1004700000F060FA012080F31088DFF88004006843
:10048000DFF87C140840DFF874140860002080F363
:100490001088DFF854040068DFF858140840DFF8CB
:1004A000481408604EF20960A4B2844201D300BF30
:1004B0000CE0DFF854044069DFF84C14098B084065
:1004C000DFF84414098B88427FF447AF10BD10B5A4
:1004D00000200400DFF8380400210180DFF8300438
:1004E00000214180DFF8280400218180DFF820040A
:1004F0000021C180DFF8180400210181DFF8100419
:1005000000214181DFF8080400218181DFF8000427
:100510000021C181DFF8F80300210182DFF8F00338
:1005200000214182DFF8E80300214161DFF8B803D0
:100530000068DFF8E0130840DFF8AC130860012022
:1005400080F31088DFF8B00300884EF6FE71084093
:10055000DFF8A4130880DFF8A4030068DFF8A01315
:10056000084040F0807050F00100DFF89013086000
:10057000DFF8840300884BF6FF710840DFF878133A
:100580000880DFF87803006830F0405050F0805069
:10059000DFF868130860002080F31088322000F034
:1005A000BFF9012080F31088DFF85003006830F0B5
:1005B0004050DFF848130860002080F310880120C5
:1005C00080F31088DFF834030068DFF83413084044
:1005D000DFF828130860002080F31088C248006804
:1005E00040F4802050F48070BF490860012080F3FF
:1005F0001088C148008850F48040BF490880BF4837
:10060000006830F0405050F08050BC490860002035
:1006100080F3108800F08CF9BD484069C0F3801069
:10062000C0070CD4B948008880B2C00407D5B848C8
:100630008481B748406950F04000B5494861B448EA
:100640004069C0F38000C0070CD4B048008880B275
:10065000C00707D5AE488480AD48406950F004001B
:10066000AB494861AA484069C0F34010C0070CD4A8
:10067000A648008880B2C00607D5A5484481A44892
:10068000406950F02000A2494861012080F31088A1
:100690009A48006830F0405098490860002080F384
:1006A0001088641C9048006850F480108E490860DF
:1006B00000F040F9012080F31088904800689049CC
:1006C00008408E490860002080F310888648006842
:1006D00090490840844908604EF20960844201D381
:1006E00000BF09E08A4840698949098B0840884968
:1006F000098B88427FF472AF10BD10B50020040052
:1007000085480021018084480021418082480021E1
:10071000818081480021C1807F48002101817E487D
:10072000002141817C48002181817B480021C181D9
:1007300079480021018278480021418276480021D1
:1007400041616948006875490840674908600120AF
:1007500080F31088684800884EF6FE7108406649AC
:100760000880664800686649084040F0807050F094
:10077000010062490860604800884004400C5E49FE
:1007800008805E4800688000800850F080405B4927
:100790000860002080F31088322000F0C1F80120AA
:1007A00080F310885548006880008008534908602D
:1007B000002080F310884C48006840F4802050F4FA
:1007C000807049490860012080F310884A480088F9
:1007D00050F400404849088048480068800080087C
:1007E00050F0804045490860002080F3108800F0F8
:1007F0009FF849484069C0F38010C0070CD44348B3
:10080000008880B2C00407D54348848142484069CB
:1008100050F04000404948613F484069C0F38000C3
:10082000C0070CD43948008880B2C00707D53A48C1
:1008300084803948406950F004003749486136489F
:100840004069C0F34010C0070CD43048008880B223
:10085000C00607D5304844812F48406950F0200039
:100860002D494861012080F31088244800688000E9
:10087000800822490860002080F31088641C1A4810
:10088000006850F400101849086000F053F8012087
:1008900080F3108819480068194908401749086012
:1008A000002080F31088104800681C4908400E4959
:1008B00008604EF20960844201D300BF09E0164887
:1008C00040691549098B08401349098B88427FF418
:1008D00072AF10BD000000001C380240107C0040C8
:1008E000000003F024380240087C00400404024069
:1008F0000C040240FFFCF3FF140402400004024019
:10090000FCFFFFFCF3FFFFF3800000201004024017
:100910009C000020FFFEEBFFB8000020FFFEDBFF85
:100920000100010089B2012901D3491EFAE770478D
:1009300000BF704700BF704740B2002809D540B2E1
:1009400010F00F02DFF89C36D2180B0102F8043CBD
:1009500004E040B2DFF890260B018354704710B5D5
:100960000400B4F1807F01D3012013E02002000ACB
:10097000401EDFF8781608600F215FF0FF30FFF7A8
:10098000DBFFDFF86C0600210160DFF86806072155
:100990000160002010BD00F09AFA00F079FA00F032
:1009A000DDFB00F0E6F900F04DFC00F054FD01F035
:1009B00009F8DFF844060121417101F0F0F800F078
:1009C00026F8DFF834060068C0F38000C0070CD5B5
:1009D000DFF82406006830F00400DFF81C16086019
:1009E000DFF81816002001F052FADFF80C06006854
:1009F000C0F30010C00707D5DFF8FC05006830F031
:100A00001000DFF8F415086000F0E9FDD5E780B5C7
:100A100000F056FC00F041F8012000F00AFD00282B
:100A200007D0DFF8D405006890F48060DFF8C815BF
:100A30000860DFF8C4050068C0F38020C00707D550
:100A4000012000F043FEDFF8B8050121017006E047
:100A5000012000F0C2FEDFF8AC0501210170DFF8D3
:100A60009805407901280FD1DFF88C050068C0F3A4
:100A70008020C00708D4DFF8900500210170DFF85E
:100A80008C050021017007E0DFF87C050121017071
:100A9000DFF878050121017001BD80B5DFF8580548
:100AA0004079002808D0022869D00AD3042800F031
:100AB000E680C0F0E380E3E0DFF83C05012141710E
:100AC000DEE00B21002000F0F9FC0B21012000F0FA
:100AD000F5FC0B21022000F0F1FC0B21032000F0BB
:100AE000EDFC0B21082000F0E9FC032000F0F8FEEB
:100AF000022000F072FE002000F06FFEDFF8FC0420
:100B0000007800F054FDDFF8F404407800F05FFD59
:100B100000F04FFF002803D0032000F0D7FD02E0D3
:100B2000032000F05AFE022000F07AFC00280AD0D0
:100B3000DFF8C4040221417100F0BBF9DFF8B8040A
:100B4000407A00F09EF8032000F07CFC002803D0DF
:100B5000DFF8A40404214171002000F073FC002898
:100B60000CD000F0ADF9DFF890040221417100F0E3
:100B7000A0F9DFF88404407A00F083F880E00020D8
:100B800000F02BFE00F015FF002806D0022000F038
:100B90009DFD032000F09AFD05E0022000F01DFEFF
:100BA000032000F01AFEDFF85004C07A00F0F7FCD2
:100BB000DFF84404007B00F002FDDFF84004007819
:100BC00000F0F5FCDFF83404407800F000FDDFF8B9
:100BD0002804807A032805D300F0F1FEC0B200F0AB
:100BE0007FFE04E000F0E8FEC0B200F079FEDFF81E
:100BF0000804817A082000F061FC002000F010FC5D
:100C0000002810D0DFF8F003407A042806D2DFF87D
:100C1000E803407A401CDFF8E0134872DFF8D8039D
:100C2000407A00F02EF8032000F0FAFB002810D0E4
:100C3000DFF8C403407A022806D3DFF8BC03407A09
:100C4000401EDFF8B4134872DFF8AC03407A00F0BE
:100C500018F8022000F0EDFB00280BD0022000F075
:100C6000F1FB002806D1DFF890030121417100203B
:100C700000F007F8022000F0E5FB01E000E0FFE7EC
:100C800001BD10B50400E4B2012C06D059D3032CE9
:100C90002DD017D3042C3FD053E0DFF85C030121A3
:100CA0008172DFF86C0301210170DFF86803002115
:100CB0000170DFF8640300210170DFF86003002198
:100CC000017055E0DFF8300302218172DFF8400344
:100CD00000210170DFF83C0301210170DFF83803C7
:100CE00000210170DFF834030021017040E0DFF8DB
:100CF000080303218172DFF8180300210170DFF877
:100D0000140300210170DFF8100301210170DFF8E6
:100D10000C03002101702BE0DFF8DC02042181725A
:100D2000DFF8EC0200210170DFF8E8020021017019
:100D3000DFF8E40200210170DFF8E0020121017018
:100D400016E0DFF8B40200218172DFF8C40200214E
:100D50000170DFF8C00200210170DFF8BC02002141
:100D60000170DFF8B80200210170052000F0B8FD25
:100D700010BD80B50121012001F0EBFADFF8A002DF
:100D80004FF480510160DFF8980201210171DFF812
:100D9000900200218171DFF888020021C171DFF823
:100DA000800201214171DFF87812DFF8780201F04A
:100DB00027FC0121012001F0CCFA99484FF4006191
:100DC0000160974801210171954801218171944882
:100DD0000121C1719248012141719149914801F06D
:100DE0000FFC0121042001F0B4FA8D484FF480512A
:100DF00001608B4801210171894801218171884876
:100E00000121C1718648012141718549864801F05F
:100E1000F7FB4FF48051844801F0AAFC0121062021
:100E200001F097FA7E484FF4947101607C480121EB
:100E300001717B480021817179480121C171784895
:100E4000012141717649794801F0DAFB74484FF489
:100E5000806101607249744801F0D2FB01210120D8
:100E600001F077FA6E48022101606D48012101719D
:100E70006B48002181716A480121C17168480121D4
:100E800041716749674801F0BBFB00F0FFFD01BD00
:100E900080B5674800684FF47A71B0FBF1F0FFF756
:100EA0005EFD002804D10E215FF0FF30FFF744FD06
:100EB00001BD5148006850F400504F490860704728
:100EC0004D48002101734C480021C172704780B524
:100ED00001F04FF957490870574801F050F92120A7
:100EE00001F014FBC0B25349496960F30001514855
:100EF0004161292001F00AFBC0B24E49496960F303
:100F000041014C484161312001F000FBC0B2494928
:100F1000496960F3820147484161392001F0F6FADE
:100F2000C0B24449496960F3C30142484161492064
:100F300001F0ECFAC0B23F49496960F304113D4841
:100F40004161412001F0E2FAC0B23A49496960F3D7
:100F5000451138484161592001F0D8FAC0B23549ED
:100F6000496960F38611334841615A2001F0CEFA95
:100F7000C0B23049496960F3C7112E4841615B2016
:100F800001F0C4FAC0B22B49496960F3082129482D
:100F900041615C2001F0BAFAC0B22649496960F3A8
:100FA0004921244841615D2001F0B0FAC0B22149D5
:100FB000496960F38A211F4841615E2001F0A6FA69
:100FC000C0B21C49496960F3CB211A4841615F20D6
:100FD00001F09CFAC0B21749496960F30C31154819
:100FE000416101BD18ED00E000E400E014E000E024
:100FF00018E000E010E000E00000002040010020C8
:101000000403404244034042AC024042B002414229
:10101000A0824042948240428C824042A8024142D7
:101020003801002000000240000802400004024095
:101030002C000020D4000020D8000020FEE710B4CF
:1010400050F8041B81B102681218001D50F8043BCF
:10105000DC0744BFA9F10104E31852F8044B43F83C
:10106000044B091FF9D1EBE710BC704740B20028D0
:1010700008D540B210F00F024C4BD2180B0102F809
:10108000043C03E040B24A4A0B0183547047E0B588
:1010900001215FF0805001F0B8F90121012001F039
:1010A00086F9012001F04CF8492001F02FFA0028C0
:1010B000FAD05FF4803001F0F8F8012001F036F941
:1010C00000F0B0FE3B487F2141603A48FF2181603B
:1010D000384800210160374800F014FE002000F07D
:1010E0004FFF5FF4801001F0B6FC5FF480100190B8
:1010F00000208DF8080008208DF8090001208DF8E7
:101100000A0001A801F034FC03208DF80000002043
:101110008DF8010000208DF8020001208DF80300F9
:1011200000A801F0B5FC0E210320FFF79FFF00206F
:1011300000F0E0FEFF2000F005FF4FF4804000F0DB
:10114000B9FF5FF4801001F086FC01214FF480406C
:1011500000F06EFF012000F013FF07BD80B50121F4
:101160005FF0805001F051F9012001F0E7FCFFF73A
:101170008EFF1148052141600F48012101720E4880
:101180000D2141720C48032101600C480021C170FF
:101190000A480221017009481921417007480021BD
:1011A0008170002001F0CAFC01BD000018ED00E0D4
:1011B00000E400E0200100202C010020400100207C
:1011C00001003A480088002806D139480180374894
:1011D00001220280002001E05FF0FF30704780B5FF
:1011E000C820FFF7EDFF02BD80B530480088002819
:1011F00020D02E480088012809D12C480088401CA6
:101200002A49088001212B4801F01FFD12E02748E0
:10121000008827490988884205D224480088401C54
:101220002249088006E02148002101800021214850
:1012300001F00BFD01BD2048007890F001001E492F
:1012400008707047E0B50121202001F0DEF81B484E
:1012500000684FF47A61B0FBF1F0401EADF8080071
:101260000020ADF804000020ADF80A000020ADF821
:10127000060001A90F4801F075FC01210D4801F09D
:10128000D6FD012201210B4801F02AFD2C208DF80A
:1012900000000E208DF8010001208DF802000120D1
:1012A0008DF8030000A801F0F3FB07BD80010020CA
:1012B0008201002000140040B00240422C000020B7
:1012C00010B57C480069400840007A490861002058
:1012D0000400042C6FDA774810F8240010F00100A5
:1012E000C0B2002811D0734850F8240040084000D4
:1012F000704941F824006F4850F8240050F0040071
:101300006C4941F82400FFF76AFF6A4850F824004E
:10131000C0F34000C0070FD5664850F8240030F0F5
:101320000200644941F82400624850F8240030F07B
:101330000400604941F8240014205F4900FB0410B8
:101340004068C0F38000C0070ED55A4850F824000A
:10135000C0F38000C00707D4564850F8240050F06E
:101360000100544941F824001420534900FB0410A3
:101370004068C0F38000C0070ED44E4850F82400E7
:10138000C0F38000C00707D54A4850F8240050F049
:101390000200484941F824004648006941084900D4
:1013A000444A52F82420104310F0010008434149F8
:1013B0000861641C8DE710BD0021080004282EDAA6
:1013C0003C4951F82010C1F38001C90718D53949AB
:1013D00011EB80014978092908D3364951F82010CA
:1013E00051F00801334A42F8201016E0314911EB60
:1013F00080014978491C2F4A12EB800251700CE0A1
:101400002C4911EB800100224A702A4951F8201022
:1014100031F00801274A42F82010401CCEE77047FF
:10142000C0B2244951F82000C0F3400010F0010080
:101430007047C0B21F4951F82000C0F3400010F0BF
:1014400001007047C0B21B4951F82000C0F3C00032
:1014500010F00100704710B500F06EFB0020040092
:10146000E4B2042C24D2E4B21420134900FB04108B
:10147000406850F00100E4B214210F4A01FB04213E
:101480004860E4B214200C4900FB0410406850F09E
:101490000200E4B21421084A01FB04214860E4B2CE
:1014A0001420054900FB041001214172641CD7E798
:1014B00010BD0000EC0000203000002030B4C9B2A4
:1014C0000A2901D20A0001E00A231A00C0B203006F
:1014D000002B032B08D91B1F012B1BD99B1E012B93
:1014E0002ED99B1E16D040E0D2B2DFF81436D35C62
:1014F000C0B2DFF81046045DDFF80C56645D14F0EE
:1015000010042343C0B2DFF8FC45045DDFF8F85552
:1015100063552AE0C0B2DFF8EC35C35CDFF8E8457C
:101520001B5D13F08003D2B2DFF8E045145D234366
:10153000C0B2DFF8D045045DDFF8CC55635514E048
:10154000D2B2DFF8CC35D35CC0B2DFF8B845045D69
:10155000DFF8B455645D14F008042343C0B2DFF82B
:10156000A445045DDFF8A055635530BC704738B51D
:1015700004000D00EDB20A2095FBF0F1C9B2200085
:10158000C0B2FFF79BFFEDB20A2095FBF0F100FB24
:101590001151C9B2601CC0B2FFF790FF31BD10B548
:1015A00004002100C9B20020FFF7E1FF10BD10B513
:1015B00004002100C9B20420FFF7D9FF10BD10B507
:1015C00004002100C9B20220FFF7D1FF10BD10B501
:1015D00004002100C9B20620FFF7C9FF10BD10B5F5
:1015E000DFF8300500210170DFF82C054021018073
:1015F0008021DFF8280501F05EFD0028F8D1DFF832
:10160000140501210170DFF80C0500210170DFF8DD
:101610000805C22101808021DFF8000501F04BFDA3
:101620000028F8D102200400E4B20F2C0FD2E4B25B
:10163000DFF8D404205CDFF8E01408808021DFF8B4
:10164000DC0401F038FD0028F8D1641CECE7DFF879
:10165000C4040121017010BD10B5DFF8B8040021E9
:101660000170DFF8B404402101808021DFF8AC0470
:1016700001F021FD0028F8D1DFF898040121017064
:10168000DFF8900400210170DFF88C04C021018094
:101690008021DFF8880401F00EFD0028F8D1002039
:1016A0000400E4B2102C0CD2DFF86C04002101809D
:1016B0008021DFF8680401F0FEFC0028F8D1641CEA
:1016C000EFE7DFF850040121017010BDC0B200281F
:1016D0000BD002281BD035D304280FD029D30628DD
:1016E00039D01DD307283FD076E0DFF81C14897A63
:1016F00051F01001DFF8102491726DE0DFF808144A
:10170000497A51F01001DFF80024517264E0DFF8EB
:10171000F813497951F01001DFF8EC2351715BE0C7
:10172000DFF8E413097951F01001DFF8DC231171BF
:1017300052E0DFF8D413897851F00801DFF8C823AC
:10174000917049E0DFF8C013097B51F08001DFF8A8
:10175000B823117340E0DFF8B013897B51F08001AA
:10176000DFF8A423917337E0DFF89C13897A51F0F6
:101770001001DFF894239172DFF88C13497A51F04D
:101780001001DFF884235172DFF87C13497951F09E
:101790001001DFF874235171DFF86C13097951F0EF
:1017A0001001DFF864231171DFF85C13897851F0C0
:1017B0000801DFF854239170DFF84C13097B51F0D6
:1017C0008001DFF844231173DFF83C13897B51F06B
:1017D0008001DFF8342391737047C0B200280BD02A
:1017E00002281BD035D304280FD029D3062839D09E
:1017F0001DD307283FD072E0DFF80C13897A11F06F
:10180000EF01DFF80423917269E0DFF8FC12497AF6
:1018100011F0EF01DFF8F022517260E0DFF8E8121A
:10182000497911F0EF01DFF8E022517157E0DFF85C
:10183000D812097911F0EF01DFF8CC2211714EE0D6
:10184000DFF8C412897811F0F701DFF8BC2291703B
:1018500045E0DFF8B412097B11F07F01DFF8A82220
:1018600011733CE0DFF8A012897B11F07F01DFF8F3
:101870009822917333E0DFF89012897A11F0EF012A
:10188000DFF884229172DFF88012497A11F0EF01BB
:10189000DFF874225172DFF87012497911F0EF010C
:1018A000DFF864225171DFF86012097911F0EF015D
:1018B000DFF854221171DFF85012897811F0F70126
:1018C000DFF8442291709049097B11F07F018E4A24
:1018D00011738D49897B11F07F018B4A9173704799
:1018E00010B50400E4B2002C03D0022C15D00AD3AA
:1018F0001DE00420FFF7EAFE0520FFF76EFF06203B
:10190000FFF76BFF1CE00420FFF767FF0520FFF7E0
:10191000DDFE0620FFF761FF12E00420FFF75DFF08
:101920000520FFF75AFF0620FFF7D0FE08E004204D
:10193000FFF753FF0520FFF750FF0620FFF74DFF8D
:1019400010BD77480078401C75490870C0B208285F
:1019500002D173480021017071480078042803D235
:1019600070480121017002E06E48002101706E484C
:101970000078401C6C490870C0B2032802D16A4844
:101980000021017069480078401C68490870C0B2A5
:1019900003280DD165480021017065480078401C7E
:1019A00063490870C0B2032802D161480021017068
:1019B00070475C48007870475D48007870475A4827
:1019C0000078704700B585B001214FF4805000F0D9
:1019D000EEFC524801F072FA4FF44040ADF80000BE
:1019E0000020ADF804000220ADF806000120ADF89B
:1019F00008004FF40070ADF80A001820ADF80C0094
:101A00008020ADF80E000720ADF810004FF4827072
:101A1000ADF8020000A9414801F07DFA01213F48DC
:101A200001F020FB80213D4801F045FB0028F9D161
:101A30003848002101703848002101808021374852
:101A400001F039FB0028F9D13248012101703148F9
:101A5000012101702F48012101702E4800210170E1
:101A60002D489721018080212C4801F024FB00287B
:101A7000F9D128480121017026480121017025482B
:101A800001210170FFF7E8FD05B000BD00B583B08E
:101A90000121012000F05DFC1020009001208DF854
:101AA000040000208DF8060000208DF807000120BA
:101AB0008DF8050000A91F4800F0A2FD10211D4867
:101AC00000F056FE00208DF8060002208DF8070079
:101AD000A020009002208DF8040001208DF8050060
:101AE00000A9144800F08CFD05220521114800F0E2
:101AF0006BFE052207210F4800F066FE07BD0000BF
:101B00001044000834440008000100202844000864
:101B10001C440008900240420C300140003001405B
:101B20008D0100208A0100208C0100208E01002000
:101B30008B0100200000024080B5012080F3108856
:101B40005D48002101705D48002101705C4814214E
:101B500001705C48142101705B480A2101705B48E8
:101B6000002101705A48142101705A480A2101705D
:101B70005948534909780170584800210170584864
:101B800000210170FEF7B6FA01F0F6FA01F0DEFC72
:101B9000002080F3108853480121017001BD80B5F9
:101BA0005048007801280ED0022824D0032828D0DD
:101BB000042839D005283DD006284ED0072852D019
:101BC0000B2863D076E0012080F310884648006837
:101BD0004649096860F300014448016042480068D2
:101BE0004008400040490860002080F310883D48CC
:101BF000022101705FE001F095FB3A48032101707A
:101C000059E03B480021017039480078022807D28A
:101C100001F0BEFC36480078401C35490870F3E7F7
:101C200030480421017046E001F0D8FB2D48052121
:101C3000017040E02E48022101702D4800780328F1
:101C400007D201F0A5FC2A480078401C28490870FA
:101C5000F3E72448062101702DE001F01DFC214826
:101C60000721017027E022480321017020480078F5
:101C7000042807D201F08CFC1D480078401C1C4948
:101C80000870F3E717480B21017014E001F05BFFC7
:101C90001848194909880180174800210180174810
:101CA0001749097801701648002101700D4801217B
:101CB000017000E0FEE701BD9201002093010020C9
:101CC0009501002096010020940100209101002040
:101CD0009701002098010020990100209A0100201E
:101CE0009B0100208F01002078010020540100207A
:101CF00090010020440100205801002048010020EC
:101D00005C01002038B5040000252068402808D078
:101D10002068002805D04FF4B771DFF8FC02FFF708
:101D20008DF96068802805D340F26F11DFF8E80272
:101D3000FFF784F9A068B0F5005F05D34FF4B871E0
:101D4000DFF8D402FFF77AF9DFF8D002CA21016088
:101D5000DFF8C8025321016000F02DF8002802D1FD
:101D60000020050020E0DFF80C02006830F04000A1
:101D7000DFF800120860DFF8FC0100682168084302
:101D8000DFF8F0110860A068DFF8F0110860DFF8F4
:101D9000EC010068616850EA0140DFF8E01108607A
:101DA00000F037F801200500DFF87002FF21016024
:101DB0002800C0B232BD81B0002000900020002178
:101DC000DFF85C22126852061ED4DFF854225FF05E
:101DD000FF331360DFF84822126812F0400211004E
:101DE000009A521C0092009AB2F5005F01D00029BF
:101DF000F0D0DFF82C221268520602D50122100022
:101E000004E00022100001E001221000C0B201B085
:101E10007047DFF81002006830F08000DFF804122D
:101E20000860704781B00020009000200021DFF89A
:101E3000EC21CA231360DFF8E42153231360DFF899
:101E4000E021126832F0A002DFF8D4311A60DFF826
:101E5000D021126812F020021100009A521C009248
:101E6000009AB2F5805F01D00029F0D0DFF8B021F0
:101E70001268920602D50122100001E00022100033
:101E8000DFF89821FF231360C0B201B0704770B52E
:101E900004000D000026002C07D0012C05D040F2D4
:101EA000F521DFF87401FFF7C9F8DFF8C400006816
:101EB000DFF8781108400600300C10F03F00287061
:101EC000300A10F07F00687016F07F00A870300CA8
:101ED00010F04000E870002C0BD1287800F014F9C5
:101EE0002870687800F010F96870A87800F00CF994
:101EF000A87070BD10B50400002C0ED0012C0CD0C1
:101F0000022C0AD0032C08D0042C06D0062C04D0B6
:101F10004FF49A614048FFF791F84348CA210160A5
:101F200041485321016013480068C008C0001149AE
:101F300008601048006820430E4908603A48FF21B5
:101F4000016010BD10B50400B4F5803F04D340F229
:101F5000EB413148FFF772F83348CA21016032483B
:101F600053210160044804602F48FF21016010BD27
:101F70000028004008280040142800401028004095
:101F800070B582B004000020009000250026E4B265
:101F9000002C07D0E4B2012C04D04FF4A2611E48FB
:101FA000FFF74CF82048CA2101601F485321016007
:101FB000E4B2002C0AD0DFF83801006850F48060E9
:101FC000DFF82C110860012006001EE0DFF8200178
:101FD000006830F48060DFF818110860104800686D
:101FE00010F0040005000098401C00900098B0F527
:101FF000005F01D0002DF1D009480068400702D4ED
:102000000020060001E0012006000748FF210160D2
:102010003000C0B276BD0000D44100082428004042
:102020000C2800400C280040242800407F7F7F00BF
:1020300038B504000D00002C02D03148044204D011
:1020400040F293712B48FEF7F9FFEDB2002D07D057
:10205000EDB2012D04D040F294712648FEF7EEFF58
:102060002548CA210160244853210160EDB2002DAA
:102070000ED01F48006834F0040108431C49086072
:102080001E48006814F0040108431C4908600DE074
:102090001748006834F00401884315490860174860
:1020A000006814F004018843144908601248FF21B5
:1020B000016031BD38B504000025002C03D034F494
:1020C0003C30002804D040F623010A48FEF7B6FF52
:1020D00020090500A8B250F080000A49096811F0F3
:1020E000800171EA00000749086031BD000000006E
:1020F00008280040D441000824280040402800401F
:10210000FB0FFFFF0C2800400021C0B202090A2388
:102110005A43110010F00F004018C0B2704750F839
:10212000041B61B150F8042BD30744BFA9F101038C
:102130009A18002342F8043B091FFAD1EFE77047D1
:1021400010B50400E4B2002C0BD0E4B2012C08D08E
:10215000E4B2052C05D040F2BD11DFF85404FEF7BF
:102160006DFFDFF8540400210170DFF84C040470A7
:1021700010BDDFF83804006810F00C007047F0B4B0
:10218000002100220023002400250026DFF81C7413
:102190003F6817F00C0739000F00002F06D0042FFE
:1021A00015D0082F17D00C2F19D042E0DFF8047497
:1021B0003F68C7F342373E00012716F1010C17FABA
:1021C0000CF74FF4004C0CFB07F7076041E0DFF819
:1021D000EC7307603DE0DFF8E873076039E0DFF893
:1021E000CC733F6817F470173A00DFF8C0733F688C
:1021F00017F440073B00920CDFF8C873D25D9B0DCB
:102200005B1CDFF8A8733F6817F480373C00002C94
:1022100007D1DFF8A87307FB02F7B7FBF3F70760F6
:1022200006E0DFF89C7307FB02F7B7FBF3F70760E4
:102230000FE0DFF880733F68C7F342373E000127A5
:1022400016F1010C17FA0CF74FF4004C0CFB07F7D2
:102250000760DFF858733F6817F0F0073900090985
:10226000DFF86473CF5D3D000768EF404760DFF83B
:102270003C733F6817F4E0673900090ADFF84873D8
:10228000CF5D3D004768EF408760DFF820733F680F
:1022900017F460573900C90ADFF82C73CF5D3D0091
:1022A0004768EF40C760F0BC704738B504000025B0
:1022B000B4F5803F17D0B4F5003F14D0B4F5403FDB
:1022C00011D0DFF8080384420DD0DFF80403844204
:1022D00009D0DFF80003844205D040F2E131DFF895
:1022E000D002FEF7ABFE14F44030B0F5403F0BD106
:1022F000DFF8B4020068050035F0C04514F0C040B6
:102300000543DFF8A4020560DFF8CC02006830F472
:102310004030DFF8C4120860DFF8BC02006814F433
:1023200040310843DFF8B012086031BD10B5040039
:10233000E4B2002C08D0E4B2012C05D040F20341F5
:10234000DFF86C02FEF77AFEDFF89002E4B2046078
:1023500010BD38B504000D00DFF88402044201D13D
:10236000002C05D140F22F41DFF84402FEF766FE53
:10237000EDB2002D08D0EDB2012D05D04FF48661ED
:10238000DFF82C02FEF75AFEEDB2002D07D0DFF881
:10239000540200682043DFF84C12086006E0DFF8C2
:1023A00044020068A043DFF83C12086031BD38B534
:1023B00004000D00DFF83002044201D1002C05D1E9
:1023C00040F25141DFF8E801FEF738FEEDB2002D92
:1023D00008D0EDB2012D05D040F25241DFF8D00116
:1023E000FEF72CFEEDB2002D07D0DFF800020068EA
:1023F0002043DFF8F811086006E0DFF8F00100681C
:10240000A043DFF8E811086031BD38B504000D00C5
:10241000DFF8DC01044201D1002C05D140F27C41FF
:10242000DFF88C01FEF70AFEEDB2002D08D0EDB208
:10243000012D05D040F27D41DFF87401FEF7FEFD6D
:10244000EDB2002D07D0DFF8AC0100682043DFF8C3
:10245000A411086006E0DFF89C010068A043DFF8E3
:102460009411086031BD38B504000D00DFF8780123
:10247000044201D1002C04D140F2BC414C48FEF78B
:10248000DDFDEDB2002D07D0EDB2012D04D040F2FC
:10249000BD414748FEF7D2FDEDB2002D07D0DFF871
:1024A000580100682043DFF85011086006E0DFF8AB
:1024B00048010068A043DFF84011086031BD38B51D
:1024C00004000D004A48044201D1002C04D140F21E
:1024D000E4413748FEF7B2FDEDB2002D07D0EDB272
:1024E000012D04D040F2E5413148FEF7A7FDEDB2E1
:1024F000002D05D04148006820434049086004E0B1
:102500003E480068A0433D49086031BDF8B504006D
:10251000002500260027E4B2212C28D0E4B2312C7B
:1025200025D0E4B2292C22D0E4B2392C1FD0E4B259
:10253000492C1CD0E4B2412C19D0E4B25A2C16D04C
:10254000E4B25B2C13D0E4B25C2C10D0E4B25D2C6E
:102550000DD0E4B25E2C0AD0E4B25F2C07D0E4B216
:10256000592C04D040F2B6511148FEF767FDE4B291
:102570006009C0B20500012D03D10B4800680600B8
:1025800002E0154800680600E4B214F01F000500E0
:102590000120A840064202D00120070001E00020EF
:1025A00007003800C0B2F2BD0038024008380240CF
:1025B0006841000804380240353802400024F40025
:1025C00000127A00200000201000002000000320EC
:1025D000000003400000036034380240D806474240
:1025E000C06FFFFE1C380240E2ADFFFF2038024002
:1025F000C8B5194F24380240143802401838024038
:102600002DE9F04104000D00002600275FF00008CE
:10261000DFF84003844218D0DFF83C03844214D032
:10262000DFF83803844210D0DFF8340384420CD042
:10263000DFF83003844208D0DFF82C03844204D052
:10264000C121DFF82803FEF7F9FC2868002804D12F
:10265000C221DFF81803FEF7F1FC287900280DD01D
:10266000287901280AD02879022807D02879032858
:1026700004D0C321DFF8F402FEF7E0FCE87900287B
:102680000AD0E879012807D0E879022804D0C421CB
:10269000DFF8D802FEF7D2FC00200600102E65D22B
:1026A0000120B0400700286838408046B8455BD11B
:1026B000206803213200D2B252009140884320604A
:1026C000206829793200D2B252009140084320603C
:1026D0002879012802D02879022835D16879002884
:1026E0000DD0687901280AD06879022807D0687966
:1026F000032804D0D821DFF87402FEF79FFCA068FD
:1027000003213200D2B2520091408843A060A068F9
:1027100069793200D2B2520091400843A060A87992
:10272000002807D0A879012804D0DF21DFF83C0277
:10273000FEF784FCA0880121B1408843A080A088D6
:10274000A979B1400843A080E06803213200D2B2E9
:10275000520091408843E060E068E9793200D2B2EB
:10276000520091400843E060761C97E7BDE8F08195
:1027700038B504000D00DFF8DC01844219D0DFF821
:10278000D801844215D0DFF8D401844211D0DFF89B
:10279000D00184420DD0DFF8CC01844209D0DFF8AB
:1027A000C801844205D04FF4C471DFF8C001FEF7C0
:1027B00045FCADB2002D05D140F28911DFF8AC0126
:1027C000FEF73CFC258331BD2DE9F04104000D00EE
:1027D000160000275FF000085E48844213D05E4870
:1027E000844210D05D4884420DD05D4884420AD0B6
:1027F0005C48844207D05C48844204D040F20921FE
:102800005A48FEF71BFCADB2002D31D0ADB2012D00
:102810002ED0ADB2022D2BD0ADB2032D28D0ADB24B
:10282000042D25D0ADB2052D22D0ADB2062D1FD07E
:10283000ADB2072D1CD0ADB2082D19D0ADB2092D07
:1028400016D0ADB20A2D13D0ADB20B2D10D0ADB253
:102850000C2D0DD0ADB20D2D0AD0ADB20E2D07D07E
:10286000ADB20F2D04D040F20A214048FEF7E6FB3E
:10287000F6B2002E46D0F6B2002E43D0F6B2002EAD
:1028800040D0F6B2002E3DD0F6B2002E3AD0F6B2CD
:10289000002E37D0F6B2012E34D0F6B2022E31D04F
:1028A000F6B2022E2ED0F6B2032E2BD0F6B2032EA5
:1028B00028D0F6B2032E25D0F6B2042E22D0F6B2DE
:1028C000042E1FD0F6B2052E1CD0F6B2052E19D05C
:1028D000F6B2072E16D0F6B2072E13D0F6B2072E98
:1028E00010D0F6B20A2E0DD0F6B20B2E0AD0F6B2E8
:1028F0000E2E07D0F6B20F2E04D040F20B211B484B
:10290000FEF79CFBF6B215F00700C0B2800016FA85
:1029100000F00700ADB2E81014EB8000ADB2E91092
:1029200014EB8101096A0F2215F00703DBB29B004B
:102930009A4091430162ADB2E81014EB8000006A46
:1029400038438046ADB2E81014EB8000C0F8208018
:10295000BDE8F0810000024000040240000802408F
:10296000000C024000100240001402409040000899
:1029700038B5040000252079002806D020790428E5
:1029800003D081214148FEF759FB6079082809D01E
:1029900060790C2806D06079102803D082213B484A
:1029A000FEF74CFB2068C00DC005002802D120684E
:1029B000002803D183213548FEF740FBA079002889
:1029C00006D0A079012803D084213048FEF736FBD9
:1029D00029480500A079002836D0274800682168DA
:1029E00088432549086025480068216888432349B1
:1029F0000860207945192868216808432860204824
:102A00000068216888431E4908601E4800682168E4
:102A100088431C490860607910280CD11848006868
:102A20002168084316490860164800682168084371
:102A3000144908600EE010480500607945192868BF
:102A400021680843286005E0207945192868216835
:102A50008843286031BD10B50400E00DC005002892
:102A600001D1002C04D14FF492710848FEF7E6FA28
:102A70000548046010BD000000040140040401404A
:102A8000080401400C0401401404014024400008E3
:102A9000F8B50400002500260F27E078002806D0AE
:102AA000E078012803D08C211F48FEF7C7FA607830
:102AB000102803D38D211C48FEF7C0FAA0781028F7
:102AC00003D38E211848FEF7B9FAE078002820D009
:102AD0001648006810F4E060D0F5E060000A0500D8
:102AE000D5F104000600EF406078B0400500A07802
:102AF000384005432D0120780D4945542078401178
:102B00000C490122237813F01F039A4041F820203A
:102B100009E02078401108490122237813F01F03AF
:102B20009A4041F82020F1BD184300080CED00E068
:102B300000E400E000E100E080E100E010B5040006
:102B4000E4B2002C06D0E4B2012C03D08621034865
:102B5000FEF774FA0248E4B2046010BDFC400008BD
:102B600020000E4270B504000D000026B4F1804F25
:102B700020D0DFF84C0184421CD0DFF848018442A9
:102B800018D0DFF84401844214D0DFF840018442B9
:102B900010D0DFF83C0184420CD0DFF838018442C9
:102BA00008D0DFF83801844204D0FA21DFF8280188
:102BB000FEF744FA6888002810D0688810280DD0E5
:102BC000688820280AD06888402807D0688860284C
:102BD00004D0FB21DFF80001FEF730FAE888002876
:102BE0000CD0E888B0F5807F08D0E888B0F5007F89
:102BF00004D0FC21DFF8E000FEF720FA2088060070
:102C0000B4F1804F07D0DFF8B800844203D0DFF87A
:102C1000B400844204D14FF68F70064068880643A2
:102C2000DFF8A400844208D0DFF8A000844204D07A
:102C30004FF6FF400640E88806432680A888A08516
:102C4000288820850120A08270BD38B504000D00C1
:102C5000B4F1804F1AD01A48844217D019488442E0
:102C600014D01948844211D0184884420ED0184814
:102C700084420BD01748844208D0DFF860008442B9
:102C800004D040F21A211448FEF7D8F9EDB2002D15
:102C900007D0EDB2012D04D040F21B210E48FEF703
:102CA000CDF9EDB2002D04D0208850F00100208035
:102CB00004E020884FF6FE710840208031BD0000FE
:102CC00000040040000800400010004000140040D4
:102CD00000080140000C0140AC4200080010014017
:102CE00070B504000D001600B4F1804F21D0DFF85C
:102CF000AC0184421DD0DFF8A801844219D0DFF86E
:102D0000B001844215D0DFF8AC01844211D0DFF865
:102D1000940184420DD0DFF89001844209D0DFF89D
:102D20008C01844205D040F26A71DFF88C01FEF715
:102D300085F94FF6A070054202D1ADB2002D05D144
:102D400040F26B71DFF87001FEF778F9F6B2002EF1
:102D500008D0F6B2012E05D040F26C71DFF85801B0
:102D6000FEF76CF9F6B2002E03D0A0892843A081AB
:102D700002E0A089A843A08170BD2DE9F0410400C4
:102D80000D00002600275FF00008B4F1804F1FD02F
:102D9000424884421CD04248844219D0DFF81001D6
:102DA000844215D0DFF80C01844211D0DFF8F40022
:102DB00084420DD0DFF8F000844209D0DFF8EC0047
:102DC000844205D04FF4FF61DFF8EC00FEF736F9DE
:102DD000ADB2012D14D0ADB2022D11D0ADB2042D83
:102DE0000ED0ADB2082D0BD0ADB2102D08D0ADB2C3
:102DF000402D05D040F2F971DFF8BC00FEF71EF956
:102E0000208A28400700A08928408046BFB2002FB2
:102E100007D01FFA88F8B8F1000F02D00120060091
:102E200001E0002006003000C0B2BDE8F08138B5F6
:102E300004000D00B4F1804F1FD0184884421CD00C
:102E40001748844219D0DFF86800844215D0DFF8B3
:102E50006400844211D0DFF84C0084420DD0DFF8CA
:102E60004800844209D0DFF84400844205D040F68F
:102E70001F01DFF84400FEF7E1F84FF6A0700542AD
:102E800002D1ADB2002D05D14FF40261DFF8280068
:102E9000FEF7D4F8ADB2E843208231BD0004004013
:102EA0000008004000080140000C014000100140F3
:102EB0000010004000140040AC42000810B50400AF
:102EC000DFF85402844208D0DFF85002844204D074
:102ED0008D21DFF84C02FEF7B1F8DFF83C028442A6
:102EE0000AD101214FF48050FFF7BDFA00214FF4C1
:102EF0008050FFF7B8FA0DE0DFF82002844209D1D4
:102F000001214FF48040FFF7DAFA00214FF48040AE
:102F1000FFF7D5FA10BD70B504000D000026DFF8EC
:102F2000F801844208D0DFF8F401844204D0AF21D4
:102F3000DFF8EC01FEF782F82888002810D02888F6
:102F4000B0F5806F0CD02888B0F5004F08D02888E5
:102F5000B0F5404F04D0B221DFF8C401FEF76EF89F
:102F60006888B0F5827F07D06888002804D0B32134
:102F7000DFF8AC01FEF762F8A888B0F5006F07D063
:102F8000A888002804D0B421DFF89401FEF756F891
:102F9000E888002807D0E888022804D0B521DFF8A7
:102FA0008001FEF74BF82889002807D028890128DE
:102FB00004D0B621DFF86801FEF740F86889B0F563
:102FC000007F07D06889002804D0B721DFF85001BE
:102FD000FEF734F8A889002819D0A889082816D047
:102FE000A889102813D0A889182810D0A8892028CB
:102FF0000DD0A88928280AD0A889302807D0A88908
:10300000382804D0B821DFF81801FEF717F8E8894E
:10301000002807D0E889802804D0B921DFF8000112
:10302000FEF70CF8288A012804D2BA21DFF8F00054
:10303000FEF704F82088060016F4415628886988AF
:103040000843A9880843E98808432989084369890E
:103050000843A9890843E989084306432680288A4A
:10306000208270BD38B504000D00DFF8AC0084424A
:1030700008D0DFF8A800844204D0FB21DFF8A000CC
:10308000FDF7DCFFEDB2002D07D0EDB2012D04D02D
:10309000FC21DFF88C00FDF7D1FFEDB2002D04D04C
:1030A000208850F04000208004E020884FF6BF7157
:1030B0000840208031BD70B504000D000026164880
:1030C000844207D01548844204D040F2EB211448D2
:1030D000FDF7B4FFADB2802D13D0ADB2402D10D0AE
:1030E000ADB2202D0DD0ADB2102D0AD0ADB2022D53
:1030F00007D0ADB2012D04D04FF43B710848FDF765
:103100009DFF2089284202D00120060001E0002016
:1031100006003000C0B270BD0030014000380040F1
:103120004042000840B2002808D540B210F00F021B
:103130006E4BD2180B0102F8043C03E040B26C4A1B
:103140000B018354704710B50400B4F1807F01D3A4
:10315000012010E02002000A401E664908600F218D
:103160005FF0FF30FFF7DEFF634800210160634836
:1031700007210160002010BD80B561480021016079
:103180006048002101606048002101605F48002123
:1031900001605F48002101705E48FEF7F0FF5D4866
:1031A00040684FF4FA61B0FBF1F0FFF7CCFF002864
:1031B00000D0FEE701BD524800680A280AD35048F3
:1031C00000680A384E4908605148006850F0010014
:1031D0004F490860704780B54A4800680A280BD3F9
:1031E000484800680A384749086045480068401C5C
:1031F00043490860FFF7DFFF01BD80B54248006822
:10320000142810D34048006814383F4908603D48EE
:103210000068401C3B4908603C480068401C3B4932
:103220000860FFF7D8FF01BD80B537480068401C33
:103230003549086038480068002804D036480068DE
:10324000401E35490860FFF7D8FF31480068C0F3D9
:103250004000C0070ED52E48006830F002002C490F
:1032600008602B48006830F00400294908602B48AA
:10327000C821016026480068C0F3C000C0070ED511
:103280002348006830F008002149086020480068A1
:1032900030F010001E4908602148C82101601F4815
:1032A000006800280ED01D480068401E1B490860B9
:1032B0001A480068002805D11548006850F004003D
:1032C000134908601648006800280ED014480068AA
:1032D000401E1349086012480068002805D10C48B8
:1032E000006850F010000A49086001BD18ED00E0C8
:1032F00000E400E014E000E018E000E010E000E08E
:103300006801002064010020600100206C010020A1
:1033100078010020100100207C01002070010020B5
:103320007401002080B5DFF8040500210183DFF877
:10333000000500210170DFF8F8040078022821D28E
:10334000DFF8EC0400781421DFF8E82401FB00200A
:103350000078882108420DD1DFF8D004008BDFF817
:10336000D0140978DFF8D02432F811100843DFF8C0
:10337000BC140883DFF8B8040078401CDFF8B014F0
:103380000870D8E7DFF8A404008B002825D0FCF7EC
:1033900068FFDFF89C0400210170DFF894040078D6
:1033A00002281AD2DFF888040078DFF89014405C15
:1033B000DFF8781431F81000DFF87414097814225B
:1033C000DFF8703402FB01314881DFF864040078D3
:1033D000401CDFF85C140870DFE701BD80B5DFF842
:1033E000600400210183DFF8480402210170DFF846
:1033F00040040078032821D2DFF834040078142137
:10340000DFF8302401FB00200078882108420DD12C
:10341000DFF82C04008BDFF818140978DFF8182483
:1034200032F811100843DFF818140883DFF800049D
:103430000078401CDFF8F8130870D8E7DFF80004C4
:10344000008B002827D0FDF742F8DFF8E4030221C3
:103450000170DFF8DC03007803281CD2DFF8D0030A
:103460000078DFF8E013401810F8020CDFF8D013F2
:1034700031F81000DFF8B81309781422DFF8B433FC
:1034800002FB01314881DFF8A8030078401CDFF817
:10349000A0130870DDE701BD80B5DFF8AC030021A3
:1034A0000183DFF88C0303210170DFF884030078C7
:1034B000042821D2DFF8780300781421DFF8742380
:1034C00001FB00200078882108420DD1DFF8780345
:1034D000008BDFF85C130978DFF85C2332F81110F9
:1034E0000843DFF864130883DFF844030078401CC6
:1034F000DFF83C130870D8E7DFF84C03008B002896
:1035000023D0FDF7FAF8DFF8280303210170DFF874
:1035100020030078042818D2DFF814030078DFF8BD
:103520002C13401810F8030CDFF81C1331F81000AE
:10353000BF4909781422BF4B02FB01314881BC48C6
:103540000078401CBA490870E1E701BD80B5B84871
:1035500000210170B6480078042818D200F084F9E0
:10356000BB48006880210170B9480068452101749A
:10357000B748006845214174B54800687FF01501DF
:103580008174AB480078401CA9490870E2E701BD8E
:1035900080B500F069F900F073F9AD480068007873
:1035A00001282FD002280CD0042819D0082835D0A3
:1035B000112824D0142810D024281DD0802830D0E1
:1035C00032E000F022F9002802D000F01DFA2CE0D1
:1035D00000F044F800F003F927E000F067F824E079
:1035E00000F013F9002802D000F00EFA1DE000F000
:1035F0007CF800F0F4F818E000F095F815E000F021
:10360000AFF812E000F001F9002802D000F0FCF958
:103610000BE000F0C2F800F0E2F806E000F0DFF89E
:1036200003E000F0E7F800E0FEE78A4800888849F8
:103630000968898808438749088087480078844951
:10364000096809780843844908708148006840681F
:1036500030F008007E490968486001BD80B57C48AB
:10366000006890F912007D49B1F9001000B288425B
:1036700002DB00F087F918E07848B0F900007449DF
:10368000096891F9101009B288420EDB00F039F98F
:1036900073480078002808D16D480068807B401C82
:1036A0006B490968887300F001F801BD80B56B486B
:1036B000B0F900006649096891F9101009B2884212
:1036C00010DB00F0EBF962480068807B401E604927
:1036D000096888735E480068807B002801D100F08B
:1036E0001DF901E000F0E9F801BD80B55848006817
:1036F00090F911005949B1F9001000B288420FDB6E
:1037000000F02DF957480078002808D1504800688B
:10371000807B401C4E490968887300F004F801E082
:1037200000F0F6F901BD80B54948006890F9110034
:103730004A49B1F9001000B288420EDB44480068E3
:10374000807B401E42490968887341480068807B3D
:10375000002804D100F0A3F801E000F00DF901BD4C
:1037600080B53B48006890F912003C49B1F900105F
:1037700000B288420EDB36480068807B401E344928
:103780000968887332480068807B002804D100F003
:1037900006F901E000F091F801BD80B52C48006801
:1037A00080892B490968498908182949096888814D
:1037B00027480068007A401E254909680872244895
:1037C0000068007A002809D121480068808980B209
:1037D000C0081F490968888100F061F801BD80B503
:1037E0001B4800684068C0F34000C00701D400F0E7
:1037F00030F901BD80B516480068007910F003006B
:10380000032801D100F0CBF801BD114800684089C0
:10381000082806D30E48006840894EF209618842A4
:1038200001D3FF2000E0002070470000800000204E
:1038300090010020300000204C440008E6430008BE
:103840009C000020F2430008B8000020F343000869
:103850004C010020580100205C010020860100205E
:103860009201002093010020DFF8840400781421E5
:10387000DFF8802401FB0020DFF87C14086070472B
:10388000DFF874040068B0F90C00DFF86C14096804
:10389000B1F90A10401ADFF864140880704780B547
:1038A000DFF854040068406850F00800DFF848145E
:1038B0000968486000F001F801BDDFF83C040068C9
:1038C00002210170DFF830040068406830F0040025
:1038D000DFF8241409684860DFF81C0400684068B9
:1038E00030F08000DFF8101409684860DFF8080441
:1038F0000068406830F02000DFF8FC130968486079
:103900007047DFF8F403006814210170DFF8E80362
:103910000068DFF8EC13097881737047DFF8D8038B
:10392000006804210170DFF8D0030068406850F09F
:103930000400DFF8C41309684860DFF8BC030068BE
:10394000406850F00800DFF8B01309684860DFF8FD
:10395000A8030068DFF8AC13097801727047DFF83C
:103960009803006824210170DFF88C030068DFF8F9
:103970009813097881737047DFF87C03006804218D
:1039800001707047DFF87003006811210170DFF8E3
:1039900068030068DFF87413097881737047DFF8F3
:1039A0005803006801210170DFF84C03006840688B
:1039B00030F00400DFF8401309684860DFF838038E
:1039C0000068406850F00800DFF82C130968486070
:1039D000DFF824030068406830F08000DFF8181337
:1039E00009684860DFF810030068406830F0200084
:1039F000C14909684860C048006808210172BE4892
:103A00000068002181817047BB480068082101706F
:103A1000B9480068406830F00400B7490968486058
:103A2000B5480068406850F00800B349096848602C
:103A3000B1480068406830F08000AF4909684860CC
:103A4000AD480068406850F02000AB490968486004
:103A50007047A948006880210170A7480068406845
:103A600030F00400A44909684860A3480068406831
:103A700050F00800A049096848609F480068406805
:103A800030F080009C49096848609B4800684068A5
:103A900030F020009849096848607047964A1268DB
:103AA0005268C2F3C012D20731D4934A1268527AD4
:103AB000100000221100C9B2042920D28C4A1278C9
:103AC000C9B2914219D0C9B214228A4B02FB013209
:103AD000527A024211D0C9B21422864B02FB013243
:103AE0005268C2F3C012D20707D5834A1268927B8C
:103AF000521C814B1B689A7309E0491CDBE77E4A24
:103B00001268526852F080027B4B1B685A60704703
:103B100080B57F48007810F00100C0B2002811D0B5
:103B20007848007800280DD073480068007A401E5D
:103B300071490968087270480068007A002801D14C
:103B4000FFF72DFF01BD2DE9F041012080F3108822
:103B500070487149096801606F48002101600020C8
:103B600080F310886B480068411E6A4A1160002883
:103B700000F0BB8069480078002804D067480078CE
:103B8000401E6649087066480078401E6449087007
:103B90006348007800280BD161480A210170614810
:103BA0000078002804D05F480078401E5D49087006
:103BB0005D480078040001200700002006004C4802
:103BC000002101704A480078042841D2FFF74CFEDA
:103BD000494800680078142809D0474800680078F0
:103BE000042804D0444800680078242804D14D48B3
:103BF0004E49097801702BE03F48006800780228A0
:103C000020D1FFF73DFE3D48B0F90000002802D169
:103C10000020070016E03948B0F90000002809D557
:103C200036B2012E02DB002007000BE05FF0FF3010
:103C3000060007E036B2002E02D50020070001E0A2
:103C4000012006002A480078401C29490870B9E77D
:103C500032480078334909780843C0B200287FF41D
:103C600081AF2E483249097801703FB2002F02D04F
:103C700030480078040094F0FF00401C0500E4B2D6
:103C8000002C3FF46FAF1A480021017018480078EB
:103C90000428BFF467AFFFF7E7FD17480068007816
:103CA00002281CD114480068808913490968C97B1F
:103CB00011EB00208046EDB205FB08F8E4B20E4897
:103CC00000684089000200FB04880B4800685FEA36
:103CD00018418181084800685FEA1821C1730448CF
:103CE0000078401C02490870D0E7BDE8F081000070
:103CF00090010020300000204C01002086010020AF
:103D000092010020910100209301002094010020E5
:103D100054010020500100206C0100209901002076
:103D20009B0100209A0100209801002096010020AC
:103D300095010020970100207047FEE7FEE7FEE7AF
:103D4000FEE7FEE7FEE7FEE780B5FFF76DFA5E48A7
:103D50000088401C5C4908805B4800880A2190FB71
:103D6000F1F201FB1200002852D15848006850F0CF
:103D700001005649086054480088322190FBF1F256
:103D800001FB1200002843D15048006850F00200A7
:103D90004E4908604C480088642190FBF1F201FB19
:103DA0001200002834D14948006850F00400474907
:103DB000086045480088C82190FBF1F201FB120021
:103DC000002805D14148006850F008003F490860CC
:103DD0003D4800884FF4967190FBF1F201FB120010
:103DE000002805D13948006850F0200037490860A4
:103DF000354800884FF4FA7190FBF1F201FB120094
:103E0000002805D13148006850F010002F490860A3
:103E1000FDF7EAF901BD80B501212D48FEF7ADFFA0
:103E2000002803D001212A48FFF701F801BD80B521
:103E3000FDF701FA01212748FEF7F9FF01BD80B522
:103E40000120FEF708FE01BD80B52048006850F44F
:103E500080701E49086020480078401C1E49087088
:103E60001D48007808281BD11B48002101701B4801
:103E70000088401C194908801448407903280FD154
:103E80001248C088002806D11048006850F400701D
:103E90000E49086004E00D48C088401E0B49C880E8
:103EA000FDF78AFAFDF74DFD0120FEF747FE4FF4BE
:103EB0008040FEF7FFF85FF48010FEF7CCFD002095
:103EC000FEF73CFE01BD0000840100200000002040
:103ED00000100040001400409C01002088010020D8
:103EE00080B54748006850F48070454908604548EF
:103EF0000068454908404349086041480068434913
:103F000008403F4908603E48006830F480203C4942
:103F100008603C48006830F47D003A4908603C483D
:103F20000021016000F001F801BD80B500F001F84A
:103F300001BD82B000200190002000903048006850
:103F400050F001002E4908602D48006810F0020072
:103F500000900198401C01900098002803D101981E
:103F6000B0F5A06FF0D126480068800702D5012087
:103F7000009001E000200090009801283DD12548E4
:103F8000006850F00400234908602248006850F09F
:103F90000200204908601F48006850F001001D49D8
:103FA00008601D48006850F080501B4908601B489D
:103FB0004FF4006101601A480068C006FBD4114844
:103FC0001049096801600F480E49096801600D48F1
:103FD0000C49096801600B480068800880000949A5
:103FE00008600848006850F001000649086005486C
:103FF000006810F00C000428F9D102B070470000EE
:1040000000380240083802400CC0FF88FEFFFEEE78
:104010000C380240003C024024380240007000404E
:1040200004700040433A5C30304669726D776172CB
:1040300065576F726B696E6741436861755C576F56
:10404000726B696E675C475453565F52616E676569
:10405000486F6F645C4C69627261726965735C532E
:10406000544D33324C3178785F53746450657269C3
:1040700070685F4472697665725C7372635C7374B6
:104080006D33326C3178785F657874692E63000027
:10409000433A5C30304669726D77617265576F7272
:1040A0006B696E6741436861755C576F726B696ECF
:1040B000675C475453565F52616E6765486F6F6423
:1040C0005C4C69627261726965735C53544D333242
:1040D0004C3178785F5374645065726970685F44DE
:1040E00072697665725C7372635C73746D33326C83
:1040F0003178785F6770696F2E630000433A5C30F7
:10410000304669726D77617265576F726B696E6761
:1041100041436861755C576F726B696E675C4754A9
:1041200053565F52616E6765486F6F645C4C69629D
:104130007261726965735C53544D33324C317878D7
:104140005F5374645065726970685F447269766524
:10415000725C7372635C73746D33326C3178785F48
:104160007077722E63000000433A5C30304669720B
:104170006D77617265576F726B696E6741436861F5
:10418000755C576F726B696E675C475453565F522C
:10419000616E6765486F6F645C4C696272617269D9
:1041A00065735C53544D33324C3178785F5374648B
:1041B0005065726970685F4472697665725C73728B
:1041C000635C73746D33326C3178785F7263632E25
:1041D00063000000433A5C30304669726D7761726B
:1041E00065576F726B696E6741436861755C576FA5
:1041F000726B696E675C475453565F52616E6765B8
:10420000486F6F645C4C69627261726965735C537C
:10421000544D33324C3178785F5374645065726911
:1042200070685F4472697665725C7372635C737404
:104230006D33326C3178785F7274632E63000000E6
:10424000433A5C30304669726D77617265576F72C0
:104250006B696E6741436861755C576F726B696E1D
:10426000675C475453565F52616E6765486F6F6471
:104270005C4C69627261726965735C53544D333290
:104280004C3178785F5374645065726970685F442C
:1042900072697665725C7372635C73746D33326CD1
:1042A0003178785F7370692E63000000433A5C30A8
:1042B000304669726D77617265576F726B696E67B0
:1042C00041436861755C576F726B696E675C4754F8
:1042D00053565F52616E6765486F6F645C4C6962EC
:1042E0007261726965735C53544D33324C31787826
:1042F0005F5374645065726970685F447269766573
:10430000725C7372635C73746D33326C3178785F96
:1043100074696D2E63000000433A5C303046697268
:104320006D77617265576F726B696E674143686143
:10433000755C576F726B696E675C475453565F527A
:10434000616E6765486F6F645C4C69627261726927
:1043500065735C53544D33324C3178785F537464D9
:104360005065726970685F4472697665725C7372D9
:10437000635C6D6973632E630000000010B507492C
:1043800079441831064C7C44163404E0081D0A6850
:10439000511888470146A142F8D110BD080000001D
:1043A000280000007BDDFFFF7001000030000020CE
:1043B000000000008BCCFFFF300000007001000007
:1043C000000000200000000000F009F8002801D0E3
:1043D000FFF7D4FF0020FCF7DEFA00F002F801201E
:1043E000704700F001B802060746384600F002F8B0
:1043F000FBE7060601491820ABBEFBE726000200DA
:104400000148804701480047E13E00084144000858
:10441000AF066D4FC6CBEB0EEFCF0000F560B6F2E6
:1044200063D3D770F7F300005F066B2F363D7D072F
:104430007F3F00000A0905040C0B02030E00000078
:10444000C046C046C046C046FFF7BEFF040040005D
:1044500040004000FFF770BCFFF76FBCFFF76EBC79
:10446000FFF76DBCFFF76CBCFFF76BBCFFF76ABCD6
:10447000FFF769BCFFF768BCFFF7FEBFFFF7FEBFA1
:10448000FFF7FEBFFFF7E0BCFFF7FEBFFFF7FEBF81
:10449000FFF7D5BCFFF7FEBFFFF7FEBFFFF7FEBF7C
:1044A000FFF7FEBFFFF7FEBFFFF7FEBFFFF7FEBF40
:1044B000FFF7FEBFFFF7FEBFFFF7FEBFFFF7FEBF30
:1044C000FFF7FEBFFFF7FEBFFFF7FEBFFFF7FEBF20
:1044D000FFF7FEBFFFF7FEBFFFF7FEBFFFF7FEBF10
:1044E000FFF7FEBFFFF7FEBFFFF7FEBFFFF7FEBF00
:1044F000FFF7FEBFFFF7FEBFFFF7FEBFFFF7FEBFF0
:10450000FFF7FEBFFFF7FEBFFFF7FEBFFFF7FEBFDF
:10451000FFF7FEBFFFF7FEBFFFF7FEBFFFF7FEBFCF
:10452000FFF7FEBFFFF777BCFFF781BC000000007C
:10453000000000000001000000000000000000007A
:104540000102030401020304060708090304060824
:0C4550000C101820300000000024F400C3
:04000005080044416A
:00000001FF
