:020000040800F2
:10000000A8050020D12E00085D2C00085F2C0008F8
:10001000612C0008632C0008652C0008000000001B
:10002000000000000000000000000000672C000835
:10003000692C0008000000006B2C00086D2C0008E3
:100040001D2F0008212F0008252F00084B2D000828
:100050002D2F0008312F0008452D0008392F0008EA
:100060003D2F0008412F0008452F0008492F0008A8
:100070004D2F0008512F0008552F0008592F000858
:100080005D2F0008612F0008652F0008692F000808
:100090006D2F0008712F0008752F0008792F0008B8
:1000A0007D2F0008812F0008852F0008892F000868
:1000B0008D2F0008912F0008952F0008992F000818
:1000C0009D2F0008A12F0008A52F0008A92F0008C8
:1000D000AD2F0008B12F0008B52F0008B92F000878
:1000E000BD2F0008C12F0008C52F0008012D0008F2
:1000F0001D2D0008DFF8E804016841F002010160ED
:10010000DFF8E0148A68DFF8E0341A438A60826816
:1001100042F0004282600868400040080860DFF852
:10012000CC04018801808168816001880180816838
:1001300081600188018081688160FFE730B581B00E
:10014000DFF8AC44DFF89C54286820402860012088
:1001500080F31088DFF89C04818A4EF6FE7211400D
:1001600081820168DFF89024114041F0807141F0F4
:1001700001010160818A4DF6FD72114081820168A2
:10018000DFF87824114041F0806141F00401016002
:10019000818A4BF6FF7211408182016821F0405143
:1001A00041F080510160818A4904490C81820168D3
:1001B0008900890841F080410160002080F31088A7
:1001C000642000F02BFA28682040286001B030BD80
:1001D0002DE9F04F81B00024DFF824542C606C60CE
:1001E000AC60EC602C616C61DFF80484DFF8F473C0
:1001F000386808EA00003860012080F31088DFF8D2
:10020000F463B08A4EF6FE710840B082DFF8E893DE
:10021000306809EA000040F0807040F00100306072
:10022000B08A4DF6FD710840B082DFF8D8A3DFF840
:10023000CCB330680BEA00004AEA0000306084F377
:100240001088322000F0EAF9012080F3108830682D
:100250000BEA0000306084F31088386840F4802096
:1002600040F480703860012080F31088B08A40F438
:10027000005040F00200B08230680BEA00004AEA09
:1002800000003060002080F3108800F0CDF9287D58
:10029000400607D4308AC00404D5AC81686940F0B8
:1002A00040006861287D400707D4308AC00704D524
:1002B000AC80686940F004006861287D800607D43E
:1002C000308AC00604D56C81686940F020006861FE
:1002D000641C012080F3108830680BEA0000306055
:1002E000002080F31088386840F4002040F400704B
:1002F000386000F09BF9012080F31088306809EA2B
:1003000000003060002080F31088386808EA0000A0
:1003100038604EF20960A4B2844203D300BF01B03A
:10032000BDE8F08F288B69690140814295D101B009
:10033000BDE8F08F2DE9F04F81B00024B24D2C6064
:100340006C60AC60EC602C616C61DFF8C082A54F22
:10035000386808EA00003860012080F31088A54E54
:10036000B08A4EF6FE710840B082DFF88C92306899
:1003700009EA000040F0807040F001003060B08A6F
:100380004BF6FF710840B082306820F0405040F0DA
:100390008050306084F31088322000F03FF9012053
:1003A00080F31088306820F04050306084F310886B
:1003B000012080F31088306809EA0000306084F37F
:1003C00010884EF2096ADFF848B238684BEA00003C
:1003D0003860012080F31088B08A40F48040B082F9
:1003E000306820F0405040F080503060002080F3B2
:1003F000108800F019F9287D400607D4308AC0041F
:1004000004D5AC81686940F040006861287D4007F0
:1004100007D4308AC00704D5AC80686940F0040076
:100420006861287D800607D4308AC00604D56C81B7
:10043000686940F020006861012080F3108830680E
:1004400020F040503060002080F31088641C386831
:1004500040F48010386000F0E9F8012080F3108843
:10046000306809EA00003060002080F310883868A6
:1004700008EA00003860544503D300BF01B0BDE86E
:10048000F08F288B6969014081429ED101B0BDE89F
:10049000F08F2DE9F04F81B000245E4D2C606C6030
:1004A000AC60EC602C616C61DFF86C814D4F38689A
:1004B00008EA00003860012080F310884D4EB08AB1
:1004C0004EF6FE710840B082DFF82C91306809EAE0
:1004D000000040F0807040F001003060B08A4004BD
:1004E000400CB08230688000800840F0804030606E
:1004F00084F31088322000F091F8012080F31088F6
:10050000306880008008306084F310884EF2096AF9
:10051000DFF8FCB038684BEA00003860012080F357
:100520001088B08A40F40040B082306880008008B3
:1005300040F080403060002080F3108800F074F8B4
:10054000287D400607D4308AC00404D5AC81686990
:1005500040F040006861287D400707D4308AC0071A
:1005600004D5AC80686940F004006861287D80068D
:1005700007D4308AC00604D56C81686940F0200039
:100580006861012080F31088306880008008306046
:10059000002080F31088641C386840F40010386034
:1005A00000F044F8012080F31088306809EA000068
:1005B0003060002080F31088386808EA0000386056
:1005C000544503D300BF01B0BDE8F08F288B6969A3
:1005D000014081429ED101B0BDE8F08F00000000D3
:1005E0001C380240087C0040000003F00404024074
:1005F000FFFCF3FF00040240FCFFFFFCF3FFFFF3EE
:10060000E80000200400000404010020FFFEEBFFCE
:100610000001040020010020FFFEDBFF00E0401E7F
:1006200080B20028FBD1704700BF704700BF704701
:100630002DE9F04F0FF250428D5C0FF2384202EB81
:100640004001497812F810B06A1102F00102AB11B2
:1006500003F001032C1104F00104EE1006F0010870
:10066000AE1006F001066F1007F0010905F0010C4D
:10067000DFF8D0E3DFF8D053DFF8D073DFF8D0A392
:1006800004280FD288000AF800C007F800902E5402
:100690000EF800804FEA8B002C543B540AF80020DF
:1006A000BDE8F08F4FEA8B000EF800C005F800900F
:1006B0003E540AF8008088003C542B540EF8002069
:1006C000BDE8F08F70B50C46642C38BF042822D2E8
:1006D00041004D1C0A2194FBF1F6420002280DD284
:1006E000F1B2D0B2FFF7A4FF06EB8600A4EB400105
:1006F000C9B2E8B2BDE87040FFF79ABF06EB8600CA
:10070000A4EB4001C9B2D0B2FFF792FFF1B2E8B258
:10071000BDE870408CE770BDCE480088CE4900F03F
:10072000010281F82420C0F3400281F80823C0F3BD
:10073000800281F85C20C0F3C00281F84423C0F33A
:10074000001281F85420C0F340120A70C0F38010E8
:1007500081F8E8027047BF490A88012303FA00F0D4
:1007600010430880D8E7BB49072808BF002005D000
:100770000A88012303FA00F022EA00000880CBE790
:1007800010B518B1022812D005D327E0B14C20884B
:1007900040F0100027E0AF4C20884FF6EF71084082
:1007A0002080FFF7B9FF208840F0200022E0A94C0C
:1007B00020884FF6EF7108402080FFF7ADFF2088BA
:1007C0004FF6DF7108402080FFF7A6FF208840F039
:1007D00040002080BDE81040FFF79EBF9D4C208860
:1007E0004FF6EF7108402080FFF796FF20884FF604
:1007F000DF7108402080FFF78FFF20884FF6BF7120
:1008000008402080BDE8104086E794480178491CE4
:100810000170C9B2142904BF0021017001780A29AE
:100820009241D20FC2704178491C4170C9B203296C
:1008300009D1002141704179491C4171C9B2032994
:1008400004BF002141718178491C8170C9B2062919
:1008500009D1002181700179491C0171C9B20329B4
:1008600004BF0021017170477C48C07870477B4805
:100870000079704700B585B001214FF4007000F099
:1008800006FA002000904FF4701001900C200290A6
:10089000402003900020049000A800F0A7FA012057
:1008A00000F068FB4FF4E05000F0F5FB002000F092
:1008B0008FFB702000F06CFB00F057FB012000F074
:1008C00040FB012000F012FC0028FAD0102000F0BC
:1008D0000DFC0028FAD04FF48041002000F09EFB70
:1008E000042000F003FC0028FAD140215C4800F00D
:1008F0005DFC00F0F7FB05B000BD10B582B0012132
:100900003F2000F078F900A800F001FD48F28C705B
:10091000009002208DF80400524C00A9204600F0FF
:100920005FFC0B220221204600F020FD0B22032158
:10093000204600F01BFD0B220721204600F016FD8B
:100940000B220821204600F011FD0B220921204630
:1009500000F00CFD0B220A21204600F007FD0B22BF
:100960000F21204600F002FD40F638700090022072
:100970008DF804003C4C00A9204600F031FC0B220D
:100980000321204600F0F2FC0B220421204600F057
:10099000EDFC0B220521204600F0E8FC0B2208218B
:1009A000204600F0E3FC0B220921204600F0DEFC8B
:1009B0000B220A21204600F0D9FC0B220B212046F5
:1009C00000F0D4FC4FF4FE50009002208DF804009B
:1009D000264C00A9204600F003FC0B2206212046ED
:1009E00000F0C4FC0B220721204600F0BFFC0B22C4
:1009F0000821204600F0BAFC0B220921204600F015
:100A0000B5FC0B220A21204600F0B0FC0B22114657
:100A1000204600F0ABFC0B220C21204600F0A6FC87
:100A20000420009002208DF80400114C00A92046FB
:100A300000F0D6FB0B220221204600F097FC02B00A
:100A400010BD0000808204428083044280840442FE
:100A50008085044296010020A08204428C0100207F
:100A6000142400400000024000040240000802403C
:100A7000000C0240111C1D1E1F070809101B1A192B
:100A800018040B0A010200003F065B4F666D7D07EC
:100A90007F6F710010B504001CBF012C052C05D020
:100AA00040F2BD110FF2D82000F05AFEDFF8940298
:100AB00000210170047010BDDFF88C02006800F0A6
:100AC0000C00704710B4DFF878124A6802F00C028C
:100AD0000C2A23D8DFE802F0222222220722222237
:100AE0000A2222220D00DFF8642220E0DFF86022D3
:100AF0001DE04A684B68C2F38342DFF85842125D3A
:100B0000C3F381535B1C4C68E40354BFDFF83C42E1
:100B1000DFF83C426243B2FBF3F208E00A680123CB
:100B2000520B02F00702521C03FA02F2D2030260D7
:100B30004B68DFF820220468C3F303139B181B7B68
:100B400024FA03F343604B684468C3F302239B1801
:100B50001B7B24FA03F3836049684368C1F3C22115
:100B60008918097B23FA01F1C16010BC704710B5E8
:100B70000446B4F5803F18BFB4F5003F14D0B4F577
:100B8000403F1CBFDFF8D00184420DD0DFF8CC011C
:100B900084421CBFDFF8C801844205D040F2E13135
:100BA0000FF2DC1000F0DCFDDFF8900104F44031BE
:100BB000B1F5403F06D1016821F0C04104F0C042C8
:100BC00011430160416B21F440314163416B04F4F6
:100BD00040321143416310BD10B5040018BF012C11
:100BE00005D040F203410FF2981000F0B9FDDFF894
:100BF0007401046010BD30B581B004460D46DFF8C5
:100C00006801044200D12CB940F22F410FF270105C
:100C100000F0A6FD75B1012D05D04FF486610FF2ED
:100C2000601000F09DFDDFF8440101682143016080
:100C300001B030BDDFF834010168A143016001B0AB
:100C400030BD30B581B004460D46DFF824010442C2
:100C500000D12CB940F251410FF2241000F080FD78
:100C600075B1012D05D040F252410FF2141000F081
:100C700077FDDFF8000101682143016001B030BD5C
:100C8000DFF8F0000168A143016001B030BD30B56C
:100C900081B004460D46DFF8E000044200D12CB9D3
:100CA00040F27C410FF2D80000F05AFD6DB1012DE9
:100CB00005D040F27D410FF2C80000F051FD2F48F1
:100CC00001682143016001B030BD2C480168A14397
:100CD000016001B030BD30B581B004460025212C43
:100CE00018BF312C1AD0292C18BF392C16D0492CFA
:100CF00018BF412C12D05A2C18BF5B2C0ED05C2C84
:100D000018BF5D2C0AD05E2C1CBF5F2C592C05D05F
:100D100040F2B6510FF2680000F022FD0748610969
:100D200001290CBF0068406B012104F01F029140B3
:100D3000084218BF0125284601B030BD00380240E6
:100D40000438024035380240083802400024F400DC
:100D500000127A0028000020000003200000034059
:100D600000000360D8064742C06FFFFE1C380240F7
:100D7000E2ADFFFF20380240C8B5194F24380240C9
:100D8000433A5C30304669726D77617265576F72B5
:100D90006B696E6741436861755C576F726B696E12
:100DA000675C475453565F52616E6765486F6F6466
:100DB0005C4C69627261726965735C53544D333285
:100DC0004C3178785F5374645065726970685F4421
:100DD00072697665725C7372635C73746D33326CC6
:100DE0003178785F7263632E6300000010B50446AB
:100DF0002068002818BFB0F5800F2ED0B0F5000F86
:100E000018BFB0F5400F28D0B0F1807F18BFB0F107
:100E1000A07F22D0B0F1C07F18BFB0F1E07F1CD01E
:100E2000B0F1007F18BFB0F1107F16D0B0F1207F75
:100E300018BFB0F1307F10D0B0F1407F18BFB0F1D3
:100E4000507F0AD0B0F1607F18BFB0F1707F04D03E
:100E5000B5210FF2EC2000F083FC6068002818BF79
:100E6000B0F5802F2ED0B0F5002F18BFB0F5402F71
:100E700028D0B0F5801F18BFB0F5A01F22D0B0F564
:100E8000C01F18BFB0F5E01F1CD0B0F5001F18BF81
:100E9000B0F5101F16D0B0F5201F18BFB0F5301FE9
:100EA00010D0B0F5401F18BFB0F5501F0AD0B0F5F4
:100EB000601F18BFB0F5701F04D0B6210FF280205C
:100EC00000F04EFCA068002818BF042809D00828AC
:100ED0001CBF0C28102804D0B7210FF2642000F0AA
:100EE0003FFCE06800281CBF2028402804D0B8211F
:100EF0000FF24C2000F034FC2069002818BF0228B3
:100F000004D0B9210FF2382000F02AFC864841684D
:100F100021F07F7141604168226863681A43114380
:100F2000416081688906FCD5016821F07E0101607D
:100F30000168A268E3681A4323691A4311430160F8
:100F400010BD30B581B0040018BF012C09D00FF2DC
:100F5000F015E221284600F003FCE521284600F0C8
:100F6000FFFB7248046001B030BD7148016889061A
:100F7000FCD5704710B5040018BF012C05D040F215
:100F800015110FF2BC1000F0EBFB6A48046010BDB5
:100F900010B5040018BF102C11D0202C18BF302C15
:100FA0000DD0402C18BF502C09D0602C18BF702CCD
:100FB00005D04FF496710FF2881000F0D1FB5E4817
:100FC000016821F07001016001682143016010BDDA
:100FD00010B5040018BF802C17D0B4F5807F18BF5F
:100FE000B4F5C07F11D0B4F5007F18BFB4F5207FF1
:100FF0000BD0B4F5407F18BFB4F5607F05D040F248
:1010000043110FF23C1000F0ABFB4B48016821F498
:101010006071016001682143016010BD30B581B08D
:1010200004000D4618BFB4F5803F0BD0B4F5003F67
:1010300018BFB4F5403F05D04FF4B1710FF2001066
:1010400000F08EFB002D18BFB5F5005F17D0B5F589
:10105000804F18BFB5F5C04F11D0B5F5004F18BF80
:10106000B5F5204F0BD0B5F5404F18BFB5F5604F23
:1010700005D040F263110FF2C80000F071FB2E485A
:10108000016821F478310160016845EA04021143E6
:10109000016001B030BD10B5040018BFB4F5806F19
:1010A00017D0B4F5006F18BFB4F5406F11D0B4F588
:1010B000805F18BFB4F5A05F0BD0B4F5C05F18BF58
:1010C000B4F5E05F05D04FF4BD710FF2740000F08D
:1010D00047FB1948016821F4E05101600168214390
:1010E000016010BD154801210160704730B581B025
:1010F00004460025012C18BF022C0DD0042C18BF6B
:10110000082C09D0102C18BF202C05D04FF40671E4
:101110000FF22C0000F024FB05480068204218BFA5
:101120000125284601B030BD002400400080044263
:10113000082400401C80044204240040088104422A
:10114000433A5C30304669726D77617265576F72F1
:101150006B696E6741436861755C576F726B696E4E
:10116000675C475453565F52616E6765486F6F64A2
:101170005C4C69627261726965735C53544D3332C1
:101180004C3178785F5374645065726970685F445D
:1011900072697665725C7372635C73746D33326C02
:1011A0003178785F6C63642E63000000002200F0E9
:1011B000E9BA10B450F8041B81B102681218001D7E
:1011C00050F8043BDC0744BFA9F10104E31852F8CE
:1011D000044B43F8044B091FF9D1EBE710BC7047EF
:1011E0002DE9F04381B004460D460026DFF8580291
:1011F00084421CBFDFF85402844214D0DFF850024E
:1012000084421CBFDFF84C0284420CD0DFF8480255
:1012100084421CBFDFF84402844204D0C1210FF293
:10122000402000F09DFA286820B9C2210FF230203A
:1012300000F096FA2879002818BF012808D0022863
:1012400018BF032804D0C3210FF2142000F088FA3D
:10125000E87940B1012818BF022804D0C4210FF258
:10126000002000F07DFA012000FA06F8286808EA5C
:101270000000404545D177000320B8406FEA0009DF
:10128000206809EA0000206020682979B9400843F5
:1012900020602879012818BF022829D16879002800
:1012A00018BF012808D0022818BF032804D0D8216D
:1012B0000FF2AC1000F054FAA06809EA0000A06038
:1012C000A0686979B9400843A060A879002818BFD0
:1012D000012804D0DF210FF2881000F041FAA08825
:1012E00020EA0800A080A088A979B1400843A08026
:1012F000E06809EA0000E060E068E979B940084385
:10130000E060761C102EAED301B0BDE8F0834FF63E
:10131000FF7101600021017141718171C1717047DC
:1013200030B581B004460D46474884421CBF47484B
:10133000844211D0464884421CBF464884420BD0A8
:10134000454884421CBF4548844205D040F29B1169
:101350000FF20C1000F004FA2DB94FF4CE710FF219
:10136000001000F0FDF9658301B030BD70B5064690
:101370000D461446344886421CBF3448864211D07C
:10138000334886421CBF334886420BD032488642DF
:101390001CBF3248864205D040F209210FF2C0003E
:1013A00000F0DEF9002D18BF012D21D0022D18BF4D
:1013B000032D1DD0042D18BF052D19D0062D18BFE3
:1013C000072D15D0082D18BF092D11D00A2D18BFD3
:1013D0000B2D0DD00C2D18BF0D2D09D00E2D18BFC3
:1013E0000F2D05D040F20A210FF2740000F0B8F979
:1013F000002C18BF012C16D0022C18BF032C12D0C1
:10140000042C18BF052C0ED0072C18BF0A2C0AD0AC
:101410000B2C1CBF0E2C0F2C05D040F20B210FF211
:10142000400000F09DF9E81006EB800005F0070190
:101430008900026A0F238B409A430262026A04FA0F
:1014400001F11143016270BD00000240000402403E
:1014500000080240000C024000100240001402404C
:10146000433A5C30304669726D77617265576F72CE
:101470006B696E6741436861755C576F726B696E2B
:10148000675C475453565F52616E6765486F6F647F
:101490005C4C69627261726965735C53544D33329E
:1014A0004C3178785F5374645065726970685F443A
:1014B00072697665725C7372635C73746D33326CDF
:1014C0003178785F6770696F2E63000000F0D0F8A4
:1014D0009A4800684FF47A71B0FBF1F0B0F1807F68
:1014E0000ED297490002000A401E4860F02081F8A1
:1014F000130D0020886007200860E02081F8130D9C
:1015000000F0BEF900F04AF8FFF7B4F900F0FFF977
:1015100000F038FA8B48012101708B4C8B4D0BE0A9
:101520000220FFF720F90020FFF71DF9FFF79FF9D0
:10153000FFF726F9FFF7D6FD00F06CFA286841079F
:1015400004D520F004002860FFF75FF92868C10681
:1015500012D520F0100028602146002000F03AFB50
:1015600021780020FFF7AEF861780120FFF7AAF894
:10157000A1780220FFF7A6F802210820FFF758F80B
:101580000120FFF7E8F8FFF76FF90028C8D0022024
:10159000FFF7E1F80020FFF7DEF8C7E770B501219B
:1015A0000120FFF728FB6A4C4FF480502060012097
:1015B00020710020E08001206071664D21462846A0
:1015C000FFF70EFE4FF480512846FFF7A9FE0121D8
:1015D0000846FFF710FB4FF40060206001202071E7
:1015E000A071E071607121462846FFF7F9FD4FF4C4
:1015F00000612846FFF794FE01210420FFF7FBFA63
:101600004FF40050206001202071A071E0716071E2
:10161000514E21463046FFF7E3FD4FF4005130466E
:10162000FFF77EFE01210420FFF7E5FA0F2020607E
:10163000012020710020A0710120E071607121461D
:101640003046FFF7CDFD01210846FFF7D4FA02200E
:101650002060012020710020A0710120E0716071E4
:1016600021462846FFF7BCFDBDE87040FFF745B9AD
:1016700010B53A4CFFF720FA2070201DFFF722FA30
:101680002120FFF728FB616960F3000161612920D7
:10169000FFF721FB616960F3410161613120FFF7D0
:1016A0001AFB616960F3820161613920FFF713FB66
:1016B000616960F3C30161614920FFF70CFB616957
:1016C00060F3041161614120FFF705FB616960F37C
:1016D000451161615920FFF7FEFA616960F38611D7
:1016E00061615A20FFF7F7FA616960F3C711616120
:1016F0005B20FFF7F0FA616960F3082161615C200B
:10170000FFF7E9FA616960F3492161615D20FFF744
:10171000E2FA616960F38A2161615E20FFF7DBFA1A
:10172000616960F3CB2161615F20FFF7D4FA6169E1
:1017300060F30C31616110BD00000000000000206A
:1017400010E000E0AC02404274010020540100208F
:101750008401002000000240000802403C010020FB
:10176000FEE750F8041B61B150F8042BD30744BFC7
:10177000A9F101039A18002342F8043B091FFAD18A
:10178000EFE7704700B500BF130096469446103946
:1017900028BFA0E80C50FAD85FEA417C28BF0CC0F3
:1017A00048BF40F8042BC90728BF20F8022B48BFC8
:1017B00000F8012B00BD000000B583B001214FF0FF
:1017C0008050FFF764FA01210120FFF73AFA012067
:1017D000FFF760F94920FFF77EFA0028FAD04FF4AE
:1017E0008030FFF7C4F90120FFF7F6F900F0D3F9D4
:1017F00035487F214160FF2181600021016000F0B8
:1018000075F9002000F059FA4FF4801000F082FBC7
:101810004FF48010019000208DF8080008208DF80A
:10182000090001208DF80A0001A800F013FB032035
:101830008DF8000000208DF801008DF802000120D5
:101840008DF8030000A800F0AFFB2048F0210170E4
:10185000042000F0FAF9002000F01AFA4FF480405A
:1018600000F0A2FA4FF4801000F054FB01214FF475
:10187000804000F061FA012000F01FFA03B000BDC3
:1018800000B581B001214FF08050FFF700FA012030
:1018900000F00AFCFFF790FF0D480521416001218F
:1018A00001720D214172032101600021C1730221E7
:1018B00001731921417300218173002001B05DF88B
:1018C00004EB00F0F1BB00007801002003E400E02D
:1018D000680100202748018891B1012905D1022122
:1018E00001800121244800F08FBC4288914202D23D
:1018F000491C01807047002101801F4800F084BC12
:1019000070471E48017881F001010170704710B5E1
:1019100084B001212020FFF7BAF9194800684FF47C
:101920007A61B0FBF1F0401EADF808000020019094
:10193000ADF80A00104C01A9204600F0FBFB012184
:10194000204600F02CFD01220121204600F0A6FCDB
:101950002C208DF800000E208DF8010001208DF85C
:1019600002008DF8030000A800F01EFB04B010BDBB
:10197000000000009201002000140040B00240422C
:101980000000002000B581B000F020F80E4841684A
:1019900041F00301416001214172816941F003017D
:1019A000816101214177C16A41F00301C1620121D6
:1019B00080F83110016C41F003010164012180F8CD
:1019C000451001B000BD00004400002010B501200A
:1019D00080F31088434C0020E07020711420A07127
:1019E000E0710A2060710020A070142020720A208B
:1019F00060721420A0720020E0722073FEF77AFB60
:101A000000F046FD00F024FE002080F31088012045
:101A1000207010BD10B5334C2078401E0A285FD8C6
:101A2000DFE800F006181D2B303D425E5E5E4F0081
:101A3000012080F310882C480168A26961F300023C
:101A4000A261490849000160002080F3108802204B
:101A5000207010BD00F08CFD0320207010BD002010
:101A600084F8010000F010FE6078401C6070C0B285
:101A70000228F7D30420207010BD00F0A6FD052039
:101A8000207010BD0220607000F0FEFD6078401CE8
:101A90006070C0B20328F7D30620207010BD00F09C
:101AA000B5FD0720207010BD0320607000F0ECFD34
:101AB0006078401C6070C0B20428F7D30B202070FF
:101AC00010BD01F000F8A08B20820020A08394F8C4
:101AD00020002075002084F820000120207010BD17
:101AE000FEE70000C4000020BC00002030B581B03B
:101AF000044600252068402818BF002805D04FF470
:101B0000B771DFF82402FFF72BFE6068802805D349
:101B100040F26F11DFF81002FFF722FEA068B0F567
:101B2000005F05D34FF4B871DFF8FC01FFF718FE32
:101B3000DFF8F801CA21C1615321C16100954168F4
:101B400049060FD44FF0FF3141604168009A521CA2
:101B50000092009AB2F5005F01D04906F5D54168C0
:101B6000490613D5016821F040010160016822682F
:101B700011430160A16881608168626841EA0241A5
:101B80008160416821F0800141600125FF21C16130
:101B9000284601B030BD81B000200090DFF89001F0
:101BA000CA21816153218161016821F0A001016096
:101BB0000168009A521C0092009AB2F5805F01D031
:101BC0008906F5D50168FF228261480900F001000D
:101BD00001B0704730B581B005000C4618BF012D2B
:101BE00005D040F2F521DFF84001FFF7B9FDDFF83D
:101BF00034010068DFF83C110840010C01F03F029D
:101C00002270020A6270A07001F04000E070D5B945
:101C10002078010901EB810200F00F0000EB420087
:101C200020706078010901EB810200F00F0000EBE9
:101C300042006070A078010901EB810200F00F0002
:101C400000EB4200A07001B030BD10B5040018BF19
:101C5000012C0DD0022C18BF032C09D0042C18BF66
:101C6000062C05D04FF49A610FF27C10FFF778FD37
:101C7000DFF86401CA21C1615321C1610168C9084B
:101C8000C9000160016821430160FF21C16110BDED
:101C900010B50446B4F5803F05D340F2EB410FF296
:101CA0004810FFF75DFDDFF83401CA2101615321BF
:101CB00001610460FF21016110BD10B582B00446CE
:101CC00000200090002C18BF012C05D04FF4A26119
:101CD0000FF21410FFF744FDDFF8FC10CA20C861B2
:101CE0005320C861002C086807D040F48060086069
:101CF0000120FF22CA6102B010BD20F4806008609C
:101D00004868009A521C0092009AB2F5005F01D018
:101D10004007F5D54868800800F00100FF22CA613D
:101D200002B010BD00280040E81D0008082800404F
:101D30000C2800407F7F7F0030B581B004000D4645
:101D400002D02748044205D040F293710FF2980068
:101D5000FFF706FD002D18BF012D05D040F294714C
:101D60000FF28400FFF7FCFC1B48CA21C16153211C
:101D7000C16104F0040124F00402002D036808D0BE
:101D80001A430260826B11438163FF21C16101B07C
:101D900030BD23EA02020260826B22EA0101816304
:101DA000FF21C16101B030BD10B5040002D034F490
:101DB0003C3005D040F623010FF22C00FFF7D0FC99
:101DC00008482103090C41F08001026802F08002FA
:101DD00062EA0101016010BD08280040142800409B
:101DE000FB0FFFFF0C280040433A5C30304669721D
:101DF0006D77617265576F726B696E674143686199
:101E0000755C576F726B696E675C475453565F52CF
:101E1000616E6765486F6F645C4C6962726172697C
:101E200065735C53544D33324C3178785F5374642E
:101E30005065726970685F4472697665725C73722E
:101E4000635C73746D33326C3178785F7274632EB7
:101E50006300000030B581B004462079002818BF27
:101E6000042804D081210FF2D400FFF779FC6079B7
:101E700008281CBF0C28102804D082210FF2BC00B7
:101E8000FFF76EFC2068C10DC90500D120B9832180
:101E90000FF2A800FFF764FCA07980B3012806D0F8
:101EA00084210FF29800FFF75BFCA07938B321483A
:101EB0000168226891430160416822689143416052
:101EC00022798218136825682B431360826823687F
:101ED0009A438260C26823689A43C2606279236829
:101EE000102A08D1816819438160C16822681143B2
:101EF000C16001B030BD82181068184307E0207936
:101F000000F1804202F58232106821688843106037
:101F100001B030BD10B50446E00DC00500D12CB9AC
:101F20004FF492710FF21400FFF71AFC024804609C
:101F300010BD00000004014014040140433A5C302D
:101F4000304669726D77617265576F726B696E6743
:101F500041436861755C576F726B696E675C47548B
:101F600053565F52616E6765486F6F645C4C69627F
:101F70007261726965735C53544D33324C317878B9
:101F80005F5374645065726970685F447269766506
:101F9000725C7372635C73746D33326C3178785F2A
:101FA000657874692E63000070B50446E0780028F7
:101FB00018BF012804D08C210FF28800FFF7D0FB56
:101FC0006078102804D38D210FF27800FFF7C8FB4A
:101FD000A078102804D38E210FF26800FFF7C0FB11
:101FE000227811460120E378E3B1124A126802F424
:101FF000E062C2F5E062120A6378C2F10405AB4008
:10200000A5780F2626FA02F22A401A4312010A4B3B
:10201000CA5421784A11094B01F01F01884043F846
:10202000220070BD4911064B02F01F02904043F898
:10203000210070BD0CED00E000E400E000E100E0F4
:1020400080E100E0433A5C30304669726D7761723E
:1020500065576F726B696E6741436861755C576F56
:10206000726B696E675C475453565F52616E676569
:10207000486F6F645C4C69627261726965735C532E
:10208000544D33324C3178785F53746450657269C3
:1020900070685F4472697665725C7372635C6D69C7
:1020A00073632E630000000010B5040018BF012CFC
:1020B00004D086210FF21000FFF752FB01480460A4
:1020C00010BD000020000E42433A5C303046697279
:1020D0006D77617265576F726B696E6741436861B6
:1020E000755C576F726B696E675C475453565F52ED
:1020F000616E6765486F6F645C4C6962726172699A
:1021000065735C53544D33324C3178785F5374644B
:102110005065726970685F4472697665725C73724B
:10212000635C73746D33326C3178785F7077722EC4
:102130006300000030B581B004460D46B4F1804F15
:102140001CBFDFF8380184421CD0DFF83401844220
:102150001CBFDFF83001844214D0DFF82C01844228
:102160001CBFDFF8280184420CD0DFF82401844230
:102170001CBFDFF82001844204D0FA21DFF81801E7
:10218000FFF7EEFA6888002818BF102809D0202829
:102190001CBF4028602804D0FB21DFF8FC00FFF7BB
:1021A000DFFAE88800281CBFB0F5807FB0F5007F1B
:1021B00004D0FC21DFF8E000FFF7D2FA2088B4F168
:1021C000804F1FBFDFF8B4108C42DFF8B4108C4290
:1021D00004D14FF68F71084069880843DFF8A410D6
:1021E0008C421CBFDFF8A0108C4204D04FF6FF4198
:1021F0000840E98808432080A888A0852888208591
:102200000120A08201B030BD30B581B004460D463A
:10221000B4F1804F1CBF1948844218D0184884423A
:102220001CBF1848844212D0174884421CBF17486C
:1022300084420CD0164884421CBFDFF85800844208
:1022400005D040F21A21DFF85000FFF789FA6DB18E
:10225000012D05D040F21B21DFF83C00FFF780FA8A
:10226000208840F00100208001B030BD20884FF66A
:10227000FE710840208001B030BD00000004004025
:102280000008004000100040001400400008014019
:10229000000C0140001001402424000870B50446E1
:1022A0000D461646B4F1804F1CBF564884421AD0E2
:1022B000554884421CBFDFF86001844213D0DFF828
:1022C0005C0184421CBF514884420CD05048844277
:1022D0001CBFDFF84001844205D040F26A71DFF88C
:1022E0004001FFF73DFA4FF6A070054200D12DB92D
:1022F00040F26B71DFF82801FFF732FA5EB1012E70
:1023000005D040F26C71DFF81801FFF729FAA089B7
:102310002843A08170BDA089A843A08170BD70B57D
:1023200006460C460025B6F1804F1CBF3548864254
:102330001AD0354886421CBFDFF8DC00864213D035
:10234000DFF8D80086421CBF304886420CD03048A7
:1023500086421CBFDFF8BC00864205D04FF4FF6107
:10236000DFF8BC00FFF7FCF9012C18BF022C0DD0E0
:10237000042C18BF082C09D0102C18BF402C05D0F5
:1023800040F2F971DFF89800FFF7EAF9308AB18975
:10239000214020421CBF00290125284670BD30B5D0
:1023A00081B004460D46B4F1804F1CBF15488442ED
:1023B00019D0154884421CBFDFF85C00844212D05B
:1023C000DFF8580084421CBF104884420BD01048EC
:1023D00084421CBF0F48844205D040F61F01DFF83D
:1023E0004000FFF7BDF94FF6A070054200D12DB9AE
:1023F0004FF40261DFF82800FFF7B2F9E8432082CA
:1024000001B030BD00040040000800400008014059
:10241000000C01400010014000100040001400407A
:1024200024240008433A5C30304669726D7761724B
:1024300065576F726B696E6741436861755C576F72
:10244000726B696E675C475453565F52616E676585
:10245000486F6F645C4C69627261726965735C534A
:10246000544D33324C3178785F53746450657269DF
:1024700070685F4472697665725C7372635C7374D2
:102480006D33326C3178785F74696D2E63000000B3
:1024900010B5354C0020A06160612061E06184F8D6
:1024A00028002046FEF70EFB60684FF4FA61B0FB8F
:1024B000F1F0B0F1807F0CD22C490002000A401EDE
:1024C0004860F02081F8130D002088600720086024
:1024D00010BDFEE72448416982690369142B10D3BB
:1024E000143B0361491CC3695B1CC3610A2922BFF9
:1024F0000A39521C0A2A04D30A3A836A43F00103B8
:10250000836282614161704710B5174C2069401C9D
:102510002061E06A10B1E06A401EE062FFF7DAFF76
:10252000A06A810704D520F00600A062C8202062BE
:10253000A06A010704D520F01800A062C8206062DC
:10254000206A30B1401E206203D1A06A40F004002E
:10255000A062606A30B1401E606203D1A06A40F0A0
:102560001000A06210BD00009400002010E000E008
:1025700070B5DFF8304300202083DFF82C53DFF8FC
:102580002C6330788821084203D1DFF824030088C7
:102590002083307D084205D1208BDFF81413498851
:1025A0000843208302202870208B68B1FDF710FEBD
:1025B000DFF80003017834F811107181407834F8A5
:1025C0001000F0830220287070BD70B5DFF8E8427B
:1025D00000202083DFF8D052DFF8D06296F8280080
:1025E0008821084203D1DFF8C802808820830320B5
:1025F0002870208B48B1FDF79DFEDFF8C0020078FF
:1026000034F8100070860320287070BD70B5DFF8B4
:10261000B04200202083DFF89052DFF8906296F8F5
:102620003C008821084203D1DFF88402C08820835F
:1026300004202870208B50B1FDF72BFFDFF88402B7
:10264000007834F81000A6F846000420287070BD09
:1026500070B5954C002020706FF00905DFF86862B6
:1026600000F03EF930688021017030684421017427
:10267000306843214174306885742078401C207094
:10268000C0B20428ECD370BD10B500F029F900F0F9
:1026900031F98D4C20680178012973D002290CD0C2
:1026A000042940D0082912D011295AD0142923D046
:1026B000242942D0802972D076E0408908384EF231
:1026C000016180B2884267D200F06FF8206800791B
:1026D000800758BF00F097F920687C490A888388F2
:1026E0001A430A807A490A7803781A430A704168C3
:1026F00021F00801416010BD7649B1F9001090F950
:10270000100081420CDB00F091F92068817B491EAA
:1027100081732068807B0028DED100F022F9DBE79E
:1027200000F006F9D8E7408908384EF2016180B21E
:10273000884231D200F072F8C8E790F91110654A6A
:10274000B2F90020914209DB817B491E8173206828
:10275000807B0028C0D100F0D7F8BDE700F01AF95F
:10276000BAE790F912105B4AB2F900209142D7DB28
:10277000817B491E81732068807B0028ACD100F0EA
:1027800017F9A9E7408908384EF2016180B2884202
:1027900002D200F075F899E700F022F99CE7007981
:1027A00000F003000328E9E7FEE730B581B0494DAA
:1027B000B5F90000444C216891F91220824204DBF3
:1027C00001B0BDE8304000F0EAB891F9101088423D
:1027D00022DB00F0BDF840480078E8B92068817B32
:1027E000491C8173B5F90000216891F910108842E5
:1027F0000DDB00F01BF92068817B491E8173206886
:10280000807B48B901B0BDE8304000F0AAB801B003
:10281000BDE8304000F08CB801B030BD30B581B0BB
:102820002C4C294D286890F91100B4F90010884209
:102830001FDB00F0A6F829480078F8B92868817BEA
:10284000491C8173286890F91110B4F90020914255
:102850000ADB817B491E81732868807B70B901B0D7
:10286000BDE8304000F050B801B0BDE8304000F0A5
:1028700091B801B0BDE8304000F012B901B030BDF0
:10288000114801688A894B899A188A810A7A521EEE
:102890000A720068017A21B98189C908818100F032
:1028A00033B87047E8000020C50000204400002035
:1028B000E42E0008E02E000804010020E22E0008AB
:1028C00020010020E32E000898010020E0000020F5
:1028D000E4000020A2010020C7000020C800002062
:1028E000CC48007800EB8001CB4800EB8100CB495D
:1028F00008607047C9480068B0F90C10B0F90A00C8
:10290000081AC74908807047C44801684A6842F0FD
:1029100008024A6002220A700068416821F004013E
:10292000416021F08001416021F020014160704749
:10293000BA48016802220A700068416821F0040167
:10294000416021F08001416021F020014160704729
:10295000B248016814220A700068B249097881738C
:102960007047AE48016804220A700068416841F06F
:102970000401416041F008014160AB4909780172EE
:102980007047A648016824220A700068A7490978A0
:1029900081737047A14800680421017070479F4807
:1029A000016811220A700068A14909788173704793
:1029B0009A48016801220A7001684A6822F00402FC
:1029C0004A6042F008024A6022F080024A6022F027
:1029D00020024A6008220A72006800218181704743
:1029E0008E48016808220A700068416821F00401DD
:1029F000416041F00801416021F08001416041F0F7
:102A00002001416070478548016880220A70006893
:102A1000416821F00401416041F00801416021F06A
:102A20008001416021F02001416070477B480068CF
:102A300041680A0600D5704770B4427A754B1B781E
:102A4000754C6BB1657A1646354207D025792D064F
:102A500004D5817B491C817370BC7047012B08D061
:102A6000657F1646354202D0257E2D06F1D4022B15
:102A700009D094F83150354203D094F82C502D06EB
:102A8000E7D4032B07D094F84530134203D094F8D1
:102A900040201206DDD441F08001416070BC7047D7
:102AA00064480078C0070DD55F48007850B15B4896
:102AB00001680A7A521E0A720068007A002808BF6C
:102AC000FFF776BF70472DE9F04F012080F31088A3
:102AD00059485A490A68026000220A6082F3108845
:102AE0004FF0FF314E4A4D4BDFF82C81494DDFF856
:102AF0005091DFF850A10468002C00F08880641E1B
:102B000004609AF80040002C1CBF641E8AF8004044
:102B10004D4C2478641E5FFA84FCBCF1000F08D190
:102B20004FF00A0C99F80040002C1CBF641E89F875
:102B30000040454C84F800C0444C94F800C04FF06D
:102B4000010E00242C7046461E603778142F18BFE3
:102B5000042F18BF242F04D13D4C247889F800405D
:102B60001DE0022F14D1B6F90CB0B6F90A70ABEB28
:102B7000070717803FB2002F06D003D5012C03DAD8
:102B80000C4605E0002C02D54FF0000E00E00124B9
:102B90002F787F1C2F701436FFB2042FD4D39AF8ED
:102BA000004099F800603443A5D12A4C24788AF873
:102BB0000040BEF1000F1CBF274C94F800C08CF001
:102BC000FF04641C5FFA84FEBCF1000F93D0002464
:102BD0002C702C7804EB840608EB86041C602678A5
:102BE000022E0DD1A689E77B07EB062667893F02F7
:102BF00007FB0CF706FB0E76370CA781360AE67347
:102C00002C78641C2C70E4B2042CE2D373E70160CE
:102C1000BDE8F08FC500002044000020980100208E
:102C2000A2010020C7000020C6000020C80000202C
:102C3000C9000020DC0000209C010020B000002022
:102C4000CF000020CE000020D0000020CD000020CA
:102C5000CB000020CA000020CC0000207047FEE717
:102C6000FEE7FEE7FEE7FEE7FEE7FEE710B5FFF74B
:102C70004BFC30490888401C088080B20A2190FB38
:102C8000F1F101EB8102B0EB420135D12A490A682A
:102C900042F001020A60322390FBF3F403FB1403B9
:102CA00053BB42F002020A60642390FBF3F403FB7F
:102CB00014030BBB42F004020A60C82390FBF3F438
:102CC00003FB140313B942F008020A604FF4967232
:102CD00090FBF2F302FB13021AB90A6842F02002D9
:102CE0000A604FF4FA7290FBF2F302FB130018B97A
:102CF000086840F010000860BDE81040FEF7EABD2B
:102D000010B50E4C01212046FFF709FB28B1012127
:102D10002046BDE81040FFF742BB10BD00B581B0B2
:102D2000FEF7EFFD0121064801B05DF804EBFFF767
:102D300036BB0000A001002054010020001000401C
:102D4000001400400120FFF7E5B800B581B0012074
:102D5000FFF7AAF94FF48040FFF726F80020FFF7AD
:102D6000A3F94FF4801001B05DF804EBFFF7D2B87F
:102D700082B03248016841F4807101608168304A54
:102D80001140816001682F4A11400160016821F4FF
:102D900080210160816821F47D0181600021C16092
:102DA00001910091016841F001010160016801F0A9
:102DB000020100910199491C0191009919B90199E9
:102DC000B1F5A06FF2D10168490801F0010100914D
:102DD000009901292FD1D0F8001441F00401C0F866
:102DE0000014D0F8001441F00201C0F80014D0F82B
:102DF000001441F00101C0F80014416A41F0805113
:102E0000416211494FF400620A604A68D206FCD45C
:102E100081688160816881608168816081688908DA
:102E200089008160816841F001018160816801F061
:102E30000C010429FAD102B07047000000380240AA
:102E40000CC0FF88FEFFFEEE0070004010B5074981
:102E500079441831064C7C44163404E0081D0A6895
:102E6000511888470146A142F8D110BD0800000062
:102E700028000000EFE8FFFF600100004400002090
:102E8000000000002FE3FFFF4400000044010000A9
:102E9000000000200000000000F009F8002801D028
:102EA000FFF7D4FF0020FEF711FB00F002F801202D
:102EB000704700F001B800000746384600F002F8FD
:102EC000FBE7000001491820ABBEFBE7260002002B
:102ED0000148804701480047712D0008ED2E000889
:102EE000020606060400400040004000C046C046FE
:102EF000C046C046FFF7D0FFFFF7B0BEFFF7AFBE3A
:102F0000FFF7AEBEFFF7ADBEFFF7ACBEFFF7ABBE3F
:102F1000FFF7AABEFFF7A9BEFFF7A8BEFFF7FEBFE7
:102F2000FFF7FEBFFFF7FEBFFFF70FBFFFF7FEBFC4
:102F3000FFF7FEBFFFF706BFFFF7FEBFFFF7FEBFBD
:102F4000FFF7FEBFFFF7FEBFFFF7FEBFFFF7FEBFB5
:102F5000FFF7FEBFFFF7FEBFFFF7FEBFFFF7FEBFA5
:102F6000FFF7FEBFFFF7FEBFFFF7FEBFFFF7FEBF95
:102F7000FFF7FEBFFFF7FEBFFFF7FEBFFFF7FEBF85
:102F8000FFF7FEBFFFF7FEBFFFF7FEBFFFF7FEBF75
:102F9000FFF7FEBFFFF7FEBFFFF7FEBFFFF7FEBF65
:102FA000FFF7FEBFFFF7FEBFFFF7FEBFFFF7FEBF55
:102FB000FFF7FEBFFFF7FEBFFFF7FEBFFFF7FEBF45
:102FC000FFF7FEBFFFF7FEBFFFF79ABEFFF7A6BEF3
:102FD0000024F400030406080C1018203000000040
:102FE00000000000010204000000000000000000DA
:102FF0000102030406070809030406080C10182040
:10300000300000000000000001020304010203047C
:04301000060708099E
:0400000508002EEDD4
:00000001FF
